:020000040800F2
:100000006809002045010008F5310008F7310008B3
:10001000FB310008FF310008033200080000000037
:10002000000000000000000000000000073200088F
:1000300009320008000000000B3200082B320008D3
:100040005F0100085F0100085F0100085F01000810
:100050005F0100085F0100085F0100085F01000800
:100060000D3200085F0100085F0100085F01000811
:100070005F0100085F0100085F0100085F010008E0
:100080005F0100085F0100085F0100085F010008D0
:100090005F0100085F0100085F010008A55C00081F
:1000A0005F0100085F0100085F0100085F010008B0
:1000B0005F0100085F0100085F0100085F010008A0
:1000C0005F0100085F0100085F0100085F01000890
:1000D0005F010008E73400085F0100085F010008C5
:1000E0005F0100085F0100085F0100085F01000870
:1000F0005F0100085F0100085F0100085F01000860
:100100005F0100085F0100085F0100085F0100084F
:100110005F0100085F0100085F0100085F0100083F
:100120005F0100085F0100085F0100085F0100082F
:10013000DFF80CD006F096FF00480047FB2C0008C3
:10014000680900200648804706480047FEE7FEE7AA
:10015000FEE7FEE7FEE7FEE7FEE7FEE7FEE7FEE777
:1001600047020008310100080CB500200190009002
:100170006C48006840F480306A49086000BF6948F4
:10018000006800F4003000900198401C0190009835
:1001900018B90198B0F5A06FF1D16248006800F479
:1001A000003010B10120009001E000200090009884
:1001B000012843D15C48006840F010005A490860AB
:1001C0000846006820F0030008600846006840F018
:1001D0000200086053484068524948600846406839
:1001E00048600846406840F48060486008464068BF
:1001F00020F47C1048600846406840F4E8104860ED
:100200000846006840F08070086000BF45480068FC
:1002100000F000700028F9D04248406820F0030048
:10022000404948600846406840F00200486000BF0E
:100230003C48406800F00C000828F9D10CBD10B50E
:10024000FFF792FF10BD10B53648006840F001007E
:1002500034490860084640683449084031494860DC
:1002600008460068324908402E4908600846006880
:1002700020F4802008600846406820F4FE004860B2
:100280004FF41F008860FFF7DAFF4FF00060294944
:10029000086010BD10B5002100200022214B5B68D2
:1002A00003F00C0121B1042906D0082928D107E068
:1002B000214B224C236027E01F4B204C236023E07E
:1002C000184B5B6803F47010164B5B6803F48032C4
:1002D000022303EB904022B9194B4343174C236090
:1002E0000DE0104B5B6803F4003323B1144B434320
:1002F000124C236003E0104B4343104C236003E097
:100300000D4B0E4C236000BF00BF064B5B68C3F370
:1003100003130C4CE15C094B1B68CB40074C23607A
:1003200010BD000000100240002002400000FFF855
:10033000FFFFF6FE08ED00E000127A00000000204A
:1003400000093D000400002031490143314A116099
:10035000704770B5002100230F22C47804B32D4CE0
:10036000246804F4E064C4F5E064210AC1F10403E4
:10037000CA40447804FA03F1847814402143090107
:10038000254C0678A155047804F01F050124AC40E3
:1003900005786D11AD0005F1E025C5F8004109E0D3
:1003A000047804F01F050124AC401C4D067876113A
:1003B00045F8264070BD1A4A0A400243154B1B1FE0
:1003C0001A60704739B1134A121D12680243114B6B
:1003D0001B1D1A6006E00F4A121D126882430D4B66
:1003E0001B1D1A607047042808D14FF0E0210969ED
:1003F00041F004014FF0E022116107E04FF0E021ED
:10040000096921F004014FF0E022116170470000FA
:100410000000FA050CED00E000E400E080E100E0FF
:1004200080FFFF1F002044490860091D0860091D66
:100430000860091D086041483F4914310860704751
:1004400000213D498279002A3AD00A4612680368A1
:100450009A430B461A600A1D126803689A430B1DE3
:100460001A60027911440A6803681A430A60324A22
:100470000832126803689A432F4B08331A601A1D1A
:10048000126803689A432C4B0C331A604279102A85
:100490000ED11A1F126803681A43274B08331A60DB
:1004A0001A1D126803681A43234B0C331A600DE0BF
:1004B0002149427911440A6803681A430A6005E039
:1004C000027911440A6803689A430A607047002160
:1004D000016001710C214171002181717047164941
:1004E000103109680143144A103211607047014607
:1004F0000020114A143212680A400AB1012000E0BB
:10050000002070470C4914310860704701460020F4
:100510000022094B1B6803EA0102074B14331B68D6
:100520000B4013B10AB1012000E0002070470249DE
:10053000143108607047000000040140FFFF0F0005
:1005400001460020FE4A106800F0380008431060A1
:100550007047FB49096821F00801F94A116011460A
:100560000968014311607047F549096821F01001DD
:10057000F34A116011460968014311607047F14860
:10058000EF494860F04848607047EE48EC494860E1
:10059000ED4848607047EA48006940F08000E8494B
:1005A00008617047E648006940F08000E44908614E
:1005B00070470420E249C96801F0010109B1012036
:1005C0000EE0DF49C96801F0040109B1022007E02B
:1005D000DB49C96801F0100109B1032000E00420E3
:1005E000704700B502460423FFF7E3FF034603E02C
:1005F000FFF7DFFF0346521E012B01D1002AF7D17E
:1006000002B90523184600BD30B5044604254FF451
:100610003020FFF7E6FF0546042D17D1C8480069D2
:1006200040F00200C649086108464461006940F094
:10063000400008614FF43020FFF7D3FF0546C04863
:10064000006941F6FD710840BD490861284630BD8A
:1006500010B504244FF43020FFF7C3FF0446042CE8
:1006600016D1B748006940F00400B5490861084652
:10067000006940F0400008614FF43020FFF7B1FFFF
:100680000446AF48006941F6FB710840AC49086177
:10069000204610BD00B502460423FFF78AFF03463B
:1006A00003E0FFF786FF0346521E012B01D1002A0B
:1006B000F7D102B90523184600BD10B504244FF444
:1006C0003020FFF7E7FF0446042C16D19C48006950
:1006D00040F004009A4908610846006940F0400073
:1006E00008614FF43020FFF7D5FF044694480069B5
:1006F00041F6FB71084092490861204610BD002078
:100700008F49C96901F0020109B1012000E0002010
:10071000704730B5A5250424FFF7F1FF00B100258F
:100720004FF43020FFF75DFF0446042C3AD1854892
:1007300083498860844888600846006940F020004A
:1007400008610846006940F0400008614FF430201D
:10075000FFF747FF0446042C1BD17948006941F696
:10076000DF710840764908610846006940F01000D2
:10077000086176480580E002FFF733FF0446052C48
:1007800010D06F48006941F6EF7108406C4908616C
:1007900008E0052C06D06A48006941F6EF71084070
:1007A00067490861204630BD78B506460C460425E9
:1007B00000200090E802FFF714FF0546042D24D125
:1007C0005F48006940F001005D4908613480E8023B
:1007D000FFF707FF0546042D10D1B01C0090200C38
:1007E00000990880E802FFF7FCFE054654480069BE
:1007F00041F6FE7108405249086106E05048006920
:1008000041F6FE7108404E490861284678BD70B532
:1008100004460D460426F002FFF7E3FE0646042ECA
:1008200011D14748006940F0010045490861258021
:10083000F002FFF7D6FE06464148006941F6FE7118
:1008400008403F490861304670BD70B505460E4608
:100850000424E002FFF7C5FE0446042C17D13948F2
:1008600037498860384888600846006940F01000C1
:1008700008612E80E002FFF7B4FE0446052C06D086
:100880002F48006941F6EF7108402D490861204664
:1008900070BD2DE9F04304464FF6FF763746B0466B
:1008A000B1460425E443E6B2C4F30727C4F307487E
:1008B0004FEA1469E802FFF794FE0546042D49D17A
:1008C00020481F498860204888600846006940F039
:1008D00010000861FF2E06D01C4808300680E80290
:1008E000FFF77FFE0546042D08D1FF2F06D01748DD
:1008F0000A300780E802FFF774FE0546042D0AD18E
:10090000B8F1FF0F07D011480C30A0F80080E802C2
:10091000FFF767FE0546042D0AD1B9F1FF0F07D096
:100920000A480E30A0F80090E802FFF75AFE05468C
:10093000052D0FD00248006941F6EF71084007E02D
:100940000020024023016745AB89EFCD00F8FF1F6F
:10095000664908612846BDE8F08330B505460424A1
:100960004FF43020FFF73DFE0446042C41D160488F
:100970005E4988605F4888600846006940F0200052
:1009800008610846006940F0400008614FF43020DB
:10099000FFF727FE0446042C22D15448006941F693
:1009A000DF710840514908610846006940F01000B5
:1009B00008611DB100205049088002E0A5204E4981
:1009C00008804FF43020FFF70CFE0446052C10D0B1
:1009D0004648006941F6EF7108404449086108E063
:1009E000052C06D04148006941F6DF7108403F49B7
:1009F0000861204630BDF0B505460E461746042472
:100A00003B483A4988603B488860E002FFF7E9FDCF
:100A10000446042C19D13548006940F010003349D0
:100A2000086147F0F800304328433349891C0880A7
:100A3000E002FFF7D6FD0446052C06D02B480069DE
:100A400041F6EF710840294908612046F0BD27486A
:100A5000C069800870472548006A70470020234914
:100A6000096801F0200109B1012000E00020704771
:100A700029B11E4A126902431C4B1A6104E01B4A49
:100A800012698243194B1A617047014600200129FF
:100A900008D1164AD26902F001020AB1012008E029
:100AA000002006E0114AD2680A400AB1012000E0A5
:100AB000002070470D49C860704704200B49C96881
:100AC00001F0010109B101200EE00849C96801F0F7
:100AD000040109B1022007E00449C96801F01001CE
:100AE00009B1032000E0042070470000002002400C
:100AF00023016745AB89EFCD00F8FF1F10B5044611
:100B0000CC48844208D10121042000F02DFB0021B3
:100B1000042000F029FB46E0C748844208D10121A7
:100B2000082000F021FB0021082000F01DFB3AE026
:100B3000C248844208D10121102000F015FB002199
:100B4000102000F011FB2EE0BD48844208D10121A5
:100B5000202000F009FB0021202000F005FB22E00E
:100B6000B848844208D10121402000F0FDFA00215C
:100B7000402000F0F9FA16E0B348844208D1012180
:100B8000802000F0F1FA0021802000F0EDFA0AE068
:100B9000AE48844207D10121801500F0E5FA00211A
:100BA000A01500F0E1FA10BD10B50121084600F0D3
:100BB000DBFA0021012000F0D7FA10BD2DE9F04149
:100BC000024600250026002000230024002791F87B
:100BD00003C00CF00F0591F803C00CF0100CBCF131
:100BE000000F03D091F802C04CEA050591F800C04F
:100BF000BCF1000F31D0146800202BE04FF0010C45
:100C00000CFA00F3B1F800C00CEA03069E4220D1B2
:100C100083004FF00F0C0CFA03F7BC4305FA03FCFA
:100C20004CEA040491F803C0BCF1280F06D14FF040
:100C3000010C0CFA00FCC2F814C00AE091F803C0E1
:100C4000BCF1480F05D14FF0010C0CFA00FCC2F8C2
:100C500010C0401C0828D1D31460B1F800C0BCF10A
:100C6000FF0F34DD546800202EE000F1080C4FF037
:100C7000010808FA0CF3B1F800C00CEA03069E4222
:100C800021D183004FF00F0C0CFA03F7BC4305FA97
:100C900003FC4CEA040491F803C0BCF1280F05D111
:100CA00000F1080C08FA0CF8C2F8148091F803C09F
:100CB000BCF1480F07D100F1080C4FF0010808FA09
:100CC0000CF8C2F81080401C0828CED35460BDE850
:100CD000F0814FF6FF710180022181700421C17003
:100CE00070470246002093680B400BB1012000E0E2
:100CF000002070470146886880B270470246002095
:100D0000D3680B400BB1012000E000207047014682
:100D1000C86880B2704701617047416170470AB18D
:100D2000016100E041617047C16070474FF480325B
:100D30000A438261816182618269826970470246E9
:100D40000020434B18684FF68073184040EA0210A9
:100D500008433F4B186070473E49C8617047F0B583
:100D60000A46002300240021002500F00046B6F1C9
:100D7000004F02D1364EF16901E0354E7168C0F383
:100D8000034583B200F44016B6F5401F08D121F0A8
:100D900070612F4E766826F070662D4F7E6012E0EF
:100DA00000F48016B6F5801F06D1032606FA05F476
:100DB000A14341F0706106E0460D360103FA06F6E4
:100DC000B14341F0706122B1460D360103FA06F6D7
:100DD000314300F00046B6F1004F02D11C4EF161E4
:100DE00001E01B4E7160F0BD30B500228B071C0F77
:100DF0000F2303FA04F2164B08338C1053F82430F7
:100E00009343134C08348D1044F8253023468C103E
:100E100053F824308C07240F00FA04F423430C4CBD
:100E200008348D1044F8253030BD0A49DC310860A3
:100E30007047000000080140000C01400010014014
:100E40000014014000180140001C01400020014036
:100E50000000014000002042DF48006840F001002F
:100E6000DD49086008464068DC490840DA494860C6
:100E700008460068DA490840D74908600846006813
:100E800020F4802008600846406820F4FE00486096
:100E90004FF41F0088607047CF49096821F4803102
:100EA000CD4A11601146096821F480211160B0F526
:100EB000803F03D0B0F5802F0ED106E0C649096807
:100EC00041F48031C44A116007E0C349096841F424
:100ED000A021C14A116000E000BF00BF704710B5FB
:100EE00001460022002300204A11012A02D1BA4CF7
:100EF000236806E0022A02D1B74C236A01E0B64C0F
:100F0000636A01F01F02012494401C400CB10120CF
:100F100000E0002010BD38B500200090002400251E
:100F200000BF3120FFF7DBFF05460098401C009012
:100F30000098B0F5A06F01D0002DF2D03120FFF75E
:100F4000CEFF08B1012400E00024204638BD014650
:100F50000020A14A106820F0F80040EAC1001060AB
:100F60007047A04908607047024600209A4B5868B5
:100F700020F47C1042EA01031843974B58607047F5
:100F800098490866704701460020934A506820F04F
:100F900003000843506070478F48406800F00C0021
:100FA0007047014600208C4A506820F0F00008434A
:100FB0005060704701460020874A506820F4E06086
:100FC00008435060704701460020834A506820F46F
:100FD000605040EAC1005060704729B17E4A527AA1
:100FE00002437D4B5A7204E07B4A527A82437A4B29
:100FF0005A7270477B49D83108607047014600201B
:10100000754A506820F44040084350607047002102
:10101000714A20321170704A82F82010012802D0E3
:1010200004280AD104E001216B4A2032117005E046
:101030000521694A2032117000E000BF00BF7047EF
:101040006949086070476449096A0143624A11624C
:101050007047654944390860704730B50021002267
:10106000002400235C4D6D6805F00C0121B10429BA
:1010700005D0082923D105E05C4D056022E05B4DD9
:1010800005601FE0544D6D6805F47012524D6D6897
:1010900005F48034022505EB92421CB9544D5543AA
:1010A00005600BE04C4D6D6805F400351DB1504DE9
:1010B0005543056002E04D4D5543056002E04B4D40
:1010C000056000BF00BF444D6D6805F0F0010909DF
:1010D000484D6B5C0568DD4045603F4D6D6805F42B
:1010E000E061090A434D6B5C4568DD4085603A4D1F
:1010F0006D6805F46051C90A3E4D6B5C4568DD4082
:10110000C560354D6D6805F44041890B3A4D6B5C07
:10111000C568B5FBF3F5056130BD29B12E4A5269AA
:1011200002432D4B5A6104E02B4A526982432A4BF9
:101130005A61704729B1284A92690243264B9A6145
:1011400004E0254A92698243234B9A61704729B192
:10115000214AD2690243204BDA6104E01E4AD26977
:1011600082431D4BDA61704729B11B4AD2680243A2
:10117000194BDA6004E0184AD2688243164BDA60F1
:10118000704729B1144A12690243134B1A6104E0F3
:10119000114A12698243104B1A6170471249403953
:1011A000086070470F49C86470470B49C8717047A1
:1011B0000948406A40F0807007494862704701461C
:1011C0000020054A92680A400AB1012000E0002090
:1011D0007047014988727047001002400000FFF814
:1011E000FFFFF6FE000042428004424200127A00F5
:1011F00000093D00140000202400002010B5044622
:10120000FE48844208D10121C014FFF7ADFF002140
:10121000E014FFF7A9FFC4E0B4F1804F08D1012129
:101220000846FFF7AEFF00210120FFF7AAFFB8E054
:10123000F348844208D101210220FFF7A2FF0021D8
:101240000220FFF79EFFACE0EE48844208D1012166
:101250000420FFF796FF00210420FFF792FFA0E093
:10126000E948844208D101210820FFF78AFF0021C4
:101270000820FFF786FF94E0E448844208D101216A
:101280001020FFF77EFF00211020FFF77AFF88E093
:10129000DF48844208D101212020FFF772FF00219E
:1012A0002020FFF76EFF7CE0DA48844208D101215C
:1012B0004014FFF759FF00216014FFF755FF70E05D
:1012C000D548844209D10121C804FFF74DFF002110
:1012D0004FF40020FFF748FF63E0D048844209D173
:1012E00001210805FFF740FF00214FF48010FFF7B0
:1012F0003BFF56E0CA48844209D101214805FFF767
:1013000033FF00214FF40010FFF72EFF49E0C548DE
:10131000844208D101214020FFF733FF0021402003
:10132000FFF72FFF3DE0C048844208D10121802013
:10133000FFF727FF00218020FFF723FF31E0BB48A4
:10134000844208D101218015FFF71BFF0021A01561
:10135000FFF717FF25E0B648844209D101210804B0
:10136000FFF702FF00214FF48030FFF7FDFE18E089
:10137000B048844209D101214804FFF7F5FE00215D
:101380004FF40030FFF7F0FE0BE0AB48844208D189
:1013900001218804FFF7E8FE00214FF48020FFF7C9
:1013A000E3FE10BD00220288944B98420ED0994B68
:1013B00098420BD0B0F1804F08D0914B984205D0A5
:1013C000904B984202D0904B984204D14FF68F73C5
:1013D0001A404B881A438D4B984207D08C4B984249
:1013E00004D04FF6FF431A40CB881A4302808B8803
:1013F00083850B880385814B98420BD0854B98429F
:1014000008D08B4B984205D08A4B984202D08A4B29
:10141000984201D10B7A038601238382704770B50D
:10142000002400220023058C4FF6FE76354005840B
:10143000028C8388048B4FF68F752C40B51E2C4090
:101440000D882C43751E2A400D892A434D882A4356
:101450006A4DA8420BD06F4DA84208D0744DA842E7
:1014600005D0744DA84202D0734DA84213D14FF657
:10147000F7752A404D892A434FF6FB752A408D881F
:101480002A434FF6FF652B404FF6FF552B408D89C1
:101490002B43CD892B4383800483CD8885860284AA
:1014A00070BD70B5002400220023058C4FF6EF7646
:1014B00035400584028C8388048B48F6FF752C40E8
:1014C0004FF6FF452C400D884FF6FF7606EA0525BE
:1014D0002C434FF6DF752A400D8906EA05152A438D
:1014E0004D8806EA05152A43444DA84202D0494DCD
:1014F000A8421DD14FF67F752A404D894FF6FF76E1
:1015000006EA05152A434FF6BF752A408D8806EA7C
:1015100005152A434FF6FF352B404FF2FF752B4040
:101520008D8906EA85052B43CD8906EA85052B437F
:1015300083800483CD880587028470BD70B5002444
:1015400000220023058C4FF6FF6635400584028C8F
:101550008388848B4FF68F752C404FF6FC752C409A
:101560000D882C434FF6FF552A400D894FF6FF7624
:1015700006EA05252A434D8806EA05252A431F4D1C
:10158000A84202D0234DA8421DD14FF2FF752A4038
:101590004D894FF6FF7606EA05252A434FF6FF35BB
:1015A0002A408D8806EA05252A434EF6FF752B4012
:1015B0004DF6FF752B408D8906EA05152B43CD8925
:1015C00006EA05152B4383808483CD8885870284B2
:1015D00070BD70B5002200230024058C4EF6FF7606
:1015E00035400584038C8488828B48F6FF752A4039
:1015F0004FF6FF452A400D8820E00000002C0140F6
:101600000004004000080040000C004000100040B2
:101610000014004000340140004C014000500140E3
:101620000054014000180040001C00400020004011
:101630000040014000440140004801404FF6FF7661
:1016400006EA05252A434DF6FF752B400D8906EA6B
:1016500005352B434D8806EA05352B43FA4DA84244
:1016600002D0FA4DA84208D14BF6FF752C408D8967
:101670004FF6FF7606EA85152C4384808283CD8859
:10168000A0F84050038470BD828B4FF2FF331A40A4
:101690008283828B4FF6FF7303EA01231A4382830E
:1016A0007047F0B50C461546002200210026078C35
:1016B0004EF6FF7C07EA0C070784828B018C4FF6FD
:1016C000FF7707EA043640F6FF473A404FF6FF77C8
:1016D00007EA05273A434FF6FF7707EA03373A430D
:1016E000D94FB8420ED0D94FB8420BD0B0F1804F8D
:1016F00008D0D74FB84205D0D64FB84202D0D64F07
:10170000B84206D14DF6FF77394046F48057394349
:1017100005E047F6FF57394044F480573943828348
:101720000184F0BD828B4FF6F3731A408283828B63
:101730000A4382837047F0B50C461546002200210B
:101740000026078C4FF6FF6C07EA0C070784828B94
:10175000018C4FF6FF7707EA04264FF60C773A40E4
:101760004FF6FF7707EA03172F433A43B64FB842C5
:101770000ED0B64FB8420BD0B0F1804F08D0B44F66
:10178000B84205D0B34FB84202D0B34FB84206D1E9
:101790004FF6FF57394046F48077394305E04FF262
:1017A000FF57394044F48077394382830184F0BD88
:1017B000028B4FF2FF331A400283028B4FF6FF7306
:1017C00003EA01231A4302837047F0B50C4615461D
:1017D000002200210026078C4FF6EF7C07EA0C0759
:1017E0000784028B018C4FF6FF7707EA041640F658
:1017F000FF473A404FF6FF7707EA03373A434FF681
:10180000FF7707EA05273A438F4FB8420ED08F4F34
:10181000B8420BD0B0F1804F08D08D4FB84205D000
:101820008C4FB84202D08C4FB84206D14FF6DF77CA
:10183000394046F01007394305E04FF65F773940ED
:1018400044F01007394302830184F0BD028B4FF648
:10185000F3731A400283028B0A4302837047F0B588
:101860000C46154600220021068C4FF6FE773E40BE
:101870000684028B018C4FF60C7632407E1C06EA01
:1018800003162E433243704EB0420ED06F4EB0421C
:101890000BD0B0F1804F08D06D4EB04205D06D4EE8
:1018A000B04202D06C4EB04206D14FF6FD763140C8
:1018B00044F00106314305E04FF6F576314044F03F
:1018C0000106314302830184F0BD70B505460C4624
:1018D0005D4885420ED05D4885420BD0B5F1804F02
:1018E00008D05B48854205D05A48854202D05A4804
:1018F000854200D100E000BF208850B92389A2882A
:1019000061882846FFF7ABFFE1882846FFF79EFF76
:1019100025E0208804280AD12389A28861882846E6
:10192000FFF753FFE1882846FFF742FF17E02088C2
:1019300008280AD12389A28861882846FFF7FBFE80
:10194000E1882846FFF7EEFE09E02389A288618836
:101950002846FFF7A6FEE1882846FFF795FE70BDF2
:101960002DE9F04105460C4600260127608808B99C
:10197000022600E00026A088012801D1022700E00D
:1019800001272088A0B92389A28861882846FFF70B
:1019900066FFE1882846FFF759FF23893A4631461A
:1019A0002846FFF712FFE1882846FFF701FF13E002
:1019B0002389A28861882846FFF707FFE188284627
:1019C000FFF7F6FE23893A4631462846FFF747FFE0
:1019D000E1882846FFF73AFFBDE8F0810A884B8886
:1019E0001A438B881A43CB881A430B891A434B89B5
:1019F0001A438B891A43A0F8442070474FF6FF71B1
:101A0000818000210180C1804180017270470021E6
:101A1000018041808180C180018141818181C181BA
:101A20007047002101804180012181800021C18017
:101A3000018170470021018041808180C180018146
:101A40004181818170470000002C01400034014039
:101A50000004004000080040000C004021B1028852
:101A600042F00102028004E002884FF6FE731A4041
:101A70000280704731B1B0F8442042F40042A0F82F
:101A8000442005E0B0F84420C2F30E02A0F8442040
:101A900070471AB183890B43838102E083898B43AA
:101AA000838170478182704741EA0203A0F8483081
:101AB00070471AB183890B43838102E083898B438A
:101AC0008381704701894FF6F87211400181704798
:101AD0000A46002101894FF68F7319401143018195
:101AE000704730B504460D4629462046FFF7F0FF03
:101AF000208940F00700208130BD2DE9F0410446E7
:101B00000D4616461F46602D06D13B460122314642
:101B10002046FFF75AFE05E03B46012231462046AB
:101B2000FFF79DFE29462046FFF7D2FF208940F0AF
:101B300007002081BDE8F08130B50C460021018905
:101B4000C9B24FF6FF7505EA03251543254329431E
:101B5000018130BD2DE9F04105460E4617469846F5
:101B6000002443463A4631462846FFF7E5FF2C89D4
:101B70004FF6F870044044F007044FF68F700440AD
:101B800044F070042C81BDE8F081F0B504460D46A8
:101B900016461F463B46324629462046FFF7CCFFF5
:101BA000208940F480402081F0BD01858282704709
:101BB0000A46002101884FF68F73194011430180B6
:101BC0007047F0B50C4615461E4600210022002342
:101BD0000189028B038C4FF6F877394021434FF689
:101BE000FC473A4040F201173A434FF6DD773B405D
:101BF0004FF6FF7707EA06172F433B430181028325
:101C00000384F0BD0A460021018B4FF68F73194003
:101C10001143018370470A460021018B48F6FF7388
:101C200019404FF6FF7303EA0223194301837047FB
:101C30000A460021818B4FF68F731940114381832F
:101C400070470A460021818B48F6FF7319404FF612
:101C5000FF7303EA022319438183704721B102888D
:101C600042F08002028004E002884FF67F731A403F
:101C70000280704721B1828842F00402828004E031
:101C800082884FF6FB731A408280704721B18288A8
:101C900042F00802828004E082884FF6F7731A400F
:101CA0008280704721B1828842F00102828004E084
:101CB00082884FF6FE731A40828070470A460021E0
:101CC000018B4FF6F77319401143018370470A46A1
:101CD0000021018B4FF2FF7319404FF6FF7303EAA7
:101CE00002231943018370470A460021818B4FF676
:101CF000F77319401143818370470A460021818B95
:101D00004FF2FF7319404FF6FF7303EA02231943A2
:101D1000818370470A460021018B4FF6FB731940FF
:101D20001143018370470A460021018B4FF6FF33B0
:101D300019404FF6FF7303EA0223194301837047EA
:101D40000A460021818B4FF6FB73194011438183B2
:101D500070470A460021818B4FF6FF3319404FF63A
:101D6000FF7303EA02231943818370470A46002167
:101D7000018B4FF67F7319401143018370470A4668
:101D80000021018BC1F30E014FF6FF7303EA02231A
:101D90001943018370470A460021818B4FF67F73F8
:101DA00019401143818370470A460021818BC1F39A
:101DB0000E014FF6FF7303EA022319438183704734
:101DC0000A460021018C4FF6FD731940114301842E
:101DD00070470A460021018C4FF6F77319401143F2
:101DE000018470470A460021018C4FF6DF731940C9
:101DF0004FF6FF7303EA02131943018470470A4642
:101E00000021018C4FF67F7319404FF6FF7303EAF0
:101E100002131943018470470A460021018C4FF6D2
:101E2000FF5319404FF6FF7303EA0223194301845D
:101E300070470A460021018C4FF2FF7319404FF69C
:101E4000FF7303EA02231943018470470A46002105
:101E5000018C4DF6FF7319404FF6FF7303EA02330E
:101E600019430184704730B5002301248C40A3B28C
:101E7000048C9C430484048C02FA01F5ADB22C431B
:101E8000048430BD30B5002304248C40A3B2048CFC
:101E90009C430484048C02FA01F5ADB22C43048403
:101EA00030BD70B5034600200024184618300125C7
:101EB0008D40ACB21D8CA5431D8409B1082909D100
:101EC00000EB6100056825F07005056005681543A5
:101ED00005600EE00D1FC5F34E052844056825F486
:101EE000E045056005684FF6FF7606EA02263543B1
:101EF000056070BD21B1028842F00202028004E058
:101F000002884FF6FD731A400280704721B10288A3
:101F100042F00402028004E002884FF6FB731A408C
:101F20000280704721B1828842F08002828004E002
:101F300082884FF67F731A408280704702884FF67E
:101F4000F7731A40028002880A4302807047828831
:101F50004FF68F731A40828082880A4382807047CE
:101F600002894FF6F8731A40028102890A430281FE
:101F7000704702894FF67F731A40028102890A4333
:101F800002817047818470478185704781867047E0
:101F90000187704781877047A0F84010704702881A
:101FA0004FF6FF431A40028002880A4302807047BE
:101FB0000146888E70470146088F70470146888F1A
:101FC00070470146B1F8400070470146888C704761
:101FD0000146088D704702460020138A0B400BB162
:101FE000012000E000207047CA430282704730B5EC
:101FF0000246002000230024158A05EA0103958982
:1020000005EA010413B10CB1012000E0002030BD4D
:10201000CA4302827047000010B50446FB48844260
:1020200009D101218803FFF79FF800214FF4804078
:10203000FFF79AF832E0F648844209D101214804BA
:10204000FFF79FF800214FF40030FFF79AF825E0E2
:10205000F048844209D101218804FFF792F8002159
:102060004FF48020FFF78DF818E0EB48844209D147
:102070000121C804FFF785F800214FF40020FFF785
:1020800080F80BE0E548844208D101210805FFF7FC
:1020900078F800214FF48010FFF773F810BD2DE998
:1020A000F04786B005460E460024A24600BFA14672
:1020B0000027B08900B100BF2F462C8A4CF6FF7074
:1020C0000440F08804432C82AC894EF6F31004409F
:1020D000B08831890843718908430443AC81AC8AD4
:1020E0004FF6FF400440B0890443AC8201A8FEF7DC
:1020F000B4FFC648874202D1DDF810A001E0DDF848
:102100000CA0A88900F4004040B10AEBCA0000EB23
:102110000A1031684900B0FBF1F807E00AEBCA0089
:1021200000EB0A1031688900B0FBF1F86420B8FBBD
:10213000F0F004012009642101FB1089A88900F452
:10214000004040B1322000EBC900B0FBF1F000F0DC
:102150000700044308E0322000EB09106421B0FBC3
:10216000F1F000F00F0004432C8106B0BDE8F087C9
:102170004FF41651016000218180C18001810C2142
:10218000418100218181704710B502460020108AEC
:102190004FF2FF0318400B884C8823438C8823435D
:1021A000CC8823431843108210BD00210180418058
:1021B0008180C180704721B1828942F400528281BE
:1021C00004E082894DF6FF731A4082817047F0B5B2
:1021D0000346002400260025002040F66A17B94275
:1021E00000D100BF1846C1F3421401F01F060127B9
:1021F00007FA06F5012C01D10C3004E0022C01D1C4
:10220000103000E014301AB107682F43076002E075
:102210000768AF430760F0BD1AB1838A0B4383821E
:1022200002E0838A8B4383827047028A4FF6F07301
:102230001A400282028A0A430282704782894FF260
:10224000FF731A40828182890A438281704721B1DB
:10225000828942F00202828104E082894FF6FD7396
:102260001A4082817047028A4FF6DF731A40028259
:10227000028A0A430282704721B1028A42F48042F4
:10228000028204E0028A4BF6FF731A400282704712
:10229000C1F308028280704701468888C0F30800B5
:1022A0007047818941F0010181817047028BD2B270
:1022B0000283028B42EA012202837047028B02F4FE
:1022C0007F420283028B0A430283704721B1828AD4
:1022D00042F02002828204E0828A4FF6DF731A40C5
:1022E0008282704721B1828A42F01002828204E029
:1022F000828A4FF6EF731A408282704721B1828A38
:1023000042F00802828204E0828A4FF6F7731A4094
:102310008282704721B1828942F40042828103E0C7
:102320008289C2F30E028281704721B1828A42F40F
:102330000062828204E0828A4FF2FF731A40828236
:102340007047828A4FF6FB731A408282828A0A4360
:102350008282704721B1828A42F00202828204E0C6
:10236000828A4FF6FD731A4082827047024600202F
:10237000B1F5007F00D100BF13880B400BB10120E5
:1023800000E00020704701F40072B2F5007F00D138
:1023900000BFCA430280704770B502460024002384
:1023A0000025002040F66A16B14200D100BFC1F3FB
:1023B000421501F01F03012606FA03F3012D02D195
:1023C0009689334006E0022D02D1168A334001E09F
:1023D000968A33400C12012606FA04F4168834401B
:1023E00013B10CB1012000E0002070BD10B5002237
:1023F000002340F66A14A14200D100BF0A12012452
:102400009440A3B2DC43048010BD000000380140BA
:102410000044004000480040004C00400050004094
:1024200008B54FF4A060FDF78FFF25208DF8000060
:1024300000208DF8010002208DF8020001208DF8A7
:1024400003006846FDF785FF08208DF80000002096
:102450008DF8010001208DF802008DF80300684618
:10246000FDF777FF17208DF8000000208DF80100A0
:102470008DF8020001208DF803006846FDF769FF22
:1024800008BD2DE9F041F9A004F07AFE8820FD494D
:10249000487088700020FC490870FF20FB49887054
:1024A000487008700020C87008716420F8490870EE
:1024B0004FF07C50F7490860F7490888F7490988C8
:1024C00003F052FFF4494888F149097803F04CFFC2
:1024D000EE4A1179F04A908803F046FFE94A5278B3
:1024E000E84B9B7842EA0321EB4AD08803F03CFF9B
:1024F000E9490889EA49098803F036FFE34A117877
:10250000E54A508903F030FFE04A5178E24A908969
:1025100003F02AFFDD4A9178DF4AD08903F024FFD7
:10252000DA4AD178DC4A108A03F01EFFDA49488A79
:10253000D549097803F018FFD749888AD94909781D
:1025400003F012FFD849D348006804F0ABF9054600
:1025500004F0C3FB84B2D049C88A214603F004FFCB
:10256000D24801F0AFFACE48008804F0A9FB064635
:102570000022CF4B04F01FFB044622460B46CDA0A1
:1025800004F0FEFDC548008804F09AFB06460022D0
:10259000C74B04F010FB044622460B46CBA004F0C8
:1025A000EFFDBB480178CFA004F0EAFDB748C27840
:1025B0000179D1A004F0E4FDB44883784278017831
:1025C000D3A004F0DDFDAF4842788178AE480378AF
:1025D000D4A004F0D5FDAE48007804F071FB0646A7
:1025E0000022D74B04F0E7FA044604F0B6FBA949F1
:1025F0000860A748007802F028FABDE8F08110B51D
:1026000003F095FBCF4908700846007862284FD048
:1026100008460078A2284BD008460078E22847D028
:1026200008460078C22843D00846007890283FD05A
:102630000846007868283BD008460078302837D014
:1026400008460078182833D0084600787A282FD01A
:102650000846007810282BD008460078382827D064
:10266000084600785A2823D00846007842281FD010
:10267000084600784A281BD008460078522817D010
:1026800008460078A82813D008460078E0280FD024
:102690000846007822280BD008460078022807D088
:1026A00008460078982803D008460078B0285ED104
:1026B000A548007801283AD1FF20A4490870A44811
:1026C0008078062802DB052001F0FCF970480078CC
:1026D000E8B99C480078A82807D09A480078E028F4
:1026E00003D098480078902803D1002099490870B9
:1026F00003E09448007897490870964802F086FEF7
:10270000012095490870962002F09FF925E08D4838
:102710000078902803D100208E49087003E0894892
:1027200000788C4908708B4802F070FE15E08648EE
:1027300000780F2811D183480078902807D1052010
:1027400001F0C0F97F4800788249087005E07D48B3
:102750000078C22801D1FFF794FE7A4801787FA063
:1027600004F00EFD7848017880A004F009FD10BD4A
:1027700010B58148007820B101F038FC00207E4976
:10278000087010BD10B540480078002835D03D488D
:1027900080786F49897888420BD13A4840786C49F3
:1027A0004978884205D16A48007810B90120674904
:1027B00008706648007800280EDD644800782028FC
:1027C0000ADA62480078401C604908703048007896
:1027D00010B9962002F039F95C48007820280CD115
:1027E000FF205A49087040216448FEF796FA2848AD
:1027F000007810B901205849087054480078FF2823
:1028000008D12048407852494978884202D00020B7
:102810004E49087010BD10B54D48007878B94C4845
:10282000407860B94A488078082808DD48488078B0
:10283000222804DA4548007808B901F051F910BDA2
:1028400010B51348007800280ED14348007820B115
:1028500041480078401C404908703D48807806286F
:1028600003DA3B4840788BE0C5E093E0466163744F
:102870006F7279205265736574696E672E2E2E0D06
:102880000A0D0A00660000204100002074000020AC
:102890003800002094000020A80000203400002010
:1028A000360000203D0000200000C842006A1800E9
:1028B0000000104052756E54696D653A252E3266DF
:1028C00020486F7572200D0A000000004C6967688F
:1028D0007454696D653A252E326620486F757220F2
:1028E0000D0A00004C696768744C6576656C3A2582
:1028F00064200D0A000000005247423A537461748C
:10290000652D2564204D6F64652D25640D0A00003A
:10291000523A256420473A256420423A2564202013
:102920000D0A0000416C61726D3A25783A257820D5
:102930005377697463683A25640D0A0D0A00000034
:1029400000E06F4028000020A00000204000002090
:102950005F000020290000204200002052656D6FBA
:1029600074654B65793A256420000000636E743A03
:102970002564200D0A0000004C000020000C0140DE
:1029800020BBFD48007808BBFC480078401CFB4990
:1029900008701BE0F848007898B1F74800781028D4
:1029A0000FD0F548007820280BD0F3480078302865
:1029B00007D0F1480078402803D0EF48007850282D
:1029C00004D1EE480078401CEC490870EB480078D0
:1029D000002806DDE9480078062802DA962002F091
:1029E00034F8E6480078062808DB0020E349087040
:1029F00002F02BF802E00020E049087010BD10B58D
:102A00000024DF480078002878D0DB488079DD4951
:102A10008871D94840794871D74800790871D648FB
:102A200080788870D4484078487000200870D24878
:102A3000C078C8700020D44908700420D3490870B9
:102A4000D348007818B9962001F0FFFF012459E01F
:102A5000D04802F09EFDD0480078A0B30020CE49B7
:102A60000870CE480068401CCC490860C84800780F
:102A700020B1CB480068401CC9490860C7480068BD
:102A8000B0F5617F07D10020C4490860C5480088BF
:102A9000401CC4490880C2480068B0F5617F07D176
:102AA0000020BF490860C0480088401CBE4908801B
:102AB000B148007808B902F072FCBC48006880F0A8
:102AC0004000BA490860BA48007820B102F046FCDC
:102AD0000020B749087003F02AF9B6490870084683
:102AE000007860B1B4480078012808D1052000F0D2
:102AF000E9FFB0480078A749087003E028E000200B
:102B0000A44908709E4800780028A1D1012C01D169
:102B100001F09BFF9D480078042816D10002A749C8
:102B2000086040000860A6488078242803DCA44898
:102B300040783C2803DB0020A249087002E0012015
:102B4000A049087002F0CFFC02E08E4800F0BFFD03
:102B500010BD2DE9F0419C49888A9C4903F05DFA3B
:102B60009A4800789A49087008460078AA2803D045
:102B7000AA200870FFF785FC93490889934903F060
:102B80004CFA92480088874908808F4908888F4905
:102B900003F043FA8D480088834908808A494888B1
:102BA0008A4903F03AFA89480078794908708649D9
:102BB0008888864903F031FA84480078854908718D
:102BC0008149C888814903F028FA80480088000AB2
:102BD0007B4988707D48007848707B4988887B49AC
:102BE00003F01BFA794800787A49087176494889D8
:102BF000764903F012FA75480078764908707249F0
:102C00008889724903F009FA704800787149487060
:102C10006D49C8896D4903F000FA6C4800786D4928
:102C200088706949088A694903F0F7F967480078AC
:102C30006849C8706449488A644903F0EEF96348FA
:102C40000078604908706049C88A604903F0E5F976
:102C50005E48008804F034F8064600225E4B03F01C
:102C6000AAFF044604F079F85C4908604D480088E2
:102C700004F026F806460022594B03F09CFF044658
:102C800022460B4657A004F07BFA4748008804F020
:102C900017F806460022524B03F08DFF04462246E9
:102CA0000B4656A004F06CFA39480178AFF2CC30EC
:102CB00004F066FA4948006804F03CF804462246ED
:102CC0000B4654A004F05CFA4248C2780179AFF296
:102CD000D83004F055FA3F48837842780178AFF253
:102CE000D03004F04DFA3648427881783548037880
:102CF0004DA004F045FABDE8F08188B000F00EFB6D
:102D000000F0B2FB00F056FBFFF78AFBFDF737FC43
:102D100003F0A3FA03F042F801F00FF800F0C7FC4B
:102D200003F056FB00F0B7FE01F054F802F083FF09
:102D300002F0AAFEFFF70DFF01F0A7FE144800788D
:102D400001F083FE01200D49087000BF00F0E3FE92
:102D5000FFF755FE0F4802F01CFC0F4800780028D2
:102D60006ED000200C4908700C480068401C0B49CC
:102D700008600748007864E05F00002042000020FF
:102D800039000020580000203A0000203B000020BD
:102D900038000020290000204400002030000020DE
:102DA0002C00002036000020340000200C080140D8
:102DB0004D00002028000020A0000020100C014041
:102DC0006600002041000020A80000203E000020F6
:102DD0003D000020740000200000594094000020B5
:102DE000000010402052756E54696D6520203A2510
:102DF0002E326620486F7572200D0A004C69676894
:102E00007454696D65203A252E326620486F7572BC
:102E1000200D0A004C69676874436F6520203A25CD
:102E20002E3266200D0A0000416C61726D3A2578E1
:102E30003A2578205377697463683A25640D0A004F
:102E400048E110B9A648008820B1A6480068401C97
:102E5000A4490860A4480068B0F5617F09D3002048
:102E6000A1490860A1480088401CA049088002F0E0
:102E70003AFB9C480068B0F5617F07D30020994970
:102E800008609B480088401C994908809948007850
:102E900008B902F084FA03F0F9FA9749486003F0A0
:102EA0009FFA9549086000F050FF944908609448E3
:102EB00002F0ACFAFFF7C4FCFFF7ADFCFFF762FCD1
:102EC0009048006880F040008E4908608948C078CA
:102ED00088490978874A5278CDE9002102908548CF
:102EE00083780279417988A004F04AF982494868D8
:102EF00003F020FF05460E467F4801687F480068C2
:102F000003F078FC81464FF0804103F0FDFC04465D
:102F100003F010FF07463A460B4684A0CDE9005661
:102F200004F02EF98848017888A004F029F98A482D
:102F300001788AA004F024F98B4801788BA004F072
:102F40001FF98C4801788CA004F01AF98D4801789B
:102F50008DA004F015F98F4801788FA004F010F9C6
:102F60009048017990A004F00BF95E4800683C217C
:102F7000B0FBF1F201FB120A5A480068B0FBF1F015
:102F80005B490988C1EB011108443C21B0FBF1F217
:102F900001FB1200079053480068B0FBF1F0544960
:102FA0000988C1EB011108443C21B0FBF1F0182164
:102FB000B0FBF1F201FB120006904A4800683C2188
:102FC000B0FBF1F8404603F07BFECDE90201484832
:102FD000008803F075FE80460022774B03F079FDF0
:102FE000CDE90001DDE9022303F0CCFC0646002216
:102FF000724B03F0E0FD0022714BCDE9040103F0B8
:10300000DAFD044603F07DFE00F0FF0BCDF800A0D2
:1030100059466CA0DDE9062304F0B2F83248006896
:103020003C21B0FBF1F201FB120007902E48006832
:10303000B0FBF1F02D490988C1EB011108443C2196
:10304000B0FBF1F201FB1200069027480068B0FBCC
:10305000F1F026490988C1EB011108443C21B0FB7D
:10306000F1F01821B0FBF1F201FB120005901E48AF
:1030700000683C21B0FBF1FA504603F021FECDE997
:1030800002011A48008803F01BFE824600224A4BC8
:1030900003F01FFDCDE90001DDE9022303F072FC1E
:1030A00080460022454B03F086FD06460022444B35
:1030B00003F081FD044603F024FEC0B2049007989B
:1030C000009046A004A90EC904F05AF8AFF2AC2053
:1030D00004F056F8FFF74CFBFFF791FA36E60000D4
:1030E000400000402C00002030000020360000206E
:1030F000340000205F00002020010020700000202C
:10310000290000200C080140443A253032782D2552
:1031100030327820543A253032783A253032783AB5
:103120002530327820576B3A25782000546D703A5C
:1031300025332E3166A1E62048756D693A25332E78
:1031400031662525207C2000380000204C4C766C10
:103150003A2564200000000042000020466F734CB6
:10316000743A25642000000040000020416C6D3A54
:1031700025642000A1000020526D5264793A256434
:103180002000000028000020526D6B65793A25640C
:1031900020000000A0000020526D436E743A2564A8
:1031A00020000000740000205247427374653A25E5
:1031B00064207C200000000000002E4000004E40F3
:1031C000000038404C543A2564442D253032643A8E
:1031D000253032643A2530326420000052543A25BA
:1031E00064442D253032643A253032643A25303239
:1031F00064200000704700BFFEE700BFFEE700BF8D
:10320000FEE700BFFEE770477047704710B5042027
:10321000FDF77CF940B1384800F0C1FA0120374988
:1032200008700420FDF783F910BD10B500F00AF90D
:1032300033480068401C3249086008460068052190
:10324000B0FBF1F201FB120010B901202D4908700A
:103250002B4800684FF4FA71B0FBF1F201FB120049
:1032600010B9012028490870254800684FF47A7188
:10327000B0FBF1F201FB1200B0F5FA7F03D201209E
:103280002249087002E00020204908702048007898
:1032900088B31B4800686421B0FBF1F201FB120007
:1032A00048BB1C49087800EBD0714910A0EB4101E4
:1032B00039B918490978072903DA01201649087035
:1032C00002E000201449087012480078072806DB45
:1032D000104800780D2802DC00200F4908700D48C6
:1032E00000780A2802DB00200A49087009480078A3
:1032F000401C0849087010BD5F00002044000020F9
:10330000480000204C0000204D0000204E0000200E
:1033100040000020500000204F00002008B501218F
:103320000C20FDF707FF4020ADF8000010208DF8BD
:10333000030003208DF8020069461B48FDF73EFCA0
:103340004FF44060ADF8000010208DF8030003201A
:103350008DF8020069461548FDF730FC40211248FF
:10336000FDF7D9FC4FF440611048FDF7D4FC08BDCF
:103370000E480C30006880F480600C490C31086005
:103380000846006880F400600860704710B508487F
:10339000007820B140210448FDF7BDFC03E0402146
:1033A0000148FDF7BAFC10BD00080140000C0140C7
:1033B0004E00002030B5284800684FF47A72B0FB08
:1033C000F2F1B1F1807F01D301201DE021F07F40B7
:1033D000401E4FF0E022506150170F22002807DAFC
:1033E00013071D0E1D4B00F00F04241F1D5503E095
:1033F00013071C0E1A4B1C5400BF00204FF0E02294
:10340000906107201061002008B100BFFEE74FF077
:10341000E020006940F001004FF0E021086130BD7C
:1034200001B51049009808604FF0E020006940F0B5
:1034300001004FF0E021086100BF0A480068002841
:10344000FBD108BD0748006820B106480068401E4F
:1034500004490860704700000000002018ED00E0FB
:1034600000E400E05400002000B585B0012144F2E2
:103470000400FDF75FFE4FF40070ADF81000182057
:103480008DF8130003208DF8120004A94048FDF7C1
:1034900095FB4FF48060ADF8100004208DF8130008
:1034A00004A93B48FDF78AFB4FF4E130009000206F
:1034B000ADF80400ADF80600ADF80800ADF80C005A
:1034C0000C20ADF80A0069463248FEF7E8FD0122FB
:1034D00040F225512F48FEF77AFE01212D48FEF7D4
:1034E0006AFE05B000BD10B540F225512948FEF72F
:1034F00053FF38B12748FEF7CFFEC4B2214626A0BD
:1035000003F03EFE10BD70B504460D46E1B2214801
:10351000FEF7BEFE00BF40211E48FEF727FF002831
:10352000F9D0204670BD10B5044600BF20211948CF
:10353000FEF71CFF0028F9D01648FEF7ADFE10BDBF
:1035400070B504460D4629462046FEF7A1FE00BF91
:1035500040212046FEF70AFF0028F9D070BD2DE972
:10356000F04107460D461646002400BF0CE0295DD9
:103570003846FEF78DFE00BF40213846FEF7F6FEC6
:103580000028F9D0601C84B2B442F0DBBDE8F081C1
:10359000000801400038014025630D0A00000000CA
:1035A0000EB501212120FDF7C5FD0420ADF808006E
:1035B00048208DF80B0002A9A748FDF7FFFA022169
:1035C0000320FDF711FC0420009000208DF804007A
:1035D0000C208DF8050001208DF806006846FCF7E8
:1035E0002FFF0EBD10B5D02000F037FA10BD2DE929
:1035F000F04706460F469046B94600242BE0ECB94A
:1036000000F06BF900250AE000F04FF9D02000F03F
:1036100076F900F0C2F900B903E0681C85B2642DA8
:10362000F2DB00BFB5F57A7F00D11BE009F0FF00A7
:1036300000F065F900F0B1F900B113E0305D00F081
:103640005EF900F0AAF900B10CE009F101001FFADF
:1036500080F9601C84B24445D1DB00F03EF90120C2
:10366000BDE8F08700F039F90020F9E71CB500202B
:103670000190802000900120019001220E2101A8DC
:10368000FFF7B5FF012207216846FFF7B0FF0122CF
:1036900008216846FFF7ABFF012209216846FFF7C2
:1036A000A6FF01220A216846FFF7A1FF1CBD10B545
:1036B00001210846FDF73EFD01216848FDF74FFB5B
:1036C000FFF790FFFFF76CFFFFF7D0FF10BD7CB551
:1036D0000446002000900190002520788DF800001D
:1036E00060788DF80100A0788DF80200E0788DF800
:1036F000030020798DF8040060798DF80500A07929
:103700008DF806000FE0681CC5B20722002168464C
:10371000FFF76DFF012803D151A003F031FD04E054
:1037200052A003F02DFD052DEDDB00BF7CBD2DE982
:10373000F04106460F46154600F0B7F8D02000F0DD
:10374000DEF800F02AF900B125E0F8B200F0D7F871
:1037500000F023F900B11EE000F0A7F8D12000F03E
:10376000CEF800F01AF900B115E000240CE000F0EA
:10377000F3F83055681EA04202D000F02BF901E0AA
:1037800000F042F9601C84B2AC42F0DB00F0A5F816
:103790000120BDE8F08100F0A0F80020F9E71CB599
:1037A0000446002000900190072200216846FFF7A0
:1037B000BEFF012815D19DF8000020709DF8010082
:1037C00060709DF80200A0709DF80300E0709DF805
:1037D000040020719DF8050060719DF80600A0713D
:1037E00002E026A003F0CCFC1CBD38B50446012243
:1037F00021466846FFF79BFF9DF8000038BD13B5D2
:1038000004460122214601A8FFF7F1FE012800D15C
:103810001CBD0020FCE710B586B0142101A802F001
:10382000DEFF00241322002101A8FFF780FF0128FA
:103830000CD100BF07E001A8025D214613A003F0F0
:103840009FFC601CC4B2132CF5DB02E00BA003F05C
:1038500097FC06B010BD00000014014000023000CB
:103860005772697465204F4B0D0A000057726974D6
:1038700065204661696C6564210D0A0052656164CA
:10388000206661696C6564210D0A0000526567302D
:103890007825783A307825780D0A0000002001E07C
:1038A000411CC8B20A28FBDB704710B510217348D1
:1038B000FDF731FA08217148FDF72DFAFFF7EEFF09
:1038C00010216E48FDF729FAFFF7E8FF08216B4841
:1038D000FDF723FAFFF7E2FF10BD10B5102167488E
:1038E000FDF71BFA08216548FDF715FAFFF7D6FF2B
:1038F00010216248FDF70FFAFFF7D0FF10BD70B539
:103900000446002523E004F0800020B110215B482C
:10391000FDF701FA03E010215848FDF7FEF9FFF723
:10392000BDFF08215548FDF7F6F9FFF7B7FF08215D
:103930005248FDF7F2F9072D03D110214F48FDF74A
:10394000EAF96006040EFFF7A9FF681CC5B2082D4E
:10395000D9DBFFF7A3FF70BD70B50024002516E08A
:103960006006040E08214548FDF7D5F9FFF796FFDC
:1039700010214248FDF7B5F908B1601CC4B2082116
:103980003E48FDF7CAF9FFF789FF681CC5B2082D4C
:10399000E6DBFFF783FF204670BD10B510213748E6
:1039A000FDF7B9F9FFF77AFF08213448FDF7B3F9BD
:1039B000FFF774FF10213148FDF793F908B1012496
:1039C00000E0002408212D48FDF7A7F9FFF766FF66
:1039D000204610BD10B510212848FDF79EF9FFF7CD
:1039E0005DFF08212548FDF796F9FFF757FF0821ED
:1039F0002248FDF792F9FFF751FF10211F48FDF70C
:103A00008AF9FFF74BFF10BD10B510211B48FDF7D9
:103A100082F9FFF743FF08211848FDF77CF9FFF70B
:103A20003DFF08211548FDF778F9FFF737FF10BD76
:103A300008B501210820FDF77DFB1820ADF8000036
:103A400003208DF8020014208DF8030069460B480E
:103A5000FDF7B4F8FFF741FF08BD70B50446FFF766
:103A6000E7FFFFF722FF2046FFF749FFFFF795FF2B
:103A70000546FFF732FF284670BD0000000C0140EC
:103A8000002105E000E0491C304A9142FBD3401E72
:103A90000028F7D1704708B501210820FDF74AFB3F
:103AA0004020ADF8000010208DF8030003208DF8B1
:103AB000020069462648FDF781F840212448FDF7B9
:103AC0002CF908BD10B5044640212148FDF723F923
:103AD0002046FFF7D5FF40211D48FDF71EF910BD18
:103AE00010B540211A48FDF716F90520FFF7C8FF69
:103AF00040211748FDF711F91648FFF7C1FF402193
:103B00001348FDF708F90520FFF7BAFF40211048D8
:103B1000FDF703F910BD10B50F480078002810DD3F
:103B20000D4800783E280CDA0C48007820B140217E
:103B30000748FDF7F0F808E040210548FDF7EDF8EB
:103B400003E040210248FDF7E8F810BDFFFF010047
:103B5000000C014000350C00400000204F00002008
:103B60000146642005E0642001E0421ED0B2002836
:103B7000FBD10A1EA1F10103D9B2F4D1704708B5F7
:103B800001210820FDF7D6FA4FF48070ADF800004F
:103B900010208DF8030003208DF8020069468B4841
:103BA000FDF70CF84FF480718848FDF7B4F808BDB4
:103BB00008B54FF48070ADF8000048208DF8030080
:103BC00069468248FCF7FAFF08BD08B54FF48070DB
:103BD000ADF8000010208DF8030003208DF80200DE
:103BE00069467A48FCF7EAFF08BD10B5FFF7EDFF1C
:103BF0004FF480717548FDF790F84B20FFF7B0FF48
:103C00004FF480717148FDF786F80220FFF7A8FF96
:103C100010BD10B50024FFF7CBFF04E0601CC4B258
:103C20000120FFF79DFF4FF480716848FDF759F8B8
:103C300008B1642CF2DB642C01DB012010BD0024F0
:103C400004E0601CC4B20120FFF78AFF4FF48071CA
:103C50005E48FDF746F808B9F02CF2DBF02C01DBEA
:103C60000120EBE70020E9E710B5FFF7AEFF4FF4C6
:103C700080715648FDF751F80120FFF771FFFFF7FB
:103C800097FF4FF480715148FDF72BF8012801D1BF
:103C9000012400E000240520FFF762FF204610BD4C
:103CA00070B50026002408E0FFF7DEFF054605FAA0
:103CB00004F03043C6B2601CC4B2082CF4DB3046BA
:103CC00070BD70B50446FFF780FF002526E004F0C4
:103CD0000106641086B14FF480713C48FDF71DF871
:103CE0000120FFF73DFF4FF480713848FDF713F8CE
:103CF0000620FFF735FF0FE04FF480713348FDF7E2
:103D00000CF80720FFF72CFF4FF480712F48FDF7C8
:103D100002F80120FFF724FF681CC5B2082DD6DB8E
:103D200070BD10B5FFF761FFFFF773FFCC20FFF701
:103D3000C8FF4420FFF7C5FF10BD10B5FFF71FFFF8
:103D4000FFF753FFFFF765FF10BD2DE9F05FFFF7A9
:103D50004CFFFFF75EFFCC20FFF7B3FF4420FFF7D7
:103D6000B0FFFFF742FFFFF754FFCC20FFF7A9FF9A
:103D7000BE20FFF7A6FFFFF793FF8346FFF790FFF4
:103D800082464FEA0A2004B244EA0B04002C0DDA02
:103D9000E043401C02F083FF074600220C4B02F078
:103DA00098FE054602F0D9FF81460BE0204602F05E
:103DB00076FF07460022064B02F08BFE054602F016
:103DC000CCFF81464846BDE8F09F0000000C014052
:103DD0000000B03F08B501210820FDF7ABF9012034
:103DE000ADF8000010208DF8030003208DF80200CC
:103DF0006946FA48FCF7E2FE08BD0120F749103198
:103E0000086000BF00BF00BF00BF00BF00BF00BF11
:103E100000BF00BF00BF00BF00BF00BF00BF00BFAA
:103E200000BF00BF00BF00BF00BF0120EB4914313D
:103E3000086000BF00BF00BF00BF00BF00BF00BFE1
:103E400000BF00BF00BF00BF00BF00BF00BF00BF7A
:103E500000BF00BF00BF00BF00BF00BF00BF00BF6A
:103E600000BF00BF00BF00BF00BF00BF00BF00BF5A
:103E700000BF00BF00BF00BF00BF00BF00BF704752
:103E80000120D6491031086000BF00BF00BF00BF4D
:103E900000BF00BF00BF00BF00BF00BF00BF00BF2A
:103EA00000BF00BF00BF00BF00BF00BF00BF00BF1A
:103EB00000BF00BF00BF00BF00BF00BF00BF00BF0A
:103EC00000BF00BF00BF00BF00BF00BF00BF00BFFA
:103ED00000BF00BF0120C1491431086000BF00BF0E
:103EE00000BF00BF00BF704700B50346002200BFFF
:103EF0000AE080201041184010B1FFF7C1FF01E037
:103F0000FFF77BFF501CC2B2082AF2DB00BD30B5C0
:103F100000250CE0002407E005EB4501B04A114400
:103F2000085DFFF7E1FF641C032CF5D36D1C042D25
:103F3000F0D330BD2DE9F14F86B000200490A9499F
:103F4000069802F027FF21D2A749069802F0A4FCA8
:103F500080F0004A504602F0EDFE02460B46CDE9E5
:103F60000201A248A24903F015FE80460022A14B9F
:103F700002F008FD064632460B4600209D4902F03D
:103F80001AFE044602F0E9FE04902BE09A490698D6
:103F900002F000FF26D2069802F0CCFE80460022F6
:103FA000964B02F090FD81F00043064632468F4862
:103FB0008F4903F0EFFD00228E4BCDE9000102F0A6
:103FC000E1FC02460B46CDE902010020894902F0DE
:103FD000F2FD04460022874B02F078FD824602F093
:103FE000BCFE0490049807B0BDE8F08F2DE9F047BF
:103FF0004FF00009002482480078824909788842FD
:104000000BD17F48407880490978884205D17C48A7
:1040100080787E490978884216D0794800787949B5
:1040200008707748407878490870754880787749F3
:104030000870002076490860764908607649086073
:1040400076490860764908706D48007900287DD16E
:104050006B48C078002855D170480068FFF76AFFA8
:1040600006466848007802F015FE07466D4801686C
:10407000384602F017FC0546314602F013FC64494D
:10408000086066480068FFF755FF06465E480078FE
:1040900002F000FE074663480168384602F002FC61
:1040A0000546314602F0FEFB5A4908605B4800684D
:1040B000FFF740FF06465548007802F0EBFD074643
:1040C00058480168384602F0EDFB0546314602F0DB
:1040D000E9FB5149086048495048006802F064FE15
:1040E00002D200204D4908604C48006802F022FED0
:1040F00007464D4A4D4B02F045FC054602F02DFEA9
:10410000464908603E48C078012865D14448007897
:10411000072862D2DFE800F004264690B0CAEA0021
:104120003B48006802F006FE07463F4A404B02F05B
:1041300029FC054602F011FE35490860394801683E
:104140003C4802F0AFFB0546314800E0E8E001687A
:10415000284602F01FFE04D231480078401C304946
:104160000870DCE02B48006802F0E4FD07462E4AA8
:104170002F4B02F007FC054602F0EFFD25490860D1
:10418000284801682B4802F08DFB0546214801684C
:10419000284602F0FFFD04D221480078401C204947
:1041A0000870BCE01A48006802F0C4FD07461E4AC9
:1041B0001F4B02F088FC054602F0CFFD1449086051
:1041C00000211348006802F0E5FD04D81448007887
:1041D000401C13490870A2E0B8E09FE0000C0140C9
:1041E00030010020000020410000A040017F4287F4
:1041F0000ABF05400000F03F0000A04100002E4033
:104200007400002088000020890000208A0000201F
:104210007C00002080000020840000208C00002012
:104220008B000020940000209A9999999999893FD0
:104230009999C93F00007A438A48006802F07AFDE4
:104240000746894A894B02F09DFB054602F085FD31
:104250008449086086480168864802F023FB0546C9
:1042600080480168284602F095FD04D28248007813
:10427000401C8149087052E08048006802F05AFDF5
:104280000546794A794B02F01EFC074602F065FDAF
:104290007A49086000217948006802F07BFD04D863
:1042A00075480078401C7449087038E0744800680C
:1042B00002F040FD05466C4A6C4B02F063FB07467A
:1042C00002F04BFD6E49086069480168694802F0D8
:1042D000E9FA05466A480168284602F05BFD04D207
:1042E00065480078401C6449087018E05D48006823
:1042F00002F020FD05465C4A5C4B02F0E4FB0746F9
:1043000002F02BFD5749086000215648006802F072
:1043100041FD02D801205849087000E000BF15E0B7
:1043200058480079012811D15649087802F0B2FCAA
:10433000534908605349487802F0ACFC4F49086083
:104340005049887802F0A6FC464908604FF0000901
:104350002EE0002426E024B1012C0CD0022C1ED12A
:1043600013E04648006802F0B8FC09EB4901464AF0
:104370001144085513E04248006802F0AEFC09EB16
:104380004901414A1144085509E03648006802F0E5
:10439000A4FC09EB49013C4A1144085500BF00BF89
:1043A000601CC4B2032CD6DB09F1010000F0FF0948
:1043B000B9F1040FCDDB3348007902280ED0314823
:1043C000007828B92F48407810B92E48807828B155
:1043D00000212748006802F0DDFC04D12A480021B2
:1043E00001604160816072B6FFF791FD62B6BDE881
:1043F000F0872DE9F04106460F469046002500243F
:1044000072B621480021016041608160002521E0F1
:1044100000241BE024B1012C08D0022C13D10BE0A6
:1044200005EB45001849084407550CE005EB45002D
:1044300015490844065506E005EB450012490844B5
:1044400000F8048000BF00BF601CC4B2032CE1DB95
:10445000681CC5B2042DDBDBFFF759FD62B6BDE871
:10446000F0810000840000209A9999999999C93F98
:104470009400002000007A438B0000208000002080
:104480007C0000207400002030010020002100206A
:1044900005E000E0491CF84A9142FBD3401C032888
:1044A000F7D3704730B5034600BF5C1C04EB8404AF
:1044B00001EB4404E0B25C1C04EB840464000A2CAD
:1044C00006D0142C71D01E2C70D0282C6FD1EFE1A7
:1044D000A0F10A040A2C14D2DFE804F005142332F8
:1044E00041505F71808F32B1E44C247944F08004F4
:1044F000E24D2C7105E0E14C247924F08004DF4D7D
:104500002C7189E032B1DD4C247944F04004DB4D5C
:104510002C7105E0D94C247924F04004D74D2C713E
:104520007AE032B1D54C247944F02004D34D2C717B
:1045300005E0D24C247924F02004D04D2C716BE09E
:1045400032B1CE4C247944F01004CC4D2C7105E0EE
:10455000CA4C247924F01004C84D2C715CE032B1AF
:10456000C64C247944F00804C44D2C7105E0C34CBA
:10457000247924F00804C14D2C714DE032B1BF4CB8
:10458000247944F00404BD4D2C7105E0BB4C247922
:1045900024F00404B94D2C713EE04AB1B74C2479A3
:1045A00044F00204B54D2C7108E037E0D9E022E276
:1045B000B24C247924F00204B04D2C712CE032B1BD
:1045C000AE4C247944F00104AC4D2C7105E0AB4CA9
:1045D000247924F00104A94D2C711DE032B1A74CBF
:1045E000E47844F08004A54DEC7005E0A34CE47839
:1045F00024F08004A14DEC700EE032B19F4CE478C1
:1046000044F040049D4DEC7005E09C4CE47824F0AF
:1046100040049A4DEC7000BF00BFEDE1A0F114041E
:104620000A2C14D2DFE804F00514233241505F6EE7
:104630007D8C32B1914CE47844F020048F4DEC70C5
:1046400005E08E4CE47824F020048C4DEC7086E07C
:1046500032B18A4CE47844F01004884DEC7005E0E7
:10466000864CE47824F01004844DEC7077E032B18D
:10467000824CE47844F00804804DEC7005E07F4CF7
:10468000E47824F008047D4DEC7068E032B17B4C96
:10469000E47844F00404794DEC7005E0774CE4785C
:1046A00024F00404754DEC7059E032B1734CE47899
:1046B00044F00204714DEC7005E0704CE47824F095
:1046C00002046E4DEC704AE032B16C4CE47844F078
:1046D00001046A4DEC7005E0684CE47824F00104B4
:1046E000664DEC703BE032B1644CA47844F0800439
:1046F000624DAC7005E0614CA47824F080045F4DFD
:10470000AC702CE032B15D4CA47844F040045B4DB9
:10471000AC7005E0594CA47824F04004574DAC70BF
:104720001DE032B1554CA47844F02004534DAC70D8
:1047300005E0524CA47824F02004504DAC700EE0FB
:1047400032B14E4CA47844F010044C4DAC7005E0EE
:104750004A4CA47824F01004484DAC7000BF00BF50
:104760004AE1A0F11E040A2C14D2DFE804F005147B
:10477000233241505F6E7D9032B1404CA47844F0BA
:1047800008043E4DAC7005E03C4CA47824F00804CD
:104790003A4DAC708AE032B1384CA47844F004044D
:1047A000364DAC7005E0354CA47824F00404334D4C
:1047B000AC707BE032B1314CA47844F002042F4D50
:1047C000AC7005E02D4CA47824F002042B4DAC70A5
:1047D0006CE032B1294CA47844F00104274DAC7050
:1047E00005E0264CA47824F00104244DAC705DE073
:1047F00032B1224C647844F08004204D6C7005E0A6
:104800001E4C647824F080041C4D6C704EE032B174
:104810001A4C647844F04004184D6C7005E0174C55
:10482000647824F04004154D6C703FE032B1134CB5
:10483000647844F02004114D6C7005E00F4C6478EE
:1048400024F020040D4D6C7030E032B10B4C6478D4
:1048500044F01004094D6C7005E0084C647824F0B5
:104860001004064D6C7021E052B1044C647844F0A1
:104870000804024D6C7009E0FFFF0F00A200002049
:10488000FE4C647824F00804FC4D6C700EE032B1EC
:10489000FA4C647844F00404F84D6C7005E0F74C71
:1048A000647824F00404F54D6C7000BF00BFA3E0F1
:1048B000A0F128040A2C14D2DFE804F005142332F6
:1048C00041505F6E7D8C32B1EC4C647844F0020450
:1048D000EA4D6C7005E0E94C647824F00204E74D81
:1048E0006C7086E032B1E54C647844F00104E34D2D
:1048F0006C7005E0E14C647824F00104DF4D6C70CD
:1049000077E032B1DD4C247844F08004DB4D2C702C
:1049100005E0DA4C247824F08004D84D2C7068E04F
:1049200032B1D64C247844F04004D44D2C7005E0CC
:10493000D24C247824F04004D04D2C7059E032B190
:10494000CE4C247844F02004CC4D2C7005E0CB4CA8
:10495000247824F02004C94D2C704AE032B1C74CB1
:10496000247844F01004C54D2C7005E0C34C247825
:1049700024F01004C14D2C703BE032B1BF4C2478C0
:1049800044F00804BD4D2C7005E0BC4C247824F0A4
:104990000804BA4D2C702CE032B1B84C247844F0A5
:1049A0000404B64D2C7005E0B44C247824F00404C3
:1049B000B24D2C701DE032B1B04C247844F00204AA
:1049C000AE4D2C7005E0AD4C247824F00204AB4DC4
:1049D0002C700EE032B1A94C247844F00104A74DAC
:1049E0002C7005E0A54C247824F00104A34D2C7014
:1049F00000BF00BF00E000BF00BF30BD70B506467D
:104A0000002410E000250AE004EB840006EB4000DF
:104A1000425D29462046FFF745FD681CC5B20A2DB8
:104A2000F2DB601CC4B2042CECDB70BD10B50521B8
:104A3000924801F030FA10BD002000BF00E0401C99
:104A400043F2C8218842FAD3704770B50546002466
:104A50008B480088C6B2B5420ADB344605E0884878
:104A60000480FFF7E9FF601CC4B2AC42F7DB0BE047
:104A7000344605E082480480FFF7DEFF601EC4B2C2
:104A8000AC42F7DC7E48048070BD70B5002472B67D
:104A90007C480021016041608160FFF738FA62B60E
:104AA0006420FFF7D2FF19E02821774801F097FE34
:104AB000002508E0012005EB8501734A02EB410166
:104AC0000855681CC5B2042DF4DB6F48FFF796FF4C
:104AD000FFF7ACFFFFF7DAFC601CC4B20A2CE3DB83
:104AE00070BD10B52821684801F079FE01206749A2
:104AF0008978654A02EB21110870012163488078AA
:104B000000F00F0260480A308154604842785E48E5
:104B1000143000EB221001705C48407800F00F0266
:104B200059481E3081541E38FFF768FFFFF77EFF9B
:104B30005748007810B95748007810B1FEF718FCB4
:104B400005E04FF48060544908604000086010BDE3
:104B500010B528214C4801F042FE01204B4949790B
:104B6000494A02EB2111087001214848407900F0C0
:104B70000F0245480A3081544448027942481430B3
:104B800000EB221001704148007900F00F023E480E
:104B90001E3081548802404908604000091F0860A7
:104BA0003948FFF72BFFFFF741FF10BD10B5282153
:104BB000354801F014FE01213448C27832481430DF
:104BC00000EB221001703148C07800F00F022E482F
:104BD0001E30815488023049091F08604000091DB9
:104BE00008602948FFF70AFFFFF720FF10BD70B5E6
:104BF0002821254801F0F3FD2849486802F06DF8A6
:104C0000C0B20A2190FBF1F01F4901220A54234946
:104C1000486802F062F8C0B20A2190FBF1F201FB91
:104C2000120119480A30012242541C4801681C48EC
:104C3000006801F0DFFD05464FF0804101F064FEA1
:104C4000044602F04AF8C0B20A2190FBF1F10E4886
:104C5000143001224254114801681148006801F0E3
:104C6000C9FD05464FF0804101F04EFE044602F0BA
:104C700034F8C0B20A2190FBF1F213E0A200002048
:104C800040000040300100203C0100205F00002077
:104C90003800002042000020140C014020010020B8
:104CA0007000002001FB1201FE48012242549002D4
:104CB000FD49086040000860FA481E38FFF79EFE74
:104CC000FFF7B4FE70BD10B5F8480078FF2861D03A
:104CD000F748007830B1012817D002282DD00328DA
:104CE0004BD13DE0F1480078022802DD0020EF4979
:104CF0000870EE480178EF48807861F31F10ED49A5
:104D00008870FF20E949087038E0EA488078202858
:104D100006DBE6480078042802DD0420E349087039
:104D2000E448807800F0F000E04909780843E14960
:104D30008870FF20DD49087020E0DC4800780628F4
:104D400002DD0020D9490870D8480178D948407858
:104D500061F31F10D7494870FF20D44908700DE057
:104D6000D448407800F0F000D04909780843D14990
:104D70004870FF20CD49087000E000BF00BFCC485C
:104D80000078401CCA49087008460078042801DBF6
:104D9000002008702821C3481E3801F020FD0120A2
:104DA000C4498978BF4A1E3A02EB211108700121DB
:104DB000C048807800F00F02BA4814388154BD48CA
:104DC0004278B8480A3800EB22100170B9484078A0
:104DD00000F00F02B3488154B748007870B3B4486C
:104DE000007830B101280DD0022814D0032823D137
:104DF0001AE00020AF498978AA4A1E3A02EB211135
:104E000008701AE00021AB48807800F00F02A54836
:104E10001438815411E00021A6484278A1480A388C
:104E200000EB2210017008E00021A248407800F059
:104E30000F029C48815400E000BF00BF99481E3813
:104E4000FFF7DCFDFFF7F2FD9C48007858B19B4866
:104E50000078C043994908704FF480609249086017
:104E6000400008600BE095480078C0439349087003
:104E70004FF480608C49091D08604000086010BD37
:104E800010B58A480078FF2861D08948007830B191
:104E9000012817D0022822D003284BD132E08348C2
:104EA0000078022802DD0020804908707F480178E0
:104EB0008048407961F31F107E494871FF207B498B
:104EC000087038E07B48407900F0F00077490978B5
:104ED000084378494871FF20744908702BE07348F3
:104EE0000078032802DD0020704908706F480178BF
:104EF0007048007961F31F106E490871FF206B49FB
:104F0000087018E06B480079302806DB67480078A5
:104F1000012802DD0020654908706648007900F02C
:104F2000F00062490978084362490871FF205F492F
:104F3000087000E000BF00BF5D480078401C5C497D
:104F4000087008460078042801DB0020087028213A
:104F500054481E3801F043FC012056494979514A12
:104F60001E3A02EB2111087001215248407900F0ED
:104F70000F024C48143881544E48027949480A3887
:104F800000EB221001704B48007900F00F024548F9
:104F900081544948007870B34548007830B1012801
:104FA0000DD0022814D0032823D11AE00020414953
:104FB00049793C4A1E3A02EB211108701AE000219F
:104FC0003C48407900F00F0236481438815411E013
:104FD00000213848027933480A3800EB221001706A
:104FE00008E000213348007900F00F022D48815479
:104FF00000E000BF00BF2B481E38FFF7FFFCFFF7A3
:1050000015FD4FF48060284908604000086010BD1D
:1050100010B527480078032802DA032024490870D5
:1050200022480078FF282BD02148007803281AD185
:105030001E480078072802DD01201C4908701B4823
:105040000078012802DA0120184908701948C07850
:1050500000F0F0001549097808431649C870FF2090
:105060001249087000E000BF00BF11480078401CE2
:105070000F49087008460078042801DB00200870FA
:10508000282108481E3801F0AAFB01210948C078F0
:1050900000F00F020348815407480078E0B104484B
:1050A00000780DE05A010020100C01403C00002067
:1050B0003A000020580000209000002098000020B6
:1050C000032807D10021FC48C07800F00F02FB48FC
:1050D000815400E000BF00BFF8481E38FFF78EFC87
:1050E000FFF7A4FC4FF48060F549086040000860B9
:1050F00010BD10B5F3480078022802DA0220F14909
:105100000870F1480078FF282CD0EE48007802287B
:1051100002D0032819D10BE0EB480178E6488079EA
:1051200061F31F10E4498871FF20E74908700DE022
:10513000E148807900F0F000E34909780843DE494E
:105140008871FF20E049087000E000BF00BFDD4823
:105150000078401CDB49087008460078042801DB11
:10516000002008702821D5481E3801F038FB0120A6
:10517000D2491E39887088720121CF488279CF4880
:105180000A3800EB22100170CB48807900F00F0242
:10519000CA488154CD480078C8B1CA48007802286E
:1051A00002D0032811D108E00021C3488279C34806
:1051B0000A3800EB2210017008E00021BE48807917
:1051C00000F00F02BD48815400E000BF00BFBB48A3
:1051D0001E38FFF713FCFFF729FC4FF48060B84935
:1051E00008604000086010BD10B5B7480078FF287F
:1051F00048D0B448007830B1012810D002281BD024
:10520000032832D124E0B0480178B148807861F3B6
:105210001F10AF498870FF20AB49087026E0AC48EA
:10522000807800F0F000A84909780843A849887000
:10523000FF20A549087019E0A3480178A4484078E8
:1052400061F31F10A2494870FF209F4908700DE0CC
:105250009F48407800F0F0009B49097808439C493A
:105260004870FF209849087000E000BF00BF9548D3
:105270000078401C9349087008460078042801DB38
:105280000020087028218D481E3801F0A8FA01205E
:105290008F498978894A1E3A02EB21110870012151
:1052A0008B48807800F00F02844814388154884875
:1052B000427882480A3800EB221001708448407816
:1052C00000F00F027D48815480480078B8B37D48D3
:1052D000007830B101280DD0022814D0032823D142
:1052E0001AE000207A498978744A1E3A02EB2111AB
:1052F00008701AE000217648807800F00F026F48AD
:105300001438815411E00021714842786B480A3802
:1053100000EB2210017008E000216D48407800F099
:105320000F026648815400E000BF00BF4FF4806068
:105330006349091F08604000091D086007E0FFE796
:105340004FF480605E4908604000091F08605B48B8
:105350001E38FFF753FBFFF769FB10BD10B55D4822
:105360000078052813D2DFE800F00306090C0F00CF
:10537000FFF7A9FC0CE0FFF783FD09E0FFF748FE0B
:1053800006E0FFF7B6FE03E0FFF72EFF00E000BFE8
:1053900000BF4E480078C0434C49087010BD10B59E
:1053A0008AB000242821684601F019FA01204A4AEF
:1053B00012780DF8020001210DF10A00464A127818
:1053C000815405A8444A127881540A30424A12781E
:1053D0008154414801780078401C3F4A10700A29E6
:1053E00002D10020114608706846FFF707FBFFF75F
:1053F0001DFB002400E0641C052CFCD32F481E3844
:10540000FFF7FCFAFFF712FB0AB010BD10B5044617
:10541000207830B1622807D0A2281DD0E2285FD1C1
:1054200032E0FFF75EFB5CE0FFF7E1FB2B48007822
:10543000401C2A4908700846007804280BDB00202D
:1054400008704FF480601E4908604000086000202A
:105450002070FFF746FB44E0FFF77AFB1F48007817
:10546000401C1E4908700846007804280BDB002009
:1054700008704FF480601249086040000860002006
:105480002070FFF72EFB2CE0FFF790FB134800780D
:10549000401C124908700846007804280BDB0020E5
:1054A00008704FF4806006490860400008600020E2
:1054B0002070FFF716FB14E0580000205A0100206E
:1054C000140C01403A0000203C0000209000002015
:1054D000660000203B000020990000209A00002078
:1054E00000BF00BF10BD70B5F6490888F6490988AD
:1054F00000F03AFFF3494888F449097800F034FF96
:10550000F34A1179EF4A908800F02EFFF14A527861
:10551000F04B9B7842EA0321EA4AD08800F024FF4E
:10552000E8490889EC49098800F01EFFE84A11782B
:10553000E44A508900F018FFE54A5178E14A908921
:1055400000F012FFE24A9178DE4AD08900F00CFFA9
:10555000DF4AD178DB4A108A00F006FFD949488A31
:10556000DE49097800F000FFD649888ADC490978CD
:1055700000F0FAFEDB49DC48006801F093F90546CB
:1055800001F0ABFB84B2CF49C88A214600F0ECFEA3
:1055900070BD2DE9FF410446D448007800287DD134
:1055A000207852287BD00FDC302879D005DCE0B1A0
:1055B000102876D0182875D1C6E0382873D0422834
:1055C00072D04A28F7D12EE190286ED006DC5A28F6
:1055D0006CD068287DD07A28EDD1C8E0A8281FD0EB
:1055E000C22803D0E028E6D141E052E1002020703B
:1055F000B648007818B96420B449087004E0002067
:10560000B2490870BA490870B0480078FFF71DFA2F
:10561000AE480178B7A001F0B3FDFFF764FF38E1B1
:1056200000202070A94800783230A8490870084648
:105630000078C82801DD32200870A4480178ADA0A8
:1056400001F09EFDA1480078FFF7FFF99F48007820
:1056500001F036FB05460022AA4B01F0ACFA0746E2
:1056600001F07BFBA0490860FFF73DFF11E100203E
:1056700020709648007832389449087008460078BF
:10568000322801DAC82008709048017899A001F00A
:1056900077FD8E480078FFF7D8F909E0FAE0D4E00A
:1056A00040E076E0E9E086E0A9E0E0E095E010E0A7
:1056B0008648007801F004FB05460022914B01F07A
:1056C0007AFA074601F049FB87490860FFF70BFFAC
:1056D000DFE0002020707E480079401C7C49087182
:1056E00008460079032801DB00200871784800791A
:1056F000012811D18448006801F0EFFA744908705C
:105700008248006801F0E9FA7149487080480068F1
:1057100001F0E3FA6E4988706D48007908B9FFF727
:10572000E2FEB6E000202070FF20694908700020EA
:1057300048708870C87008460079012801D100209F
:105740000871FFF7D0FEA4E000202070FF20604920
:1057500008709C20487000208870C8700846007946
:10576000012801D100200871FFF7BDFE91E0002063
:105770002070FF2056490870487000208870C8705B
:1057800008460079012801D100200871FFF7ABFE1F
:105790007FE0002020704E490870FF2048700020F4
:1057A0008870C87008460079012801D1002008716E
:1057B000FFF799FE6DE00020207045490870FF203A
:1057C000487088700020C87008460079012801D10F
:1057D00000200871FFF787FE5BE0002020703C4945
:1057E00008704870FF2088700020C8700846007953
:1057F000012801D100200871FFF775FE49E0002063
:105800002070FF203249087000204870FF20887007
:105810000020C87008460079012801D100200871D5
:10582000FFF761FE35E000202070FF202849087056
:10583000487088700020C87008460079012801D19E
:1058400000200871FFF74FFE23E000202070FF20AA
:105850001F490870487088700120C8700846007998
:10586000012801D100200871FFF73DFE11E0002062
:10587000207001201D4908700BE02078622807D0B5
:105880002078A22804D02078E22801D000202070BF
:1058900000BFF7E0207862285ED03CDC38286ED06C
:1058A00007DCB8B310286BD018286AD0302869D12B
:1058B0008DE0422867D04A2874D0522873D05A28E5
:1058C000F5D1A4E0A800002034000020380000201A
:1058D00074000020660000203600002041000020F7
:1058E0003D0000200000C842940000203900002044
:1058F000420000204C696768744C6576656C3A25F7
:10590000640D0A00000069407C0000208000002037
:105910008400002012E0A82871D008DC682851D04B
:105920007A2860D090286BD0A228C0D12CE0C22861
:1059300005D0E02871D0E228B9D135E0A1E00020FF
:1059400020707548007810B9642073490870724857
:105950000078FFF77AF894E0002020706F48007814
:10596000401C6E49087008460078052801DB0020BD
:1059700008706A4801786AA001F002FC81E040E00A
:1059800037E02AE07AE049E000202070674800789C
:10599000401E6649087008460078FF2801D10320A0
:1059A00008706EE040E045E0002020705F4800781D
:1059B000401C5E49087008460078042801D1002088
:1059C00008705EE0002020705949087059E00020FE
:1059D000207001205649087053E0002020700220FA
:1059E000534908704DE00020207003205049087092
:1059F00047E00020207004204D49087041E01FE07E
:105A000024E00020207005204949087039E000207A
:105A1000207006204649087033E014E00020207012
:105A20000720434908702CE00020207008204049DE
:105A3000087026E00020207009203D49087020E011
:105A4000002020701DE0002020701AE0002020704F
:105A50003848C1780078374A5278364B9B78CDE980
:105A60000032CDE90201334803794279817932A0CD
:105A700001F086FB00203E49087002E00020207003
:105A800000BF00BFBDE8FF8100B587B00121042041
:105A9000FBF750FB0820ADF8180018208DF81B000C
:105AA00003208DF81A0006A93248FBF787F8012178
:105AB0000846FBF74CFBFF20ADF8140040F2CF7016
:105AC000ADF810000020ADF81600ADF8120004A9E2
:105AD0004FF08040FBF766FC6020ADF8000001202D
