:020000040800F2
:10000000680900204501000821310008233100085B
:10001000273100082B3100082F31000800000000B4
:100020000000000000000000000000003331000864
:100030003531000800000000373100085731000852
:100040005F0100085F0100085F0100085F01000810
:100050005F0100085F0100085F0100085F01000800
:10006000393100085F0100085F0100085F010008E6
:100070005F0100085F0100085F0100085F010008E0
:100080005F0100085F0100085F0100085F010008D0
:100090005F0100085F0100085F010008995B00082C
:1000A0005F0100085F0100085F0100085F010008B0
:1000B0005F0100085F0100085F0100085F010008A0
:1000C0005F0100085F0100085F0100085F01000890
:1000D0005F010008133400085F0100085F01000899
:1000E0005F0100085F0100085F0100085F01000870
:1000F0005F0100085F0100085F0100085F01000860
:100100005F0100085F0100085F0100085F0100084F
:100110005F0100085F0100085F0100085F0100083F
:100120005F0100085F0100085F0100085F0100082F
:10013000DFF80CD006F0A8FE00480047E12C0008CC
:10014000680900200648804706480047FEE7FEE7AA
:10015000FEE7FEE7FEE7FEE7FEE7FEE7FEE7FEE777
:1001600047020008310100080CB500200190009002
:100170006C48006840F480306A49086000BF6948F4
:10018000006800F4003000900198401C0190009835
:1001900018B90198B0F5A06FF1D16248006800F479
:1001A000003010B10120009001E000200090009884
:1001B000012843D15C48006840F010005A490860AB
:1001C0000846006820F0030008600846006840F018
:1001D0000200086053484068524948600846406839
:1001E00048600846406840F48060486008464068BF
:1001F00020F47C1048600846406840F4E8104860ED
:100200000846006840F08070086000BF45480068FC
:1002100000F000700028F9D04248406820F0030048
:10022000404948600846406840F00200486000BF0E
:100230003C48406800F00C000828F9D10CBD10B50E
:10024000FFF792FF10BD10B53648006840F001007E
:1002500034490860084640683449084031494860DC
:1002600008460068324908402E4908600846006880
:1002700020F4802008600846406820F4FE004860B2
:100280004FF41F008860FFF7DAFF4FF00060294944
:10029000086010BD10B5002100200022214B5B68D2
:1002A00003F00C0121B1042906D0082928D107E068
:1002B000214B224C236027E01F4B204C236023E07E
:1002C000184B5B6803F47010164B5B6803F48032C4
:1002D000022303EB904022B9194B4343174C236090
:1002E0000DE0104B5B6803F4003323B1144B434320
:1002F000124C236003E0104B4343104C236003E097
:100300000D4B0E4C236000BF00BF064B5B68C3F370
:1003100003130C4CE15C094B1B68CB40074C23607A
:1003200010BD000000100240002002400000FFF855
:10033000FFFFF6FE08ED00E000127A00000000204A
:1003400000093D000400002031490143314A116099
:10035000704770B5002100230F22C47804B32D4CE0
:10036000246804F4E064C4F5E064210AC1F10403E4
:10037000CA40447804FA03F1847814402143090107
:10038000254C0678A155047804F01F050124AC40E3
:1003900005786D11AD0005F1E025C5F8004109E0D3
:1003A000047804F01F050124AC401C4D067876113A
:1003B00045F8264070BD1A4A0A400243154B1B1FE0
:1003C0001A60704739B1134A121D12680243114B6B
:1003D0001B1D1A6006E00F4A121D126882430D4B66
:1003E0001B1D1A607047042808D14FF0E0210969ED
:1003F00041F004014FF0E022116107E04FF0E021ED
:10040000096921F004014FF0E022116170470000FA
:100410000000FA050CED00E000E400E080E100E0FF
:1004200080FFFF1F002044490860091D0860091D66
:100430000860091D086041483F4914310860704751
:1004400000213D498279002A3AD00A4612680368A1
:100450009A430B461A600A1D126803689A430B1DE3
:100460001A60027911440A6803681A430A60324A22
:100470000832126803689A432F4B08331A601A1D1A
:10048000126803689A432C4B0C331A604279102A85
:100490000ED11A1F126803681A43274B08331A60DB
:1004A0001A1D126803681A43234B0C331A600DE0BF
:1004B0002149427911440A6803681A430A6005E039
:1004C000027911440A6803689A430A607047002160
:1004D000016001710C214171002181717047164941
:1004E000103109680143144A103211607047014607
:1004F0000020114A143212680A400AB1012000E0BB
:10050000002070470C4914310860704701460020F4
:100510000022094B1B6803EA0102074B14331B68D6
:100520000B4013B10AB1012000E0002070470249DE
:10053000143108607047000000040140FFFF0F0005
:1005400001460020FE4A106800F0380008431060A1
:100550007047FB49096821F00801F94A116011460A
:100560000968014311607047F549096821F01001DD
:10057000F34A116011460968014311607047F14860
:10058000EF494860F04848607047EE48EC494860E1
:10059000ED4848607047EA48006940F08000E8494B
:1005A00008617047E648006940F08000E44908614E
:1005B00070470420E249C96801F0010109B1012036
:1005C0000EE0DF49C96801F0040109B1022007E02B
:1005D000DB49C96801F0100109B1032000E00420E3
:1005E000704700B502460423FFF7E3FF034603E02C
:1005F000FFF7DFFF0346521E012B01D1002AF7D17E
:1006000002B90523184600BD30B5044604254FF451
:100610003020FFF7E6FF0546042D17D1C8480069D2
:1006200040F00200C649086108464461006940F094
:10063000400008614FF43020FFF7D3FF0546C04863
:10064000006941F6FD710840BD490861284630BD8A
:1006500010B504244FF43020FFF7C3FF0446042CE8
:1006600016D1B748006940F00400B5490861084652
:10067000006940F0400008614FF43020FFF7B1FFFF
:100680000446AF48006941F6FB710840AC49086177
:10069000204610BD00B502460423FFF78AFF03463B
:1006A00003E0FFF786FF0346521E012B01D1002A0B
:1006B000F7D102B90523184600BD10B504244FF444
:1006C0003020FFF7E7FF0446042C16D19C48006950
:1006D00040F004009A4908610846006940F0400073
:1006E00008614FF43020FFF7D5FF044694480069B5
:1006F00041F6FB71084092490861204610BD002078
:100700008F49C96901F0020109B1012000E0002010
:10071000704730B5A5250424FFF7F1FF00B100258F
:100720004FF43020FFF75DFF0446042C3AD1854892
:1007300083498860844888600846006940F020004A
:1007400008610846006940F0400008614FF430201D
:10075000FFF747FF0446042C1BD17948006941F696
:10076000DF710840764908610846006940F01000D2
:10077000086176480580E002FFF733FF0446052C48
:1007800010D06F48006941F6EF7108406C4908616C
:1007900008E0052C06D06A48006941F6EF71084070
:1007A00067490861204630BD78B506460C460425E9
:1007B00000200090E802FFF714FF0546042D24D125
:1007C0005F48006940F001005D4908613480E8023B
:1007D000FFF707FF0546042D10D1B01C0090200C38
:1007E00000990880E802FFF7FCFE054654480069BE
:1007F00041F6FE7108405249086106E05048006920
:1008000041F6FE7108404E490861284678BD70B532
:1008100004460D460426F002FFF7E3FE0646042ECA
:1008200011D14748006940F0010045490861258021
:10083000F002FFF7D6FE06464148006941F6FE7118
:1008400008403F490861304670BD70B505460E4608
:100850000424E002FFF7C5FE0446042C17D13948F2
:1008600037498860384888600846006940F01000C1
:1008700008612E80E002FFF7B4FE0446052C06D086
:100880002F48006941F6EF7108402D490861204664
:1008900070BD2DE9F04304464FF6FF763746B0466B
:1008A000B1460425E443E6B2C4F30727C4F307487E
:1008B0004FEA1469E802FFF794FE0546042D49D17A
:1008C00020481F498860204888600846006940F039
:1008D00010000861FF2E06D01C4808300680E80290
:1008E000FFF77FFE0546042D08D1FF2F06D01748DD
:1008F0000A300780E802FFF774FE0546042D0AD18E
:10090000B8F1FF0F07D011480C30A0F80080E802C2
:10091000FFF767FE0546042D0AD1B9F1FF0F07D096
:100920000A480E30A0F80090E802FFF75AFE05468C
:10093000052D0FD00248006941F6EF71084007E02D
:100940000020024023016745AB89EFCD00F8FF1F6F
:10095000664908612846BDE8F08330B505460424A1
:100960004FF43020FFF73DFE0446042C41D160488F
:100970005E4988605F4888600846006940F0200052
:1009800008610846006940F0400008614FF43020DB
:10099000FFF727FE0446042C22D15448006941F693
:1009A000DF710840514908610846006940F01000B5
:1009B00008611DB100205049088002E0A5204E4981
:1009C00008804FF43020FFF70CFE0446052C10D0B1
:1009D0004648006941F6EF7108404449086108E063
:1009E000052C06D04148006941F6DF7108403F49B7
:1009F0000861204630BDF0B505460E461746042472
:100A00003B483A4988603B488860E002FFF7E9FDCF
:100A10000446042C19D13548006940F010003349D0
:100A2000086147F0F800304328433349891C0880A7
:100A3000E002FFF7D6FD0446052C06D02B480069DE
:100A400041F6EF710840294908612046F0BD27486A
:100A5000C069800870472548006A70470020234914
:100A6000096801F0200109B1012000E00020704771
:100A700029B11E4A126902431C4B1A6104E01B4A49
:100A800012698243194B1A617047014600200129FF
:100A900008D1164AD26902F001020AB1012008E029
:100AA000002006E0114AD2680A400AB1012000E0A5
:100AB000002070470D49C860704704200B49C96881
:100AC00001F0010109B101200EE00849C96801F0F7
:100AD000040109B1022007E00449C96801F01001CE
:100AE00009B1032000E0042070470000002002400C
:100AF00023016745AB89EFCD00F8FF1F10B5044611
:100B0000CC48844208D10121042000F02DFB0021B3
:100B1000042000F029FB46E0C748844208D10121A7
:100B2000082000F021FB0021082000F01DFB3AE026
:100B3000C248844208D10121102000F015FB002199
:100B4000102000F011FB2EE0BD48844208D10121A5
:100B5000202000F009FB0021202000F005FB22E00E
:100B6000B848844208D10121402000F0FDFA00215C
:100B7000402000F0F9FA16E0B348844208D1012180
:100B8000802000F0F1FA0021802000F0EDFA0AE068
:100B9000AE48844207D10121801500F0E5FA00211A
:100BA000A01500F0E1FA10BD10B50121084600F0D3
:100BB000DBFA0021012000F0D7FA10BD2DE9F04149
:100BC000024600250026002000230024002791F87B
:100BD00003C00CF00F0591F803C00CF0100CBCF131
:100BE000000F03D091F802C04CEA050591F800C04F
:100BF000BCF1000F31D0146800202BE04FF0010C45
:100C00000CFA00F3B1F800C00CEA03069E4220D1B2
:100C100083004FF00F0C0CFA03F7BC4305FA03FCFA
:100C20004CEA040491F803C0BCF1280F06D14FF040
:100C3000010C0CFA00FCC2F814C00AE091F803C0E1
:100C4000BCF1480F05D14FF0010C0CFA00FCC2F8C2
:100C500010C0401C0828D1D31460B1F800C0BCF10A
:100C6000FF0F34DD546800202EE000F1080C4FF037
:100C7000010808FA0CF3B1F800C00CEA03069E4222
:100C800021D183004FF00F0C0CFA03F7BC4305FA97
:100C900003FC4CEA040491F803C0BCF1280F05D111
:100CA00000F1080C08FA0CF8C2F8148091F803C09F
:100CB000BCF1480F07D100F1080C4FF0010808FA09
:100CC0000CF8C2F81080401C0828CED35460BDE850
:100CD000F0814FF6FF710180022181700421C17003
:100CE00070470246002093680B400BB1012000E0E2
:100CF000002070470146886880B270470246002095
:100D0000D3680B400BB1012000E000207047014682
:100D1000C86880B2704701617047416170470AB18D
:100D2000016100E041617047C16070474FF480325B
:100D30000A438261816182618269826970470246E9
:100D40000020434B18684FF68073184040EA0210A9
:100D500008433F4B186070473E49C8617047F0B583
:100D60000A46002300240021002500F00046B6F1C9
:100D7000004F02D1364EF16901E0354E7168C0F383
:100D8000034583B200F44016B6F5401F08D121F0A8
:100D900070612F4E766826F070662D4F7E6012E0EF
:100DA00000F48016B6F5801F06D1032606FA05F476
:100DB000A14341F0706106E0460D360103FA06F6E4
:100DC000B14341F0706122B1460D360103FA06F6D7
:100DD000314300F00046B6F1004F02D11C4EF161E4
:100DE00001E01B4E7160F0BD30B500228B071C0F77
:100DF0000F2303FA04F2164B08338C1053F82430F7
:100E00009343134C08348D1044F8253023468C103E
:100E100053F824308C07240F00FA04F423430C4CBD
:100E200008348D1044F8253030BD0A49DC310860A3
:100E30007047000000080140000C01400010014014
:100E40000014014000180140001C01400020014036
:100E50000000014000002042DF48006840F001002F
:100E6000DD49086008464068DC490840DA494860C6
:100E700008460068DA490840D74908600846006813
:100E800020F4802008600846406820F4FE00486096
:100E90004FF41F0088607047CF49096821F4803102
:100EA000CD4A11601146096821F480211160B0F526
:100EB000803F03D0B0F5802F0ED106E0C649096807
:100EC00041F48031C44A116007E0C349096841F424
:100ED000A021C14A116000E000BF00BF704710B5FB
:100EE00001460022002300204A11012A02D1BA4CF7
:100EF000236806E0022A02D1B74C236A01E0B64C0F
:100F0000636A01F01F02012494401C400CB10120CF
:100F100000E0002010BD38B500200090002400251E
:100F200000BF3120FFF7DBFF05460098401C009012
:100F30000098B0F5A06F01D0002DF2D03120FFF75E
:100F4000CEFF08B1012400E00024204638BD014650
:100F50000020A14A106820F0F80040EAC1001060AB
:100F60007047A04908607047024600209A4B5868B5
:100F700020F47C1042EA01031843974B58607047F5
:100F800098490866704701460020934A506820F04F
:100F900003000843506070478F48406800F00C0021
:100FA0007047014600208C4A506820F0F00008434A
:100FB0005060704701460020874A506820F4E06086
:100FC00008435060704701460020834A506820F46F
:100FD000605040EAC1005060704729B17E4A527AA1
:100FE00002437D4B5A7204E07B4A527A82437A4B29
:100FF0005A7270477B49D83108607047014600201B
:10100000754A506820F44040084350607047002102
:10101000714A20321170704A82F82010012802D0E3
:1010200004280AD104E001216B4A2032117005E046
:101030000521694A2032117000E000BF00BF7047EF
:101040006949086070476449096A0143624A11624C
:101050007047654944390860704730B50021002267
:10106000002400235C4D6D6805F00C0121B10429BA
:1010700005D0082923D105E05C4D056022E05B4DD9
:1010800005601FE0544D6D6805F47012524D6D6897
:1010900005F48034022505EB92421CB9544D5543AA
:1010A00005600BE04C4D6D6805F400351DB1504DE9
:1010B0005543056002E04D4D5543056002E04B4D40
:1010C000056000BF00BF444D6D6805F0F0010909DF
:1010D000484D6B5C0568DD4045603F4D6D6805F42B
:1010E000E061090A434D6B5C4568DD4085603A4D1F
:1010F0006D6805F46051C90A3E4D6B5C4568DD4082
:10110000C560354D6D6805F44041890B3A4D6B5C07
:10111000C568B5FBF3F5056130BD29B12E4A5269AA
:1011200002432D4B5A6104E02B4A526982432A4BF9
:101130005A61704729B1284A92690243264B9A6145
:1011400004E0254A92698243234B9A61704729B192
:10115000214AD2690243204BDA6104E01E4AD26977
:1011600082431D4BDA61704729B11B4AD2680243A2
:10117000194BDA6004E0184AD2688243164BDA60F1
:10118000704729B1144A12690243134B1A6104E0F3
:10119000114A12698243104B1A6170471249403953
:1011A000086070470F49C86470470B49C8717047A1
:1011B0000948406A40F0807007494862704701461C
:1011C0000020054A92680A400AB1012000E0002090
:1011D0007047014988727047001002400000FFF814
:1011E000FFFFF6FE000042428004424200127A00F5
:1011F00000093D00140000202400002010B5044622
:10120000FE48844208D10121C014FFF7ADFF002140
:10121000E014FFF7A9FFC4E0B4F1804F08D1012129
:101220000846FFF7AEFF00210120FFF7AAFFB8E054
:10123000F348844208D101210220FFF7A2FF0021D8
:101240000220FFF79EFFACE0EE48844208D1012166
:101250000420FFF796FF00210420FFF792FFA0E093
:10126000E948844208D101210820FFF78AFF0021C4
:101270000820FFF786FF94E0E448844208D101216A
:101280001020FFF77EFF00211020FFF77AFF88E093
:10129000DF48844208D101212020FFF772FF00219E
:1012A0002020FFF76EFF7CE0DA48844208D101215C
:1012B0004014FFF759FF00216014FFF755FF70E05D
:1012C000D548844209D10121C804FFF74DFF002110
:1012D0004FF40020FFF748FF63E0D048844209D173
:1012E00001210805FFF740FF00214FF48010FFF7B0
:1012F0003BFF56E0CA48844209D101214805FFF767
:1013000033FF00214FF40010FFF72EFF49E0C548DE
:10131000844208D101214020FFF733FF0021402003
:10132000FFF72FFF3DE0C048844208D10121802013
:10133000FFF727FF00218020FFF723FF31E0BB48A4
:10134000844208D101218015FFF71BFF0021A01561
:10135000FFF717FF25E0B648844209D101210804B0
:10136000FFF702FF00214FF48030FFF7FDFE18E089
:10137000B048844209D101214804FFF7F5FE00215D
:101380004FF40030FFF7F0FE0BE0AB48844208D189
:1013900001218804FFF7E8FE00214FF48020FFF7C9
:1013A000E3FE10BD00220288944B98420ED0994B68
:1013B00098420BD0B0F1804F08D0914B984205D0A5
:1013C000904B984202D0904B984204D14FF68F73C5
:1013D0001A404B881A438D4B984207D08C4B984249
:1013E00004D04FF6FF431A40CB881A4302808B8803
:1013F00083850B880385814B98420BD0854B98429F
:1014000008D08B4B984205D08A4B984202D08A4B29
:10141000984201D10B7A038601238382704770B50D
:10142000002400220023058C4FF6FE76354005840B
:10143000028C8388048B4FF68F752C40B51E2C4090
:101440000D882C43751E2A400D892A434D882A4356
:101450006A4DA8420BD06F4DA84208D0744DA842E7
:1014600005D0744DA84202D0734DA84213D14FF657
:10147000F7752A404D892A434FF6FB752A408D881F
:101480002A434FF6FF652B404FF6FF552B408D89C1
:101490002B43CD892B4383800483CD8885860284AA
:1014A00070BD70B5002400220023058C4FF6EF7646
:1014B00035400584028C8388048B48F6FF752C40E8
:1014C0004FF6FF452C400D884FF6FF7606EA0525BE
:1014D0002C434FF6DF752A400D8906EA05152A438D
:1014E0004D8806EA05152A43444DA84202D0494DCD
:1014F000A8421DD14FF67F752A404D894FF6FF76E1
:1015000006EA05152A434FF6BF752A408D8806EA7C
:1015100005152A434FF6FF352B404FF2FF752B4040
:101520008D8906EA85052B43CD8906EA85052B437F
:1015300083800483CD880587028470BD70B5002444
:1015400000220023058C4FF6FF6635400584028C8F
:101550008388848B4FF68F752C404FF6FC752C409A
:101560000D882C434FF6FF552A400D894FF6FF7624
:1015700006EA05252A434D8806EA05252A431F4D1C
:10158000A84202D0234DA8421DD14FF2FF752A4038
:101590004D894FF6FF7606EA05252A434FF6FF35BB
:1015A0002A408D8806EA05252A434EF6FF752B4012
:1015B0004DF6FF752B408D8906EA05152B43CD8925
:1015C00006EA05152B4383808483CD8885870284B2
:1015D00070BD70B5002200230024058C4EF6FF7606
:1015E00035400584038C8488828B48F6FF752A4039
:1015F0004FF6FF452A400D8820E00000002C0140F6
:101600000004004000080040000C004000100040B2
:101610000014004000340140004C014000500140E3
:101620000054014000180040001C00400020004011
:101630000040014000440140004801404FF6FF7661
:1016400006EA05252A434DF6FF752B400D8906EA6B
:1016500005352B434D8806EA05352B43FA4DA84244
:1016600002D0FA4DA84208D14BF6FF752C408D8967
:101670004FF6FF7606EA85152C4384808283CD8859
:10168000A0F84050038470BD828B4FF2FF331A40A4
:101690008283828B4FF6FF7303EA01231A4382830E
:1016A0007047F0B50C461546002200210026078C35
:1016B0004EF6FF7C07EA0C070784828B018C4FF6FD
:1016C000FF7707EA043640F6FF473A404FF6FF77C8
:1016D00007EA05273A434FF6FF7707EA03373A430D
:1016E000D94FB8420ED0D94FB8420BD0B0F1804F8D
:1016F00008D0D74FB84205D0D64FB84202D0D64F07
:10170000B84206D14DF6FF77394046F48057394349
:1017100005E047F6FF57394044F480573943828348
:101720000184F0BD828B4FF6F3731A408283828B63
:101730000A4382837047F0B50C461546002200210B
:101740000026078C4FF6FF6C07EA0C070784828B94
:10175000018C4FF6FF7707EA04264FF60C773A40E4
:101760004FF6FF7707EA03172F433A43B64FB842C5
:101770000ED0B64FB8420BD0B0F1804F08D0B44F66
:10178000B84205D0B34FB84202D0B34FB84206D1E9
:101790004FF6FF57394046F48077394305E04FF262
:1017A000FF57394044F48077394382830184F0BD88
:1017B000028B4FF2FF331A400283028B4FF6FF7306
:1017C00003EA01231A4302837047F0B50C4615461D
:1017D000002200210026078C4FF6EF7C07EA0C0759
:1017E0000784028B018C4FF6FF7707EA041640F658
:1017F000FF473A404FF6FF7707EA03373A434FF681
:10180000FF7707EA05273A438F4FB8420ED08F4F34
:10181000B8420BD0B0F1804F08D08D4FB84205D000
:101820008C4FB84202D08C4FB84206D14FF6DF77CA
:10183000394046F01007394305E04FF65F773940ED
:1018400044F01007394302830184F0BD028B4FF648
:10185000F3731A400283028B0A4302837047F0B588
:101860000C46154600220021068C4FF6FE773E40BE
:101870000684028B018C4FF60C7632407E1C06EA01
:1018800003162E433243704EB0420ED06F4EB0421C
:101890000BD0B0F1804F08D06D4EB04205D06D4EE8
:1018A000B04202D06C4EB04206D14FF6FD763140C8
:1018B00044F00106314305E04FF6F576314044F03F
:1018C0000106314302830184F0BD70B505460C4624
:1018D0005D4885420ED05D4885420BD0B5F1804F02
:1018E00008D05B48854205D05A48854202D05A4804
:1018F000854200D100E000BF208850B92389A2882A
:1019000061882846FFF7ABFFE1882846FFF79EFF76
:1019100025E0208804280AD12389A28861882846E6
:10192000FFF753FFE1882846FFF742FF17E02088C2
:1019300008280AD12389A28861882846FFF7FBFE80
:10194000E1882846FFF7EEFE09E02389A288618836
:101950002846FFF7A6FEE1882846FFF795FE70BDF2
:101960002DE9F04105460C4600260127608808B99C
:10197000022600E00026A088012801D1022700E00D
:1019800001272088A0B92389A28861882846FFF70B
:1019900066FFE1882846FFF759FF23893A4631461A
:1019A0002846FFF712FFE1882846FFF701FF13E002
:1019B0002389A28861882846FFF707FFE188284627
:1019C000FFF7F6FE23893A4631462846FFF747FFE0
:1019D000E1882846FFF73AFFBDE8F0810A884B8886
:1019E0001A438B881A43CB881A430B891A434B89B5
:1019F0001A438B891A43A0F8442070474FF6FF71B1
:101A0000818000210180C1804180017270470021E6
:101A1000018041808180C180018141818181C181BA
:101A20007047002101804180012181800021C18017
:101A3000018170470021018041808180C180018146
:101A40004181818170470000002C01400034014039
:101A50000004004000080040000C004021B1028852
:101A600042F00102028004E002884FF6FE731A4041
:101A70000280704731B1B0F8442042F40042A0F82F
:101A8000442005E0B0F84420C2F30E02A0F8442040
:101A900070471AB183890B43838102E083898B43AA
:101AA000838170478182704741EA0203A0F8483081
:101AB00070471AB183890B43838102E083898B438A
:101AC0008381704701894FF6F87211400181704798
:101AD0000A46002101894FF68F7319401143018195
:101AE000704730B504460D4629462046FFF7F0FF03
:101AF000208940F00700208130BD2DE9F0410446E7
:101B00000D4616461F46602D06D13B460122314642
:101B10002046FFF75AFE05E03B46012231462046AB
:101B2000FFF79DFE29462046FFF7D2FF208940F0AF
:101B300007002081BDE8F08130B50C460021018905
:101B4000C9B24FF6FF7505EA03251543254329431E
:101B5000018130BD2DE9F04105460E4617469846F5
:101B6000002443463A4631462846FFF7E5FF2C89D4
:101B70004FF6F870044044F007044FF68F700440AD
:101B800044F070042C81BDE8F081F0B504460D46A8
:101B900016461F463B46324629462046FFF7CCFFF5
:101BA000208940F480402081F0BD01858282704709
:101BB0000A46002101884FF68F73194011430180B6
:101BC0007047F0B50C4615461E4600210022002342
:101BD0000189028B038C4FF6F877394021434FF689
:101BE000FC473A4040F201173A434FF6DD773B405D
:101BF0004FF6FF7707EA06172F433B430181028325
:101C00000384F0BD0A460021018B4FF68F73194003
:101C10001143018370470A460021018B48F6FF7388
:101C200019404FF6FF7303EA0223194301837047FB
:101C30000A460021818B4FF68F731940114381832F
:101C400070470A460021818B48F6FF7319404FF612
:101C5000FF7303EA022319438183704721B102888D
:101C600042F08002028004E002884FF67F731A403F
:101C70000280704721B1828842F00402828004E031
:101C800082884FF6FB731A408280704721B18288A8
:101C900042F00802828004E082884FF6F7731A400F
:101CA0008280704721B1828842F00102828004E084
:101CB00082884FF6FE731A40828070470A460021E0
:101CC000018B4FF6F77319401143018370470A46A1
:101CD0000021018B4FF2FF7319404FF6FF7303EAA7
:101CE00002231943018370470A460021818B4FF676
:101CF000F77319401143818370470A460021818B95
:101D00004FF2FF7319404FF6FF7303EA02231943A2
:101D1000818370470A460021018B4FF6FB731940FF
:101D20001143018370470A460021018B4FF6FF33B0
:101D300019404FF6FF7303EA0223194301837047EA
:101D40000A460021818B4FF6FB73194011438183B2
:101D500070470A460021818B4FF6FF3319404FF63A
:101D6000FF7303EA02231943818370470A46002167
:101D7000018B4FF67F7319401143018370470A4668
:101D80000021018BC1F30E014FF6FF7303EA02231A
:101D90001943018370470A460021818B4FF67F73F8
:101DA00019401143818370470A460021818BC1F39A
:101DB0000E014FF6FF7303EA022319438183704734
:101DC0000A460021018C4FF6FD731940114301842E
:101DD00070470A460021018C4FF6F77319401143F2
:101DE000018470470A460021018C4FF6DF731940C9
:101DF0004FF6FF7303EA02131943018470470A4642
:101E00000021018C4FF67F7319404FF6FF7303EAF0
:101E100002131943018470470A460021018C4FF6D2
:101E2000FF5319404FF6FF7303EA0223194301845D
:101E300070470A460021018C4FF2FF7319404FF69C
:101E4000FF7303EA02231943018470470A46002105
:101E5000018C4DF6FF7319404FF6FF7303EA02330E
:101E600019430184704730B5002301248C40A3B28C
:101E7000048C9C430484048C02FA01F5ADB22C431B
:101E8000048430BD30B5002304248C40A3B2048CFC
:101E90009C430484048C02FA01F5ADB22C43048403
:101EA00030BD70B5034600200024184618300125C7
:101EB0008D40ACB21D8CA5431D8409B1082909D100
:101EC00000EB6100056825F07005056005681543A5
:101ED00005600EE00D1FC5F34E052844056825F486
:101EE000E045056005684FF6FF7606EA02263543B1
:101EF000056070BD21B1028842F00202028004E058
:101F000002884FF6FD731A400280704721B10288A3
:101F100042F00402028004E002884FF6FB731A408C
:101F20000280704721B1828842F08002828004E002
:101F300082884FF67F731A408280704702884FF67E
:101F4000F7731A40028002880A4302807047828831
:101F50004FF68F731A40828082880A4382807047CE
:101F600002894FF6F8731A40028102890A430281FE
:101F7000704702894FF67F731A40028102890A4333
:101F800002817047818470478185704781867047E0
:101F90000187704781877047A0F84010704702881A
:101FA0004FF6FF431A40028002880A4302807047BE
:101FB0000146888E70470146088F70470146888F1A
:101FC00070470146B1F8400070470146888C704761
:101FD0000146088D704702460020138A0B400BB162
:101FE000012000E000207047CA430282704730B5EC
:101FF0000246002000230024158A05EA0103958982
:1020000005EA010413B10CB1012000E0002030BD4D
:10201000CA4302827047000010B50446FB48844260
:1020200009D101218803FFF79FF800214FF4804078
:10203000FFF79AF832E0F648844209D101214804BA
:10204000FFF79FF800214FF40030FFF79AF825E0E2
:10205000F048844209D101218804FFF792F8002159
:102060004FF48020FFF78DF818E0EB48844209D147
:102070000121C804FFF785F800214FF40020FFF785
:1020800080F80BE0E548844208D101210805FFF7FC
:1020900078F800214FF48010FFF773F810BD2DE998
:1020A000F04786B005460E460024A24600BFA14672
:1020B0000027B08900B100BF2F462C8A4CF6FF7074
:1020C0000440F08804432C82AC894EF6F31004409F
:1020D000B08831890843718908430443AC81AC8AD4
:1020E0004FF6FF400440B0890443AC8201A8FEF7DC
:1020F000B4FFC648874202D1DDF810A001E0DDF848
:102100000CA0A88900F4004040B10AEBCA0000EB23
:102110000A1031684900B0FBF1F807E00AEBCA0089
:1021200000EB0A1031688900B0FBF1F86420B8FBBD
:10213000F0F004012009642101FB1089A88900F452
:10214000004040B1322000EBC900B0FBF1F000F0DC
:102150000700044308E0322000EB09106421B0FBC3
:10216000F1F000F00F0004432C8106B0BDE8F087C9
:102170004FF41651016000218180C18001810C2142
:10218000418100218181704710B502460020108AEC
:102190004FF2FF0318400B884C8823438C8823435D
:1021A000CC8823431843108210BD00210180418058
:1021B0008180C180704721B1828942F400528281BE
:1021C00004E082894DF6FF731A4082817047F0B5B2
:1021D0000346002400260025002040F66A17B94275
:1021E00000D100BF1846C1F3421401F01F060127B9
:1021F00007FA06F5012C01D10C3004E0022C01D1C4
:10220000103000E014301AB107682F43076002E075
:102210000768AF430760F0BD1AB1838A0B4383821E
:1022200002E0838A8B4383827047028A4FF6F07301
:102230001A400282028A0A430282704782894FF260
:10224000FF731A40828182890A438281704721B1DB
:10225000828942F00202828104E082894FF6FD7396
:102260001A4082817047028A4FF6DF731A40028259
:10227000028A0A430282704721B1028A42F48042F4
:10228000028204E0028A4BF6FF731A400282704712
:10229000C1F308028280704701468888C0F30800B5
:1022A0007047818941F0010181817047028BD2B270
:1022B0000283028B42EA012202837047028B02F4FE
:1022C0007F420283028B0A430283704721B1828AD4
:1022D00042F02002828204E0828A4FF6DF731A40C5
:1022E0008282704721B1828A42F01002828204E029
:1022F000828A4FF6EF731A408282704721B1828A38
:1023000042F00802828204E0828A4FF6F7731A4094
:102310008282704721B1828942F40042828103E0C7
:102320008289C2F30E028281704721B1828A42F40F
:102330000062828204E0828A4FF2FF731A40828236
:102340007047828A4FF6FB731A408282828A0A4360
:102350008282704721B1828A42F00202828204E0C6
:10236000828A4FF6FD731A4082827047024600202F
:10237000B1F5007F00D100BF13880B400BB10120E5
:1023800000E00020704701F40072B2F5007F00D138
:1023900000BFCA430280704770B502460024002384
:1023A0000025002040F66A16B14200D100BFC1F3FB
:1023B000421501F01F03012606FA03F3012D02D195
:1023C0009689334006E0022D02D1168A334001E09F
:1023D000968A33400C12012606FA04F4168834401B
:1023E00013B10CB1012000E0002070BD10B5002237
:1023F000002340F66A14A14200D100BF0A12012452
:102400009440A3B2DC43048010BD000000380140BA
:102410000044004000480040004C00400050004094
:1024200008B54FF4A060FDF78FFF25208DF8000060
:1024300000208DF8010002208DF8020001208DF8A7
:1024400003006846FDF785FF08208DF80000002096
:102450008DF8010001208DF802008DF80300684618
:10246000FDF777FF17208DF8000000208DF80100A0
:102470008DF8020001208DF803006846FDF769FF22
:1024800008BD2DE9F041FAA004F09CFD8820FE492A
:10249000487088700020FD490870FF20FC49887052
:1024A000487008700020C87008716420F9490870ED
:1024B0004FF07C50F8490860F8490888F8490988C5
:1024C00003F0CCFEF5494888F249097803F0C6FECE
:1024D000EF4A1179F14A908803F0C0FEEA4A527837
:1024E000E94B9B7842EA0321EC4AD08803F0B6FE20
:1024F000EA490889EB49098803F0B0FEE44A1178FB
:10250000E64A508903F0AAFEE14A5178E34A9089ED
:1025100003F0A4FEDE4A9178E04AD08903F09EFEE3
:10252000DB4AD178DD4A108A03F098FEDB49488AFD
:10253000D649097803F092FED849888ADA490978A1
:1025400003F08CFED949D448006804F025F905460B
:1025500004F0FFFA84B2D149C88A214603F07EFE16
:10256000D34801F045FACF48008804F0E5FA064662
:102570000022D04B04F05BFA044622460B46CEA064
:1025800004F020FDC648008804F0D6FA0646002272
:10259000C84B04F04CFA044622460B46CCA004F08B
:1025A00011FDBC480178D0A004F00CFDB848C278F9
:1025B0000179D2A004F006FDB5488378427801780D
:1025C000D4A004F0FFFCB04842788178AF4803788B
:1025D000D5A004F0F7FCAF48007804F0ADFA064649
:1025E0000022D84B04F023FA044604F0D9FAAA4991
:1025F0000860A848007802F0BEF9BDE8F08110B587
:1026000003F00FFBD04908700846007862284FD0CD
:1026100008460078A2284BD008460078E22847D028
:1026200008460078C22843D00846007890283FD05A
:102630000846007868283BD008460078302837D014
:1026400008460078182833D0084600787A282FD01A
:102650000846007810282BD008460078382827D064
:10266000084600785A2823D00846007842281FD010
:10267000084600784A281BD008460078522817D010
:1026800008460078A82813D008460078E0280FD024
:102690000846007822280BD008460078022807D088
:1026A00008460078982803D008460078B0285DD105
:1026B000A6480078012839D10020A5490880FF20CC
:1026C000A4490870052001F093F972480078E8B930
:1026D0009D480078A82807D09B480078E02803D0C0
:1026E00099480078902803D100209B49087003E0A6
:1026F0009548007898490870974802F002FE01203A
:1027000096490870642002F036F925E08E4800787A
:10271000902803D100209049087003E08A4800788F
:102720008D4908708C4802F0ECFD15E08748007870
:102730000F2811D184480078902807D1052001F096
:1027400057F9814800788449087005E07E48007890
:10275000C22801D1FFF795FE7B48017880A004F0E4
:1027600031FC7A48017882A004F02CFC10BD10B531
:102770008248007820B101F0CFFB00207F4908702B
:1027800010BD10B541480078002835D03E4880780B
:102790007B49897888420BD13B4840787849497811
:1027A000884205D17648007810B90120694908703F
:1027B0006848007800280EDD6648007820280ADA8C
:1027C00064480078401C634908703248007810B9AA
:1027D000642002F0D0F85F48007820280CD1FF2058
:1027E0005C49087040216748FEF797FA294800784D
:1027F00010B901205949087056480078FF2808D1BF
:10280000214840785E494978884202D000205149E9
:10281000087010BD10B55A48007878B9584840780B
:1028200060B957488078082808DD55488078222804
:1028300004DA4848007808B901F0E8F810BD10B58E
:1028400014480078002810D14448007820B143484B
:102850000078401C4149087049488078062805DA0C
:102860004748407800B98FE0A3E0B7E095E000006A
:10287000466163746F7279205265736574696E671F
:102880002E2E2E0D0A0D0A006A00002041000020A5
:10289000780000203800002098000020AC000020C4
:1028A00034000020360000203D0000200000C84217
:1028B000006A18000000104052756E54696D653A48
:1028C000252E326620486F7572200D0A0000000028
:1028D0004C6967687454696D653A252E32662048E4
:1028E0006F7572200D0A00004C696768744C65763C
:1028F000656C3A2564200D0A000000005247423AF8
:1029000053746174652D2564204D6F64652D2564B5
:102910000D0A0000523A256420473A256420423AC5
:10292000256420200D0A0000416C61726D3A257803
:102930003A2578205377697463683A25640D0A0D47
:102940000A00000000E06F4028000020A4000020E2
:102950004400002040000020290000204200002008
:1029600052656D6F74654B65793A256420000000EF
:10297000636E743A2564200D0A00000050000020A8
:1029800063000020000C0140FE48007888B9FE4832
:102990000078401CFC4908700BE0FA48007818B138
:1029A000F8480078302804D1F7480078401CF649F0
:1029B0000870F5480078002806DDF34800780628FE
:1029C00002DA642001F0D7FFEF480078062808DB20
:1029D0000020ED49087001F0CEFF02E00020EA4936
:1029E000087010BD10B50024E8480078002878D0A1
:1029F000E4488079E6498871E24840794871E148C5
:102A000000790871DF4880788870DE484078487027
:102A100000200870DB48C078C8700020DD490870CD
:102A20000420DD490870DD48007818B9642001F001
:102A3000A2FF012459E0DA4802F026FDD9480078C7
:102A4000A0B30020D7490870D7480068401CD64979
:102A50000860D248007820B1D4480068401CD349AF
:102A60000860D1480068B0F5617F07D10020CE49E9
:102A70000860CF480088401CCD490880CB480068DA
:102A8000B0F5617F07D10020C8490860C9480088B7
:102A9000401CC8490880BB48007808B902F0FBFB1D
:102AA000C548006880F04000C3490860C34800780A
:102AB00020B102F0CFFB0020C049087003F0B1F84C
:102AC000BF4908700846007860B1BE480078012808
:102AD00008D1052000F08CFFB9480078B049087093
:102AE00003E028E00020AE490870A84800780028DC
:102AF000A1D1012C01D101F03EFFA74800780428A4
:102B000016D10002B049086040000860AF488078E4
:102B1000242803DCAD4840783C2803DB0020AC4986
:102B2000087002E00120AA49087002F057FC02E098
:102B3000974800F062FD10BD2DE9F041A549888A53
:102B4000A54903F0E4F9A4480078A44908700846B0
:102B50000078AA2803D0AA200870FFF792FC9D49AC
:102B600008899D4903F0D3F99B4800889049088063
:102B700098490888984903F0CAF9974800888D4910
:102B8000088094494888944903F0C1F99248007834
:102B9000824908708F4988888F4903F0B8F98E48B8
:102BA00000788F4908718B49C8888B4903F0AFF9C9
:102BB00089480088000A85498870874800784870ED
:102BC00084498888844903F0A2F9834800788449BD
:102BD000087180494889804903F099F97E48007856
:102BE0007F4908707B4988897B4903F090F97A48CE
:102BF00000787B4948707749C889774903F087F99D
:102C000075480078764988707249088A724903F0DD
:102C10007EF9714800787249C8706E49488A6E49D9
:102C200003F075F96C480078694908706949C88AE9
:102C3000694903F06CF96848008803F07DFF064697
:102C40000022684B03F0F3FE044603F0A9FF664937
:102C500008605748008803F06FFF06460022634B68
:102C600003F0E5FE044622460B4661A004F0AAF9F3
:102C70005048008803F060FF064600225B4B03F0DB
:102C8000D6FE044622460B465FA004F09BF943485B
:102C90000178AFF2AC3004F095F95348006803F0C6
:102CA0006CFF044622460B465DA004F08BF94C48AD
:102CB000C2780179AFF2BC3004F084F948488378D7
:102CC00042780178AFF2B43004F07CF93F484278A2
:102CD00081783F48037857A004F074F9BDE8F0818B
:102CE0000EB500F0B1FA00F055FB00F0F9FAFFF76D
:102CF00097FBFDF744FC03F02AFA02F0C9FF00F04D
:102D0000B2FF00F06AFC03F0DDFA00F05AFE00F0BA
:102D1000F7FF02F00AFF02F032FEFFF70DFF01F0AD
:102D20004AFE1E48007801F026FE01201649087070
:102D300000BF00F086FEFFF755FE194802F0A4FB25
:102D40001848007800281BD0002016490870164843
:102D50000068401C144908601048007848B93B4896
:102D60000088B0F5616F04DA38480088401C3749A4
:102D700008800A48007810B9354800886AE06AE09F
:102D800046E10000630000204200002039000020DE
:102D90005C0000203A0000203B00002038000020AA
:102DA0002900002048000020300000202C000020D6
:102DB00036000020340000200C08014051000020A3
:102DC00028000020A4000020100C01406A00002010
:102DD00041000020AC0000203E0000203D0000200B
:102DE00078000020000059409800002000001040AA
:102DF0002052756E54696D6520203A252E3266206A
:102E0000486F7572200D0A004C6967687454696DCB
:102E100065203A252E326620486F7572200D0A0013
:102E20004C69676874436F6520203A252E3266200E
:102E30000D0A0000416C61726D3A25783A257820C0
:102E40005377697463683A25640D0A0044000020D2
:102E50004000004020B171480068401C6F49086084
:102E60006F480068B0F5617F09D100206C490860A7
:102E70006C480088401C6B49088002F0AFFA674834
:102E80000068B0F5617F07D100206449086066489A
:102E90000088401C644908806448007808B902F042
:102EA000FAF903F06DFA6249486003F013FA6049D9
:102EB000086000F0E0FE5F4908605F4802F021FA18
:102EC000FFF7BDFCFFF7A6FCFFF75BFC5B48006863
:102ED00080F04000594908605448C0785349097847
:102EE000524A5278CDE90021029050488378027905
:102EF000417953A004F066F84D49486803F03DFE5F
:102F000004460D464B48006803F037FE064632463D
:102F10000B4654A0CDE9004504F054F85848018808
:102F200058A004F04FF85A4801785AA004F04AF823
:102F30005B4801785BA004F045F85D4801785DA02E
:102F400004F040F85D4801785DA004F03BF85F486C
:102F500001785FA004F036F86048017860A004F0C2
:102F600031F86248017962A004F02CF82B4800681F
:102F70003C21B0FBF1F201FB120428480068B0FBD1
:102F8000F1F029490988C1EB011108443C21B0FB4B
:102F9000F1F201FB120521480068B0FBF1F0224973
:102FA0000988C1EB011108443C21B0FBF1F623462E
:102FB0002A46314652A004F005F8194800683C2121
:102FC000B0FBF1F201FB120415480068B0FBF1F010
:102FD00014490988C1EB011108443C21B0FBF1F20E
:102FE00001FB12050E480068B0FBF1F00D4909889D
:102FF000C1EB011108443C21B0FBF1F623462A46FF
:10300000314643A003F0DEFFAFF2DC1003F0DAFF3D
:10301000FFF7ADFBFFF7F3FA8BE600002C00002072
:103020003000002036000020340000206300002023
:103030002401002074000020290000200C08014019
:10304000443A253032782D2530327820543A2530D4
:1030500032783A253032783A2530327820576B3A38
:1030600025782000546D703A25332E3166A1E62074
:1030700048756D693A25332E31662525207C200060
:10308000440000204E6264793A256420000000006C
:10309000380000204C4C766C3A256420000000007B
:1030A00042000020466F734C743A256420000000F3
:1030B00040000020416C6D3A25642000A5000020EE
:1030C000526D5264793A25642000000028000020E7
:1030D000526D6B65793A256420000000A400002041
:1030E000526D436E743A2564200000007800002081
:1030F0005247427374653A2564207C20000000002A
:103100004C543A25643A25643A25642000000000B6
:1031100052543A25643A25643A25642000000000A0
:10312000704700BFFEE700BFFEE700BFFEE700BF3D
:10313000FEE770477047704710B50420FDF7E6F9C9
:1031400040B1384800F0C1FA012037490870042026
:10315000FDF7EDF910BD10B500F00AF9334800682D
:10316000401C32490860084600680521B0FBF1F2B6
:1031700001FB120010B901202D4908702B4800688E
:103180004FF4FA71B0FBF1F201FB120010B901200B
:1031900028490870254800684FF47A71B0FBF1F2B5
:1031A00001FB1200B0F5FA7F03D20120224908701A
:1031B00002E00020204908702048007888B31B48AE
:1031C00000686421B0FBF1F201FB120048BB1C490E
:1031D000087800EBD0714910A0EB410139B91849CA
:1031E0000978072903DA01201649087002E0002057
:1031F0001449087012480078072806DB1048007848
:103200000D2802DC00200F4908700D4800780A28BC
:1032100002DB00200A49087009480078401C084970
:10322000087010BD63000020480000204C00002002
:1032300050000020510000205200002040000020DB
:10324000540000205300002008B501210C20FDF798
:1032500071FF4020ADF8000010208DF8030003201E
:103260008DF8020069461B48FDF7A8FC4FF440604A
:10327000ADF8000010208DF8030003208DF8020047
:1032800069461548FDF79AFC40211248FDF743FDB9
:103290004FF440611048FDF73EFD08BD0E480C306C
:1032A000006880F480600C490C31086008460068B2
:1032B00080F400600860704710B50848007820B1BD
:1032C00040210448FDF727FD03E040210148FDF7B8
:1032D00024FD10BD00080140000C014052000020F8
:1032E00030B5284800684FF47A72B0FBF2F1B1F1C2
:1032F000807F01D301201DE021F07F40401E4FF070
:10330000E022506150170F22002807DA13071D0E24
:103310001D4B00F00F04241F1D5503E013071C0E66
:103320001A4B1C5400BF00204FF0E0229061072090
:103330001061002008B100BFFEE74FF0E0200069F7
:1033400040F001004FF0E021086130BD01B51049A7
:10335000009808604FF0E020006940F001004FF055
:10336000E021086100BF0A4800680028FBD108BDC1
:103370000748006820B106480068401E04490860FC
:10338000704700000000002018ED00E000E400E0BD
:103390005800002000B585B0012144F20400FDF77B
:1033A000C9FE4FF40070ADF8100018208DF813001E
:1033B00003208DF8120004A94048FDF7FFFB4FF4ED
:1033C0008060ADF8100004208DF8130004A93B487C
:1033D000FDF7F4FB4FF4E13000900020ADF804005D
:1033E000ADF80600ADF80800ADF80C000C20ADF803
:1033F0000A0069463248FEF752FE012240F225518A
:103400002F48FEF7E4FE01212D48FEF7D4FE05B05B
:1034100000BD10B540F225512948FEF7BDFF38B177
:103420002748FEF739FFC4B2214626A003F0CAFDA3
:1034300010BD70B504460D46E1B22148FEF728FFE5
:1034400000BF40211E48FEF791FF0028F9D020461A
:1034500070BD10B5044600BF20211948FEF786FF55
:103460000028F9D01648FEF717FF10BD70B50446C6
:103470000D4629462046FEF70BFF00BF402120469F
:10348000FEF774FF0028F9D070BD2DE9F041074622
:103490000D461646002400BF0CE0295D3846FEF7B5
:1034A000F7FE00BF40213846FEF760FF0028F9D044
:1034B000601C84B2B442F0DBBDE8F081000801403A
:1034C0000038014025630D0A000000000EB50121FF
:1034D0002120FDF72FFE0420ADF8080048208DF8CC
:1034E0000B0002A9A748FDF769FB02210320FDF7A5
:1034F0007BFC0420009000208DF804000C208DF847
:10350000050001208DF806006846FCF799FF0EBD06
:1035100010B5D02000F037FA10BD2DE9F04706466F
:103520000F469046B94600242BE0ECB900F06BF949
:1035300000250AE000F04FF9D02000F076F900F005
:10354000C2F900B903E0681C85B2642DF2DB00BF4C
:10355000B5F57A7F00D11BE009F0FF0000F065F9B6
:1035600000F0B1F900B113E0305D00F05EF900F059
:10357000AAF900B10CE009F101001FFA80F9601C02
:1035800084B24445D1DB00F03EF90120BDE8F0876C
:1035900000F039F90020F9E71CB5002001908020E7
:1035A00000900120019001220E2101A8FFF7B5FF34
:1035B000012207216846FFF7B0FF01220821684673
:1035C000FFF7ABFF012209216846FFF7A6FF0122A2
:1035D0000A216846FFF7A1FF1CBD10B5012108466E
:1035E000FDF7A8FD01216848FDF7B9FBFFF790FF43
:1035F000FFF76CFFFFF7D0FF10BD7CB5044600203D
:1036000000900190002520788DF8000060788DF8FA
:103610000100A0788DF80200E0788DF80300207991
:103620008DF8040060798DF80500A0798DF806000A
:103630000FE0681CC5B2072200216846FFF76DFF46
:10364000012803D151A003F0BDFC04E052A003F017
:10365000B9FC052DEDDB00BF7CBD2DE9F041064630
:103660000F46154600F0B7F8D02000F0DEF800F065
:103670002AF900B125E0F8B200F0D7F800F023F9FC
:1036800000B11EE000F0A7F8D12000F0CEF800F065
:103690001AF900B115E000240CE000F0F3F8305501
:1036A000681EA04202D000F02BF901E000F042F9C0
:1036B000601C84B2AC42F0DB00F0A5F80120BDE84C
:1036C000F08100F0A0F80020F9E71CB504460020C6
:1036D00000900190072200216846FFF7BEFF0128F5
:1036E00015D19DF8000020709DF8010060709DF8D4
:1036F0000200A0709DF80300E0709DF804002071A6
:103700009DF8050060719DF80600A07102E026A0FA
:1037100003F058FC1CBD38B504460122214668461A
:10372000FFF79BFF9DF8000038BD13B5044601224A
:10373000214601A8FFF7F1FE012800D11CBD0020A1
:10374000FCE710B586B0142101A802F0C2FF0024E6
:103750001322002101A8FFF780FF01280CD100BF30
:1037600007E001A8025D214613A003F02BFC601CBA
:10377000C4B2132CF5DB02E00BA003F023FC06B06F
:1037800010BD00000014014000023000577269743F
:1037900065204F4B0D0A0000577269746520466121
:1037A000696C6564210D0A00526561642066616977
:1037B0006C6564210D0A0000526567307825783AFF
:1037C000307825780D0A0000002001E0411CC8B2C5
:1037D0000A28FBDB704710B510217348FDF79BFAF0
:1037E00008217148FDF797FAFFF7EEFF10216E48A8
:1037F000FDF793FAFFF7E8FF08216B48FDF78DFA14
:10380000FFF7E2FF10BD10B510216748FDF785FAFC
:1038100008216548FDF77FFAFFF7D6FF10216248BF
:10382000FDF779FAFFF7D0FF10BD70B5044600250B
:1038300023E004F0800020B110215B48FDF76BFA13
:1038400003E010215848FDF768FAFFF7BDFF082193
:103850005548FDF760FAFFF7B7FF08215248FDF71A
:103860005CFA072D03D110214F48FDF754FA60068A
:10387000040EFFF7A9FF681CC5B2082DD9DBFFF7BE
:10388000A3FF70BD70B50024002516E06006040E8D
:1038900008214548FDF73FFAFFF796FF10214248FF
:1038A000FDF71FFA08B1601CC4B208213E48FDF7BD
:1038B00034FAFFF789FF681CC5B2082DE6DBFFF775
:1038C00083FF204670BD10B510213748FDF723FA5D
:1038D000FFF77AFF08213448FDF71DFAFFF774FF60
:1038E00010213148FDF7FDF908B1012400E0002462
:1038F00008212D48FDF711FAFFF766FF204610BD9D
:1039000010B510212848FDF708FAFFF75DFF0821E0
:103910002548FDF700FAFFF757FF08212248FDF779
:10392000FCF9FFF751FF10211F48FDF7F4F9FFF7ED
:103930004BFF10BD10B510211B48FDF7ECF9FFF748
:1039400043FF08211848FDF7E6F9FFF73DFF08217E
:103950001548FDF7E2F9FFF737FF10BD08B5012163
:103960000820FDF7E7FB1820ADF8000003208DF8D4
:10397000020014208DF8030069460B48FDF71EF97C
:10398000FFF741FF08BD70B50446FFF7E7FFFFF7FB
:1039900022FF2046FFF749FFFFF795FF0546FFF797
:1039A00032FF284670BD0000000C0140002105E0F8
:1039B00000E0491C304A9142FBD3401E0028F7D159
:1039C000704708B501210820FDF7B4FB4020ADF891
:1039D000000010208DF8030003208DF802006946D6
:1039E0002648FDF7EBF840212448FDF796F908BD7D
:1039F00010B5044640212148FDF78DF92046FFF718
:103A0000D5FF40211D48FDF788F910BD10B54021B4
:103A10001A48FDF780F90520FFF7C8FF4021174835
:103A2000FDF77BF91648FFF7C1FF40211348FDF76A
:103A300072F90520FFF7BAFF40211048FDF76DF934
:103A400010BD10B50F480078002810DD0D48007833
:103A50003E280CDA0C48007820B140210748FDF7D9
:103A60005AF908E040210548FDF757F903E04021E5
:103A70000248FDF752F910BDFFFF0100000C0140A4
:103A800000350C0040000020530000200146642057
:103A900005E0642001E0421ED0B20028FBD10A00FC
:103AA000A1F10103D9B2F4D1704708B50121082072
:103AB000FDF740FB4FF48070ADF8000010208DF84A
:103AC000030003208DF8020069468B48FDF776F865
:103AD0004FF480718848FDF71EF908BD08B54FF412
:103AE0008070ADF8000048208DF8030069468248D8
:103AF000FDF764F808BD08B54FF48070ADF800001C
:103B000010208DF8030003208DF8020069467A48E2
:103B1000FDF754F808BD10B5FFF7EDFF4FF48071C5
:103B20007548FDF7FAF84B20FFF7B0FF4FF48071AE
:103B30007148FDF7F0F80220FFF7A8FF10BD10B59F
:103B40000024FFF7CBFF04E0601CC4B20120FFF7A4
:103B50009DFF4FF480716848FDF7C3F808B1642CED
:103B6000F2DB642C01DB012010BD002404E0601CAA
:103B7000C4B20120FFF78AFF4FF480715E48FDF761
:103B8000B0F808B9F02CF2DBF02C01DB0120EBE7F8
:103B90000020E9E710B5FFF7AEFF4FF480715648FB
:103BA000FDF7BBF80120FFF771FFFFF797FF4FF418
:103BB00080715148FDF795F8012801D1012400E0FA
:103BC00000240520FFF762FF204610BD70B50026D7
:103BD000002408E0FFF7DEFF054605FA04F0304355
:103BE000C6B2601CC4B2082CF4DB304670BD70B5A0
:103BF0000446FFF780FF002526E004F0010664106C
:103C000086B14FF480713C48FDF787F80120FFF73B
:103C10003DFF4FF480713848FDF77DF80620FFF72F
:103C200035FF0FE04FF480713348FDF776F8072039
:103C3000FFF72CFF4FF480712F48FDF76CF801203F
:103C4000FFF724FF681CC5B2082DD6DB70BD10B588
:103C5000FFF761FFFFF773FFCC20FFF7C8FF442099
:103C6000FFF7C5FF10BD10B5FFF71FFFFFF753FFAC
:103C7000FFF765FF10BD2DE9F05FFFF74CFFFFF781
:103C80005EFFCC20FFF7B3FF4420FFF7B0FFFFF744
:103C900042FFFFF754FFCC20FFF7A9FFBE20FFF73C
:103CA000A6FFFFF793FF8346FFF790FF82464FEA98
:103CB0000A2004B244EA0B04002C0DDAE043401C55
:103CC00002F029FF074600220C4B02F03EFE05469B
:103CD00002F066FF81460BE0204602F01CFF07461B
:103CE0000022064B02F031FE054602F059FF8146E4
:103CF0004846BDE8F09F0000000C01400000B03FC6
:103D000008B501210820FDF715FA0120ADF80000E3
:103D100010208DF8030003208DF802006946FA4850
:103D2000FCF74CFF08BD0120F7491031086000BFC7
:103D300000BF00BF00BF00BF00BF00BF00BF00BF8B
:103D400000BF00BF00BF00BF00BF00BF00BF00BF7B
:103D500000BF00BF00BF0120EB491431086000BF65
:103D600000BF00BF00BF00BF00BF00BF00BF00BF5B
:103D700000BF00BF00BF00BF00BF00BF00BF00BF4B
:103D800000BF00BF00BF00BF00BF00BF00BF00BF3B
:103D900000BF00BF00BF00BF00BF00BF00BF00BF2B
:103DA00000BF00BF00BF00BF00BF70470120D64961
:103DB0001031086000BF00BF00BF00BF00BF00BFE0
:103DC00000BF00BF00BF00BF00BF00BF00BF00BFFB
:103DD00000BF00BF00BF00BF00BF00BF00BF00BFEB
:103DE00000BF00BF00BF00BF00BF00BF00BF00BFDB
:103DF00000BF00BF00BF00BF00BF00BF00BF00BFCB
:103E00000120C1491431086000BF00BF00BF00BFDE
:103E100000BF704700B50346002200BF0AE08020C3
:103E20001041184010B1FFF7C1FF01E0FFF77BFF21
:103E3000501CC2B2082AF2DB00BD30B500250CE0F0
:103E4000002407E005EB4501B04A1144085DFFF787
:103E5000E1FF641C032CF5D36D1C042DF0D330BDA1
:103E60002DE9F14F86B000200490A949069802F090
:103E7000B3FE21D2A749069802F088FC80F0004AE0
:103E8000504602F07AFE02460B46CDE90201A248F6
:103E9000A24903F091FD80460022A14B02F0AEFC46
:103EA000064632460B4600209D4902F0C0FD0446FE
:103EB00002F076FE04902BE09A49069802F08CFE00
:103EC00026D2069802F059FE80460022964B02F058
:103ED00036FD81F00043064632468F488F4903F095
:103EE0006BFD00228E4BCDE9000102F087FC0246FB
:103EF0000B46CDE902010020894902F098FD0446F5
:103F00000022874B02F01EFD824602F049FE04901B
:103F1000049807B0BDE8F08F2DE9F0474FF0000995
:103F20000024824800788249097888420BD17F4872
:103F3000407880490978884205D17C4880787E495C
:103F40000978884216D0794800787949087077480E
:103F50004078784908707548807877490870002063
:103F600076490860764908607649086076490860B5
:103F7000764908706D48007900287DD16B48C0787B
:103F8000002855D170480068FFF76AFF0646684868
:103F9000007802F0BBFD07466D480168384602F024
:103FA000FBFB0546314602F0F7FB644908606648B2
:103FB0000068FFF755FF06465E48007802F0A6FD50
:103FC000074663480168384602F0E6FB054631467D
:103FD00002F0E2FB5A4908605B480068FFF740FFC7
:103FE00006465548007802F091FD0746584801689A
:103FF000384602F0D1FB0546314602F0CDFB51496F
:10400000086048495048006802F0F0FD02D20020E4
:104010004D4908604C48006802F0AFFD07464D4A24
:104020004D4B02F0EBFB054602F0BAFD4649086035
:104030003E48C078012865D144480078072862D2FC
:10404000DFE800F004264690B0CAEA003B4800686A
:1040500002F093FD07463F4A404B02F0CFFB054676
:1040600002F09EFD35490860394801683C4802F07D
:1040700093FB0546314800E0E8E00168284602F07D
:10408000ABFD04D231480078401C30490870DCE0B8
:104090002B48006802F071FD07462E4A2F4B02F0B4
:1040A000ADFB054602F07CFD254908602848016803
:1040B0002B4802F071FB054621480168284602F0B2
:1040C0008BFD04D221480078401C20490870BCE0D8
:1040D0001A48006802F051FD07461E4A1F4B02F0C5
:1040E0002EFC054602F05CFD1449086000211348CF
:1040F000006802F071FD04D814480078401C134990
:104100000870A2E0B8E09FE0000C014034010020FC
:10411000000020410000A040017F42870ABF054007
:104120000000F03F0000A04100002E407800002079
:104130008C0000208D0000208E00002080000020D8
:104140008400002088000020900000208F000020C4
:10415000980000209A9999999999893F9999C93F0E
:1041600000007A438A48006802F007FD0746894A42
:10417000894B02F043FB054602F012FD84490860BA
:1041800086480168864802F007FB054680480168BA
:10419000284602F021FD04D282480078401C814963
:1041A000087052E08048006802F0E7FC0546794A52
:1041B000794B02F0C4FB074602F0F2FC7A49086032
:1041C00000217948006802F007FD04D8754800789E
:1041D000401C7449087038E07448006802F0CDFC57
:1041E00005466C4A6C4B02F009FB074602F0D8FC0E
:1041F0006E49086069480168694802F0CDFA0546D1
:104200006A480168284602F0E7FC04D26548007855
:10421000401C6449087018E05D48006802F0ADFC7D
:1042200005465C4A5C4B02F08AFB074602F0B8FC8C
:104230005749086000215648006802F0CDFC02D8BA
:1042400001205849087000E000BF15E05848007987
:10425000012811D15649087802F058FC53490860EA
:104260005349487802F052FC4F4908605049887819
:1042700002F04CFC464908604FF000092EE0002493
:1042800026E024B1012C0CD0022C1ED113E04648AC
:10429000006802F05EFC09EB4901464A11440855EA
:1042A00013E04248006802F054FC09EB4901414A1E
:1042B0001144085509E03648006802F04AFC09EB51
:1042C00049013C4A1144085500BF00BF601CC4B2FC
:1042D000032CD6DB09F1010000F0FF09B9F1040F4E
:1042E000CDDB3348007902280ED03148007828B958
:1042F0002F48407810B92E48807828B100212748EF
:10430000006802F069FC04D12A4800210160416084
:10431000816072B6FFF791FD62B6BDE8F0872DE9C6
:10432000F04106460F4690460025002472B621480B
:104330000021016041608160002521E000241BE034
:1043400024B1012C08D0022C13D10BE005EB450061
:104350001849084407550CE005EB45001549084489
:10436000065506E005EB45001249084400F80480B4
:1043700000BF00BF601CC4B2032CE1DB681CC5B2E7
:10438000042DDBDBFFF759FD62B6BDE8F0810000CC
:10439000880000209A9999999999C93F980000201E
:1043A00000007A438F00002084000020800000205D
:1043B00078000020340100200021002005E000E00A
:1043C000491CF84A9142FBD3401C0328F7D370479D
:1043D00030B5034600BF5C1C04EB840401EB4404CD
:1043E000E0B25C1C04EB840464000A2C06D0142C9C
:1043F00071D01E2C70D0282C6FD1EFE1A0F10A04EF
:104400000A2C14D2DFE804F00514233241505F7106
:10441000808F32B1E44C247944F08004E24D2C7159
:1044200005E0E14C247924F08004DF4D2C7189E013
:1044300032B1DD4C247944F04004DB4D2C7105E0B1
:10444000D94C247924F04004D74D2C717AE032B154
:10445000D54C247944F02004D34D2C7105E0D24C86
:10446000247924F02004D04D2C716BE032B1CE4C75
:10447000247944F01004CC4D2C7105E0CA4C247909
:1044800024F01004C84D2C715CE032B1C64C247984
:1044900044F00804C44D2C7105E0C34C247924F089
:1044A0000804C14D2C714DE032B1BF4C247944F069
:1044B0000404BD4D2C7105E0BB4C247924F00404A8
:1044C000B94D2C713EE04AB1B74C247944F0020456
:1044D000B54D2C7108E037E0D9E022E2B24C2479E6
:1044E00024F00204B04D2C712CE032B1AE4C247992
:1044F00044F00104AC4D2C7105E0AB4C247924F060
:104500000104A94D2C711DE032B1A74CE47844F0B0
:104510008004A54DEC7005E0A34CE47824F0800401
:10452000A14DEC700EE032B19F4CE47844F04004B1
:104530009D4DEC7005E09C4CE47824F040049A4DCD
:10454000EC7000BF00BFEDE1A0F114040A2C14D2FE
:10455000DFE804F00514233241505F6E7D8C32B1E8
:10456000914CE47844F020048F4DEC7005E08E4CC3
:10457000E47824F020048C4DEC7086E032B18A4C53
:10458000E47844F01004884DEC7005E0864CE47843
:1045900024F01004844DEC7077E032B1824CE47862
:1045A00044F00804804DEC7005E07F4CE47824F082
:1045B00008047D4DEC7068E032B17B4CE47844F047
:1045C0000404794DEC7005E0774CE47824F00404A1
:1045D000754DEC7059E032B1734CE47844F002044C
:1045E000714DEC7005E0704CE47824F002046E4DDF
:1045F000EC704AE032B16C4CE47844F001046A4D4E
:10460000EC7005E0684CE47824F00104664DEC7031
:104610003BE032B1644CA47844F08004624DAC704D
:1046200005E0614CA47824F080045F4DAC702CE070
:1046300032B15D4CA47844F040045B4DAC7005E0B1
:10464000594CA47824F04004574DAC701DE032B1B1
:10465000554CA47844F02004534DAC7005E0524C06
:10466000A47824F02004504DAC700EE032B14E4CD2
:10467000A47844F010044C4DAC7005E04A4CA4788A
:1046800024F01004484DAC7000BF00BF4AE1A0F117
:104690001E040A2C14D2DFE804F005142332415022
:1046A0005F6E7D9032B1404CA47844F008043E4DDA
:1046B000AC7005E03C4CA47824F008043A4DAC7092
:1046C0008AE032B1384CA47844F00404364DAC7022
:1046D00005E0354CA47824F00404334DAC707BE045
:1046E00032B1314CA47844F002042F4DAC7005E097
:1046F0002D4CA47824F002042B4DAC706CE032B148
:10470000294CA47844F00104274DAC7005E0264CF8
:10471000A47824F00104244DAC705DE032B1224C49
:10472000647844F08004204D6C7005E01E4C647881
:1047300024F080041C4D6C704EE032B11A4C647849
:1047400044F04004184D6C7005E0174C647824F078
:104750004004154D6C703FE032B1134C647844F066
:104760002004114D6C7005E00F4C647824F0200497
:104770000D4D6C7030E032B10B4C647844F0100495
:10478000094D6C7005E0084C647824F01004064D67
:104790006C7021E052B1044C647844F00804024D7E
:1047A0006C7009E0FFFF0F00A6000020FD4C64784C
:1047B00024F00804FB4D6C700EE032B1F94C6478C3
:1047C00044F00404F74D6C7005E0F64C647824F076
:1047D0000404F44D6C7000BF00BFA3E0A0F12804F6
:1047E0000A2C14D2DFE804F00514233241505F6E26
:1047F0007D8C32B1EB4C647844F00204E94D6C706E
:1048000005E0E84C647824F00204E64D6C7086E024
:1048100032B1E44C647844F00104E24D6C7005E080
:10482000E04C647824F00104DE4D6C7077E032B126
:10483000DC4C247844F08004DA4D2C7005E0D94C2F
:10484000247824F08004D74D2C7068E032B1D54C28
:10485000247844F04004D34D2C7005E0D14C2478EA
:1048600024F04004CF4D2C7059E032B1CD4C247867
:1048700044F02004CB4D2C7005E0CA4C247824F081
:104880002004C84D2C704AE032B1C64C247844F064
:104890001004C44D2C7005E0C24C247824F01004A0
:1048A000C04D2C703BE032B1BE4C247844F008047B
:1048B000BC4D2C7005E0BB4C247824F00804B94DA5
:1048C0002C702CE032B1B74C247844F00404B54D80
:1048D0002C7005E0B34C247824F00404B14D2C7006
:1048E0001DE032B1AF4C247844F00204AD4D2C7081
:1048F00005E0AC4C247824F00204AA4D2C700EE0A4
:1049000032B1A84C247844F00104A64D2C7005E087
:10491000A44C247824F00104A24D2C7000BF00BFE9
:1049200000E000BF00BF30BD70B50646002410E0B7
:1049300000250AE004EB840006EB4000425D2946B6
:104940002046FFF745FD681CC5B20A2DF2DB601C4E
:10495000C4B2042CECDB70BD10B50521914801F008
:1049600014FA10BD002000BF00E0401C42F210719C
:104970008842FAD3704770B5054600248A480088FB
:10498000C6B2B5420ADB344605E087480480FFF72B
:10499000E9FF601CC4B2AC42F7DB0BE0344605E033
:1049A00081480480FFF7DEFF601EC4B2AC42F7DC32
:1049B0007D48048070BD70B5002472B67B4800212C
:1049C000016041608160FFF738FA62B66420FFF74A
:1049D000D2FF19E02821764801F07BFE002508E08F
:1049E000012005EB8501724A02EB41010855681C64
:1049F000C5B2042DF4DB6E48FFF796FFFFF7ACFF5E
:104A0000FFF7DAFC601CC4B20A2CE3DB70BD10B502
:104A10002821674801F05DFE012066498978644AD3
:104A200002EB2111087001216248807800F00F022A
:104A30005F480A3081545F4842785D48143000EB8B
:104A4000221001705B48407800F00F0258481E3079
:104A500081541E38FFF768FFFFF77EFF5648007845
:104A600010B95648007810B1FEF718FC05E04FF475
:104A70008060534908604000086010BD10B52821CF
:104A80004B4801F026FE01204A494979484A02EB89
:104A90002111087001214748407900F00F02444875
:104AA0000A308154434802794148143000EB221007
:104AB00001704048007900F00F023D481E308154DB
:104AC00088023F4908604000091F08603848FFF726
:104AD0002BFFFFF741FF10BD10B52821344801F02E
:104AE000F8FD01213348C2783148143000EB221020
:104AF00001703048C07800F00F022D481E308154FC
:104B000088022F49091F08604000091D08602848D5
:104B1000FFF70AFFFFF720FF10BD10B5282124483A
:104B200001F0D7FD2749486802F013F8C0B20A2106
:104B300090FBF1F01E4901220A542249486802F014
:104B400008F8C0B20A2190FBF1F201FB12011848EB
:104B50000A30012242541C48006801F0FAFFC0B23A
:104B60000A2190FBF1F112481430012242541648F8
:104B7000006801F0EEFFC0B20A2190FBF1F201FBE8
:104B800012010B481E300122425490020C49091FA9
:104B90000860400008600648FFF7C6FEFFF7DCFE2D
:104BA00010BD0000A600002040000040340100209D
:104BB0004001002063000020380000204200002057
:104BC000140C0140240100207400002010B5FA48A4
:104BD0000078FF2861D0F948007830B1012817D05B
:104BE00002282DD003284BD13DE0F348007802285D
:104BF00002DD0020F0490870EF480178F048807825
:104C000061F31F10EE498870FF20EB49087038E00F
:104C1000EB488078202806DBE7480078042802DD8E
:104C20000420E5490870E648807800F0F000E24989
:104C300009780843E2498870FF20DF49087020E0C6
:104C4000DD480078062802DD0020DB490870DA48DC
:104C50000178DB48407861F31F10D9494870FF2084
:104C6000D54908700DE0D648407800F0F000D249F0
:104C700009780843D2494870FF20CF49087000E006
:104C800000BF00BFCD480078401CCC4908700846E2
:104C90000078042801DB002008702821C94801F0B1
:104CA00018FD0120C6498978C64A02EB2111087017
:104CB0000121C348807800F00F02C2480A308154B5
:104CC000BF484278BF48143000EB22100170BC4846
:104CD000407800F00F02BB481E308154BA4800787B
:104CE00070B3B648007830B101280CD0022813D038
:104CF000032823D119E00020B1498978B14A02EB99
:104D0000211108701BE00021AD48807800F00F02EF
:104D1000AC480A30815412E00021A9484278A948E1
:104D2000143000EB2210017009E00021A448407803
:104D300000F00F02A3481E30815400E000BF00BF06
:104D4000A048FFF7F1FDFFF707FEA048007858B133
:104D50009E480078C0439D4908704FF480609C498C
:104D60000860400008600BE098480078C04397490D
:104D700008704FF480609649091D08604000086083
:104D800010BD10B58C480078FF2861D08B480078A2
:104D900030B1012817D0022822D003284BD132E0AD
:104DA00085480078022802DD002083490870824887
:104DB00001788348407961F31F1081494871FF20D1
:104DC0007D49087038E07E48407900F0F0007A496B
:104DD000097808437A494871FF20774908702BE029
:104DE00075480078032802DD002073490870724876
:104DF00001787348007961F31F1071490871FF2031
:104E00006D49087018E06E480079302806DB6A4862
:104E10000078012802DD00206749087068480079A1
:104E200000F0F00064490978084365490871FF20E3
:104E30006149087000E000BF00BF60480078401C76
:104E40005E49087008460078042801DB00200870DD
:104E500028215C4801F03DFC012059494979594A13
:104E600002EB2111087001215548407900F00F0232
:104E700054480A308154524802795248143000EBA9
:104E8000221001704E48007900F00F024D481E308C
:104E900081544D48007870B34848007830B10128FB
:104EA0000CD0022813D0032823D119E00020444954
:104EB0004979444A02EB211108701BE00021404867
:104EC000407900F00F023F480A30815412E000217F
:104ED0003B4802793B48143000EB2210017009E096
:104EE00000213748007900F00F0236481E30815407
:104EF00000E000BF00BF3348FFF716FDFFF72CFDB1
:104F00004FF48060324908604000086010BD10B561
:104F10002A480078032802DA032028490870264826
:104F20000078FF282BD02548007803281AD1224882
:104F30000078072802DD01201F4908701E4800780C
:104F4000012802DA01201C4908701D48C07800F0D1
:104F5000F0001949097808431949C870FF2016491B
:104F6000087000E000BF00BF14480078401C1349DF
:104F7000087008460078042801DB0020087028210A
:104F8000104801F0A6FB01210D48C07800F00F0287
:104F90000C481E3081540C480078E8B1074800786E
:104FA000032817D100210648C07800F00F020548F9
:104FB0001E3081540FE000003C0000203A00002029
:104FC0005C00002040010020940000209C00002094
:104FD000100C014000BF00BFF648FFF7A5FCFFF72B
:104FE000BBFC4FF48060F44908604000086010BDCD
:104FF00010B5F2480078022802DA0220EF49087062
:10500000EF480078FF282CD0EC480078022802D026
:10501000032819D10BE0EA480178EA48807961F366
:105020001F10E8498871FF20E54908700DE0E54848
:10503000807900F0F000E24909780843E14988717D
:10504000FF20DF49087000E000BF00BFDB480078A8
:10505000401CDA49087008460078042801DB00206B
:1050600008702821D34801F034FB0120D149887011
:1050700088720121D3488279CE48143000EB221087
:105080000170D048807900F00F02CA481E30815468
:10509000CD480078D0B1C9480078022802D0032852
:1050A00012D108E00021C7488279C248143000EBD1
:1050B0002210017009E00021C248807900F00F023F
:1050C000BC481E30815400E000BF00BFB948FFF764
:1050D0002BFCFFF741FC4FF48060B74908604000AB
:1050E000086010BD10B5B6480078FF2848D0B34816
:1050F000007830B1012810D002281BD0032832D10B
:1051000024E0AF480178B148807861F31F10AF49BF
:105110008870FF20AA49087026E0AC48807800F02B
:10512000F000A74909780843A8498870FF20A449DE
:10513000087019E0A2480178A448407861F31F1074
:10514000A2494870FF209E4908700DE09F484078B2
:1051500000F0F0009A49097808439C494870FF2004
:105160009749087000E000BF00BF94480078401CD9
:105170009249087008460078042801DB0020087076
:1051800028218C4801F0A5FA012090498978894AA4
:1051900002EB2111087001218C48807800F00F0289
:1051A00084480A308154894842788248143000EBA0
:1051B000221001708548407800F00F027D481E30B3
:1051C000815481480078B8B37C48007830B1012818
:1051D0000CD0022813D0032823D119E000207B49EA
:1051E0008978744A02EB211108701BE0002177488E
:1051F000807800F00F026F480A30815412E00021DD
:10520000724842786B48143000EB2210017009E0BC
:1052100000216E48407800F00F0266481E3081542D
:1052200000E000BF00BF4FF480606349091F0860C1
:105230004000091D086007E0FFE74FF480605E4909
:1052400008604000091F08605A48FFF76DFBFFF730
:1052500083FB10BD10B55E480078052813D2DFE847
:1052600000F00306090C0F00FFF7B0FC0CE0FFF79D
:1052700088FD09E0FFF74BFE06E0FFF7B9FE03E00B
:10528000FFF730FF00E000BF00BF4F480078C04389
:105290004D49087010BD10B58AB000242821684619
:1052A00001F017FA01204B4A12780DF80200012193
:1052B0000DF10A00474A1278815405A8454A127830
:1052C00081540A30434A1278815442480178007868
:1052D000401C404A10700A2902D100201146087073
:1052E0006846FFF721FBFFF737FB002400E0641C52
:1052F000052CFCD32F48FFF717FBFFF72DFB0AB057
:1053000010BD10B50446207830B1622807D0A2281D
:105310001DD0E2284BD132E0FFF779FB48E0FFF7E0
:10532000FCFB2D480078401C2B490870084600788B
:1053300004280BDB002008704FF480601E490860D1
:105340004000086000202070FFF761FB30E0FFF7AD
:1053500095FB21480078401C1F49087008460078DA
:1053600004280BDB002008704FF4806012490860AD
:105370004000086000202070FFF749FB18E0FFF7AD
:10538000ABFB15480078401C1349087008460078AC
:1053900004280BDB002008704FF480600649086089
:1053A0004000086000202070FFF731FB00E000BFE4
:1053B00000BF10BD40010020140C01403A00002045
:1053C0003C0000205C000020940000206A000020C7
:1053D0003B0000209D0000209E00002070B5F74992
:1053E0000888F749098800F039FFF4494888F549E9
:1053F000097800F033FFF44A1179F04A908800F000
:105400002DFFF24A5278F14B9B7842EA0321EB4A96
:10541000D08800F023FFE9490889ED49098800F0A8
:105420001DFFE94A1178E54A508900F017FFE64A66
:105430005178E24A908900F011FFE34A9178DF4AFF
:10544000D08900F00BFFE04AD178DC4A108A00F0E6
:1054500005FFDA49488ADF49097800F0FFFED7499D
:10546000888ADD49097800F0F9FEDC49DC480068EB
:1054700001F092F9054601F06CFB84B2CF49C88A6D
:10548000214600F0EBFE70BD2DE9FF410446D548F2
:10549000007800287ED1207852287CD00FDC30287C
:1054A0007AD005DCE0B1102877D0182876D1C6E094
:1054B000382874D0422873D04A28F7D12EE190289A
:1054C0006FD006DC5A286DD068287DD07A28EDD1BF
:1054D000C8E0A8281FD0C22803D0E028E6D141E0C8
:1054E00052E100202070B748007818B96420B5490F
:1054F000087004E00020B3490870BB490870B14847
:105500000078FFF738FAAF480178B8A001F05AFDEB
:10551000FFF764FF38E100202070AA48007832309D
:10552000A849087008460078C82801DD32200870B4
:10553000A4480178ADA001F045FDA2480078FFF72E
:105540001AFAA048007801F0F7FA05460022AB4BA2
:1055500001F06DFA074601F023FBA1490860FFF74F
:105560003DFF11E1002020709648007832389549BF
:10557000087008460078322801DAC820087091487F
:1055800001789AA001F01EFD8E480078FFF7F3F92C
:105590008C4809E0F9E0D3E03FE075E0E8E085E021
:1055A000A8E0DFE094E00FE0007801F0C5FA0546DE
:1055B0000022924B01F03BFA074601F0F1FA8849CC
:1055C0000860FFF70BFFDFE0002020707E480079C5
:1055D000401C7D49087108460079032801DB002042
:1055E000087179480079012811D18548006801F0D7
:1055F000B0FA754908708348006801F0AAFA724948
:1056000048708148006801F0A4FA6F4988706E48BC
:10561000007908B9FFF7E2FEB6E000202070FF2015
:1056200069490870002048708870C8700846007981
:10563000012801D100200871FFF7D0FEA4E000206E
:105640002070FF20604908709C20487000208870FE
:10565000C87008460079012801D100200871FFF7C1
:10566000BDFE91E000202070FF205749087048706F
:1056700000208870C87008460079012801D10020F8
:105680000871FFF7ABFE7FE0002020704E490870E4
:10569000FF20487000208870C870084600790128F3
:1056A00001D100200871FFF799FE6DE00020207005
:1056B00045490870FF20487088700020C87008466F
:1056C0000079012801D100200871FFF787FE5BE017
:1056D000002020703C4908704870FF20887000202E
:1056E000C87008460079012801D100200871FFF731
:1056F00075FE49E000202070FF203349087000202B
:105700004870FF2088700020C87008460079012882
:1057100001D100200871FFF761FE35E00020207004
:10572000FF2029490870487088700020C87008461A
:105730000079012801D100200871FFF74FFE23E016
:1057400000202070FF2020490870487088700120D8
:10575000C87008460079012801D100200871FFF7C0
:105760003DFE11E00020207001201E4908700BE072
:105770002078622807D02078A22804D02078E22858
:1057800001D00020207000BFF7E0207862285ED0B2
:105790003CDC38287CD007DC78B1102879D0182878
:1057A00078D0302877D18DE0422875D04A2874D03F
:1057B000522873D05A28F5D1A4E03AE0AC0000207A
:1057C0003400002038000020780000206A0000200B
:1057D00036000020410000203D0000200000C842AB
:1057E0009800002039000020420000204C696768C2
:1057F000744C6576656C3A25640D0A0000006940BA
:10580000800000208400002088000020A82871D09B
:1058100008DC682851D07A2860D090286BD0A22864
:10582000C0D127E0C22805D0E02871D0E228B9D144
:1058300035E0A1E0002020707448007810B96420A1
:105840007249087071480078FFF795F894E00020DD
:1058500020706F480078401C6D4908700846007839
:10586000052801DB002008706948017869A001F073
:10587000A9FB81E00020207069480078401E68493B
:10588000087008460078FF2801D10320087073E0F3
:1058900032E029E01CE06CE03BE040E045E0002025
:1058A00020705F480078401C5D4908700846007809
:1058B000042801D1002008705EE0002020705949C2
:1058C000087059E00020207001205649087053E00C
:1058D000002020700220534908704DE00020207005
:1058E00003205049087047E00020207004204D49F3
:1058F000087041E01FE024E00020207005204949A5
:10590000087039E00020207006204649087033E016
:1059100014E0002020700720424908702CE000208D
:10592000207008203F49087026E0002020700920E0
:105930003C49087020E0002020701DE0002020700D
:105940001AE0002020703848C1780078364A527832
:10595000354B9B78CDE90032CDE90201324803791D
:105960004279817931A001F02DFB00203D4908707A
:1059700002E00020207000BF00BFBDE8FF8100B53D
:1059800087B001210420FBF7D5FB0820ADF81800F3
:1059900018208DF81B0003208DF81A0006A9324844
:1059A000FBF70CF901210846FBF7D1FBFF20ADF80E
:1059B000140040F2CF70ADF810000020ADF81600D2
:1059C000ADF8120004A94FF08040FBF7EBFC60201B
:1059D000ADF800000120ADF802006420ADF806002B
:1059E0000220ADF8080069464007FBF7F2FD0821E8
:1059F000C806FCF782F901218807FCF72FF901217D
:105A00008807FCF72BF807B000BD7047380000206E
:105A10003B000020747970653A25640D0A0000008F
:105A20003A0000203C0000205C0000205345543A1E
:105A30000D0A2044743A3230253032782D25303228
:105A4000782D25327820546D3A253032783A253039
:105A500032783A253032782020576B3A2532780D4B
:105A60000A00000039000020000801405AE000BF91
:105A700000BF00BF00BF00BF00BF00BF00BF00BF2E
:105A800000BF00BF00BF00BF00BF00BF00BF00BF1E
:105A900000BF00BF00BF00BF00BF00BF00BF00BF0E
:105AA00000BF00BF00BF00BF00BF00BF00BF00BFFE
:105AB00000BF00BF00BF00BF00BF00BF00BF00BFEE
:105AC00000BF00BF00BF00BF00BF00BF00BF00BFDE
:105AD00000BF00BF00BF00BF00BF00BF00BF00BFCE
