:020000040800F2
:100000006009002045010008313100083331000843
:10001000373100083B3100083F3100080000000084
:100020000000000000000000000000004331000854
:100030004531000800000000473100086731000822
:100040005F0100085F0100085F0100085F01000810
:100050005F0100085F0100085F0100085F01000800
:10006000493100085F0100085F0100085F010008D6
:100070005F0100085F0100085F0100085F010008E0
:100080005F0100085F0100085F0100085F010008D0
:100090005F0100085F0100085F010008B55D00080E
:1000A0005F0100085F0100085F0100085F010008B0
:1000B0005F0100085F0100085F0100085F010008A0
:1000C0005F0100085F0100085F0100085F01000890
:1000D0005F0100082B3400085F0100085F01000881
:1000E0005F0100085F0100085F0100085F01000870
:1000F0005F0100085F0100085F0100085F01000860
:100100005F0100085F0100085F0100085F0100084F
:100110005F0100085F0100085F0100085F0100083F
:100120005F0100085F0100085F0100085F0100082F
:10013000DFF80CD006F094FD00480047B12B000812
:10014000600900200648804706480047FEE7FEE7B2
:10015000FEE7FEE7FEE7FEE7FEE7FEE7FEE7FEE777
:1001600045020008310100080CB500200190009004
:100170006B48006840F480306949086000BF6848F7
:10018000006800F4003000900198401C0190009835
:1001900018B90198B0F5A06FF1D16148006810F46A
:1001A000003F02D00120009001E000200090009864
:1001B000012842D15B48006840F0100059490860AE
:1001C0000846006820F0030008600846006840F018
:1001D000020008605248406851494860084640683B
:1001E00048600846406840F48060486008464068BF
:1001F00020F47C1048600846406840F4E8104860ED
:100200000846006840F08070086000BF44480068FD
:1002100010F0007FFAD04248406820F003004049C7
:1002200048600846406840F00200486000BF3C4813
:10023000406800F00C000828F9D10CBD10B5FFF79C
:1002400093FF10BD10B53648006840F001003449F6
:10025000086008464068344908403149486008460B
:100260000068324908402E4908600846006820F4BA
:10027000802008600846406820F4FE0048604FF483
:100280001F008860FFF7DAFF4FF000602849086020
:1002900010BD10B5002100200022214B5B6803F047
:1002A0000C0121B1042906D0082928D107E0214BEF
:1002B000214C236027E01F4B1F4C236023E0184B89
:1002C0005B6803F47010164B5B6803F48032022302
:1002D00003EB904022B9194B4343174C23600DE0C8
:1002E0000F4B5B6813F4003F04D0144B4343124C94
:1002F000236003E00F4B43430F4C236003E00D4B9F
:100300000D4C236000BF00BF054B5B68C3F30313B4
:100310000B4CE15C084B1B68CB40074C236010BDC5
:1003200000100240002002400000FFF8FFFFF6FE30
:1003300008ED00E000127A000000002000093D00F6
:100340000400002031490143314A1160704770B503
:10035000002100230F22C4780CB32D4C246804F430
:10036000E064C4F5E064210AC1F10403CA404478A2
:1003700004FA03F18478144021430901254C0678DE
:10038000A155047804F01F050124AC4005786D11D7
:100390004FF0E02606EB8505C5F8004109E004783A
:1003A00004F01F050124AC401B4D0678761145F87A
:1003B000264070BD194A0A400243154B1B1F1A60A4
:1003C000704739B1124A121D12680243104B1B1DAF
:1003D0001A6006E00E4A121D126882430C4B1B1D68
:1003E0001A607047042808D14FF0E021096941F0F4
:1003F00004014FF0E022116107E04FF0E0210969AC
:1004000021F004014FF0E022116170470000FA056D
:100410000CED00E000E400E080E100E080FFFF1F61
:10042000002044490860091D0860091D0860091D75
:10043000086041483F4914310860704700213D4938
:100440008279002A3AD00A46126803689A430B461A
:100450001A600A1D126803689A430B1D1A6002791C
:1004600011440A6803681A430A60324A0832126863
:1004700003689A432F4B08331A601A1D12680368E9
:100480009A432C4B0C331A604279102A0ED11A1F52
:10049000126803681A43274B08331A601A1D126842
:1004A00003681A43234B0C331A600DE0214942794B
:1004B00011440A6803681A430A6005E0027911448E
:1004C0000A6803689A430A6070470021016001715D
:1004D0000C21417100218171704716491031096862
:1004E0000143144A10321160704701460020114A3E
:1004F000143212680A4201D0012000E00020704747
:100500000C49143108607047014600200022094B55
:100510001B6803EA0102074B14331B680B4202D02D
:100520000AB1012000E00020704702491431086040
:100530007047000000040140FFFF0F00014600204B
:10054000FE4A106800F03800084310607047FB490D
:10055000096821F00801F94A116011460968014350
:1005600011607047F549096821F01001F34A1160E4
:1005700011460968014311607047F148EF4948602E
:10058000F04848607047EE48EC494860ED484860E4
:100590007047EA48006940F08000E8490861704708
:1005A000E648006940F08000E44908617047042093
:1005B000E249C96811F0010F01D001200EE0DF49C6
:1005C000C96811F0040F01D0022007E0DB49C968B7
:1005D00011F0100F01D0032000E00420704700B597
:1005E00002460423FFF7E3FF034603E0FFF7DFFFC4
:1005F0000346521E012B01D1002AF7D102B905236F
:10060000184600BD30B5044604254FF43020FFF7EE
:10061000E6FF0546042D17D1C848006940F00200E6
:10062000C649086108464461006940F0400008611D
:100630004FF43020FFF7D3FF0546C048006941F66C
:10064000FD710840BD490861284630BD10B504243D
:100650004FF43020FFF7C3FF0446042C16D1B748EF
:10066000006940F00400B54908610846006940F09F
:10067000400008614FF43020FFF7B1FF0446AF4857
:10068000006941F6FB710840AC490861204610BD85
:1006900000B502460423FFF78AFF034603E0FFF795
:1006A00086FF0346521E012B01D1002AF7D102B961
:1006B0000523184600BD10B504244FF43020FFF781
:1006C000E7FF0446042C16D19C48006940F0040062
:1006D0009A4908610846006940F0400008614FF4FB
:1006E0003020FFF7D5FF04469448006941F6FB71BE
:1006F000084092490861204610BD00208F49C96911
:1007000011F0020F01D0012000E00020704730B549
:10071000A5250424FFF7F1FF00B100254FF4302098
:10072000FFF75DFF0446042C3AD185488349886071
:10073000844888600846006940F020000861084647
:10074000006940F0400008614FF43020FFF747FF98
:100750000446042C1BD17948006941F6DF7108403A
:10076000764908610846006940F010000861764843
:100770000580E002FFF733FF0446052C10D06F48D8
:10078000006941F6EF7108406C49086108E0052CEA
:1007900006D06A48006941F6EF7108406749086170
:1007A000204630BD78B506460C4604250020009052
:1007B000E802FFF714FF0546042D24D15F480069C5
:1007C00040F001005D4908613480E802FFF707FF4F
:1007D0000546042D10D1B01C0090200C0099088013
:1007E000E802FFF7FCFE05465448006941F6FE7139
:1007F00008405249086106E05048006941F6FE7120
:1008000008404E490861284678BD70B504460D463B
:100810000426F002FFF7E3FE0646042E11D14748F6
:10082000006940F00100454908612580F002FFF7AA
:10083000D6FE06464148006941F6FE7108403F4930
:100840000861304670BD70B505460E460424E002CE
:10085000FFF7C5FE0446042C17D139483749886094
:10086000384888600846006940F0100008612E8012
:10087000E002FFF7B4FE0446052C06D02F480069BD
:1008800041F6EF7108402D490861204670BD2DE901
:10089000F04304464FF6FF763746B046B14604258E
:1008A000E443E6B2C4F30727C4F307484FEA1469E8
:1008B000E802FFF794FE0546042D49D120481F4960
:1008C0008860204888600846006940F01000086190
:1008D000FF2E06D01C4808300680E802FFF77FFE96
:1008E0000546042D08D1FF2F06D017480A3007808F
:1008F000E802FFF774FE0546042D0AD1B8F1FF0F98
:1009000007D011480C30A0F80080E802FFF767FE1E
:100910000546042D0AD1B9F1FF0F07D00A480E3061
:10092000A0F80090E802FFF75AFE0546052D0FD00B
:100930000248006941F6EF71084007E000200240DC
:1009400023016745AB89EFCD00F8FF1F66490861B9
:100950002846BDE8F08330B5054604244FF4302026
:10096000FFF73DFE0446042C41D160485E49886093
:100970005F4888600846006940F02000086108462A
:10098000006940F0400008614FF43020FFF727FE77
:100990000446042C22D15448006941F6DF71084016
:1009A000514908610846006940F0100008611DB116
:1009B00000205049088002E0A5204E4908804FF4ED
:1009C0003020FFF70CFE0446052C10D04648006985
:1009D00041F6EF7108404449086108E0052C06D053
:1009E0004148006941F6DF7108403F4908612046EF
:1009F00030BDF0B505460E46174604243B483A493B
:100A000088603B488860E002FFF7E9FD0446042C5B
:100A100019D13548006940F010003349086147F0AA
:100A2000F800304328433349891C0880E002FFF76F
:100A3000D6FD0446052C06D02B48006941F6EF711F
:100A40000840294908612046F0BD2748C069800850
:100A500070472548006A704700202349096811F053
:100A6000200F01D0012000E00020704729B11E4A6C
:100A7000126902431C4B1A6104E01B4A126982434B
:100A8000194B1A61704701460020012908D1164A06
:100A9000D26912F0010F01D0012008E0002006E029
:100AA000114AD2680A4201D0012000E000207047BC
:100AB0000D49C860704704200B49C96811F0010F47
:100AC00001D001200EE00849C96811F0040F01D0DF
:100AD000022007E00449C96811F0100F01D003207B
:100AE00000E0042070470000002002402301674519
:100AF000AB89EFCD00F8FF1F10B50446CA48844209
:100B000008D10121042000F027FB0021042000F07F
:100B100023FB46E0C548844208D10121082000F0AB
:100B20001BFB0021082000F017FB3AE0C04884427C
:100B300008D10121102000F00FFB0021102000F04F
:100B40000BFB2EE0BB48844208D10121202000F09D
:100B500003FB0021202000F0FFFA22E0B648844287
:100B600008D10121402000F0F7FA0021402000F0D8
:100B7000F3FA16E0B148844208D10121802000F048
:100B8000EBFA0021802000F0E7FA0AE0AC4884424A
:100B900007D10121801500F0DFFA0021A01500F037
:100BA000DBFA10BD10B50121084600F0D5FA00218E
:100BB000012000F0D1FA10BD2DE9F04102460025D8
:100BC0000026002000230024002791F803C00CF029
:100BD0000F0591F803C01CF0100F03D091F802C06C
:100BE0004CEA050591F800C0BCF1000F31D0146843
:100BF00000202BE04FF0010C0CFA00F3B1F800C01C
:100C00000CEA03069E4220D183004FF00F0C0CFA31
:100C100003F7BC4305FA03FC4CEA040491F803C053
:100C2000BCF1280F06D14FF0010C0CFA00FCC2F801
:100C300014C00AE091F803C0BCF1480F05D14FF091
:100C4000010C0CFA00FCC2F810C0401C0828D1D3DB
:100C50001460B1F800C0BCF1FF0F34DD546800200F
:100C60002EE000F1080C4FF0010808FA0CF3B1F87F
:100C700000C00CEA03069E4221D183004FF00F0C06
:100C80000CFA03F7BC4305FA03FC4CEA040491F8A0
:100C900003C0BCF1280F05D100F1080C08FA0CF8CC
:100CA000C2F8148091F803C0BCF1480F07D100F1DD
:100CB000080C4FF0010808FA0CF8C2F81080401C2C
:100CC0000828CED35460BDE8F0814FF6FF71018053
:100CD000022181700421C170704702460020936890
:100CE0000B4201D0012000E00020704701468868D7
:100CF00080B2704702460020D3680B4201D0012029
:100D000000E0002070470146C86880B2704701616A
:100D10007047416170470AB1016100E0416170476D
:100D2000C16070474FF480320A4382618161826101
:100D300082698269704702460020424B18684FF66C
:100D40008073184040EA021008433E4B1860704719
:100D50003D49C8617047F0B50A46002300240021D0
:100D6000002500F00046B6F1004F02D1354EF16982
:100D700001E0344E7168C0F3034583B200F44016BD
:100D8000B6F5401F08D121F070612E4E766826F02E
:100D900070662C4F7E6012E000F48016B6F5801F5E
:100DA00006D1032606FA05F4A14341F0706106E07E
:100DB000460D360103FA06F6B14341F0706122B1E7
:100DC000460D360103FA06F6314300F00046B6F14F
:100DD000004F02D11B4EF16101E01A4E7160F0BD6F
:100DE00030B500228B071C0F0F2303FA04F2154BBA
:100DF00008338C1053F824309343124C08348D1070
:100E000044F8253023468C1053F824308C07240FE7
:100E100000FA04F423430B4C08348D1044F82530B9
:100E200030BD0A490860704700080140000C0140CD
:100E3000001001400014014000180140001C014056
:100E4000002001400000014000002042DC00204260
:100E5000DD48006840F00100DB4908600846406852
:100E6000DA490840D849486008460068D84908402F
:100E7000D54908600846006820F4802008600846CC
:100E8000406820F4FE0048604FF41F0088607047FF
:100E9000CD49096821F48031CB4A116011460968B7
:100EA00021F480211160B0F5803F03D0B0F5802F90
:100EB0000ED106E0C449096841F48031C24A11608C
:100EC00007E0C149096841F4A021BF4A116000E070
:100ED00000BF00BF704710B501460022002300206C
:100EE0004A11012A02D1B84C236806E0022A02D135
:100EF000B54C236A01E0B44C636A01F01F0201247F
:100F000094401C4201D0012000E0002010BD38B503
:100F1000002000900024002500BF3120FFF7DBFFF8
:100F200005460098401C00900098B0F5A06F01D0D5
:100F3000002DF2D03120FFF7CEFF08B1012400E0F0
:100F40000024204638BD014600209F4A106820F04A
:100F5000F80040EAC100106070479E490860704781
:100F600002460020984B586820F47C1042EA0103A6
:100F70001843954B5860704796490866704701467C
:100F80000020914A506820F00300084350607047E9
:100F90008D48406800F00C007047014600208A4AE6
:100FA000506820F0F0000843506070470146002070
:100FB000854A506820F4E06008435060704701465D
:100FC0000020814A506820F4605040EAC10050601F
:100FD000704729B17C4A527A02437B4B5A7204E033
:100FE000794A527A8243784B5A7270477A4908603C
:100FF000704701460020744A506820F4404008437E
:10100000506070470021754A11706F4A82F82010B5
:10101000012802D0042808D103E001216F4A117091
:1010200004E005216D4A117000E000BF00BF704769
:101030006B49086070476449096A0143624A11625A
:101040007047674944390860704730B50021002275
:10105000002400235C4D6D6805F00C0121B10429CA
:1010600005D0082923D105E05E4D056022E05D4DE5
:1010700005601FE0544D6D6805F47012524D6D68A7
:1010800005F48034022505EB92421CB9564D5543B8
:1010900005600BE04C4D6D6815F4003F03D0524DD8
:1010A0005543056002E04F4D5543056002E04D4D4C
:1010B000056000BF00BF444D6D6805F0F0010909EF
:1010C0004A4D6B5C0568DD4045603F4D6D6805F439
:1010D000E061090A454D6B5C4568DD4085603A4D2D
:1010E0006D6805F46051C90A404D6B5C4568DD4090
:1010F000C560354D6D6805F44041890B3C4D6B5C16
:10110000C568B5FBF3F5056130BD29B12E4A5269BA
:1011100002432D4B5A6104E02B4A526982432A4B09
:101120005A61704729B1284A92690243264B9A6155
:1011300004E0254A92698243234B9A61704729B1A2
:10114000214AD2690243204BDA6104E01E4AD26987
:1011500082431D4BDA61704729B11B4AD2680243B2
:10116000194BDA6004E0184AD2688243164BDA6001
:10117000704729B1144A12690243134B1A6104E003
:10118000114A12698243104B1A6170471449403961
:10119000086070470F49C86470470B49C8717047B1
:1011A0000948406A40F0807007494862704701462C
:1011B0000020054A92680A4201D0012000E0002088
:1011C0007047014988727047001002400000FFF824
:1011D000FFFFF6FE00004242D800424220100240CB
:1011E0008004424200127A0000093D0014000020F1
:1011F0002400002010B50446FE48844208D1012195
:10120000C014FFF7A9FF0021E014FFF7A5FFC4E019
:10121000B4F1804F08D101210846FFF7AAFF002151
:101220000120FFF7A6FFB8E0F348844208D101216E
:101230000220FFF79EFF00210220FFF79AFFACE09B
:10124000EE48844208D101210420FFF792FF0021DB
:101250000420FFF78EFFA0E0E948844208D1012175
:101260000820FFF786FF00210820FFF782FF94E0A7
:10127000E448844208D101211020FFF77AFF0021C1
:101280001020FFF776FF88E0DF48844208D1012173
:101290002020FFF76EFF00212020FFF76AFF7CE08F
:1012A000DA48844208D101214014FFF755FF00219C
:1012B0006014FFF751FF70E0D548844209D1012145
:1012C000C804FFF749FF00214FF40020FFF744FF57
:1012D00063E0D048844209D101210805FFF73CFFB3
:1012E00000214FF48010FFF737FF56E0CA488442D0
:1012F00009D101214805FFF72FFF00214FF400100D
:10130000FFF72AFF49E0C548844208D10121402067
:10131000FFF72FFF00214020FFF72BFF3DE0C048E3
:10132000844208D101218020FFF723FF0021802083
:10133000FFF71FFF31E0BB48844208D1012180152F
:10134000FFF717FF0021A015FFF713FF25E0B648B0
:10135000844209D101210804FFF7FEFE00214FF469
:101360008030FFF7F9FE18E0B048844209D101212E
:101370004804FFF7F1FE00214FF40030FFF7ECFEC8
:101380000BE0AB48844208D101218804FFF7E4FE5A
:1013900000214FF48020FFF7DFFE10BD00220288FD
:1013A000944B98420ED0994B98420BD0B0F1804F9D
:1013B00008D0914B984205D0904B984202D0904B68
:1013C000984204D14FF68F731A404B881A438D4BC5
:1013D000984207D08C4B984204D04FF6FF431A40F6
:1013E000CB881A4302808B8883850B880385814BC9
:1013F00098420BD0854B984208D08B4B984205D031
:101400008A4B984202D08A4B984201D10B7A0386CC
:1014100001238382704770B5002400220023058CCD
:101420004FF6FE7635400584028C8388048B4FF698
:101430008F752C40B51E2C400D882C43751E2A40FC
:101440000D892A434D882A436A4DA8420BD06F4D1F
:10145000A84208D0744DA84205D0744DA84202D0CD
:10146000734DA84213D14FF6F7752A404D892A4390
:101470004FF6FB752A408D882A434FF6FF652B40B7
:101480004FF6FF552B408D892B43CD892B4383800D
:101490000483CD888586028470BD70B50024002247
:1014A0000023058C4FF6EF7635400584028C838847
:1014B000048B48F6FF752C404FF6FF452C400D88F5
:1014C0004FF6FF7606EA05252C434FF6DF752A40D6
:1014D0000D8906EA05152A434D8806EA05152A43B3
:1014E000444DA84202D0494DA8421DD14FF67F7508
:1014F0002A404D894FF6FF7606EA05152A434FF636
:10150000BF752A408D8806EA05152A434FF6FF3538
:101510002B404FF2FF752B408D8906EA85052B4342
:10152000CD8906EA85052B4383800483CD88058712
:10153000028470BD70B5002400220023058C4FF694
:10154000FF6635400584028C8388848B4FF68F7547
:101550002C404FF6FC752C400D882C434FF6FF5560
:101560002A400D894FF6FF7606EA05252A434D8865
:1015700006EA05252A431F4DA84202D0234DA84262
:101580001DD14FF2FF752A404D894FF6FF7606EACE
:1015900005252A434FF6FF352A408D8806EA0525A2
:1015A0002A434EF6FF752B404DF6FF752B408D8973
:1015B00006EA05152B43CD8906EA05152B438380E2
:1015C0008483CD888587028470BD70B50022002396
:1015D0000024058C4EF6FF7635400584038C848804
:1015E000828B48F6FF752A404FF6FF452A400D884A
:1015F00020E00000002C01400004004000080040F2
:10160000000C004000100040001400400034014075
:10161000004C0140005001400054014000180040BF
:10162000001C0040002000400040014000440140F8
:10163000004801404FF6FF7606EA05252A434DF69D
:10164000FF752B400D8906EA05352B434D8806EAC8
:1016500005352B43FA4DA84202D0FA4DA84208D1D5
:101660004BF6FF752C408D894FF6FF7606EA8515FF
:101670002C4384808283CD88A0F84050038470BDC1
:10168000828B4FF2FF331A408283828B4FF6FF73B7
:1016900003EA01231A4382837047F0B50C461546CE
:1016A000002200210026078C4EF6FF7C07EA0C077B
:1016B0000784828B018C4FF6FF7707EA043640F6E9
:1016C000FF473A404FF6FF7707EA05273A434FF6C0
:1016D000FF7707EA03373A43D94FB8420ED0D94FC4
:1016E000B8420BD0B0F1804F08D0D74FB84205D0E8
:1016F000D64FB84202D0D64FB84206D14DF6FF774A
:10170000394046F48057394305E047F6FF573940E2
:1017100044F48057394382830184F0BD828B4FF6B5
:10172000F3731A408283828B0A4382837047F0B539
:101730000C461546002200210026078C4FF6FF6C50
:1017400007EA0C070784828B018C4FF6FF7707EAC4
:1017500004264FF60C773A404FF6FF7707EA031757
:101760002F433A43B64FB8420ED0B64FB8420BD0D3
:10177000B0F1804F08D0B44FB84205D0B34FB84253
:1017800002D0B34FB84206D14FF6FF57394046F466
:101790008077394305E04FF2FF57394044F48077B2
:1017A000394382830184F0BD028B4FF2FF331A402C
:1017B0000283028B4FF6FF7303EA01231A4302836D
:1017C0007047F0B50C461546002200210026078C14
:1017D0004FF6EF7C07EA0C070784028B018C4FF66B
:1017E000FF7707EA041640F6FF473A404FF6FF77C7
:1017F00007EA03373A434FF6FF7707EA05273A43EC
:101800008F4FB8420ED08F4FB8420BD0B0F1804FFF
:1018100008D08D4FB84205D08C4FB84202D08C4FC3
:10182000B84206D14FF6DF77394046F0100739430A
:1018300005E04FF65F77394044F0100739430283E3
:101840000184F0BD028B4FF6F3731A400283028BC2
:101850000A4302837047F0B50C461546002200216A
:10186000068C4FF6FE773E400684028B018C4FF6C5
:101870000C7632407E1C06EA03162E433243704E2D
:10188000B0420ED06F4EB0420BD0B0F1804F08D0B6
:101890006D4EB04205D06D4EB04202D06C4EB0429B
:1018A00006D14FF6FD76314044F00106314305E0A4
:1018B0004FF6F576314044F001063143028301844E
:1018C000F0BD70B505460C465D4885420ED05D48BA
:1018D00085420BD0B5F1804F08D05B48854205D0DA
:1018E0005A48854202D05A48854200D100E000BFE4
:1018F000208850B92389A28861882846FFF7ABFF6A
:10190000E1882846FFF79EFF25E0208804280AD1B9
:101910002389A28861882846FFF753FFE18828467B
:10192000FFF742FF17E0208808280AD12389A28800
:1019300061882846FFF7FBFEE1882846FFF7EEFEA8
:1019400009E02389A28861882846FFF7A6FEE1887E
:101950002846FFF795FE70BD2DE9F04105460C467F
:1019600000260127608808B9022600E00026A0882A
:10197000012801D1022700E001272088A0B923898E
:10198000A28861882846FFF766FFE1882846FFF7AE
:1019900059FF23893A4631462846FFF712FFE1886E
:1019A0002846FFF701FF13E02389A28861882846B3
:1019B000FFF707FFE1882846FFF7F6FE23893A463E
:1019C00031462846FFF747FFE1882846FFF73AFFF0
:1019D000BDE8F0810A884B881A438B881A43CB886C
:1019E0001A430B891A434B891A438B891A43A0F86F
:1019F000442070474FF6FF71818000210180C18033
:101A00004180017270470021018041808180C18046
:101A1000018141818181C181704700210180418024
:101A2000012181800021C180018170470021018056
:101A300041808180C18001814181818170470000A6
:101A4000002C014000340140000400400008004028
:101A5000000C004021B1028842F00102028004E043
:101A600002884FF6FE731A400280704731B1B0F819
:101A7000442042F40042A0F8442005E0B0F844209D
:101A8000C2F30E02A0F8442070471AB183890B43B9
:101A9000838102E083898B43838170478182704711
:101AA00041EA0203A0F8483070471AB183890B431A
:101AB000838102E083898B438381704701894FF6DC
:101AC000F8721140018170470A46002101894FF6E2
:101AD0008F73194011430181704730B504460D469C
:101AE00029462046FFF7F0FF208940F007002081BB
:101AF00030BD2DE9F04104460D4616461F46602DC7
:101B000006D13B46012231462046FFF75AFE05E04A
:101B10003B46012231462046FFF79DFE29462046DE
:101B2000FFF7D2FF208940F007002081BDE8F08157
:101B300030B50C4600210189C9B24FF6FF7505EAA0
:101B40000325154325432943018130BD2DE9F0418B
:101B500005460E4617469846002443463A46314607
:101B60002846FFF7E5FF2C894FF6F870044044F053
:101B700007044FF68F70044044F070042C81BDE8D8
:101B8000F081F0B504460D4616461F463B463246E8
:101B900029462046FFF7CCFF208940F48040208171
:101BA000F0BD0185828270470A46002101884FF608
:101BB0008F731940114301807047F0B50C461546EC
:101BC0001E460021002200230189028B038C4FF660
:101BD000F877394021434FF6FC473A4040F201176D
:101BE0003A434FF6DD773B404FF6FF7707EA06179B
:101BF0002F433B43018102830384F0BD0A46002149
:101C0000018B4FF68F7319401143018370470A46C9
:101C10000021018B48F6FF7319404FF6FF7303EA6A
:101C200002231943018370470A460021818B4FF636
:101C30008F7319401143818370470A460021818BBD
:101C400048F6FF7319404FF6FF7303EA0223194366
:101C50008183704721B1028842F08002028004E053
:101C600002884FF67F731A400280704721B1828844
:101C700042F00402828004E082884FF6FB731A402F
:101C80008280704721B1828842F00802828004E09D
:101C900082884FF6F7731A408280704721B182889C
:101CA00042F00102828004E082884FF6FE731A40FF
:101CB000828070470A460021018B4FF6F773194066
:101CC0001143018370470A460021018B4FF2FF73D5
:101CD00019404FF6FF7303EA02231943018370474B
:101CE0000A460021818B4FF6F77319401143818317
:101CF00070470A460021818B4FF2FF7319404FF65F
:101D0000FF7303EA02231943818370470A460021C7
:101D1000018B4FF6FB7319401143018370470A464C
:101D20000021018B4FF6FF3319404FF6FF7303EA92
:101D300002231943018370470A460021818B4FF625
:101D4000FB7319401143818370470A460021818B40
:101D50004FF6FF3319404FF6FF7303EA022319438E
:101D6000818370470A460021018B4FF67F7319402B
:101D70001143018370470A460021018BC1F30E0114
:101D80004FF6FF7303EA02231943018370470A46A3
:101D90000021818B4FF67F73194011438183704777
:101DA0000A460021818BC1F30E014FF6FF7303EA4F
:101DB00002231943818370470A460021018C4FF6A4
:101DC000FD7319401143018470470A460021018CBC
:101DD0004FF6F77319401143018470470A460021FA
:101DE000018C4FF6DF7319404FF6FF7303EA0213BD
:101DF0001943018470470A460021018C4FF67F7316
:101E000019404FF6FF7303EA021319430184704728
:101E10000A460021018C4FF6FF5319404FF6FF731D
:101E200003EA02231943018470470A460021018C0A
:101E30004FF2FF7319404FF6FF7303EA0223194371
:101E4000018470470A460021018C4DF6FF7319404A
:101E50004FF6FF7303EA023319430184704730B52C
:101E6000002301248C40A3B2048C9C430484048C82
:101E700002FA01F5ADB22C43048430BD30B5002325
:101E800004248C40A3B2048C9C430484048C02FA86
:101E900001F5ADB22C43048430BD70B5034600207B
:101EA00000241846183001258D40ACB21D8CA54386
:101EB0001D8409B1082909D100EB6100056825F0EE
:101EC000700505600568154305600EE00D1FC5F33C
:101ED0004E052844056825F4E045056005684FF681
:101EE000FF7606EA02263543056070BD21B10288FF
:101EF00042F00202028004E002884FF6FD731A40AD
:101F00000280704721B1028842F00402028004E09E
:101F100002884FF6FB731A400280704721B1828815
:101F200042F08002828004E082884FF67F731A407C
:101F30008280704702884FF6F7731A400280028849
:101F40000A430280704782884FF68F731A4082805E
:101F500082880A438280704702894FF6F8731A40DC
:101F6000028102890A430281704702894FF67F731A
:101F70001A40028102890A430281704781847047B6
:101F800081857047818670470187704781877047D8
:101F9000A0F84010704702884FF6FF431A400280B5
:101FA00002880A43028070470146888E70470146C6
:101FB000088F70470146888F70470146B1F840008E
:101FC00070470146888C70470146088D704702466D
:101FD0000020138A0B4201D0012000E0002070474E
:101FE000CA430282704730B5024600200023002415
:101FF000158A05EA0103958905EA010413B10CB1BC
:10200000012000E0002030BDCA430282704700007A
:1020100010B50446FB48844209D101218803FFF72B
:102020009BF800214FF48040FFF796F832E0F64825
:10203000844209D101214804FFF79BF800214FF4A5
:102040000030FFF796F825E0F048844209D10121DD
:102050008804FFF78EF800214FF48020FFF789F8FD
:1020600018E0EB48844209D10121C804FFF781F848
:1020700000214FF40020FFF77CF80BE0E548844294
:1020800008D101210805FFF774F800214FF48010F2
:10209000FFF76FF810BD2DE9F04786B005460E46F4
:1020A0000024A24600BFA1460027B08900B100BFAE
:1020B0002F462C8A4CF6FF700440F08804432C8293
:1020C000AC894EF6F3100440B08831890843718919
:1020D00008430443AC81AC8A4FF6FF400440B0890A
:1020E0000443AC8201A8FEF7B0FFC648874202D184
:1020F000DDF810A001E0DDF80CA0A88910F4004F75
:1021000008D00AEBCA0000EB0A1031684900B0FBA6
:10211000F1F807E00AEBCA0000EB0A103168890009
:10212000B0FBF1F86420B8FBF0F004012009642151
:1021300001FB1089A88910F4004F08D0322000EB71
:10214000C900B0FBF1F000F00700044308E03220C2
:1021500000EB09106421B0FBF1F000F00F00044324
:102160002C8106B0BDE8F0874FF4165101600021C4
:102170008180C18001810C214181002181817047D2
:1021800010B502460020108A4FF2FF0318400B885A
:102190004C8823438C882343CC88234318431082E4
:1021A00010BD0021018041808180C180704721B134
:1021B000828942F40052828104E082894DF6FF73E5
:1021C0001A4082817047F0B503460024002600259E
:1021D0000020A1F510676A3F00D100BF1846C1F387
:1021E000421401F01F06012707FA06F5012C01D160
:1021F0000C3004E0022C01D1103000E014301AB190
:1022000007682F43076002E00768AF430760F0BD2F
:102210001AB1838A0B43838202E0838A8B438382D1
:102220007047028A4FF6F0731A400282028A0A430C
:102230000282704782894FF2FF731A40828182893D
:102240000A438281704721B1828942F00202828171
:1022500004E082894FF6FD731A4082817047028A3A
:102260004FF6DF731A400282028A0A4302827047E5
:1022700021B1028A42F48042028204E0028A4BF6D3
:10228000FF731A4002827047C1F3080282807047D0
:1022900001468888C0F308007047818941F0010138
:1022A00081817047028BD2B20283028B42EA012203
:1022B00002837047028B02F47F420283028B0A433F
:1022C0000283704721B1828A42F02002828204E0B8
:1022D000828A4FF6DF731A408282704721B1828A68
:1022E00042F01002828204E0828A4FF6EF731A40B5
:1022F0008282704721B1828A42F00802828204E021
:10230000828A4FF6F7731A408282704721B1828920
:1023100042F40042828103E08289C2F30E0282818C
:10232000704721B1828A42F40062828204E0828A8C
:102330004FF2FF731A4082827047828A4FF6FB7316
:102340001A408282828A0A438282704721B1828A3D
:1023500042F00202828204E0828A4FF6FD731A4044
:102360008282704702460020B1F5007F00D100BF95
:1023700013880B4201D0012000E00020704701F4D7
:102380000072B2F5007F00D100BFCA4302807047DF
:1023900070B502460024002300250020A1F5106638
:1023A0006A3E00D100BFC1F3421501F01F030126B0
:1023B00006FA03F3012D02D19689334006E0022D7F
:1023C00002D1168A334001E0968A33400C1201266E
:1023D00006FA04F41688344013B10CB1012000E071
:1023E000002070BD10B500220023A1F510646A3CE6
:1023F00000D100BF0A1201249440A3B2DC43048040
:1024000010BD00000038014000440040004800407A
:10241000004C00400050004008B54FF4A060FDF7AC
:1024200091FF25208DF8000000208DF8010002208A
:102430008DF8020001208DF803006846FDF787FF44
:1024400008208DF8000000208DF8010001208DF893
:1024500002008DF803006846FDF779FF17208DF81C
:10246000000000208DF801008DF8020001208DF899
:1024700003006846FDF76BFF08BD2DE9F041F7A0AA
:1024800004F03EFC8820FB49487088700020FA491F
:102490000870FF20F9498870487008700020487162
:1024A000C8704A20F64908706420F64908704FF059
:1024B0007C50F5490860F5490888F549098803F01A
:1024C000D5FFF2494888EF49097803F0CFFFEB4A7E
:1024D0005179EE4A908803F0C9FFE64A5278E54BFD
:1024E0009B7842EA0321E94AD08803F0BFFFE7491D
:1024F0000889E849098803F0B9FFE04A1178E34AFE
:10250000508903F0B3FFDD4A5178E04A908903F027
:10251000ADFFDA4A9178DD4AD08903F0A7FFD74AA8
:10252000D178DA4A108A03F0A1FFD849488AD24903
:10253000097803F09BFFD549888AD149097803F0CF
:1025400095FFD249C88AD449097803F08FFFD3494F
:10255000CD48006804F00EF8054604F0ECF984B2AA
:10256000CA49088B214603F081FFCD4801F04CFA9F
:10257000C848008804F0D2F906460022C94B04F08E
:1025800048F9044622460B46C7A004F0B9FBC048F0
:10259000008804F0C3F906460022C24B04F039F962
:1025A000044622460B46C6A004F0AAFBB5480178B3
:1025B000C9A004F0A5FBB148C2784179B0480378BE
:1025C000CAA004F09DFBAD48837842780178CFA083
:1025D00004F096FBA74842788178A7480378D0A0FA
:1025E00004F08EFBA748007804F098F90646002214
:1025F000D24B04F00EF9044604F0ECF9A24908604D
:10260000A048007802F02AFFBDE8F08110B5CC4860
:10261000007800287ED003F012FCCA4908700846F2
:10262000007862284FD008460078A2284BD0084690
:102630000078E22847D008460078C22843D00846F0
:10264000007890283FD00846007868283BD008469C
:102650000078302837D008460078182833D008464C
:1026600000787A282FD00846007810282BD008460A
:102670000078382827D0084600785A2823D0084602
:10268000007842281FD0084600784A281BD0084608
:102690000078522817D008460078A82813D008469A
:1026A0000078E0280FD00846007822280BD0084692
:1026B0000078022807D008460078982803D00846FA
:1026C0000078B02876D1A048007801282BDC6D482E
:1026D000007840BB9B480078C22824D000209B494A
:1026E0000880FF209A49087001209A4908706420E8
:1026F00002F0B4FE93480078682814D0914800781E
:10270000C22810D08F48007862280CD08D480078FD
:10271000A22800E058E006D08A480078E22802D0DB
:10272000FF208849087088480078012810DC854817
:10273000007890280CD0002084490880FF2084492C
:102740000870052001F060F97E4800788249087021
:102750007D4800780F280CD17A480078902808D15D
:102760007E48007828B9052001F04EF901207B4908
:102770000870754800780F2805D172480078C22883
:1027800001D1FFF77AFE70480078012812DD6D480C
:102790000078A8280BD06B480078E02807D069485B
:1027A0000078682803D067480078C22802D1FF204B
:1027B000644908706348017869A004F0A1FA62488E
:1027C00001786BA004F09CFA10BD10B52A4800787F
:1027D000002835D0274880786849897888420BD10D
:1027E0002448407865494978884205D16348007893
:1027F00010B90120564908705548007800280EDDB0
:102800005348007820280ADA51480078401C504983
:1028100008701C48007810B9642002F01FFE4C4874
:10282000007820280CD1FF204949087040215448E5
:10283000FEF76FFA1348007810B901204549087077
:1028400043480078FF2808D10A4840784B49497826
:10285000884202D000203E49087010BD4661637472
:102860006F7279205265736574696E672E2E2E0D16
:102870000A0D0A006A0000204300002078000020B2
:102880003D000020380000209C000020B000002007
:1028900034000020360000203E0000200000C84226
:1028A000006A18000000104052756E54696D653A58
:1028B000252E326620486F7572200D0A0000000038
:1028C0004C6967687454696D653A252E32662048F4
:1028D0006F7572200D0A00004C696768744C65764C
:1028E000656C3A2564200D0A000000005247423A08
:1028F00053746174652D2564204D6F64652D2564C6
:1029000020547970652D25640D0A0000523A256423
:1029100020473A256420423A256420200D0A000011
:10292000416C61726D3A25783A2578205377697445
:1029300063683A25640D0A0D0A00000000E06F404C
:10294000A900002028000020A80000204600002048
:10295000420000204400002029000020390000200F
:1029600052656D6F74654B65793A256420000000EF
:10297000636E743A2564200D0A0000006300002095
:10298000000C014010B5FE48007878B9FC4840784A
:1029900060B9FB488078082808DDF948807822284B
:1029A00004DAF848007808B901F03CF810BD10B519
:1029B000F548007800283DD1F448007820B1F3486C
:1029C0000078401CF1490870ED488078062804DB47
:1029D000EF480088B0F5616F0BDBE9484078A0B99B
:1029E000E748007888B9E9480078401CE749087052
:1029F0000BE0E348007818B1E1480078302804D1B2
:102A0000E2480078401CE1490870E048007800285E
:102A100006DDDE480078062802DA642002F01EFD9A
:102A2000DA480078062808DB0020D849087002F050
:102A300015FD02E00020D549087010BD10B5D5483D
:102A4000007800287ED0CE488079D3498871CC4860
:102A500040794871CA4800790871C94880788870FF
:102A6000C7484078487000200870C548C078C870D2
:102A70000020CA4908700420C94908706420C2496E
:102A800008700846007802F0E9FC6EE0C54802F0E4
:102A90008BFDC5480078002834D00020C24908705A
:102AA000C2480068401CC1490860B748007820B19E
:102AB000BF480068401CBE490860BC480068B0F5CB
:102AC000617F07D10020B9490860BA480088401CDE
:102AD000B8490880B6480068B0F5617F07D100208A
:102AE000B3490860B4480088401CB3490880A44832
:102AF000007808B902F031FCB048006880F040006E
:102B0000AE490860AE48007820B102F005FC002014
:102B1000AB490870AB48007818B303F090F9AA49A4
:102B2000087008460078E8B1A8480078012819D153
:102B3000A6480078012808D1052000F065FFA248CA
:102B4000007800E033E0974908709F480178AFF2C1
:102B5000F01004F0D5F89D480178AFF2EC1004F0C5
:102B6000CFF802E0FF20984908708A4800780028D2
:102B70008CD18B480078042816D100029449086053
:102B80004000086093488078242803DC914840780E
:102B90003C2803DB00209049087002E001208E49A8
:102BA000087002F07BFC02E07B4800F032FD10BDB3
:102BB0000EB500F055FB00F09FFBFFF72DFC03F076
:102BC00071F901F053F800F0F1FB00F012FD00F094
:102BD00004FF01F097F803F0B6F802F0D5FFFDF717
:102BE000CCFC03F0BCFB7D49C88A7D4903F098FA10
:102BF0007B4800787B49087008460078AA2803D0F3
:102C0000AA200870FFF739FC74494888744903F01A
:102C100087FA734800785C49087070498888704961
:102C200003F07EFA6E4800786F4948716B49C88896
:102C30006B4903F075FA6A480088000A6549887094
:102C400067480078487065498888654903F068FAE4
:102C5000634800786449487160494889604903F0D5
:102C60005FFA5F480078604908705C4988895C4970
:102C700003F056FA5A4800785B4948705749C889AA
:102C8000574903F04DFA5648007857498870534920
:102C9000088A534903F044FA514800785249C870F1
:102CA0004E49488A4E4903F03BFA4D4800784A495C
:102CB00008704A49888A4A4903F032FA484800783D
:102CC0004A4908704549088B454903F029FA4448A8
:102CD000008803F023FE06460022454B03F099FDD1
:102CE000044603F077FE43490860642002F0B6FB17
:102CF00001F0F8FE2F48008803F010FE064600227F
:102D00003D4B03F086FD044622460B463BA003F0F4
:102D1000F7FF2948008803F001FE06460022364BE3
:102D200003F077FD044622460B463AA003F0E8FF85
:102D300015480178AFF2604003F0E2FF2D480068CB
:102D400003F00DFE044622460B4638A003F0D8FFE0
:102D50002548C278417925480378AFF2704003F0E6
:102D6000CFFF2148837842780178AFF2604003F0CA
:102D7000C7FF1848427881781748037830A06BE085
:102D800063000020420000203800002044000020A2
:102D900046000020390000205C0000203A0000209E
:102DA0003B000020290000204800002030000020C7
:102DB0002C00002036000020340000200C080140C8
:102DC00051000020A900002028000020A8000020B9
:102DD000100C01406A00002043000020B0000020D9
:102DE000400000203E000020780000203D00002030
:102DF000000059409C000020000010402052756ED9
:102E000054696D6520203A252E326620486F757210
:102E1000200D0A004C6967687454696D65203A2575
:102E20002E326620486F7572200D0A004C69676863
:102E300074436F6520203A252E3266200D0A00006B
:102E4000416C61726D3A25783A2578205377697420
:102E500063683A25640D0A0003F052FF7E4800784B
:102E600002F0FCFA01207D49087000BF00F0F5FD7A
:102E7000FFF7E4FD7A4802F097FB7A4800780028D3
:102E80007ED000207749087077480068401C76495A
:102E900008607148007848B974480088B0F5616FDF
:102EA00004DA72480088401C704908806A4800783B
:102EB00010B96F48008820B16E480068401C6D4909
:102EC000086069480068B0F5617F07D10020664955
:102ED000086069480088401C6749088065480068A8
:102EE000B0F5617F07D1002062490860634800881F
:102EF000401C624908806248007808B902F02DFA47
:102F000000F0BCFE5F490860554802F05DFAFFF72B
:102F10004EFDFFF737FDFFF758FC5B48006880F077
:102F20004000594908605648C07855490978544AC4
:102F30005278CDE900210290514883780279417995
:102F400052A003F0DDFE4F48006803F008FD044680
:102F500022460B4656A003F0D3FE4448018858A0F1
:102F600003F0CEFE3C48017858A003F0C9FE3B4870
:102F7000017859A003F0C4FE5A4801785AA000E035
:102F80005DE003F0BDFE3648017859A003F0B8FEBD
:102F90005948417959A003F0B3FE364800683C21F6
:102FA000B0FBF1F201FB120432480068B0FBF1F013
:102FB00032490988C1EB011108443C21B0FBF1F210
:102FC00001FB12052B480068B0FBF1F02B49098882
:102FD000C1EB011108443C21B0FBF1F623462A461F
:102FE00031464AA003F08CFE1F4800683C21B0FB2C
:102FF000F1F201FB12041C480068B0FBF1F01E491D
:103000000988C1EB011108443C21B0FBF1F201FB3E
:10301000120515480068B0FBF1F017490988C1EBAB
:10302000011108443C21B0FBF1F623462A46314603
:103030003AA003F065FEAFF2FC1003F061FE3B48DE
:10304000007830B172B600F00DFF002037490870EB
:1030500062B6FFF7DBFA09E73800002044000020E1
:1030600028000020480000203000002046000020FA
:10307000400000402C0000203600002034000020DA
:1030800063000020740000200C080140443A253001
:1030900032782D2530327820543A253032783A254E
:1030A0003032783A2530327820576B3A2578200034
:1030B000546D703A25332E3166A1E6207C20000045
:1030C0004E6264793A256420000000004C4C766C16
:1030D0003A25642000000000464C69743A256420BB
:1030E0000000000042000020416C6D3A2564200081
:1030F000526B793A256420007800002052474273D1
:1031000074653A2564207C20000000004C543A2568
:10311000643A25643A2564200000000052543A25A0
:10312000643A25643A256420000000005000002025
:10313000704700BFFEE700BFFEE700BFFEE700BF2D
:10314000FEE770477047704710B50420FDF7DCF9C3
:1031500040B1394800F0C5FA012038490870042010
:10316000FDF7E3F910BD10B500F00DF93448006823
:10317000401C334908600846006841F28831B0FBC2
:10318000F1F201FB120010B901202E4908702C4801
:1031900000684CF25031B0FBF1F201FB120010B9A3
:1031A000012029490870264800682849B0FBF1F23F
:1031B00001FB12004910884203D201202449087003
:1031C00002E00020224908702248007890B31C4891
:1031D000006842F21071B0FBF1F201FB120048BB33
:1031E0001D49087800EBD0714910B0EB410107D1BF
:1031F00019490978072903DA01201849087002E003
:1032000000201649087014480078072806DB124889
:1032100000780D2802DC0020104908700E48007864
:103220000A2802DB00200C4908700B480078401C7B
:103230000949087010BD000063000020480000200C
:103240004C0000205000002051000020A08601000A
:1032500052000020420000205400002053000020B3
:1032600008B501210C20FDF75DFF4020ADF80000FE
:1032700010208DF8030003208DF8020069461B48DA
:10328000FDF79AFC4FF44060ADF8000010208DF877
:10329000030003208DF8020069461548FDF78CFCF9
:1032A00040211248FDF733FD4FF440611048FDF70F
:1032B0002EFD08BD0E480C30006880F480600C497B
:1032C0000C3108600846006880F4006008607047B0
:1032D00010B50848007820B140210448FDF717FDDB
:1032E00003E040210148FDF714FD10BD0008014036
:1032F000000C01405200002030B527480068274AE2
:10330000B0FBF2F1B1F1807F01D301201DE021F08B
:103310007F40401E4FF0E022506150170F220028DE
:1033200007DA13071D0E1E4B00F00F04241F1D5556
:1033300003E013071C0E1B4B1C5400BF00204FF072
:10334000E022906107201061002008B100BFFEE775
:103350004FF0E020006940F001004FF0E0210861EB
:1033600030BD01B51049009808604FF0E0200069B9
:1033700040F001004FF0E021086100BF0A480068FA
:103380000028FBD108BD0848006820B10648006845
:10339000401E05490860704700000020A08601001B
:1033A00018ED00E000E400E05800002000B585B012
:1033B000012144F20400FDF7B5FE4FF40070ADF8B2
:1033C000100018208DF8130003208DF8120004A9B6
:1033D0004048FDF7F1FB4FF48060ADF81000042089
:1033E0008DF8130004A93B48FDF7E6FB4FF4E130EC
:1033F00000900020ADF80400ADF80600ADF808001C
:10340000ADF80C000C20ADF80A0069463248FEF712
:1034100042FE012240F225512F48FEF7D4FE012141
:103420002D48FEF7C4FE05B000BD10B540F2255191
:103430002948FEF7ADFF38B12748FEF729FFC4B28F
:10344000214626A003F05CFC10BD70B504460D4675
:10345000E1B22148FEF718FF00BF40211E48FEF7E9
:1034600081FF0028F9D0204670BD10B5044600BF8A
:1034700020211948FEF776FF0028F9D01648FEF7FC
:1034800007FF10BD70B504460D4629462046FEF7DD
:10349000FBFE00BF40212046FEF764FF0028F9D064
:1034A00070BD2DE9F04107460D461646002400BFC9
:1034B0000CE0295D3846FEF7E7FE00BF40213846A4
:1034C000FEF750FF0028F9D0601C84B2B442F0DB54
:1034D000BDE8F081000801400038014025630D0A75
:1034E000000000000EB501212120FDF71BFE042085
:1034F000ADF8080048208DF80B0002A9A748FDF799
:103500005BFB02210320FDF76BFC042000900020F0
:103510008DF804000C208DF8050001208DF80600C0
:103520006846FCF78BFF0EBD10B5D02000F037FACF
:1035300010BD2DE9F04706460F469046B9460024D7
:103540002BE0ECB900F06BF900250AE000F04FF930
:10355000D02000F076F900F0C2F900B903E0681C51
:1035600085B2642DF2DB00BFB5F57A7F00D11BE098
:1035700009F0FF0000F065F900F0B1F900B113E0C7
:10358000305D00F05EF900F0AAF900B10CE009F13D
:1035900001001FFA80F9601C84B24445D1DB00F0C1
:1035A0003EF90120BDE8F08700F039F90020F9E785
:1035B0001CB5002001908020009001200190012284
:1035C0000E2101A8FFF7B5FF012207216846FFF78A
:1035D000B0FF012208216846FFF7ABFF0122092155
:1035E0006846FFF7A6FF01220A216846FFF7A1FF00
:1035F0001CBD10B501210846FDF794FD0121684866
:10360000FDF7A9FBFFF790FFFFF76CFFFFF7D0FF77
:1036100010BD7CB504460020009001900025207864
:103620008DF8000060788DF80100A0788DF8020018
:10363000E0788DF8030020798DF8040060798DF82A
:103640000500A0798DF806000FE0681CC5B20722BE
:1036500000216846FFF76DFF012803D151A003F058
:103660004FFB04E052A003F04BFB052DEDDB00BF48
:103670007CBD2DE9F04106460F46154600F0B7F82F
:10368000D02000F0DEF800F02AF900B125E0F8B211
:1036900000F0D7F800F023F900B11EE000F0A7F821
:1036A000D12000F0CEF800F01AF900B115E00024A6
:1036B0000CE000F0F3F83055681EA04202D000F094
:1036C0002BF901E000F042F9601C84B2AC42F0DB5F
:1036D00000F0A5F80120BDE8F08100F0A0F800207E
:1036E000F9E71CB504460020009001900722002154
:1036F0006846FFF7BEFF012815D19DF80000207035
:103700009DF8010060709DF80200A0709DF8030014
:10371000E0709DF8040020719DF8050060719DF82F
:103720000600A07102E026A003F0EAFA1CBD38B53D
:103730000446012221466846FFF79BFF9DF80000E2
:1037400038BD13B504460122214601A8FFF7F1FE5A
:10375000012800D11CBD0020FCE710B586B0142163
:1037600001A802F0A4FE00241322002101A8FFF703
:1037700080FF01280CD100BF07E001A8025D2146AF
:1037800013A003F0BDFA601CC4B2132CF5DB02E0F9
:103790000BA003F0B5FA06B010BD00000014014004
:1037A000000230005772697465204F4B0D0A00000B
:1037B0005772697465204661696C6564210D0A0061
:1037C00052656164206661696C6564210D0A0000C0
:1037D000526567307825783A307825780D0A0000F0
:1037E000002001E0411CC8B20A28FBDB704710B57D
:1037F00010217348FDF78BFA08217148FDF787FA0D
:10380000FFF7EEFF10216E48FDF783FAFFF7E8FFA0
:1038100008216B48FDF77DFAFFF7E2FF10BD10B5F8
:1038200010216748FDF775FA08216548FDF76FFA22
:10383000FFF7D6FF10216248FDF769FAFFF7D0FFC6
:1038400010BD70B50446002523E014F0800F04D0AD
:1038500010215B48FDF75BFA03E010215848FDF7A3
:1038600058FAFFF7BDFF08215548FDF750FAFFF75A
:10387000B7FF08215248FDF74CFA072D03D110215C
:103880004F48FDF744FA6006040EFFF7A9FF681CD5
:10389000C5B2082DD9DBFFF7A3FF70BD70B50024BA
:1038A000002516E06006040E08214548FDF72FFAB2
:1038B000FFF796FF10214248FDF70FFA08B1601C90
:1038C000C4B208213E48FDF724FAFFF789FF681CBF
:1038D000C5B2082DE6DBFFF783FF204670BD10B5AB
:1038E00010213748FDF713FAFFF77AFF0821344813
:1038F000FDF70DFAFFF774FF10213148FDF7EDF9E0
:1039000008B1012400E0002408212D48FDF701FA48
:10391000FFF766FF204610BD10B510212848FDF7BF
:10392000F8F9FFF75DFF08212548FDF7F0F9FFF7EB
:1039300057FF08212248FDF7ECF9FFF751FF10214E
:103940001F48FDF7E4F9FFF74BFF10BD10B510213C
:103950001B48FDF7DCF9FFF743FF08211848FDF786
:10396000D6F9FFF73DFF08211548FDF7D2F9FFF71B
:1039700037FF10BD08B501210820FDF7D3FB182043
:10398000ADF8000003208DF8020014208DF803002C
:1039900069460B48FDF710F9FFF741FF08BD70B508
:1039A0000446FFF7E7FFFFF722FF2046FFF749FF36
:1039B000FFF795FF0546FFF732FF284670BD000070
:1039C000000C0140002105E000E0491C304A914212
:1039D000FBD3401E0028F7D1704708B5012108200D
:1039E000FDF7A0FB4020ADF8000010208DF803008B
:1039F00003208DF8020069462648FDF7DDF84021D6
:103A00002448FDF786F908BD10B504464021214839
:103A1000FDF77DF92046FFF7D5FF40211D48FDF752
:103A200078F910BD10B540211A48FDF770F905204E
:103A3000FFF7C8FF40211748FDF76BF91648FFF75D
:103A4000C1FF40211348FDF762F90520FFF7BAFFD7
:103A500040211048FDF75DF910BD10B50F48007802
:103A6000002810DD0D4800783E280CDA0C4800785C
:103A700020B140210748FDF74AF908E040210548F8
:103A8000FDF747F903E040210248FDF742F910BD78
:103A9000FFFF0100000C014000350C004200002037
:103AA0005300002010B504462046FFF75AFC10BD15
:103AB00008B501210820FDF735FB4FF48070ADF803
:103AC000000010208DF8030003208DF802006946E5
:103AD0008A48FDF771F84FF480718848FDF717F9AF
:103AE00008BD08B54FF48070ADF8000048208DF88F
:103AF000030069468148FDF75FF808BD08B54FF43B
:103B00008070ADF8000010208DF8030003208DF8C0
:103B1000020069467948FDF74FF808BD10B5FFF778
:103B2000EDFF4FF480717548FDF7F3F84B20FFF778
:103B3000B9FF4FF480717148FDF7E9F80220FFF7F3
:103B4000B1FF10BD10B50024FFF7CBFF04E0601CEF
:103B5000C4B20120FFF7A6FF4FF480716748FDF75C
:103B6000BCF808B1642CF2DB642C01DB012010BD31
:103B7000002404E0601CC4B20120FFF793FF4FF45F
:103B800080715E48FDF7A9F808B9F02CF2DBF02C43
:103B900001DB0120EBE70020E9E710B5FFF7AEFFFE
:103BA0004FF480715548FDF7B4F80120FFF77AFF14
:103BB000FFF797FF4FF480715048FDF78EF801280A
:103BC00001D1012400E000240520FFF76BFF20460F
:103BD00010BD70B50026002408E0FFF7DEFF0546A3
:103BE00005FA04F03043C6B2601CC4B2082CF4DB02
:103BF000304670BD70B50446FFF780FF002526E013
:103C000004F00106641086B14FF480713B48FDF763
:103C100080F80120FFF746FF4FF480713748FDF729
:103C200076F80620FFF73EFF0FE04FF4807133482F
:103C3000FDF76FF80720FFF735FF4FF480712F482D
:103C4000FDF765F80120FFF72DFF681CC5B2082DB0
:103C5000D6DB70BD10B5FFF761FFFFF773FFCC2017
:103C6000FFF7C8FF4420FFF7C5FF10BD10B5FFF7F1
:103C70001FFFFFF753FFFFF765FF10BD2DE9F05F52
:103C8000FFF74CFFFFF75EFFCC20FFF7B3FF4420A8
:103C9000FFF7B0FFFFF742FFFFF754FFCC20FFF71D
:103CA000A9FFBE20FFF7A6FFFFF793FF8346FFF7AC
:103CB00090FF82464FEA0A2004B244EA0B04002C2B
:103CC0000DDAE043401C02F018FE074600220C4BC0
:103CD00002F02DFD054602F07DFE81460BE02046F8
:103CE00002F00BFE07460022054B02F020FD0546C0
:103CF00002F070FE81464846BDE8F09F000C01408E
:103D00000000B03F08B501210820FDF70BFA0120A3
:103D1000ADF8000010208DF8030003208DF802009C
:103D20006946FE48FCF748FF08BD0120FB491031F9
:103D3000086000BF00BF00BF00BF00BF00BF00BFE2
:103D400000BF00BF00BF00BF00BF00BF00BF00BF7B
:103D500000BF00BF00BF00BF00BF0120EF4914310A
:103D6000086000BF00BF00BF00BF00BF00BF00BFB2
:103D700000BF00BF00BF00BF00BF00BF00BF00BF4B
:103D800000BF00BF00BF00BF00BF00BF00BF00BF3B
:103D900000BF00BF00BF00BF00BF00BF00BF00BF2B
:103DA00000BF00BF00BF00BF00BF00BF00BF704723
:103DB0000120DA491031086000BF00BF00BF00BF1A
:103DC00000BF00BF00BF00BF00BF00BF00BF00BFFB
:103DD00000BF00BF00BF00BF00BF00BF00BF00BFEB
:103DE00000BF00BF00BF00BF00BF00BF00BF00BFDB
:103DF00000BF00BF00BF00BF00BF00BF00BF00BFCB
:103E000000BF00BF0120C5491431086000BF00BFDA
:103E100000BF00BF00BF704700B50346002200BFCF
:103E20000AE080201041184202D0FFF7C1FF01E0F4
:103E3000FFF77BFF501CC2B2082AF2DB00BD30B591
:103E400000250CE0002407E005EB4501B44A1144CD
:103E5000085DFFF7E1FF641C032CF5D36D1C042DF6
:103E6000F0D330BD2DE9FF5F4FF000090024AD48CD
:103E70000078AD49097888420BD1AA484078AB490F
:103E80000978884205D1A7488078A94909788842ED
:103E90002BD0A4480078A4490870A2484078A349D0
:103EA0000870A0488078A24908709E48C07830B950
:103EB0000020A0490860A0490860A049086099480E
:103EC000C078012811D19848007802F011FD994975
:103ED00008609648007802F00BFD97490860944806
:103EE000007802F005FD954908608E48C0780028EA
:103EF0007DD18D48007802F0FBFC80469048016837
:103F0000404602F037FB074602F029FDCDE90201E9
:103F10008548007802F002FD07460022894B02F036
:103F200078FCCDE900018348006802F018FD824664
:103F3000DDE9002302F054FB0546DDE9022302F02F
:103F400035FD02D80020804908707748007802F0DB
:103F5000E5FC074600227B4B02F05BFC82468B4669
:103F60007448006802F0FBFC054652465B4602F0CE
:103F700009FD0CD27448007848B9012072490870D4
:103F800000206C4908606C4908606C49086067480B
:103F9000007802F0ADFC804669480168404602F0B6
:103FA000E9FA074602F0DBFCCDE902015E48007841
:103FB00002F0B4FC07460022624B02F02AFC824663
:103FC0008B465D48006802F0CAFC52465B46CDE96C
:103FD000000102F005FB0546DDE9022302F0E6FCE4
:103FE00002D80020594908705048007800E06FE07E
:103FF00002F094FC07460022524B02F00AFC0546F0
:104000000E464D48006802F0AAFC82462A46334616
:1040100002F0B8FC0CD24D48007848B901204B4959
:10402000087000204349086043490860434908601C
:104030003F48007802F05CFC064641480168304683
:1040400002F098FA054602F08AFC82468B46364812
:10405000007802F063FC054600223A4B02F0D9FBDF
:10406000074688463548006802F079FC3A464346E0
:10407000CDE9000102F0B4FA52465B46CDE90201F7
:1040800002F094FC02D800203149087028480078DA
:1040900002F044FC824600222A4B02F0BAFB07469B
:1040A00088462648006802F05AFC05463A464346D0
:1040B00002F068FC0CD22648007848B90120244957
:1040C000087000201B4908601B4908601B490860F4
:1040D0001448C078012874D1194801681D4802F0BD
:1040E00049FA05461C491348006802F0EBF90646F8
:1040F000294602F095FC02D20020134908701649A7
:104100000C48006802F082FC02D801200E490870B9
:104110000B4801680F4802F02DFA1FE0000C014027
:104120002C01002078000020900000209100002049
:104130009200002084000020880000208C000020D5
:104140009C00002000405540930000209400002077
:104150009500002000007A43000040400546E749F2
:10416000E748006802F0AEF90646294602F058FC1E
:1041700002D20020E3490870E049E148006802F0FB
:1041800045FC02D80120DF490870DF480168DF489C
:1041900002F0F0F90546D949DD48006802F092F9CD
:1041A0000646294602F03CFC02D20020D94908709C
:1041B000D249D748006802F029FC02D80120D5492D
:1041C0000870D548407900287DD1D348C0780028B0
:1041D0007AD1D2480078D0B1D148007802F09EFB65
:1041E00082460022CF4B02F014FB05460E46CE4815
:1041F000006802F0B4FB07462A46334602F0F0F9A5
:10420000CDE9020102F0E6FBC749086019E0C448A5
:10421000007802F083FB82460022C24B02F0F9FADA
:1042200005460E46C048006802F099FB07462A463C
:10423000334602F076FACDE9020102F0CBFBBA492F
:104240000860B0480078D0B1B848007802F066FB4A
:104250000022B44BCDE9020102F0DBFA05460E461E
:10426000A748006802F07BFB07462A46334602F067
:10427000B7F9824602F0AEFBA149086018E0AB48EE
:10428000007802F04BFB05460022A64B02F0C1FA73
:10429000CDE902019A48006802F061FB0746DDE9BA
:1042A000022302F03EFA824602F094FB9449086031
:1042B00098480078E8B19E48007802F02FFB074646
:1042C0000022984B01E07AE03EE002F0A2FA82463A
:1042D0008B468F48006802F042FB52465B46CDE9B0
:1042E000020102F07DF9054602F074FB884908607E
:1042F00018E08F48007802F011FB07460022894B36
:1043000002F087FACDE902018148006802F027FB3C
:104310008246DDE9022302F004FA054602F05AFB68
:104320007B4908607E48007810B900207E4908600B
:104330007E48007810B90020714908607C480078F8
:1043400010B90020724908607348C07801284CD128
:104350007248007838B169497348006802F0B2F8D1
:104360007149086006E065496F48006802F0FCF892
:104370006D4908606348007838B16049604800685A
:1043800002F0A0F85E49086006E05C495C480068FD
:1043900002F0EAF85A4908605E48007838B1574997
:1043A0005B48006802F08EF8594908601DE05349E7
:1043B0005748006802F0D8F85549086015E056489B
:1043C0004079012811D15449087802F091FA5649F0
:1043D00008605149487802F08BFA494908604E4913
:1043E000887802F085FA4A4908604FF000092EE00B
:1043F000002426E024B1012C0CD0022C1ED113E0A5
:104400003F48006802F097FA09EB4901494A114414
:10441000085513E04448006802F08DFA09EB4901A1
:10442000444A1144085509E03948006802F083FA0B
:1044300009EB49013F4A1144085500BF00BF601C09
:10444000C4B2032CD6DB09F1010000F0FF09B9F179
:10445000040FCDDB3048407902280ED02E4800787A
:1044600028B92D48407810B92B48807828B1002110
:104470002548006802F0CAFA04D12E4800210160E4
:1044800041608160FFF7DBFCBDE8FF9F2DE9F04153
:1044900006460F4690460025002472B625480021A6
:1044A000016041608160002521E000241BE024B10F
:1044B000012C08D0022C13D10BE005EB45001D495F
:1044C000084407550CE005EB45001A490844065519
:1044D00006E005EB45001749084400F8048000BFDA
:1044E00000BF601CC4B2032CE1DB681CC5B2042D04
:1044F000DBDBFFF7A4FC62B6BDE8F08100004040C2
:1045000088000020940000209C00002000007A43D6
:104510008C000020950000207800002093000020EF
:1045200090000020004055408400002091000020B1
:10453000920000202C0100200021002005E000E076
:10454000491CF84A9142FBD3401C0328F7D370471B
:1045500030B5044600BF631C03EB830301EB430348
:10456000D8B2631C03EB83035B000A2B06D0142B29
:1045700071D01E2B70D0282B6FD1EFE1A0F10A056E
:104580000A2D14D2DFE805F00514233241505F7183
:10459000808F32B1E44B1B7943F08003E24D2B71E5
:1045A00005E0E14B1B7923F08003DF4D2B7189E09F
:1045B00032B1DD4B1B7943F04003DB4D2B7105E03D
:1045C000D94B1B7923F04003D74D2B717AE032B1E0
:1045D000D54B1B7943F02003D34D2B7105E0D24B13
:1045E0001B7923F02003D04D2B716BE032B1CE4B01
:1045F0001B7943F01003CC4D2B7105E0CA4B1B799E
:1046000023F01003C84D2B715CE032B1C64B1B790F
:1046100043F00803C44D2B7105E0C34B1B7923F015
:104620000803C14D2B714DE032B1BF4B1B7943F0F4
:104630000403BD4D2B7105E0BB4B1B7923F0040334
:10464000B94D2B713EE04AB1B74B1B7943F00203E1
:10465000B54D2B7108E037E0D9E022E2B24B1B796F
:1046600023F00203B04D2B712CE032B1AE4B1B791D
:1046700043F00103AC4D2B7105E0AB4B1B7923F0EC
:104680000103A94D2B711DE032B1A74BDB7843F03C
:104690008003A54DEB7005E0A34BDB7823F080038E
:1046A000A14DEB700EE032B19F4BDB7843F040033D
:1046B0009D4DEB7005E09C4BDB7823F040039A4D59
:1046C000EB7000BF00BFEDE1A0F114050A2D14D27C
:1046D000DFE805F00514233241505F6E7D8C32B166
:1046E000914BDB7843F020038F4DEB7005E08E4B50
:1046F000DB7823F020038C4DEB7086E032B18A4BDF
:10470000DB7843F01003884DEB7005E0864BDB78D7
:1047100023F01003844DEB7077E032B1824BDB78ED
:1047200043F00803804DEB7005E07F4BDB7823F00E
:1047300008037D4DEB7068E032B17B4BDB7843F0D2
:104740000403794DEB7005E0774BDB7823F004032D
:10475000754DEB7059E032B1734BDB7843F00203D7
:10476000714DEB7005E0704BDB7823F002036E4D6A
:10477000EB704AE032B16C4BDB7843F001036A4DD9
:10478000EB7005E0684BDB7823F00103664DEB70BE
:104790003BE032B1644B9B7843F08003624DAB70D9
:1047A00005E0614B9B7823F080035F4DAB702CE0FC
:1047B00032B15D4B9B7843F040035B4DAB7005E03D
:1047C000594B9B7823F04003574DAB701DE032B13D
:1047D000554B9B7843F02003534DAB7005E0524B93
:1047E0009B7823F02003504DAB700EE032B14E4B5E
:1047F0009B7843F010034C4DAB7005E04A4B9B781F
:1048000023F01003484DAB7000BF00BF4AE1A0F198
:104810001E050A2D14D2DFE805F00514233241509D
:104820005F6E7D9032B1404B9B7843F008033E4D64
:10483000AB7005E03C4B9B7823F008033A4DAB701E
:104840008AE032B1384B9B7843F00403364DAB70AD
:1048500005E0354B9B7823F00403334DAB707BE0D0
:1048600032B1314B9B7843F002032F4DAB7005E022
:104870002D4B9B7823F002032B4DAB706CE032B1D3
:10488000294B9B7843F00103274DAB7005E0264B85
:104890009B7823F00103244DAB705DE032B1224BD5
:1048A0005B7843F08003204D6B7005E01E4B5B7816
:1048B00023F080031C4D6B704EE032B11A4B5B78D5
:1048C00043F04003184D6B7005E0174B5B7823F005
:1048D0004003154D6B703FE032B1134B5B7843F0F2
:1048E0002003114D6B7005E00F4B5B7823F0200324
:1048F0000D4D6B7030E032B10B4B5B7843F0100321
:10490000094D6B7005E0084B5B7823F01003064DF2
:104910006B7021E052B1044B5B7843F00803024D09
:104920006B7009E0FFFF0F00AA000020F94B5B78D5
:1049300023F00803F74D6B700EE032B1F54B5B7856
:1049400043F00403F34D6B7005E0F24B5B7823F00A
:104950000403F04D6B7000BF00BFA3E0A0F1280579
:104960000A2D14D2DFE805F00514233241505F6EA2
:104970007D8C32B1E74B5B7843F00203E54D6B7001
:1049800005E0E44B5B7823F00203E24D6B7086E0B8
:1049900032B1E04B5B7843F00103DE4D6B7005E014
:1049A000DC4B5B7823F00103DA4D6B7077E032B1BA
:1049B000D84B1B7843F08003D64D2B7005E0D54BC8
:1049C0001B7823F08003D34D2B7068E032B1D14BBC
:1049D0001B7843F04003CF4D2B7005E0CD4B1B7887
:1049E00023F04003CB4D2B7059E032B1C94B1B78FB
:1049F00043F02003C74D2B7005E0C64B1B7823F016
:104A00002003C44D2B704AE032B1C24B1B7843F0F7
:104A10001003C04D2B7005E0BE4B1B7823F0100334
:104A2000BC4D2B703BE032B1BA4B1B7843F008030E
:104A3000B84D2B7005E0B74B1B7823F00803B54D3C
:104A40002B702CE032B1B34B1B7843F00403B14D13
:104A50002B7005E0AF4B1B7823F00403AD4D2B709A
:104A60001DE032B1AB4B1B7843F00203A94D2B7014
:104A700005E0A84B1B7823F00203A64D2B700EE037
:104A800032B1A44B1B7843F00103A24D2B7005E01B
:104A9000A04B1B7823F001039E4D2B7000BF00BF7D
:104AA00000E000BF00BF30BD70B50646002410E036
:104AB00000250AE004EB840006EB4000425D294635
:104AC0002046FFF745FD681CC5B20A2DF2DB601CCD
:104AD000C4B2042CECDB70BD10B505218D4801F08B
:104AE0005EFA10BD70B5002419E028218A4801F053
:104AF000DEFC002508E0012005EB8501864A02EB7B
:104B000041010855681CC5B2042DF4DB8248FFF74B
:104B1000CBFFFFF7E1FFFFF70FFD601CC4B20A2CCB
:104B2000E3DB70BD10B528217B4801F0C0FC0120FB
:104B30007A498978784A02EB211108700121774877
:104B4000807800F00F0274480A308154734842782C
:104B50007148143000EB221001707048407800F06A
:104B60000F026D481E3081541E38FFF79DFFFFF77E
:104B7000B3FF6B48007810B96A48007810B1FEF7AF
:104B800099FB05E04FF480606749086040000860C9
:104B900010BD10B52821604801F089FC01205F4953
:104BA00049795D4A02EB2111087001215B48407987
:104BB00000F00F0258480A3081545848027956488C
:104BC000143000EB221001705448007900F00F02FD
:104BD00051481E3081541E38FFF766FFFFF77CFFF7
:104BE00010BD10B528214C4801F061FC01214B4853
:104BF000C2784948143000EB221001704748C07851
:104C000000F00F0244481E3081541E38FFF74CFF5D
:104C1000FFF762FF10BD10B528213F4801F047FCA7
:104C20004248006801F087FEC0B20A2190FBF1F112
:104C300039481430012242543C48006801F07BFEA0
:104C4000C0B20A2190FBF1F201FB120132481E3082
:104C5000012242541E38FFF727FFFFF73DFF10BD2A
:104C600010B533480078FF2876D03248007830B14C
:104C7000012817D002282DD0032860D13DE02C4810
:104C80000078022802DD00202949087028480178B0
:104C90002948807861F31F1027498870FF20244934
:104CA00008704DE024488078202806DB20480078F2
:104CB000042802DD04201E4908701F48807800F097
:104CC000F0001B49097808431B498870FF201849E8
:104CD000087035E016480078062802DD00201449E7
:104CE0000870134801781448407861F31F10124986
:104CF0004870FF200E49087022E00F48407800F00D
:104D0000F0000B49097808430B494870FF20084917
:104D1000087015E0AA000020380100206300002080
:104D20003800002044000020140C014074000020D2
:104D30003C0000203A0000205C0000200CE000BF96
:104D400000BFFE480078401CFC4908700846007807
:104D5000042801DB002008702821F94801F0A7FB96
:104D60000120F8498978F64A02EB211108700121E7
:104D7000F448807800F00F02F1480A308154F1487D
:104D80004278EF48143000EB22100170ED48407873
:104D900000F00F02EA481E308154EB48007870B3EF
:104DA000E648007830B101280CD0022813D003283F
:104DB00023D119E00020E3498978E14A02EB21116F
:104DC00008701BE00021DF48807800F00F02DC480B
:104DD0000A30815412E00021DA484278D848143071
:104DE00000EB2210017009E00021D648407800F065
:104DF0000F02D3481E30815400E000BF00BFD048EE
:104E0000FFF752FEFFF768FED048007858B1CF4850
:104E10000078C043CD4908704FF48060CC490860E9
:104E2000400008600BE0C9480078C043C7490870DB
:104E30004FF48060C649091D08604000086010BD3D
:104E400010B5C4480078FF2861D0BC48007830B164
:104E5000012817D0022822D003284BD132E0BD48C8
:104E60000078022802DD0020BA490870B9480178AC
:104E7000B448407961F31F10B2494871FF20B54929
:104E8000087038E0AF48407900F0F000B149097887
:104E90000843AC494871FF20AE4908702BE0AD488B
:104EA0000078032802DD0020AA490870A94801788B
:104EB000A448007961F31F10A2490871FF20A54999
:104EC000087018E09F480079302806DBA148007878
:104ED000012802DD00209F4908709A48007900F0FF
:104EE000F0009C490978084396490871FF209949C8
:104EF000087000E000BF00BF90480078401C8F4958
:104F0000087008460078042801DB0020087028217A
:104F10008B4801F0CCFA01208A494979884A02EB92
:104F20002111087001218748407900F00F02844860
:104F30000A308154834802798148143000EB2210F2
:104F400001708048007900F00F027D481E308154C6
:104F50007D48007870B37948007830B101280CD0D2
:104F6000022813D0032823D119E00020754949797C
:104F7000734A02EB211108701BE00021714840794F
:104F800000F00F026E480A30815412E000216D4893
:104F900002796B48143000EB2210017009E0002107
:104FA0006848007900F00F0265481E30815400E027
:104FB00000BF00BF6248FFF777FDFFF78DFD4FF49C
:104FC0008060634908604000086010BD10B55B4810
:104FD0000078032802DA0320584908705D480078F9
:104FE000FF282BD05548007803281AD1594800785B
:104FF000072802DD0120574908705648007801282B
:1050000002DA0120534908704E48C07800F0F000E1
:105010005049097808434B49C870FF204D49087032
:1050200000E000BF00BF45480078401C43490870BD
:1050300008460078042801DB002008702821404839
:1050400001F035FA01213F48C07800F00F023C48DA
:105050001E3081543C48007870B1384800780328ED
:1050600008D100213748C07800F00F0234481E30C4
:10507000815400E000BF00BF3148FFF715FDFFF786
:105080002BFD4FF480603249091D08604000086024
:1050900010BD10B529480078022802DA02202749FD
:1050A00008702C480078FF282CD02448007802286B
:1050B00002D0032819D10BE02648017821488079D5
:1050C00061F31F101F498871FF20224908700DE00D
:1050D0001C48807900F0F0001E49097808431949FE
:1050E0008871FF201B49087000E000BF00BF134813
:1050F0000078401C1149087008460078042801DB3C
:105100000020087028210E4801F0D1F901200C4937
:105110008870887201210B4882790948143000EBAD
:10512000221001700748807900F00F0204481E30F9
:1051300081540548007840B300480DE03A00002053
:10514000380100205C00002098000020A000002012
:10515000100C01403C0000200078022802D00328F7
:1051600011D107E00021FB488279FB4800EB2210B7
:10517000017009E00021F748807900F00F02F6483D
:105180000A30815400E000BF00BFF3481438FFF735
:105190008BFCFFF7A1FC4FF48060F04908604000F1
:1051A000086010BD10B5EE480078FF2848D0ED48E3
:1051B000007830B1012810D002281BD0032832D14A
:1051C00024E0E7480178E848807861F31F10E64959
:1051D0008870FF20E249087026E0E348807800F0FC
:1051E000F000DF4909780843DF498870FF20DC4977
:1051F000087019E0DA480178DB48407861F31F1045
:10520000D9494870FF20D64908700DE0D64840784B
:1052100000F0F000D24909780843D3494870FF20D4
:10522000CF49087000E000BF00BFCE480078401CA6
:10523000CC49087008460078042801DB002008707B
:105240002821C548143801F032F90120C64989786F
:10525000C14A143A02EB211108700121C24880783A
:1052600000F00F02BC480A388154BF484278BA485F
:1052700000EB22100170BC48407800F00F02B648E5
:105280000A308154B9480078B8B3B648007830B1D4
:1052900001280DD0022814D0032823D119E00020C2
:1052A000B1498978AC4A143A02EB211108701AE02E
:1052B0000021AD48807800F00F02A7480A388154D9
:1052C00011E00021A8484278A34800EB22100170A9
:1052D00009E00021A448407800F00F029E480A30FF
:1052E000815400E000BF00BF4FF480609B49091F5C
:1052F00008604000091D086007E0FFE74FF4806088
:10530000964908604000091F086093481438FFF769
:10531000CBFBFFF7E1FB10BD10B5954800780528E1
:1053200013D2DFE800F00306090C0F00FFF798FC2A
:105330000CE0FFF785FD09E0FFF748FE06E0FFF708
:10534000A8FE03E0FFF72EFF00E000BF00BF874884
:105350000078C0438549087010BD10B58AB000249C
:105360002821684601F0A3F80120824A12780DF83E
:10537000020001210DF10A007E4A1278815405A82D
:105380007C4A127881540A307A4A127881547948DA
:1053900001780078401C774A10700A2902D1002059
:1053A000114608706846FFF77FFBFFF795FB002466
:1053B00000E0641C052CFCD367481438FFF774FB2D
:1053C000FFF78AFB0AB010BD10B5044620786228AA
:1053D00008D0A22816D0E22824D0FF2832D1FFF727
:1053E000A1FB30E0FFF717FC63480078401C6249DE
:1053F000087008460078042803DB00200870FF20AE
:10540000207020E0FFF7C5FB5B480078401C5A493C
:10541000087008460078042803DB00200870FF208D
:10542000207010E0FFF7DDFB53480078401C524924
:10543000087008460078042803DB00200870FF206D
:10544000207000E000BF00BF10BD002000BF00E0E2
:10545000401C42F210718842FAD3704770B505467D
:10546000002446480088C6B2B5420ADB344605E04F
:1054700042480480FFF7E9FF601CC4B2AC42F7DB8E
:105480000BE0344605E03D480480FFF7DEFF601E78
:10549000C4B2AC42F7DC3948048070BD70B53849FD
:1054A00008883849098800F0E1FF354948883649BD
:1054B000097800F0DBFF354A5179314A908800F0D5
:1054C000D5FF294A5278284B9B7842EA03212C4A7F
:1054D000D08800F0CBFF2A4908892D49098800F0BF
:1054E000C5FF2A4A1178264A508900F0BFFF274A93
:1054F0005178234A908900F0B9FF244A9178204AD4
:10550000D08900F0B3FF214AD1781D4A108A00F0FB
:10551000ADFF1B49488A1F49097800F0A7FF1849C9
:10552000888A1D49097800F0A1FF1549C88A1B49DE
:10553000097800F09BFF1A491A48006801F01AF830
:10554000054601F0F8F984B20D49088B214600F0B8
:105550008DFF70BD5C0000204C010020140C014048
:105560003C0000203A0000206A0000209800002043
:105570003B000020A1000020A200002040000040CD
:10558000B000002034000020380000207800002007
:1055900036000020430000203D0000203E00002097
:1055A0000000C8429C0000202DE9FF410446F74856
:1055B000007800287ED120785A287CD010DC38284A
:1055C0007AD006DC102878D0182877D0302876D109
:1055D000B6E0422874D04A2873D05228F7D1A0E10F
:1055E000A82828D006DC68287ED07A286BD090289E
:1055F000EDD1C7E1C22804D0E02843D0FF28E6D18E
:10560000F0E1FF202070E248007818B96420E049FA
:10561000087004E00020DE490870DE490870DC48AC
:105620000078FFF71BFFDA480178DBA001F068FB88
:10563000FFF734FFD6E1FF202070D54800783230E4
:10564000D349087008460078C82801DD3220087068
:10565000CF480178D0A001F053FBCD480078FFF788
:10566000FDFECB48007801F059F905460022CE4BEB
:1056700001F0CFF8074601F0ADF9CC490860FFF71B
:105680000DFFAFE1FF202070C14800783238C049DB
:10569000087008460078322801DAC8200870BC4833
:1056A0000178BDA001F02CFBB9480078FFF7D6FEC9
:1056B000B74809E097E1D9E0B9E099E05DE085E11C
:1056C000F3E011E110E076E0007801F027F90546FB
:1056D0000022B54B01F09DF8074601F07BF9B34974
:1056E0000860FFF7DBFE7DE1FF202070B0484079C5
:1056F000401CAF49487108464079032801DB00206F
:105700004871AB484079012811D1AA48006801F0DE
:1057100012F9A7490870A848006801F00CF9A449DB
:105720004870A648006801F006F9A1498870A048B1
:10573000407910B9A24800782070FFF7AFFE51E120
:10574000FF2020709A4908709E49087000209849EF
:1057500048709C494870964988709A498870944965
:10576000C87008464079012801D1002048713020D6
:1057700093490870FFF792FE34E1FF2020708C49B6
:105780000870904908709C20894948708D4948707C
:105790000020874988708B4988708549C870084601
:1057A0004079012801D100204871182084490870EF
:1057B000FFF774FE16E1FF2020707D4908708149D3
:1057C00008707B4948707F4948700020784988708C
:1057D0007C4988707649C87008464079012801D113
:1057E000002048717A2076490870FFF757FEF9E0EB
:1057F000FF20207000206E49087072490870FF2059
:105800006B4948706F4948700020694988706D493C
:1058100088706749C87008464079012801D1002086
:105820004871102066490870FFF738FEDAE0FF2063
:10583000207000205E49087062490870FF205C49B2
:105840004870604948705A4988705E4988700020E5
:105850005749C87008464079012801D10020487195
:10586000382057490870FFF719FEBBE0FF20207071
:1058700000204F490870534908704D4948705149FC
:105880004870FF204A4988704E4988700020484976
:10589000C87008464079012801D1002048715A207B
:1058A00047490870FFF7FAFD9CE0FF20207040494F
:1058B00008704449087000203D49487041494870CB
:1058C000FF203B4988703F49887000203849C870E4
:1058D00008464079012801D100204871422038490A
:1058E0000870FFF7DBFD7DE0FF2020703049087075
:1058F000344908702E494870324948702C498870E4
:105900003049887000202A49C8700846407901282B
:1059100001D1002048714A2029490870FFF7BEFDD7
:1059200060E0FF20207022490870264908707F201F
:105930001F494870234948703F201D4988702149FC
:10594000887001201A49C87008464079012801D1A1
:105950000020487152201A490870FFF79FFD144A31
:105960005179194A908800F081FD114AD178164A80
:10597000108A00F07BFD1449888A1149097800F0EB
:1059800075FD2FE0FF2020702CE000003900002082
:1059900038000020440000204C696768744C65762C
:1059A000656C3A25640D0A00000069409C000020E7
:1059B0007800002084000020880000208C00002057
:1059C0003D0000207E000020B000002020786228EA
:1059D00007D02078A22804D02078E22801D0FF2028
:1059E000207000BFCEE02078682864D014DC422804
:1059F00073D008DC10287CD0182868D0302860D0FC
:105A000038286CD17BE04A286AD0522869D05A28BD
:105A10007DD06228F5D11FE0C22810D008DC7A289A
:105A200061D0902871D0A22829D0A828E9D186E099
:105A3000E0286BD0E22830D0FF28E2D1A1E0FF209F
:105A400020707848007810B964207649087075484D
:105A50000078FFF703FD94E0FF2020707248007883
:105A6000401C7149087008460078052801DB0020B9
:105A700008706D4801786DA001F042F981E0FF20C7
:105A800020706D480078401E6B4908700846007809
:105A9000FF2801D10320087073E0FF2020706648C2
:105AA0000078401C6449087008460078042801D139
:105AB0000020087065E0FF20207000205F4908701A
:105AC0005FE0FF20207001205C49087059E0FF2052
:105AD000207002205949087053E01EE009E04DE0B3
