:020000040800F2
:10000000880A002045010008C9320008CB320008E8
:10001000CF320008D3320008D732000800000000B9
:10002000000000000000000000000000DB320008BB
:10003000DD32000800000000DF320008FF32000857
:100040005F0100085F0100085F0100085F01000810
:100050005F0100085F0100085F0100085F01000800
:10006000E13200085F0100085F0100085F0100083D
:100070005F0100085F0100085F0100085F010008E0
:100080005F0100085F0100085F0100085F010008D0
:100090005F0100085F0100085F01000819630008A4
:1000A0005F0100085F0100085F0100085F010008B0
:1000B0005F0100085F0100085F0100085F010008A0
:1000C0005F0100085F0100085F0100085F01000890
:1000D0005F010008033600085F0100085F010008A7
:1000E0005F0100085F0100085F0100085F01000870
:1000F0005F0100085F0100085F0100085F01000860
:100100005F0100085F0100085F0100085F0100084F
:100110005F0100085F0100085F0100085F0100083F
:100120005F0100085F0100085F0100085F0100082F
:10013000DFF80CD007F0E8FA00480047712E0008FD
:10014000880A00200648804706480047FEE7FEE789
:10015000FEE7FEE7FEE7FEE7FEE7FEE7FEE7FEE777
:1001600047020008310100080CB500200190009002
:100170006C48006840F480306A49086000BF6948F4
:10018000006800F4003000900198401C0190009835
:1001900018B90198B0F5A06FF1D16248006800F479
:1001A000003010B10120009001E000200090009884
:1001B000012843D15C48006840F010005A490860AB
:1001C0000846006820F0030008600846006840F018
:1001D0000200086053484068524948600846406839
:1001E00048600846406840F48060486008464068BF
:1001F00020F47C1048600846406840F4E8104860ED
:100200000846006840F08070086000BF45480068FC
:1002100000F000700028F9D04248406820F0030048
:10022000404948600846406840F00200486000BF0E
:100230003C48406800F00C000828F9D10CBD10B50E
:10024000FFF792FF10BD10B53648006840F001007E
:1002500034490860084640683449084031494860DC
:1002600008460068324908402E4908600846006880
:1002700020F4802008600846406820F4FE004860B2
:100280004FF41F008860FFF7DAFF4FF00060294944
:10029000086010BD10B5002100200022214B5B68D2
:1002A00003F00C0121B1042906D0082928D107E068
:1002B000214B224C236027E01F4B204C236023E07E
:1002C000184B5B6803F47010164B5B6803F48032C4
:1002D000022303EB904022B9194B4343174C236090
:1002E0000DE0104B5B6803F4003323B1144B434320
:1002F000124C236003E0104B4343104C236003E097
:100300000D4B0E4C236000BF00BF064B5B68C3F370
:1003100003130C4CE15C094B1B68CB40074C23607A
:1003200010BD000000100240002002400000FFF855
:10033000FFFFF6FE08ED00E000127A00000000204A
:1003400000093D000400002031490143314A116099
:10035000704770B5002100230F22C47804B32D4CE0
:10036000246804F4E064C4F5E064210AC1F10403E4
:10037000CA40447804FA03F1847814402143090107
:10038000254C0678A155047804F01F050124AC40E3
:1003900005786D11AD0005F1E025C5F8004109E0D3
:1003A000047804F01F050124AC401C4D067876113A
:1003B00045F8264070BD1A4A0A400243154B1B1FE0
:1003C0001A60704739B1134A121D12680243114B6B
:1003D0001B1D1A6006E00F4A121D126882430D4B66
:1003E0001B1D1A607047042808D14FF0E0210969ED
:1003F00041F004014FF0E022116107E04FF0E021ED
:10040000096921F004014FF0E022116170470000FA
:100410000000FA050CED00E000E400E080E100E0FF
:1004200080FFFF1F002044490860091D0860091D66
:100430000860091D086041483F4914310860704751
:1004400000213D498279002A3AD00A4612680368A1
:100450009A430B461A600A1D126803689A430B1DE3
:100460001A60027911440A6803681A430A60324A22
:100470000832126803689A432F4B08331A601A1D1A
:10048000126803689A432C4B0C331A604279102A85
:100490000ED11A1F126803681A43274B08331A60DB
:1004A0001A1D126803681A43234B0C331A600DE0BF
:1004B0002149427911440A6803681A430A6005E039
:1004C000027911440A6803689A430A607047002160
:1004D000016001710C214171002181717047164941
:1004E000103109680143144A103211607047014607
:1004F0000020114A143212680A400AB1012000E0BB
:10050000002070470C4914310860704701460020F4
:100510000022094B1B6803EA0102074B14331B68D6
:100520000B4013B10AB1012000E0002070470249DE
:10053000143108607047000000040140FFFF0F0005
:1005400001460020FE4A106800F0380008431060A1
:100550007047FB49096821F00801F94A116011460A
:100560000968014311607047F549096821F01001DD
:10057000F34A116011460968014311607047F14860
:10058000EF494860F04848607047EE48EC494860E1
:10059000ED4848607047EA48006940F08000E8494B
:1005A00008617047E648006940F08000E44908614E
:1005B00070470420E249C96801F0010109B1012036
:1005C0000EE0DF49C96801F0040109B1022007E02B
:1005D000DB49C96801F0100109B1032000E00420E3
:1005E000704700B502460423FFF7E3FF034603E02C
:1005F000FFF7DFFF0346521E012B01D1002AF7D17E
:1006000002B90523184600BD30B5044604254FF451
:100610003020FFF7E6FF0546042D17D1C8480069D2
:1006200040F00200C649086108464461006940F094
:10063000400008614FF43020FFF7D3FF0546C04863
:10064000006941F6FD710840BD490861284630BD8A
:1006500010B504244FF43020FFF7C3FF0446042CE8
:1006600016D1B748006940F00400B5490861084652
:10067000006940F0400008614FF43020FFF7B1FFFF
:100680000446AF48006941F6FB710840AC49086177
:10069000204610BD00B502460423FFF78AFF03463B
:1006A00003E0FFF786FF0346521E012B01D1002A0B
:1006B000F7D102B90523184600BD10B504244FF444
:1006C0003020FFF7E7FF0446042C16D19C48006950
:1006D00040F004009A4908610846006940F0400073
:1006E00008614FF43020FFF7D5FF044694480069B5
:1006F00041F6FB71084092490861204610BD002078
:100700008F49C96901F0020109B1012000E0002010
:10071000704730B5A5250424FFF7F1FF00B100258F
:100720004FF43020FFF75DFF0446042C3AD1854892
:1007300083498860844888600846006940F020004A
:1007400008610846006940F0400008614FF430201D
:10075000FFF747FF0446042C1BD17948006941F696
:10076000DF710840764908610846006940F01000D2
:10077000086176480580E002FFF733FF0446052C48
:1007800010D06F48006941F6EF7108406C4908616C
:1007900008E0052C06D06A48006941F6EF71084070
:1007A00067490861204630BD78B506460C460425E9
:1007B00000200090E802FFF714FF0546042D24D125
:1007C0005F48006940F001005D4908613480E8023B
:1007D000FFF707FF0546042D10D1B01C0090200C38
:1007E00000990880E802FFF7FCFE054654480069BE
:1007F00041F6FE7108405249086106E05048006920
:1008000041F6FE7108404E490861284678BD70B532
:1008100004460D460426F002FFF7E3FE0646042ECA
:1008200011D14748006940F0010045490861258021
:10083000F002FFF7D6FE06464148006941F6FE7118
:1008400008403F490861304670BD70B505460E4608
:100850000424E002FFF7C5FE0446042C17D13948F2
:1008600037498860384888600846006940F01000C1
:1008700008612E80E002FFF7B4FE0446052C06D086
:100880002F48006941F6EF7108402D490861204664
:1008900070BD2DE9F04304464FF6FF763746B0466B
:1008A000B1460425E443E6B2C4F30727C4F307487E
:1008B0004FEA1469E802FFF794FE0546042D49D17A
:1008C00020481F498860204888600846006940F039
:1008D00010000861FF2E06D01C4808300680E80290
:1008E000FFF77FFE0546042D08D1FF2F06D01748DD
:1008F0000A300780E802FFF774FE0546042D0AD18E
:10090000B8F1FF0F07D011480C30A0F80080E802C2
:10091000FFF767FE0546042D0AD1B9F1FF0F07D096
:100920000A480E30A0F80090E802FFF75AFE05468C
:10093000052D0FD00248006941F6EF71084007E02D
:100940000020024023016745AB89EFCD00F8FF1F6F
:10095000664908612846BDE8F08330B505460424A1
:100960004FF43020FFF73DFE0446042C41D160488F
:100970005E4988605F4888600846006940F0200052
:1009800008610846006940F0400008614FF43020DB
:10099000FFF727FE0446042C22D15448006941F693
:1009A000DF710840514908610846006940F01000B5
:1009B00008611DB100205049088002E0A5204E4981
:1009C00008804FF43020FFF70CFE0446052C10D0B1
:1009D0004648006941F6EF7108404449086108E063
:1009E000052C06D04148006941F6DF7108403F49B7
:1009F0000861204630BDF0B505460E461746042472
:100A00003B483A4988603B488860E002FFF7E9FDCF
:100A10000446042C19D13548006940F010003349D0
:100A2000086147F0F800304328433349891C0880A7
:100A3000E002FFF7D6FD0446052C06D02B480069DE
:100A400041F6EF710840294908612046F0BD27486A
:100A5000C069800870472548006A70470020234914
:100A6000096801F0200109B1012000E00020704771
:100A700029B11E4A126902431C4B1A6104E01B4A49
:100A800012698243194B1A617047014600200129FF
:100A900008D1164AD26902F001020AB1012008E029
:100AA000002006E0114AD2680A400AB1012000E0A5
:100AB000002070470D49C860704704200B49C96881
:100AC00001F0010109B101200EE00849C96801F0F7
:100AD000040109B1022007E00449C96801F01001CE
:100AE00009B1032000E0042070470000002002400C
:100AF00023016745AB89EFCD00F8FF1F10B5044611
:100B0000CC48844208D10121042000F02DFB0021B3
:100B1000042000F029FB46E0C748844208D10121A7
:100B2000082000F021FB0021082000F01DFB3AE026
:100B3000C248844208D10121102000F015FB002199
:100B4000102000F011FB2EE0BD48844208D10121A5
:100B5000202000F009FB0021202000F005FB22E00E
:100B6000B848844208D10121402000F0FDFA00215C
:100B7000402000F0F9FA16E0B348844208D1012180
:100B8000802000F0F1FA0021802000F0EDFA0AE068
:100B9000AE48844207D10121801500F0E5FA00211A
:100BA000A01500F0E1FA10BD10B50121084600F0D3
:100BB000DBFA0021012000F0D7FA10BD2DE9F04149
:100BC000024600250026002000230024002791F87B
:100BD00003C00CF00F0591F803C00CF0100CBCF131
:100BE000000F03D091F802C04CEA050591F800C04F
:100BF000BCF1000F31D0146800202BE04FF0010C45
:100C00000CFA00F3B1F800C00CEA03069E4220D1B2
:100C100083004FF00F0C0CFA03F7BC4305FA03FCFA
:100C20004CEA040491F803C0BCF1280F06D14FF040
:100C3000010C0CFA00FCC2F814C00AE091F803C0E1
:100C4000BCF1480F05D14FF0010C0CFA00FCC2F8C2
:100C500010C0401C0828D1D31460B1F800C0BCF10A
:100C6000FF0F34DD546800202EE000F1080C4FF037
:100C7000010808FA0CF3B1F800C00CEA03069E4222
:100C800021D183004FF00F0C0CFA03F7BC4305FA97
:100C900003FC4CEA040491F803C0BCF1280F05D111
:100CA00000F1080C08FA0CF8C2F8148091F803C09F
:100CB000BCF1480F07D100F1080C4FF0010808FA09
:100CC0000CF8C2F81080401C0828CED35460BDE850
:100CD000F0814FF6FF710180022181700421C17003
:100CE00070470246002093680B400BB1012000E0E2
:100CF000002070470146886880B270470246002095
:100D0000D3680B400BB1012000E000207047014682
:100D1000C86880B2704701617047416170470AB18D
:100D2000016100E041617047C16070474FF480325B
:100D30000A438261816182618269826970470246E9
:100D40000020434B18684FF68073184040EA0210A9
:100D500008433F4B186070473E49C8617047F0B583
:100D60000A46002300240021002500F00046B6F1C9
:100D7000004F02D1364EF16901E0354E7168C0F383
:100D8000034583B200F44016B6F5401F08D121F0A8
:100D900070612F4E766826F070662D4F7E6012E0EF
:100DA00000F48016B6F5801F06D1032606FA05F476
:100DB000A14341F0706106E0460D360103FA06F6E4
:100DC000B14341F0706122B1460D360103FA06F6D7
:100DD000314300F00046B6F1004F02D11C4EF161E4
:100DE00001E01B4E7160F0BD30B500228B071C0F77
:100DF0000F2303FA04F2164B08338C1053F82430F7
:100E00009343134C08348D1044F8253023468C103E
:100E100053F824308C07240F00FA04F423430C4CBD
:100E200008348D1044F8253030BD0A49DC310860A3
:100E30007047000000080140000C01400010014014
:100E40000014014000180140001C01400020014036
:100E50000000014000002042DF48006840F001002F
:100E6000DD49086008464068DC490840DA494860C6
:100E700008460068DA490840D74908600846006813
:100E800020F4802008600846406820F4FE00486096
:100E90004FF41F0088607047CF49096821F4803102
:100EA000CD4A11601146096821F480211160B0F526
:100EB000803F03D0B0F5802F0ED106E0C649096807
:100EC00041F48031C44A116007E0C349096841F424
:100ED000A021C14A116000E000BF00BF704710B5FB
:100EE00001460022002300204A11012A02D1BA4CF7
:100EF000236806E0022A02D1B74C236A01E0B64C0F
:100F0000636A01F01F02012494401C400CB10120CF
:100F100000E0002010BD38B500200090002400251E
:100F200000BF3120FFF7DBFF05460098401C009012
:100F30000098B0F5A06F01D0002DF2D03120FFF75E
:100F4000CEFF08B1012400E00024204638BD014650
:100F50000020A14A106820F0F80040EAC1001060AB
:100F60007047A04908607047024600209A4B5868B5
:100F700020F47C1042EA01031843974B58607047F5
:100F800098490866704701460020934A506820F04F
:100F900003000843506070478F48406800F00C0021
:100FA0007047014600208C4A506820F0F00008434A
:100FB0005060704701460020874A506820F4E06086
:100FC00008435060704701460020834A506820F46F
:100FD000605040EAC1005060704729B17E4A527AA1
:100FE00002437D4B5A7204E07B4A527A82437A4B29
:100FF0005A7270477B49D83108607047014600201B
:10100000754A506820F44040084350607047002102
:10101000714A20321170704A82F82010012802D0E3
:1010200004280AD104E001216B4A2032117005E046
:101030000521694A2032117000E000BF00BF7047EF
:101040006949086070476449096A0143624A11624C
:101050007047654944390860704730B50021002267
:10106000002400235C4D6D6805F00C0121B10429BA
:1010700005D0082923D105E05C4D056022E05B4DD9
:1010800005601FE0544D6D6805F47012524D6D6897
:1010900005F48034022505EB92421CB9544D5543AA
:1010A00005600BE04C4D6D6805F400351DB1504DE9
:1010B0005543056002E04D4D5543056002E04B4D40
:1010C000056000BF00BF444D6D6805F0F0010909DF
:1010D000484D6B5C0568DD4045603F4D6D6805F42B
:1010E000E061090A434D6B5C4568DD4085603A4D1F
:1010F0006D6805F46051C90A3E4D6B5C4568DD4082
:10110000C560354D6D6805F44041890B3A4D6B5C07
:10111000C568B5FBF3F5056130BD29B12E4A5269AA
:1011200002432D4B5A6104E02B4A526982432A4BF9
:101130005A61704729B1284A92690243264B9A6145
:1011400004E0254A92698243234B9A61704729B192
:10115000214AD2690243204BDA6104E01E4AD26977
:1011600082431D4BDA61704729B11B4AD2680243A2
:10117000194BDA6004E0184AD2688243164BDA60F1
:10118000704729B1144A12690243134B1A6104E0F3
:10119000114A12698243104B1A6170471249403953
:1011A000086070470F49C86470470B49C8717047A1
:1011B0000948406A40F0807007494862704701461C
:1011C0000020054A92680A400AB1012000E0002090
:1011D0007047014988727047001002400000FFF814
:1011E000FFFFF6FE000042428004424200127A00F5
:1011F00000093D00140000202400002010B5044622
:10120000FE48844208D10121C014FFF7ADFF002140
:10121000E014FFF7A9FFC4E0B4F1804F08D1012129
:101220000846FFF7AEFF00210120FFF7AAFFB8E054
:10123000F348844208D101210220FFF7A2FF0021D8
:101240000220FFF79EFFACE0EE48844208D1012166
:101250000420FFF796FF00210420FFF792FFA0E093
:10126000E948844208D101210820FFF78AFF0021C4
:101270000820FFF786FF94E0E448844208D101216A
:101280001020FFF77EFF00211020FFF77AFF88E093
:10129000DF48844208D101212020FFF772FF00219E
:1012A0002020FFF76EFF7CE0DA48844208D101215C
:1012B0004014FFF759FF00216014FFF755FF70E05D
:1012C000D548844209D10121C804FFF74DFF002110
:1012D0004FF40020FFF748FF63E0D048844209D173
:1012E00001210805FFF740FF00214FF48010FFF7B0
:1012F0003BFF56E0CA48844209D101214805FFF767
:1013000033FF00214FF40010FFF72EFF49E0C548DE
:10131000844208D101214020FFF733FF0021402003
:10132000FFF72FFF3DE0C048844208D10121802013
:10133000FFF727FF00218020FFF723FF31E0BB48A4
:10134000844208D101218015FFF71BFF0021A01561
:10135000FFF717FF25E0B648844209D101210804B0
:10136000FFF702FF00214FF48030FFF7FDFE18E089
:10137000B048844209D101214804FFF7F5FE00215D
:101380004FF40030FFF7F0FE0BE0AB48844208D189
:1013900001218804FFF7E8FE00214FF48020FFF7C9
:1013A000E3FE10BD00220288944B98420ED0994B68
:1013B00098420BD0B0F1804F08D0914B984205D0A5
:1013C000904B984202D0904B984204D14FF68F73C5
:1013D0001A404B881A438D4B984207D08C4B984249
:1013E00004D04FF6FF431A40CB881A4302808B8803
:1013F00083850B880385814B98420BD0854B98429F
:1014000008D08B4B984205D08A4B984202D08A4B29
:10141000984201D10B7A038601238382704770B50D
:10142000002400220023058C4FF6FE76354005840B
:10143000028C8388048B4FF68F752C40B51E2C4090
:101440000D882C43751E2A400D892A434D882A4356
:101450006A4DA8420BD06F4DA84208D0744DA842E7
:1014600005D0744DA84202D0734DA84213D14FF657
:10147000F7752A404D892A434FF6FB752A408D881F
:101480002A434FF6FF652B404FF6FF552B408D89C1
:101490002B43CD892B4383800483CD8885860284AA
:1014A00070BD70B5002400220023058C4FF6EF7646
:1014B00035400584028C8388048B48F6FF752C40E8
:1014C0004FF6FF452C400D884FF6FF7606EA0525BE
:1014D0002C434FF6DF752A400D8906EA05152A438D
:1014E0004D8806EA05152A43444DA84202D0494DCD
:1014F000A8421DD14FF67F752A404D894FF6FF76E1
:1015000006EA05152A434FF6BF752A408D8806EA7C
:1015100005152A434FF6FF352B404FF2FF752B4040
:101520008D8906EA85052B43CD8906EA85052B437F
:1015300083800483CD880587028470BD70B5002444
:1015400000220023058C4FF6FF6635400584028C8F
:101550008388848B4FF68F752C404FF6FC752C409A
:101560000D882C434FF6FF552A400D894FF6FF7624
:1015700006EA05252A434D8806EA05252A431F4D1C
:10158000A84202D0234DA8421DD14FF2FF752A4038
:101590004D894FF6FF7606EA05252A434FF6FF35BB
:1015A0002A408D8806EA05252A434EF6FF752B4012
:1015B0004DF6FF752B408D8906EA05152B43CD8925
:1015C00006EA05152B4383808483CD8885870284B2
:1015D00070BD70B5002200230024058C4EF6FF7606
:1015E00035400584038C8488828B48F6FF752A4039
:1015F0004FF6FF452A400D8820E00000002C0140F6
:101600000004004000080040000C004000100040B2
:101610000014004000340140004C014000500140E3
:101620000054014000180040001C00400020004011
:101630000040014000440140004801404FF6FF7661
:1016400006EA05252A434DF6FF752B400D8906EA6B
:1016500005352B434D8806EA05352B43FA4DA84244
:1016600002D0FA4DA84208D14BF6FF752C408D8967
:101670004FF6FF7606EA85152C4384808283CD8859
:10168000A0F84050038470BD828B4FF2FF331A40A4
:101690008283828B4FF6FF7303EA01231A4382830E
:1016A0007047F0B50C461546002200210026078C35
:1016B0004EF6FF7C07EA0C070784828B018C4FF6FD
:1016C000FF7707EA043640F6FF473A404FF6FF77C8
:1016D00007EA05273A434FF6FF7707EA03373A430D
:1016E000D94FB8420ED0D94FB8420BD0B0F1804F8D
:1016F00008D0D74FB84205D0D64FB84202D0D64F07
:10170000B84206D14DF6FF77394046F48057394349
:1017100005E047F6FF57394044F480573943828348
:101720000184F0BD828B4FF6F3731A408283828B63
:101730000A4382837047F0B50C461546002200210B
:101740000026078C4FF6FF6C07EA0C070784828B94
:10175000018C4FF6FF7707EA04264FF60C773A40E4
:101760004FF6FF7707EA03172F433A43B64FB842C5
:101770000ED0B64FB8420BD0B0F1804F08D0B44F66
:10178000B84205D0B34FB84202D0B34FB84206D1E9
:101790004FF6FF57394046F48077394305E04FF262
:1017A000FF57394044F48077394382830184F0BD88
:1017B000028B4FF2FF331A400283028B4FF6FF7306
:1017C00003EA01231A4302837047F0B50C4615461D
:1017D000002200210026078C4FF6EF7C07EA0C0759
:1017E0000784028B018C4FF6FF7707EA041640F658
:1017F000FF473A404FF6FF7707EA03373A434FF681
:10180000FF7707EA05273A438F4FB8420ED08F4F34
:10181000B8420BD0B0F1804F08D08D4FB84205D000
:101820008C4FB84202D08C4FB84206D14FF6DF77CA
:10183000394046F01007394305E04FF65F773940ED
:1018400044F01007394302830184F0BD028B4FF648
:10185000F3731A400283028B0A4302837047F0B588
:101860000C46154600220021068C4FF6FE773E40BE
:101870000684028B018C4FF60C7632407E1C06EA01
:1018800003162E433243704EB0420ED06F4EB0421C
:101890000BD0B0F1804F08D06D4EB04205D06D4EE8
:1018A000B04202D06C4EB04206D14FF6FD763140C8
:1018B00044F00106314305E04FF6F576314044F03F
:1018C0000106314302830184F0BD70B505460C4624
:1018D0005D4885420ED05D4885420BD0B5F1804F02
:1018E00008D05B48854205D05A48854202D05A4804
:1018F000854200D100E000BF208850B92389A2882A
:1019000061882846FFF7ABFFE1882846FFF79EFF76
:1019100025E0208804280AD12389A28861882846E6
:10192000FFF753FFE1882846FFF742FF17E02088C2
:1019300008280AD12389A28861882846FFF7FBFE80
:10194000E1882846FFF7EEFE09E02389A288618836
:101950002846FFF7A6FEE1882846FFF795FE70BDF2
:101960002DE9F04105460C4600260127608808B99C
:10197000022600E00026A088012801D1022700E00D
:1019800001272088A0B92389A28861882846FFF70B
:1019900066FFE1882846FFF759FF23893A4631461A
:1019A0002846FFF712FFE1882846FFF701FF13E002
:1019B0002389A28861882846FFF707FFE188284627
:1019C000FFF7F6FE23893A4631462846FFF747FFE0
:1019D000E1882846FFF73AFFBDE8F0810A884B8886
:1019E0001A438B881A43CB881A430B891A434B89B5
:1019F0001A438B891A43A0F8442070474FF6FF71B1
:101A0000818000210180C1804180017270470021E6
:101A1000018041808180C180018141818181C181BA
:101A20007047002101804180012181800021C18017
:101A3000018170470021018041808180C180018146
:101A40004181818170470000002C01400034014039
:101A50000004004000080040000C004021B1028852
:101A600042F00102028004E002884FF6FE731A4041
:101A70000280704731B1B0F8442042F40042A0F82F
:101A8000442005E0B0F84420C2F30E02A0F8442040
:101A900070471AB183890B43838102E083898B43AA
:101AA000838170478182704741EA0203A0F8483081
:101AB00070471AB183890B43838102E083898B438A
:101AC0008381704701894FF6F87211400181704798
:101AD0000A46002101894FF68F7319401143018195
:101AE000704730B504460D4629462046FFF7F0FF03
:101AF000208940F00700208130BD2DE9F0410446E7
:101B00000D4616461F46602D06D13B460122314642
:101B10002046FFF75AFE05E03B46012231462046AB
:101B2000FFF79DFE29462046FFF7D2FF208940F0AF
:101B300007002081BDE8F08130B50C460021018905
:101B4000C9B24FF6FF7505EA03251543254329431E
:101B5000018130BD2DE9F04105460E4617469846F5
:101B6000002443463A4631462846FFF7E5FF2C89D4
:101B70004FF6F870044044F007044FF68F700440AD
:101B800044F070042C81BDE8F081F0B504460D46A8
:101B900016461F463B46324629462046FFF7CCFFF5
:101BA000208940F480402081F0BD01858282704709
:101BB0000A46002101884FF68F73194011430180B6
:101BC0007047F0B50C4615461E4600210022002342
:101BD0000189028B038C4FF6F877394021434FF689
:101BE000FC473A4040F201173A434FF6DD773B405D
:101BF0004FF6FF7707EA06172F433B430181028325
:101C00000384F0BD0A460021018B4FF68F73194003
:101C10001143018370470A460021018B48F6FF7388
:101C200019404FF6FF7303EA0223194301837047FB
:101C30000A460021818B4FF68F731940114381832F
:101C400070470A460021818B48F6FF7319404FF612
:101C5000FF7303EA022319438183704721B102888D
:101C600042F08002028004E002884FF67F731A403F
:101C70000280704721B1828842F00402828004E031
:101C800082884FF6FB731A408280704721B18288A8
:101C900042F00802828004E082884FF6F7731A400F
:101CA0008280704721B1828842F00102828004E084
:101CB00082884FF6FE731A40828070470A460021E0
:101CC000018B4FF6F77319401143018370470A46A1
:101CD0000021018B4FF2FF7319404FF6FF7303EAA7
:101CE00002231943018370470A460021818B4FF676
:101CF000F77319401143818370470A460021818B95
:101D00004FF2FF7319404FF6FF7303EA02231943A2
:101D1000818370470A460021018B4FF6FB731940FF
:101D20001143018370470A460021018B4FF6FF33B0
:101D300019404FF6FF7303EA0223194301837047EA
:101D40000A460021818B4FF6FB73194011438183B2
:101D500070470A460021818B4FF6FF3319404FF63A
:101D6000FF7303EA02231943818370470A46002167
:101D7000018B4FF67F7319401143018370470A4668
:101D80000021018BC1F30E014FF6FF7303EA02231A
:101D90001943018370470A460021818B4FF67F73F8
:101DA00019401143818370470A460021818BC1F39A
:101DB0000E014FF6FF7303EA022319438183704734
:101DC0000A460021018C4FF6FD731940114301842E
:101DD00070470A460021018C4FF6F77319401143F2
:101DE000018470470A460021018C4FF6DF731940C9
:101DF0004FF6FF7303EA02131943018470470A4642
:101E00000021018C4FF67F7319404FF6FF7303EAF0
:101E100002131943018470470A460021018C4FF6D2
:101E2000FF5319404FF6FF7303EA0223194301845D
:101E300070470A460021018C4FF2FF7319404FF69C
:101E4000FF7303EA02231943018470470A46002105
:101E5000018C4DF6FF7319404FF6FF7303EA02330E
:101E600019430184704730B5002301248C40A3B28C
:101E7000048C9C430484048C02FA01F5ADB22C431B
:101E8000048430BD30B5002304248C40A3B2048CFC
:101E90009C430484048C02FA01F5ADB22C43048403
:101EA00030BD70B5034600200024184618300125C7
:101EB0008D40ACB21D8CA5431D8409B1082909D100
:101EC00000EB6100056825F07005056005681543A5
:101ED00005600EE00D1FC5F34E052844056825F486
:101EE000E045056005684FF6FF7606EA02263543B1
:101EF000056070BD21B1028842F00202028004E058
:101F000002884FF6FD731A400280704721B10288A3
:101F100042F00402028004E002884FF6FB731A408C
:101F20000280704721B1828842F08002828004E002
:101F300082884FF67F731A408280704702884FF67E
:101F4000F7731A40028002880A4302807047828831
:101F50004FF68F731A40828082880A4382807047CE
:101F600002894FF6F8731A40028102890A430281FE
:101F7000704702894FF67F731A40028102890A4333
:101F800002817047818470478185704781867047E0
:101F90000187704781877047A0F84010704702881A
:101FA0004FF6FF431A40028002880A4302807047BE
:101FB0000146888E70470146088F70470146888F1A
:101FC00070470146B1F8400070470146888C704761
:101FD0000146088D704702460020138A0B400BB162
:101FE000012000E000207047CA430282704730B5EC
:101FF0000246002000230024158A05EA0103958982
:1020000005EA010413B10CB1012000E0002030BD4D
:10201000CA4302827047000010B50446FB48844260
:1020200009D101218803FFF79FF800214FF4804078
:10203000FFF79AF832E0F648844209D101214804BA
:10204000FFF79FF800214FF40030FFF79AF825E0E2
:10205000F048844209D101218804FFF792F8002159
:102060004FF48020FFF78DF818E0EB48844209D147
:102070000121C804FFF785F800214FF40020FFF785
:1020800080F80BE0E548844208D101210805FFF7FC
:1020900078F800214FF48010FFF773F810BD2DE998
:1020A000F04786B005460E460024A24600BFA14672
:1020B0000027B08900B100BF2F462C8A4CF6FF7074
:1020C0000440F08804432C82AC894EF6F31004409F
:1020D000B08831890843718908430443AC81AC8AD4
:1020E0004FF6FF400440B0890443AC8201A8FEF7DC
:1020F000B4FFC648874202D1DDF810A001E0DDF848
:102100000CA0A88900F4004040B10AEBCA0000EB23
:102110000A1031684900B0FBF1F807E00AEBCA0089
:1021200000EB0A1031688900B0FBF1F86420B8FBBD
:10213000F0F004012009642101FB1089A88900F452
:10214000004040B1322000EBC900B0FBF1F000F0DC
:102150000700044308E0322000EB09106421B0FBC3
:10216000F1F000F00F0004432C8106B0BDE8F087C9
:102170004FF41651016000218180C18001810C2142
:10218000418100218181704710B502460020108AEC
:102190004FF2FF0318400B884C8823438C8823435D
:1021A000CC8823431843108210BD00210180418058
:1021B0008180C180704721B1828942F400528281BE
:1021C00004E082894DF6FF731A4082817047F0B5B2
:1021D0000346002400260025002040F66A17B94275
:1021E00000D100BF1846C1F3421401F01F060127B9
:1021F00007FA06F5012C01D10C3004E0022C01D1C4
:10220000103000E014301AB107682F43076002E075
:102210000768AF430760F0BD1AB1838A0B4383821E
:1022200002E0838A8B4383827047028A4FF6F07301
:102230001A400282028A0A430282704782894FF260
:10224000FF731A40828182890A438281704721B1DB
:10225000828942F00202828104E082894FF6FD7396
:102260001A4082817047028A4FF6DF731A40028259
:10227000028A0A430282704721B1028A42F48042F4
:10228000028204E0028A4BF6FF731A400282704712
:10229000C1F308028280704701468888C0F30800B5
:1022A0007047818941F0010181817047028BD2B270
:1022B0000283028B42EA012202837047028B02F4FE
:1022C0007F420283028B0A430283704721B1828AD4
:1022D00042F02002828204E0828A4FF6DF731A40C5
:1022E0008282704721B1828A42F01002828204E029
:1022F000828A4FF6EF731A408282704721B1828A38
:1023000042F00802828204E0828A4FF6F7731A4094
:102310008282704721B1828942F40042828103E0C7
:102320008289C2F30E028281704721B1828A42F40F
:102330000062828204E0828A4FF2FF731A40828236
:102340007047828A4FF6FB731A408282828A0A4360
:102350008282704721B1828A42F00202828204E0C6
:10236000828A4FF6FD731A4082827047024600202F
:10237000B1F5007F00D100BF13880B400BB10120E5
:1023800000E00020704701F40072B2F5007F00D138
:1023900000BFCA430280704770B502460024002384
:1023A0000025002040F66A16B14200D100BFC1F3FB
:1023B000421501F01F03012606FA03F3012D02D195
:1023C0009689334006E0022D02D1168A334001E09F
:1023D000968A33400C12012606FA04F4168834401B
:1023E00013B10CB1012000E0002070BD10B5002237
:1023F000002340F66A14A14200D100BF0A12012452
:102400009440A3B2DC43048010BD000000380140BA
:102410000044004000480040004C00400050004094
:1024200008B54FF4A060FDF78FFF25208DF8000060
:1024300000208DF8010002208DF8020001208DF8A7
:1024400003006846FDF785FF08208DF80000002096
:102450008DF8010001208DF802008DF80300684618
:10246000FDF777FF17208DF8000000208DF80100A0
:102470008DF8020001208DF803006846FDF769FF22
:1024800008BD2DE9F041F7A005F0ECF98820FB49E3
:10249000487088700020FA490870FF20F949887058
:1024A000487008700220C87000200871B420F649F6
:1024B0000880F648F6490860F6490888F649098810
:1024C00004F08CFAF3494888EF49098804F086FA49
:1024D000EC4A1179EF4A908804F080FAE74A527882
:1024E000E64B9B7842EA0321EA4AD08804F076FA68
:1024F000E8490889E949098804F070FAE14A117845
:10250000E44A508904F06AFADE4A5178E14A908937
:1025100004F064FADB4A9178DE4AD08904F05EFA6E
:10252000D84AD178DB4A108A04F058FAD949488A47
:10253000D349097804F052FAD649888AD8490978EB
:1025400004F04CFAD749D248006804F0E5FC05468F
:1025500004F0FDFE84B2CF49C88A214604F03EFA59
:10256000D14801F03DFBCD48008804F0E3FE06466B
:102570000022CE4B04F059FE044622460B46CCA066
:1025800005F070F9C448008804F0D4FE0646002225
:10259000C64B04F04AFE044622460B46CAA005F08C
:1025A00061F9B9480188CEA005F05CF9B548C27858
:1025B0000179D0A005F056F9B248837842780178C5
:1025C000D2A005F04FF9AD4842788178AC48037845
:1025D000D3A005F047F9AC490988C8B202F045FB21
:1025E000BDE8F08110B5D548007810B90020D44975
:1025F000087003F0D6FED3490870084600786228B8
:102600004FD008460078A2284BD008460078E22830
:1026100047D008460078C22843D008460078902862
:102620003FD00846007868283BD00846007830281C
:1026300037D008460078182833D0084600787A2822
:102640002FD00846007810282BD00846007838286C
:1026500027D0084600785A2823D008460078422818
:102660001FD0084600784A281BD008460078522818
:1026700017D008460078A82813D008460078E0282C
:102680000FD00846007822280BD008460078022890
:1026900007D008460078982803D008460078B0286C
:1026A0006AD1A6480078052845DCA548007888BB93
:1026B0000120A3490870FF20A3490870A34880782F
:1026C000062806DBA1488078222802DA012001F0E2
:1026D00087FA6D480088F0B99A480078A82807D092
:1026E00098480078E02803D096480078902803D1D5
:1026F00000209749087003E09248007894490870D8
:10270000934802F093FF012092490870B42002F030
:10271000ACFA26E00FE08B480078902803D1002027
:102720008B49087003E08748007889490870884819
:1027300002F07CFF15E0814800780F2811D1814814
:102740000078902807D1012001F04AFA7D480078EE
:102750007F49087005E07B480078C22801D1FFF767
:1027600090FE784801787CA005F07CF873480178E9
:102770007DA005F077F80CE07248007848B1714808
:1027800001787CA005F06EF86C4801787FA005F018
:1027900069F810BD10B58248007820B101F036FE0E
:1027A00000207F49087010BD10B53548007800281A
:1027B00035D0324880786549897888420BD12F48D6
:1027C000407862494978884205D16048007810B95C
:1027D00001205D4908705C48007800280EDD5A48E9
:1027E000007820280ADA58480078401C56490870BA
:1027F0002548008810B9B42002F037FA5248007812
:1028000020280CD1FF205049087040216548FEF770
:1028100084FA1D48008810B901204E4908704A48C2
:102820000078FF2808D115484078484949788842FF
:1028300002D000204449087010BD10B5434800780C
:1028400078B94248407860B940488078082808DD67
:102850003E488078222804DA3B48007808B901F025
:10286000CDF910BD466163746F727920526573654E
:1028700074696E672E2E2E0D0A0D0A006A00002064
:102880004300002078000020380000203333333F1D
:1028900098000020AC00002034000020360000200A
:1028A0003E0000200000C842006A180000001040EE
:1028B00052756E54696D653A252E326620486F75E3
:1028C00072200D0A000000004C6967687454696D3D
:1028D000653A252E326620486F7572200D0A000079
:1028E0004C696768744C6576656C3A2564200D0AFE
:1028F000000000005247423A53746174652D25640C
:10290000204D6F64652D25640D0A0000523A256440
:1029100020473A256420423A256420200D0A000011
:10292000416C61726D3A25783A2578205377697445
:1029300063683A25640D0A0D0A000000A400002017
:1029400045000020280000204200002063000020F5
:10295000290000204400002052656D6F74654B65AE
:10296000793A256420000000636E743A2564200DD6
:102970000A000000556E65787065637452656D6F6E
:1029800074654B65793A256420000000556E6578C2
:1029900070656374436E743A2564200D0A0000006C
:1029A00050000020000C014010B5FE4800880028AF
:1029B00050D1FD48007820B1FB480078401CFA490E
:1029C0000870FA48807806280BDAF848407820BB6F
:1029D000F648007808BBF4480078401CF2490870BB
:1029E0001BE0F248007898B1F048007810280FD02A
:1029F000EE48007820280BD0EC480078302807D02B
:102A0000EA480078402803D0E8480078502804D1EC
:102A1000E5480078401CE4490870E3480078002845
:102A200006DDE1480078062802DAB42002F01DF93C
:102A3000DD480078062810DBDC48007810280CDD23
:102A4000DA480078502808DA0020D749087002F0E8
:102A50000CF902E00020D449087010BD10B5002424
:102A6000D3480078002878D0D0488079D14988713F
:102A7000CE4840794871CD4800790871CB488078BC
:102A80008870CA484078487000200870C748C078ED
:102A9000C8700020C84908700420C8490870C1489F
:102AA000008818B9B42002F0E0F8012459E0C448C5
:102AB00002F07FFEC3480078A0B30020C14908702F
:102AC000C1480068401CC0490860B648008820B171
:102AD000BE480068401CBD490860BB480068B0F5AE
:102AE000617F07D10020B8490860B9480088401CC0
:102AF000B7490880B5480068B0F5617F07D100206C
:102B0000B2490860B3480088401CB2490880A74811
:102B1000007808B902F053FDAF48006880F040002B
:102B2000AD490860AD48007820B102F027FD0020D3
:102B3000AA49087003F035FCA949087008460078D6
:102B400060B1A8480078012808D1052001F048F8B4
:102B5000A34800789A49087003E028E000209849CB
:102B60000870934800780028A1D1012C01D102F00F
:102B70007CF892480078042816D100029A4908602F
:102B80004000086099488078242803DC9748407802
:102B90003C2803DB00209649087002E0012094499C
:102BA000087002F0B0FD02E0824800F01EFE10BD89
:102BB0002DE9F0418F49888A8F4903F068FD8E48DE
:102BC00000788E49087008460078AA2803D0AA2009
:102BD0000870FFF756FC87490889874903F057FDBD
:102BE000854800887A49088082490888824903F02C
:102BF0004EFD81480088774908807E4948887E4993
:102C000003F045FD7C48008866490880794988883A
:102C1000794903F03CFD7848007879490871754995
:102C2000C888754903F033FD73480088000A6F496E
:102C300088707148007848706E4988886E4903F042
:102C400026FD6D4800786E4908716A4948896A49CD
:102C500003F01DFD68480078694908706549888956
:102C6000654903F014FD644800786549487061497E
:102C7000C889614903F00BFD5F480078604988709E
:102C80005C49088A5C4903F002FD5B4800785C49B6
:102C9000C8705849488A584903F0F9FC56480078EA
:102CA000534908705349C88A534903F0F0FC52480D
:102CB000008804F03FFB06460022524B04F0B5FAB0
:102CC000044604F09DFB504908604D48C07868BB3D
:102CD0004B4800784D49487049484078087048484A
:102CE00080788870464801784848017144484078A7
:102CF0004649C8704248817844484171404801784B
:102D00004248C1713E484078404988713C488178CA
:102D10003E4801723A4801783C4881723848407810
:102D20003A494872364881783848C1722848008844
:102D300004F000FB06460022354B04F076FA044608
:102D400022460B4633A004F08DFD2248008804F093
:102D5000F1FA064600222E4B04F067FA044622469A
:102D60000B4632A004F07EFD0E480188AFF2904081
:102D700004F078FD2448006804F016FB044622465F
:102D80000B4630A004F06EFD1D48C2780179AFF209
:102D90009C4004F067FD1A48837842780178AFF2CE
:102DA000944059E0380000204400002063000020D7
:102DB0003A0000205C0000203B0000203C00002086
:102DC0002900002048000020300000202C000020B6
:102DD00036000020340000200C0801405100002083
:102DE00028000020A4000020100C01406A000020F0
:102DF00043000020AC000020400000203E000020E6
:102E00007800002000005940980000204002002077
:102E10000000104052756E54696D6520203A252ED1
:102E2000326620486F7572200D0A00004C69676891
:102E30007454696D65203A252E326620486F75728C
:102E4000200D0A004C69676874436F6520203A259D
:102E50002E3266200D0A000004F004FDCC484278B2
:102E60008178CC480378CCA004F0FCFCBDE8F0816C
:102E700088B000F0E1FA00F085FB00F029FBFFF7D5
:102E8000CFFAFDF77CFB03F022FD03F0C1FA00F05E
:102E9000E2FF00F09AFC03F0D5FD00F08AFE01F09D
:102EA0002FF803F002FA03F02AF9FFF781FE01F090
:102EB000FCFEBF490988C8B201F0D7FE0120BD4918
:102EC000087000BF00F0B5FEFFF7C8FDBA4802F079
:102ED00070FCBA480078002876D00020B749087006
:102EE000B7480068401CB6490860B148008810B96E
:102EF000B448008820B1B4480068401CB24908605A
:102F0000AF480068B0F5617F09D30020AC49086084
:102F1000AE480088401CAD49088002F0F4FBAA4886
:102F20000068B0F5617F07D30020A7490860A84872
:102F30000088401CA6490880A648007808B902F01D
:102F40003EFB03F0DDFDA449486003F083FDA24988
:102F5000086000F088FFA1490860974802F066FB0E
:102F6000FFF722FDFFF769FCFFF71EFC9C48006895
:102F700080F040009A4908609648C07895490978E1
:102F8000944A5278CDE900210290924883780279E0
:102F9000417994A004F066FC8F49486804F004FA73
:102FA00005460E468C4801688C48006803F05CFFBB
:102FB00081464FF0804103F0E1FF044604F0F4F94C
:102FC00007463A460B4600E0DDE08FA0CDE900560B
:102FD00004F048FC7648018892A004F043FC754850
:102FE000017893A004F03EFC9448017894A004F08A
:102FF00039FC9548017895A004F034FC9648017896
:1030000096A004F02FFC9848017898A004F02AFCC0
:103010009948017999A004F025FC6B4800683C218F
:10302000B0FBF1F201FB120A67480068B0FBF1F057
:1030300067490988C1EB011108443C21B0FBF1F25A
:1030400001FB1200079060480068B0FBF1F0604996
:103050000988C1EB011108443C21B0FBF1F01821B3
:10306000B0FBF1F201FB12000690574800683C21CA
:10307000B0FBF1F8404604F05DF9CDE90201544897
:10308000008804F057F980460022804B04F05BF87A
:10309000CDE90001DDE9022303F0AEFF0646002280
:1030A0007B4B04F0C2F800227A4BCDE9040104F016
:1030B000BCF8044604F05FF91FFA80FBCDF800A0CD
:1030C000594675A0DDE9062304F0CCFB3C480068B6
:1030D0003C21B0FBF1F201FB120007903848016877
:1030E0003C20B1FBF0F039490988C1EB01110844DB
:1030F0003C21B0FBF1F201FB120006903048006861
:10310000B0FBF1F031490988C1EB011108443C21C1
:10311000B0FBF1F01821B0FBF1F201FB12000590B9
:10312000274800683C21B0FBF1FA504604F002F950
:10313000CDE902012548008804F0FCF8824600220F
:10314000524B04F000F8CDE90001DDE9022303F061
:1031500053FF804600224E4B04F067F806460022DB
:103160004C4B04F062F8044604F005F980B2049078
:10317000079800904EA004A90EC904F073FBAFF2AB
:10318000583004F06FFBFFF705FBFFF72BFA99E6C9
:103190006A00002043000020416C61726D3A25787E
:1031A0003A2578205377697463683A25640D0A00DC
:1031B00038000020440000202900002048000020A2
:1031C00030000020400000402C000020360000208D
:1031D000340000206300002024010020740000203F
:1031E0000C080140443A253032782D2530327820C1
:1031F000543A253032783A253032783A25303278D0
:1032000020576B3A25782000546D703A25332E31C3
:1032100066A1E62048756D693A25332E316625256D
:10322000207C20004C4C766C3A2564200000000085
:10323000466F734C743A2564200000004200002061
:10324000416C6D3A25642000A5000020526D526447
:10325000793A25642000000028000020526D6B653B
:10326000793A256420000000A4000020526D436ECE
:10327000743A256420000000780000205247427311
:1032800074653A2564207C200000000000002E4078
:1032900000004E40000038404C543A2564442D252F
:1032A0003032643A253032643A25303264200000EE
:1032B00052543A2564442D253032643A2530326424
:1032C0003A25303264200000704700BFFEE700BF9F
:1032D000FEE700BFFEE700BFFEE77047704770479C
:1032E00010B50420FDF712F940B1474800F0E5FAA7
:1032F0000120464908700420FDF719F910BD10B5EA
:1033000000F02EF942480068401C414908604148DD
:10331000C07858B9084600682421B0FBF1F201FBDF
:10332000120070B901203C4908700AE03848006872
:103330000C21B0FBF1F201FB120010B9012036495B
:103340000870334800684FF4FA71B0FBF1F201FBEA
:10335000120088B90120314908703148007831499C
:103360000978884204D100202E4908702C49087041
:103370002C4800782A490870254800684FF47A7173
:10338000B0FBF1F201FB1200B0F5FA7F03D201208D
:103390002549087002E0002023490870234800787E
:1033A00088B31B4800686421B0FBF1F201FB1200F6
:1033B00048BB1F49087800EBD0714910A0EB4101D0
:1033C00039B91B490978072903DA0120194908701E
:1033D00002E000201749087015480078072806DB2E
:1033E000134800780D2802DC0020124908701048AC
:1033F00000780A2802DB00200D4908700C4800788C
:10340000401C0B49087010BD6300002048000020DC
:103410004C000020780000205000002051000020C7
:1034200055000020A400002052000020420000208F
:10343000540000205300002008B501210C20FDF7A6
:1034400079FE4020ADF8000010208DF80300032025
:103450008DF8020069461B48FDF7B0FB4FF4406051
:10346000ADF8000010208DF8030003208DF8020055
:1034700069461548FDF7A2FB40211248FDF74BFCB9
:103480004FF440611048FDF746FC08BD0E480C3073
:10349000006880F480600C490C31086008460068C0
:1034A00080F400600860704710B50848007820B1CB
:1034B00040210448FDF72FFC03E040210148FDF7BF
:1034C0002CFC10BD00080140000C014052000020FF
:1034D00030B5284800684FF47A72B0FBF2F1B1F1D0
:1034E000807F01D301201DE021F07F40401E4FF07E
:1034F000E022506150170F22002807DA13071D0E33
:103500001D4B00F00F04241F1D5503E013071C0E74
:103510001A4B1C5400BF00204FF0E022906107209E
:103520001061002008B100BFFEE74FF0E020006905
:1035300040F001004FF0E021086130BD01B51049B5
:10354000009808604FF0E020006940F001004FF063
:10355000E021086100BF0A4800680028FBD108BDCF
:103560000748006820B106480068401E044908600A
:10357000704700000000002018ED00E000E400E0CB
:103580005800002000B585B0012144F20400FDF789
:10359000D1FD4FF40070ADF8100018208DF8130025
:1035A00003208DF8120004A94048FDF707FB4FF4F3
:1035B0008060ADF8100004208DF8130004A93B488A
:1035C000FDF7FCFA4FF4E13000900020ADF8040064
:1035D000ADF80600ADF80800ADF80C000C20ADF811
:1035E0000A0069463248FEF75AFD012240F2255191
:1035F0002F48FEF7ECFD01212D48FEF7DCFD05B05C
:1036000000BD10B540F225512948FEF7C5FE38B17E
:103610002748FEF741FEC4B2214626A004F022F955
:1036200010BD70B504460D46E1B22148FEF730FEEC
:1036300000BF40211E48FEF799FE0028F9D0204621
:1036400070BD10B5044600BF20211948FEF78EFE5C
:103650000028F9D01648FEF71FFE10BD70B50446CD
:103660000D4629462046FEF713FE00BF40212046A6
:10367000FEF77CFE0028F9D070BD2DE9F041074629
:103680000D461646002400BF0CE0295D3846FEF7C3
:10369000FFFD00BF40213846FEF768FE0028F9D044
:1036A000601C84B2B442F0DBBDE8F0810008014048
:1036B0000038014025630D0A000000000EB501210D
:1036C0002120FDF737FD0420ADF8080048208DF8D3
:1036D0000B0002A9A748FDF771FA02210320FDF7AC
:1036E00083FB0420009000208DF804000C208DF84E
:1036F000050001208DF806006846FCF7A1FE0EBD0E
:1037000010B5D02000F037FA10BD2DE9F04706467D
:103710000F469046B94600242BE0ECB900F06BF957
:1037200000250AE000F04FF9D02000F076F900F013
:10373000C2F900B903E0681C85B2642DF2DB00BF5A
:10374000B5F57A7F00D11BE009F0FF0000F065F9C4
:1037500000F0B1F900B113E0305D00F05EF900F067
:10376000AAF900B10CE009F101001FFA80F9601C10
:1037700084B24445D1DB00F03EF90120BDE8F0877A
:1037800000F039F90020F9E71CB5002001908020F5
:1037900000900120019001220E2101A8FFF7B5FF42
:1037A000012207216846FFF7B0FF01220821684681
:1037B000FFF7ABFF012209216846FFF7A6FF0122B0
:1037C0000A216846FFF7A1FF1CBD10B5012108467C
:1037D000FDF7B0FC01216848FDF7C1FAFFF790FF43
:1037E000FFF76CFFFFF7D0FF10BD7CB5044600204B
:1037F00000900190002520788DF8000060788DF809
:103800000100A0788DF80200E0788DF8030020799F
:103810008DF8040060798DF80500A0798DF8060018
:103820000FE0681CC5B2072200216846FFF76DFF54
:10383000012803D151A004F015F804E052A004F0CF
:1038400011F8052DEDDB00BF7CBD2DE9F0410646EA
:103850000F46154600F0B7F8D02000F0DEF800F073
:103860002AF900B125E0F8B200F0D7F800F023F90A
:1038700000B11EE000F0A7F8D12000F0CEF800F073
:103880001AF900B115E000240CE000F0F3F830550F
:10389000681EA04202D000F02BF901E000F042F9CE
:1038A000601C84B2AC42F0DB00F0A5F80120BDE85A
:1038B000F08100F0A0F80020F9E71CB504460020D4
:1038C00000900190072200216846FFF7BEFF012803
:1038D00015D19DF8000020709DF8010060709DF8E2
:1038E0000200A0709DF80300E0709DF804002071B4
:1038F0009DF8050060719DF80600A07102E026A009
:1039000003F0B0FF1CBD38B50446012221466846CD
:10391000FFF79BFF9DF8000038BD13B50446012258
:10392000214601A8FFF7F1FE012800D11CBD0020AF
:10393000FCE710B586B0142101A803F08AFA002430
:103940001322002101A8FFF780FF01280CD100BF3E
:1039500007E001A8025D214613A003F083FF601C6D
:10396000C4B2132CF5DB02E00BA003F07BFF06B022
:1039700010BD00000014014000023000577269744D
:1039800065204F4B0D0A000057726974652046612F
:10399000696C6564210D0A00526561642066616985
:1039A0006C6564210D0A0000526567307825783A0D
:1039B000307825780D0A0000002001E0411CC8B2D3
:1039C0000A28FBDB704710B510217348FDF7A3F9F7
:1039D00008217148FDF79FF9FFF7EEFF10216E48AF
:1039E000FDF79BF9FFF7E8FF08216B48FDF795F914
:1039F000FFF7E2FF10BD10B510216748FDF78DF904
:103A000008216548FDF787F9FFF7D6FF10216248C6
:103A1000FDF781F9FFF7D0FF10BD70B50446002512
:103A200023E004F0800020B110215B48FDF773F91A
:103A300003E010215848FDF770F9FFF7BDFF08219A
:103A40005548FDF768F9FFF7B7FF08215248FDF721
:103A500064F9072D03D110214F48FDF75CF960068A
:103A6000040EFFF7A9FF681CC5B2082DD9DBFFF7CC
:103A7000A3FF70BD70B50024002516E06006040E9B
:103A800008214548FDF747F9FFF796FF1021424806
:103A9000FDF727F908B1601CC4B208213E48FDF7C4
:103AA0003CF9FFF789FF681CC5B2082DE6DBFFF77C
:103AB00083FF204670BD10B510213748FDF72BF964
:103AC000FFF77AFF08213448FDF725F9FFF774FF67
:103AD00010213148FDF705F908B1012400E0002468
:103AE00008212D48FDF719F9FFF766FF204610BDA4
:103AF00010B510212848FDF710F9FFF75DFF0821E8
:103B00002548FDF708F9FFF757FF08212248FDF780
:103B100004F9FFF751FF10211F48FDF7FCF8FFF7EC
:103B20004BFF10BD10B510211B48FDF7F4F8FFF74F
:103B300043FF08211848FDF7EEF8FFF73DFF082185
:103B40001548FDF7EAF8FFF737FF10BD08B501216A
:103B50000820FDF7EFFA1820ADF8000003208DF8DB
:103B6000020014208DF8030069460B48FDF726F883
:103B7000FFF741FF08BD70B50446FFF7E7FFFFF709
:103B800022FF2046FFF749FFFFF795FF0546FFF7A5
:103B900032FF284670BD0000000C0140002105E006
:103BA00000E0491C304A9142FBD3401E0028F7D167
:103BB000704708B501210820FDF7BCFA4020ADF898
:103BC000000010208DF8030003208DF802006946E4
:103BD0002648FCF7F3FF40212448FDF79EF808BD76
:103BE00010B5044640212148FDF795F82046FFF71F
:103BF000D5FF40211D48FDF790F810BD10B54021BC
:103C00001A48FDF788F80520FFF7C8FF402117483C
:103C1000FDF783F81648FFF7C1FF40211348FDF771
:103C20007AF80520FFF7BAFF40211048FDF775F834
:103C300010BD10B50F480078002810DD0D48007841
:103C40003E280CDA0C48007820B140210748FDF7E7
:103C500062F808E040210548FDF75FF803E04021E5
:103C60000248FDF75AF810BDFFFF0100000C0140AB
:103C700000350C0042000020530000200146642063
:103C800005E0642001E0421ED0B20028FBD10A1EEC
:103C9000A1F10103D9B2F4D1704708B50121082080
:103CA000FDF748FA4FF48070ADF8000010208DF851
:103CB000030003208DF8020069468B48FCF77EFF65
:103CC0004FF480718848FDF726F808BD08B54FF419
:103CD0008070ADF8000048208DF8030069468248E6
:103CE000FCF76CFF08BD08B54FF48070ADF800001C
:103CF00010208DF8030003208DF8020069467A48F1
:103D0000FCF75CFF08BD10B5FFF7EDFF4FF48071C5
:103D10007548FDF702F84B20FFF7B0FF4FF48071B4
:103D20007148FCF7F8FF0220FFF7A8FF10BD10B59F
:103D30000024FFF7CBFF04E0601CC4B20120FFF7B2
:103D40009DFF4FF480716848FCF7CBFF08B1642CED
:103D5000F2DB642C01DB012010BD002404E0601CB8
:103D6000C4B20120FFF78AFF4FF480715E48FCF770
:103D7000B8FF08B9F02CF2DBF02C01DB0120EBE7F7
:103D80000020E9E710B5FFF7AEFF4FF48071564809
:103D9000FCF7C3FF0120FFF771FFFFF797FF4FF418
:103DA00080715148FCF79DFF012801D1012400E0FA
:103DB00000240520FFF762FF204610BD70B50026E5
:103DC000002408E0FFF7DEFF054605FA04F0304363
:103DD000C6B2601CC4B2082CF4DB304670BD70B5AE
:103DE0000446FFF780FF002526E004F0010664107A
:103DF00086B14FF480713C48FCF78FFF0120FFF73C
:103E00003DFF4FF480713848FCF785FF0620FFF72F
:103E100035FF0FE04FF480713348FCF77EFF072039
:103E2000FFF72CFF4FF480712F48FCF774FF01203F
:103E3000FFF724FF681CC5B2082DD6DB70BD10B596
:103E4000FFF761FFFFF773FFCC20FFF7C8FF4420A7
:103E5000FFF7C5FF10BD10B5FFF71FFFFFF753FFBA
:103E6000FFF765FF10BD2DE9F05FFFF74CFFFFF78F
:103E70005EFFCC20FFF7B3FF4420FFF7B0FFFFF752
:103E800042FFFFF754FFCC20FFF7A9FFBE20FFF74A
:103E9000A6FFFFF793FF8346FFF790FF82464FEAA6
:103EA0000A2004B244EA0B04002C0DDAE043401C63
:103EB00003F02FFA074600220C4B03F044F90546A5
:103EC00003F09EFA81460BE0204603F022FA0746F3
:103ED0000022064B03F037F9054603F091FA8146BC
:103EE0004846BDE8F09F0000000C01400000B03FD4
:103EF000002002E0F84A1054401CFF28FADD704709
:103F000008B501210820FDF715F90120ADF80000E2
:103F100010208DF8030003208DF802006946EF4859
:103F2000FCF74CFEFFF7E4FF08BD0120EB49103120
:103F3000086000BF00BF00BF00BF00BF00BF00BFE0
:103F400000BF00BF00BF00BF00BF00BF00BF00BF79
:103F500000BF00BF00BF00BF00BF0120DF49143118
:103F6000086000BF00BF00BF00BF00BF00BF00BFB0
:103F700000BF00BF00BF00BF00BF00BF00BF00BF49
:103F800000BF00BF00BF00BF00BF00BF00BF00BF39
:103F900000BF00BF00BF00BF00BF00BF00BF00BF29
:103FA00000BF00BF00BF00BF00BF00BF00BF704721
:103FB0000120CA491031086000BF00BF00BF00BF28
:103FC00000BF00BF00BF00BF00BF00BF00BF00BFF9
:103FD00000BF00BF00BF00BF00BF00BF00BF00BFE9
:103FE00000BF00BF00BF00BF00BF00BF00BF00BFD9
:103FF00000BF00BF00BF00BF00BF00BF00BF00BFC9
:1040000000BF00BF0120B5491431086000BF00BFE8
:1040100000BF00BF00BF704700B50346002200BFCD
:104020000AE080201041184010B1FFF7C1FF01E005
:10403000FFF77BFF501CC2B2082AF2DB00BD2DE95E
:10404000F84F4FF0000944E000243EE0A448807897
:10405000162803DAA248807806281FDA09EB4901FE
:10406000A04A1144085D03F04FF900909E48016892
:10407000009802F051FF834603F096F907469B4AE9
:104080009B4B03F060F8054603F075F9C0B2924906
:1040900011F800A05046FFF7BFFF15E009EB4901FA
:1040A000904A1144085D03F02FF907468E480168D5
:1040B000384602F031FF064603F049F9C0B286499E
:1040C0000D5C2846FFF7A8FF641C032CBED309F142
:1040D0000109B9F1040FB7D3BDE8F88F2DE9F14F0D
:1040E00086B0002004908349069803F0A5F921D2F8
:1040F0008149069802F00AFF80F0004A504603F01A
:1041000053F902460B46CDE902017C487C4904F094
:104110006DFB804600227B4B02F06EFF0646324666
:104120000B460020774903F080F8044603F068F955
:1041300004902BE07449069803F07EF926D2069885
:1041400003F032F980460022704B02F0F6FF81F056
:104150000043064632466948694904F047FB00229D
:10416000684BCDE9000102F047FF02460B46CDE95E
:1041700002010020634903F058F804460022614B15
:1041800002F0DEFF824603F03BF90490049807B08A
:10419000BDE8F08F10B5034603EB4300514C2044BB
:1041A0004254104610BD10B500EB4003584C234458
:1041B0005A5410BD2DE9FC4782460AEB4A01544A85
:1041C000505C03F0B7F806460F46524951F82A00F2
:1041D00003F0EAF8CDE9000104F0F4FF804632462E
:1041E0003B4602F0B0FF044603F0C5F80AEB4A0173
:1041F0003C4A50540AEB4A01454A1144487803F0BE
:1042000099F804460D46434951F82A0003F0CCF8CA
:10421000064604F0D7FF22462B46CDE9000102F006
:1042200092FF804603F0A7F80AEB4A012D4A114499
:1042300048700AEB4A01364A1144887803F07AF84C
:1042400004460D46334951F82A0003F0ADF8804684
:1042500004F0B8FF064622462B4602F074FFCDE973
:10426000000103F088F80AEB4A011E4A11448870E5
:10427000284951F82A0003F097F80646264A274BAA
:1042800002F0BAFE044603F0BBF8224941F82A00C6
:10429000BDE8FC872249095C062970D2DFE801F0FD
:1042A00003425A7088A000EB40010E4A11448978FD
:1042B000491C00EB40020B4B1A44917000EB40018B
:1042C0001A4611448978FF2904DB1549095C491C09
:1042D000134A115498E0000034010020000C014002
:1042E0006300002034020020980000209A999999D8
:1042F0009999C93F000020410000A040017F4287FA
:104300000ABF05400000F03F0000A04100002E4021
:10431000400200204C0200204AD8124DFB21993F58
:104320007D00002000EB4001DC4A11444978491E21
:1043300000EB4002D94B1A44517000EB40011A4681
:1043400011444978002904DCD549095C491CD44A48
:10435000115459E000EB4001D04A515C491C00EB7C
:104360004002CE4B995400EB40011A46515CFF29A4
:1043700004DBCB49095C491CC94A115444E042E0C2
:1043800000EB4001C54A11448978491E00EB400208
:10439000C24B1A44917000EB40011A4611448978CF
:1043A000002904DCBE49095C491CBD4A11542BE0BC
:1043B00000EB4001B94A11444978491C00EB400226
:1043C000B64B1A44517000EB40011A46114449782B
:1043D000FF2904DBB249095C491CB14A115413E0BE
:1043E00000EB4001AD4A515C491E00EB4002AB4B73
:1043F000995400EB40011A46515C002902DC00216F
:10440000A74A115400E000BF00BF704710B5002458
:10441000A448007900287DD1A248C078022809D19B
:1044200000BF04E02046FFF735FF601CC4B2032C38
:10443000F8DDEAE09B48C07840B9002404E020465B
:10444000FFF7B8FE601CC4B2032CF8DD9548C078B5
:104450000128EED19448007807287CD2DFE800F0EC
:1044600004223D5D7C97B5008C484078401C8B4908
:10447000487008460079401CC1B288480171C07973
:10448000401CC1B28548C171807A401CC1B28348CA
:1044900081724078FF2804DB83480078401C824901
:1044A0000870AFE07D480078401C7C4908700846E1
:1044B000C078401CC87008468079401C8871084646
:1044C000407A401C48720846407AFF2804DB764850
:1044D0000078401C7449087094E070484078401E91
:1044E0006E49487008460079401EC1B26B480171A0
:1044F000C079401EC1B26948C171807A401EC1B204
:1045000066488172807A002806DC67480078401C83
:10451000654900E077E0087074E060488078401CEE
:104520005E49887008464079401CC1B25B484171C1
:10453000007A401CC1B259480172C07A401CC1B215
:104540005648C172C07AFF2804DB57480078401CE7
:104550005549087056E054E050480078401E4F49D5
:1045600008700846C078401EC87008468079401E12
:1045700088710846407A401E48720846407A0028F2
:1045800004DC49480078401C474908703AE0434839
:104590004078401C4149487008460079401CC1B22F
:1045A0003E480171C079401CC1B23C48C171807A5B
:1045B000401CC1B239488172807AFF2804DB3A4836
:1045C0000078401C384908701CE034488078401E50
:1045D0003249887008464079401EC1B22F48417167
:1045E000007A401EC1B22D480172C07A401EC1B28D
:1045F0002A48C172C07A002802DC01202A490870CA
:1046000000E000BF01E02748007926480079022831
:1046100007D12248002101604160816000202249C9
:10462000087072B6FFF70BFD62B610BD2DE9F041C0
:1046300006460F4690460025002472B61748002112
:10464000016041608160002521E000241BE024B16D
:10465000012C08D0022C13D10BE005EB45000F49CB
:10466000084407550CE005EB45000C490844065585
:1046700006E005EB45000949084400F8048000BF46
:1046800000BF601CC4B2032CE1DB681CC5B2042D62
:10469000DBDBFFF7D4FC62B6BDE8F081340200201A
:1046A0007D000020780000209000002000210020E4
:1046B00005E000E0491CF84A9142FBD3401C032866
:1046C000F7D3704730B5034600BF5C1C04EB84048D
:1046D00001EB4404E0B25C1C04EB840464000A2C8B
:1046E00006D0142C71D01E2C70D0282C6FD1EFE185
:1046F000A0F10A040A2C14D2DFE804F005142332D6
:1047000041505F71808F32B1E44C247944F08004D1
:10471000E24D2C7105E0E14C247924F08004DF4D5A
:104720002C7189E032B1DD4C247944F04004DB4D3A
:104730002C7105E0D94C247924F04004D74D2C711C
:104740007AE032B1D54C247944F02004D34D2C7159
:1047500005E0D24C247924F02004D04D2C716BE07C
:1047600032B1CE4C247944F01004CC4D2C7105E0CC
:10477000CA4C247924F01004C84D2C715CE032B18D
:10478000C64C247944F00804C44D2C7105E0C34C98
:10479000247924F00804C14D2C714DE032B1BF4C96
:1047A000247944F00404BD4D2C7105E0BB4C247900
:1047B00024F00404B94D2C713EE04AB1B74C247981
:1047C00044F00204B54D2C7108E037E0D9E022E254
:1047D000B24C247924F00204B04D2C712CE032B19B
:1047E000AE4C247944F00104AC4D2C7105E0AB4C87
:1047F000247924F00104A94D2C711DE032B1A74C9D
:10480000E47844F08004A54DEC7005E0A34CE47816
:1048100024F08004A14DEC700EE032B19F4CE4789E
:1048200044F040049D4DEC7005E09C4CE47824F08D
:1048300040049A4DEC7000BF00BFEDE1A0F11404FC
:104840000A2C14D2DFE804F00514233241505F6EC5
:104850007D8C32B1914CE47844F020048F4DEC70A3
:1048600005E08E4CE47824F020048C4DEC7086E05A
:1048700032B18A4CE47844F01004884DEC7005E0C5
:10488000864CE47824F01004844DEC7077E032B16B
:10489000824CE47844F00804804DEC7005E07F4CD5
:1048A000E47824F008047D4DEC7068E032B17B4C74
:1048B000E47844F00404794DEC7005E0774CE4783A
:1048C00024F00404754DEC7059E032B1734CE47877
:1048D00044F00204714DEC7005E0704CE47824F073
:1048E00002046E4DEC704AE032B16C4CE47844F056
:1048F00001046A4DEC7005E0684CE47824F0010492
:10490000664DEC703BE032B1644CA47844F0800416
:10491000624DAC7005E0614CA47824F080045F4DDA
:10492000AC702CE032B15D4CA47844F040045B4D97
:10493000AC7005E0594CA47824F04004574DAC709D
:104940001DE032B1554CA47844F02004534DAC70B6
:1049500005E0524CA47824F02004504DAC700EE0D9
:1049600032B14E4CA47844F010044C4DAC7005E0CC
:104970004A4CA47824F01004484DAC7000BF00BF2E
:104980004AE1A0F11E040A2C14D2DFE804F0051459
:10499000233241505F6E7D9032B1404CA47844F098
:1049A00008043E4DAC7005E03C4CA47824F00804AB
:1049B0003A4DAC708AE032B1384CA47844F004042B
:1049C000364DAC7005E0354CA47824F00404334D2A
:1049D000AC707BE032B1314CA47844F002042F4D2E
:1049E000AC7005E02D4CA47824F002042B4DAC7083
:1049F0006CE032B1294CA47844F00104274DAC702E
:104A000005E0264CA47824F00104244DAC705DE050
:104A100032B1224C647844F08004204D6C7005E083
:104A20001E4C647824F080041C4D6C704EE032B152
:104A30001A4C647844F04004184D6C7005E0174C33
:104A4000647824F04004154D6C703FE032B1134C93
:104A5000647844F02004114D6C7005E00F4C6478CC
:104A600024F020040D4D6C7030E032B10B4C6478B2
:104A700044F01004094D6C7005E0084C647824F093
:104A80001004064D6C7021E052B1044C647844F07F
:104A90000804024D6C7009E0FFFF0F00A600002023
:104AA000FE4C647824F00804FC4D6C700EE032B1CA
:104AB000FA4C647844F00404F84D6C7005E0F74C4F
:104AC000647824F00404F54D6C7000BF00BFA3E0CF
:104AD000A0F128040A2C14D2DFE804F005142332D4
:104AE00041505F6E7D8C32B1EC4C647844F002042E
:104AF000EA4D6C7005E0E94C647824F00204E74D5F
:104B00006C7086E032B1E54C647844F00104E34D0A
:104B10006C7005E0E14C647824F00104DF4D6C70AA
:104B200077E032B1DD4C247844F08004DB4D2C700A
:104B300005E0DA4C247824F08004D84D2C7068E02D
:104B400032B1D64C247844F04004D44D2C7005E0AA
:104B5000D24C247824F04004D04D2C7059E032B16E
:104B6000CE4C247844F02004CC4D2C7005E0CB4C86
:104B7000247824F02004C94D2C704AE032B1C74C8F
:104B8000247844F01004C54D2C7005E0C34C247803
:104B900024F01004C14D2C703BE032B1BF4C24789E
:104BA00044F00804BD4D2C7005E0BC4C247824F082
:104BB0000804BA4D2C702CE032B1B84C247844F083
:104BC0000404B64D2C7005E0B44C247824F00404A1
:104BD000B24D2C701DE032B1B04C247844F0020488
:104BE000AE4D2C7005E0AD4C247824F00204AB4DA2
:104BF0002C700EE032B1A94C247844F00104A74D8A
:104C00002C7005E0A54C247824F00104A34D2C70F1
:104C100000BF00BF00E000BF00BF30BD70B506465A
:104C2000002410E000250AE004EB840006EB4000BD
:104C3000425D29462046FFF745FD681CC5B20A2D96
:104C4000F2DB601CC4B2042CECDB70BD10B5052196
:104C5000924801F05AFC10BD002000BF00E0401C4B
:104C600043F2C8218842FAD3704770B50546002444
:104C70008B480088C6B2B5420ADB344605E0884856
:104C80000480FFF7E9FF601CC4B2AC42F7DB0BE025
:104C9000344605E082480480FFF7DEFF601EC4B2A0
:104CA000AC42F7DC7E48048070BD70B5002472B65B
:104CB0007C480021016041608160FFF7C0F962B665
:104CC0006420FFF7D2FF19E02821774802F0C1F8ED
:104CD000002508E0012005EB8501734A02EB410144
:104CE0000855681CC5B2042DF4DB6F48FFF796FF2A
:104CF000FFF7ACFFFFF7DAFC601CC4B20A2CE3DB61
:104D000070BD10B52821684802F0A3F8012067495A
:104D10008978654A02EB2111087001216348807887
:104D200000F00F0260480A308154604842785E48C3
:104D3000143000EB221001705C48407800F00F0244
:104D400059481E3081541E38FFF768FFFFF77EFF79
:104D50005748008810B95748007810B1FEF796FB05
:104D600005E04FF48060544908604000086010BDC1
:104D700010B528214C4802F06CF801204B494979C4
:104D8000494A02EB2111087001214848407900F09E
:104D90000F0245480A308154444802794248143091
:104DA00000EB221001704148007900F00F023E48EC
:104DB0001E3081548802404908604000091F086085
:104DC0003948FFF72BFFFFF741FF10BD10B5282131
:104DD000354802F03EF801213448C2783248143098
:104DE00000EB221001703148C07800F00F022E480D
:104DF0001E30815488023049091F08604000091D97
:104E000008602948FFF70AFFFFF720FF10BD70B5C3
:104E10002821254802F01DF82849486802F097FA31
:104E2000C0B20A2190FBF1F01F4901220A54234924
:104E3000486802F08CFAC0B20A2190FBF1F201FB43
:104E4000120119480A30012242541C4801681C48CA
:104E5000006802F009F805464FF0804102F08EF834
:104E6000044602F074FAC0B20A2190FBF1F10E4838
:104E7000143001224254114801681148006801F0C1
:104E8000F3FF05464FF0804102F078F8044602F047
:104E90005EFAC0B20A2190FBF1F213E0A6000020F6
:104EA00040000040340200205C020020630000202B
:104EB0003800002044000020140C01402401002090
:104EC0007400002001FB1201FE48012242549002AE
:104ED000FD49086040000860FA481E38FFF79EFE52
:104EE000FFF7B4FE70BD10B5F8480078FF2861D018
:104EF000F748007830B1012817D002282DD00328B8
:104F00004BD13DE0F1480078022802DD0020EF4956
:104F10000870EE480178EF48807861F31F10ED4982
:104F20008870FF20E949087038E0EA488078202836
:104F300006DBE6480078042802DD0420E349087017
:104F4000E448807800F0F000E04909780843E1493E
:104F50008870FF20DD49087020E0DC4800780628D2
:104F600002DD0020D9490870D8480178D948407836
:104F700061F31F10D7494870FF20D44908700DE035
:104F8000D448407800F0F000D04909780843D1496E
:104F90004870FF20CD49087000E000BF00BFCC483A
:104FA0000078401CCA49087008460078042801DBD4
:104FB000002008702821C3481E3801F04AFF012054
:104FC000C4498978BF4A1E3A02EB211108700121B9
:104FD000C048807800F00F02BA4814388154BD48A8
:104FE0004278B8480A3800EB22100170B94840787E
:104FF00000F00F02B3488154B748007870B3B4484A
:10500000007830B101280DD0022814D0032823D114
:105010001AE00020AF498978AA4A1E3A02EB211112
:1050200008701AE00021AB48807800F00F02A54814
:105030001438815411E00021A6484278A1480A386A
:1050400000EB2210017008E00021A248407800F037
:105050000F029C48815400E000BF00BF99481E38F1
:10506000FFF7DCFDFFF7F2FD9C48007858B19B4844
:105070000078C043994908704FF4806092490860F5
:10508000400008600BE095480078C04393490870E1
:105090004FF480608C49091D08604000086010BD15
:1050A00010B58A480078FF2861D08948007830B16F
:1050B000012817D0022822D003284BD132E08348A0
:1050C0000078022802DD0020804908707F480178BE
:1050D0008048407961F31F107E494871FF207B4969
:1050E000087038E07B48407900F0F0007749097893
:1050F000084378494871FF20744908702BE07348D1
:105100000078032802DD0020704908706F4801789C
:105110007048007961F31F106E490871FF206B49D8
:10512000087018E06B480079302806DB6748007883
:10513000012802DD0020654908706648007900F00A
:10514000F00062490978084362490871FF205F490D
:10515000087000E000BF00BF5D480078401C5C495B
:10516000087008460078042801DB00200870282118
:1051700054481E3801F06DFE012056494979514AC4
:105180001E3A02EB2111087001215248407900F0CB
:105190000F024C48143881544E48027949480A3865
:1051A00000EB221001704B48007900F00F024548D7
:1051B00081544948007870B34548007830B10128DF
:1051C0000DD0022814D0032823D11AE00020414931
:1051D00049793C4A1E3A02EB211108701AE000217D
:1051E0003C48407900F00F0236481438815411E0F1
:1051F00000213848027933480A3800EB2210017048
:1052000008E000213348007900F00F022D48815456
:1052100000E000BF00BF2B481E38FFF7FFFCFFF780
:1052200015FD4FF48060284908604000086010BDFB
:1052300010B527480078032802DA032024490870B3
:1052400022480078FF282BD02148007803281AD163
:105250001E480078072802DD01201C4908701B4801
:105260000078012802DA0120184908701948C0782E
:1052700000F0F0001549097808431649C870FF206E
:105280001249087000E000BF00BF11480078401CC0
:105290000F49087008460078042801DB00200870D8
:1052A000282108481E3801F0D4FD01210948C078A2
:1052B00000F00F020348815407480078E0B1044829
:1052C00000780DE07A020020100C01403D00002023
:1052D0003B0000205C000020940000209C00002087
:1052E000032807D10021FC48C07800F00F02FB48DA
:1052F000815400E000BF00BFF8481E38FFF78EFC65
:10530000FFF7A4FC4FF48060F54908604000086096
:1053100010BD10B5F3480078022802DA0220F149E6
:105320000870F1480078FF282CD0EE480078022859
:1053300002D0032819D10BE0EB480178E6488079C8
:1053400061F31F10E4498871FF20E74908700DE000
:10535000E148807900F0F000E34909780843DE492C
:105360008871FF20E049087000E000BF00BFDD4801
:105370000078401CDB49087008460078042801DBEF
:10538000002008702821D5481E3801F062FD012058
:10539000D2491E39887088720121CF488279CF485E
:1053A0000A3800EB22100170CB48807900F00F0220
:1053B000CA488154CD480078C8B1CA48007802284C
:1053C00002D0032811D108E00021C3488279C348E4
:1053D0000A3800EB2210017008E00021BE488079F5
:1053E00000F00F02BD48815400E000BF00BFBB4881
:1053F0001E38FFF713FCFFF729FC4FF48060B84913
:1054000008604000086010BD10B5B7480078FF285C
:1054100048D0B448007830B1012810D002281BD001
:10542000032832D124E0B0480178B148807861F394
:105430001F10AF498870FF20AB49087026E0AC48C8
:10544000807800F0F000A84909780843A8498870DE
:10545000FF20A549087019E0A3480178A4484078C6
:1054600061F31F10A2494870FF209F4908700DE0AA
:105470009F48407800F0F0009B49097808439C4918
:105480004870FF209849087000E000BF00BF9548B1
:105490000078401C9349087008460078042801DB16
:1054A0000020087028218D481E3801F0D2FC012010
:1054B0008F498978894A1E3A02EB2111087001212F
:1054C0008B48807800F00F02844814388154884853
:1054D000427882480A3800EB2210017084484078F4
:1054E00000F00F027D48815480480078B8B37D48B1
:1054F000007830B101280DD0022814D0032823D120
:105500001AE000207A498978744A1E3A02EB211188
:1055100008701AE000217648807800F00F026F488A
:105520001438815411E00021714842786B480A38E0
:1055300000EB2210017008E000216D48407800F077
:105540000F026648815400E000BF00BF4FF4806046
:105550006349091F08604000091D086007E0FFE774
:105560004FF480605E4908604000091F08605B4896
:105570001E38FFF753FBFFF769FB10BD10B55D4800
:105580000078052813D2DFE800F00306090C0F00AD
:10559000FFF7A9FC0CE0FFF783FD09E0FFF748FEE9
:1055A00006E0FFF7B6FE03E0FFF72EFF00E000BFC6
:1055B00000BF4E480078C0434C49087010BD10B57C
:1055C0008AB000242821684601F043FC01204A4AA1
:1055D00012780DF8020001210DF10A00464A1278F6
:1055E000815405A8444A127881540A30424A1278FC
:1055F0008154414801780078401C3F4A10700A29C4
:1056000002D10020114608706846FFF707FBFFF73C
:105610001DFB002400E0641C052CFCD32F481E3821
:10562000FFF7FCFAFFF712FB0AB010BD10B50446F5
:10563000207830B1622807D0A2281DD0E2285FD19F
:1056400032E0FFF75EFB5CE0FFF7E1FB2B48007800
:10565000401C2A4908700846007804280BDB00200B
:1056600008704FF480601E49086040000860002008
:105670002070FFF746FB44E0FFF77AFB1F480078F5
:10568000401C1E4908700846007804280BDB0020E7
:1056900008704FF4806012490860400008600020E4
:1056A0002070FFF72EFB2CE0FFF790FB13480078EB
:1056B000401C124908700846007804280BDB0020C3
:1056C00008704FF4806006490860400008600020C0
:1056D0002070FFF716FB14E05C0000207A02002027
:1056E000140C01403B0000203D00002094000020ED
:1056F0006A0000203C0000209D0000209E00002049
:1057000000BF00BF10BD70B5FE490888FE4909887A
:1057100001F064F9FB494888FC49098801F05EF909
:10572000FB4A1179F74A908801F058F9F94A527802
:10573000F84B9B7842EA0321F24AD08801F04EF9F7
:10574000F0490889F449098801F048F9F04A1178CC
:10575000EC4A508901F042F9ED4A5178E94A9089C2
:1057600001F03CF9EA4A9178E64AD08901F036F92D
:10577000E74AD178E34A108A01F030F9E149488AD2
:10578000E649097801F02AF9DE49888AE44909786E
:1057900001F024F9E349E448006801F0BDFB054647
:1057A00001F0D5FD84B2D749C88A214601F016F927
:1057B00070BD2DE9FF410446DC480078002878D10F
:1057C00020784A2876D011DC22287BD007DC00B371
:1057D000022871D0102870D018286FD11FE130280E
:1057E0006DD038286CD04228F7D198E2902868D044
:1057F00008DC52287ED05A287DD068287CD07A28B0
:10580000EBD150E1A82820D0C22803D0E028E4D171
:1058100035E097E300202070BC48008818B9B42018
:10582000BA49088004E00020B8490880C0490870DF
:10583000B6490988C8B2FFF718FAB4480188BDA074
:1058400002F010F8FFF75FFF7CE300202070AF4804
:1058500000881430AD49088008460088DC2801DB48
:10586000DC200880A9480188B2A001F0FBFFA7490D
:105870000988C8B2FFF7F9F9FFF745FF62E3002096
:105880002070A24800881438A04908800846008883
:105890003C2801DC3C2008809C480188A5A001F040
:1058A000E1FF9A490988C8B2FFF7DFF9FFF72BFF3C
:1058B00048E348E376E205E033E06BE136E36CE091
:1058C000A9E12DE3002020709748006801F06CFDED
:1058D00005464FF033329B4B01F02FFC074601F099
:1058E0008FFD914908600846006801F05DFD05469E
:1058F000954A02E089E2D0E13CE0944B01F068FD7A
:1059000002D89348884908608748006801F04CFD38
:1059100005462A460B468FA001F0A4FFFFF7F3FED1
:1059200010E3002020708048006801F03DFD05462E
:105930004FF03332834B01F05FFB074601F060FD0F
:10594000794908604FF07E517748006801F07EFD8C
:1059500003D84FF07E50744908607348006801F026
:1059600023FD05462A460B467AA001F07BFFFFF790
:10597000CAFEE7E20020207065480079401C6449B7
:10598000087108460079032801DB0020087160488F
:10599000007908B9FFF7B7FED4E200202070FF209D
:1059A0005B4908700020487088706E4988700870E4
:1059B000487000216B484171C170017101728171A1
:1059C000C171C17241728172FF2067494870002025
:1059D00008708870FF216448017100206249C87016
:1059E000002161484171FF21C17100205E49887129
:1059F00000215D480172FF21817200205A494872DE
:105A000000215948C17200204149C87008460079F8
:105A1000012801D100200871FFF775FE92E20020F5
:105A20002070FF203A4908709C2048700020887040
:105A30004C4988700870487000214A484171C17013
:105A4000017101728171C171C17241728172FF2055
:105A5000454948707F20087000208870FF21424827
:105A600001717F204049C87000213F484171FF21EA
:105A7000C1717F203C49887100213B480172FF21A0
:105A800081727F203849487200213748C172002056
:105A90001F49C87008460079012801D1002008710B
:105AA000FFF731FE4EE200202070FF2018490870F9
:105AB0004870002088702B49887008704870002159
:105AC00028484171C170017101728171C171C17247
:105AD00041728172FF20244948700870002088704C
