:020000040800F2
:100000006009002045010008E1300008E3300008E5
:10001000E7300008EB300008EF3000080000000077
:10002000000000000000000000000000F3300008A5
:10003000F530000800000000F73000081731000814
:100040005F0100085F0100085F0100085F01000810
:100050005F0100085F0100085F0100085F01000800
:10006000F93000085F0100085F0100085F01000827
:100070005F0100085F0100085F0100085F010008E0
:100080005F0100085F0100085F0100085F010008D0
:100090005F0100085F0100085F010008855A000841
:1000A0005F0100085F0100085F0100085F010008B0
:1000B0005F0100085F0100085F0100085F010008A0
:1000C0005F0100085F0100085F0100085F01000890
:1000D0005F010008D33300085F0100085F010008DA
:1000E0005F0100085F0100085F0100085F01000870
:1000F0005F0100085F0100085F0100085F01000860
:100100005F0100085F0100085F0100085F0100084F
:100110005F0100085F0100085F0100085F0100083F
:100120005F0100085F0100085F0100085F0100082F
:10013000DFF80CD006F0F8FB00480047DB2C000885
:10014000600900200648804706480047FEE7FEE7B2
:10015000FEE7FEE7FEE7FEE7FEE7FEE7FEE7FEE777
:1001600045020008310100080CB500200190009004
:100170006B48006840F480306949086000BF6848F7
:10018000006800F4003000900198401C0190009835
:1001900018B90198B0F5A06FF1D16148006810F46A
:1001A000003F02D00120009001E000200090009864
:1001B000012842D15B48006840F0100059490860AE
:1001C0000846006820F0030008600846006840F018
:1001D000020008605248406851494860084640683B
:1001E00048600846406840F48060486008464068BF
:1001F00020F47C1048600846406840F4E8104860ED
:100200000846006840F08070086000BF44480068FD
:1002100010F0007FFAD04248406820F003004049C7
:1002200048600846406840F00200486000BF3C4813
:10023000406800F00C000828F9D10CBD10B5FFF79C
:1002400093FF10BD10B53648006840F001003449F6
:10025000086008464068344908403149486008460B
:100260000068324908402E4908600846006820F4BA
:10027000802008600846406820F4FE0048604FF483
:100280001F008860FFF7DAFF4FF000602849086020
:1002900010BD10B5002100200022214B5B6803F047
:1002A0000C0121B1042906D0082928D107E0214BEF
:1002B000214C236027E01F4B1F4C236023E0184B89
:1002C0005B6803F47010164B5B6803F48032022302
:1002D00003EB904022B9194B4343174C23600DE0C8
:1002E0000F4B5B6813F4003F04D0144B4343124C94
:1002F000236003E00F4B43430F4C236003E00D4B9F
:100300000D4C236000BF00BF054B5B68C3F30313B4
:100310000B4CE15C084B1B68CB40074C236010BDC5
:1003200000100240002002400000FFF8FFFFF6FE30
:1003300008ED00E000127A000000002000093D00F6
:100340000400002031490143314A1160704770B503
:10035000002100230F22C4780CB32D4C246804F430
:10036000E064C4F5E064210AC1F10403CA404478A2
:1003700004FA03F18478144021430901254C0678DE
:10038000A155047804F01F050124AC4005786D11D7
:100390004FF0E02606EB8505C5F8004109E004783A
:1003A00004F01F050124AC401B4D0678761145F87A
:1003B000264070BD194A0A400243154B1B1F1A60A4
:1003C000704739B1124A121D12680243104B1B1DAF
:1003D0001A6006E00E4A121D126882430C4B1B1D68
:1003E0001A607047042808D14FF0E021096941F0F4
:1003F00004014FF0E022116107E04FF0E0210969AC
:1004000021F004014FF0E022116170470000FA056D
:100410000CED00E000E400E080E100E080FFFF1F61
:10042000002044490860091D0860091D0860091D75
:10043000086041483F4914310860704700213D4938
:100440008279002A3AD00A46126803689A430B461A
:100450001A600A1D126803689A430B1D1A6002791C
:1004600011440A6803681A430A60324A0832126863
:1004700003689A432F4B08331A601A1D12680368E9
:100480009A432C4B0C331A604279102A0ED11A1F52
:10049000126803681A43274B08331A601A1D126842
:1004A00003681A43234B0C331A600DE0214942794B
:1004B00011440A6803681A430A6005E0027911448E
:1004C0000A6803689A430A6070470021016001715D
:1004D0000C21417100218171704716491031096862
:1004E0000143144A10321160704701460020114A3E
:1004F000143212680A4201D0012000E00020704747
:100500000C49143108607047014600200022094B55
:100510001B6803EA0102074B14331B680B4202D02D
:100520000AB1012000E00020704702491431086040
:100530007047000000040140FFFF0F00014600204B
:10054000FE4A106800F03800084310607047FB490D
:10055000096821F00801F94A116011460968014350
:1005600011607047F549096821F01001F34A1160E4
:1005700011460968014311607047F148EF4948602E
:10058000F04848607047EE48EC494860ED484860E4
:100590007047EA48006940F08000E8490861704708
:1005A000E648006940F08000E44908617047042093
:1005B000E249C96811F0010F01D001200EE0DF49C6
:1005C000C96811F0040F01D0022007E0DB49C968B7
:1005D00011F0100F01D0032000E00420704700B597
:1005E00002460423FFF7E3FF034603E0FFF7DFFFC4
:1005F0000346521E012B01D1002AF7D102B905236F
:10060000184600BD30B5044604254FF43020FFF7EE
:10061000E6FF0546042D17D1C848006940F00200E6
:10062000C649086108464461006940F0400008611D
:100630004FF43020FFF7D3FF0546C048006941F66C
:10064000FD710840BD490861284630BD10B504243D
:100650004FF43020FFF7C3FF0446042C16D1B748EF
:10066000006940F00400B54908610846006940F09F
:10067000400008614FF43020FFF7B1FF0446AF4857
:10068000006941F6FB710840AC490861204610BD85
:1006900000B502460423FFF78AFF034603E0FFF795
:1006A00086FF0346521E012B01D1002AF7D102B961
:1006B0000523184600BD10B504244FF43020FFF781
:1006C000E7FF0446042C16D19C48006940F0040062
:1006D0009A4908610846006940F0400008614FF4FB
:1006E0003020FFF7D5FF04469448006941F6FB71BE
:1006F000084092490861204610BD00208F49C96911
:1007000011F0020F01D0012000E00020704730B549
:10071000A5250424FFF7F1FF00B100254FF4302098
:10072000FFF75DFF0446042C3AD185488349886071
:10073000844888600846006940F020000861084647
:10074000006940F0400008614FF43020FFF747FF98
:100750000446042C1BD17948006941F6DF7108403A
:10076000764908610846006940F010000861764843
:100770000580E002FFF733FF0446052C10D06F48D8
:10078000006941F6EF7108406C49086108E0052CEA
:1007900006D06A48006941F6EF7108406749086170
:1007A000204630BD78B506460C4604250020009052
:1007B000E802FFF714FF0546042D24D15F480069C5
:1007C00040F001005D4908613480E802FFF707FF4F
:1007D0000546042D10D1B01C0090200C0099088013
:1007E000E802FFF7FCFE05465448006941F6FE7139
:1007F00008405249086106E05048006941F6FE7120
:1008000008404E490861284678BD70B504460D463B
:100810000426F002FFF7E3FE0646042E11D14748F6
:10082000006940F00100454908612580F002FFF7AA
:10083000D6FE06464148006941F6FE7108403F4930
:100840000861304670BD70B505460E460424E002CE
:10085000FFF7C5FE0446042C17D139483749886094
:10086000384888600846006940F0100008612E8012
:10087000E002FFF7B4FE0446052C06D02F480069BD
:1008800041F6EF7108402D490861204670BD2DE901
:10089000F04304464FF6FF763746B046B14604258E
:1008A000E443E6B2C4F30727C4F307484FEA1469E8
:1008B000E802FFF794FE0546042D49D120481F4960
:1008C0008860204888600846006940F01000086190
:1008D000FF2E06D01C4808300680E802FFF77FFE96
:1008E0000546042D08D1FF2F06D017480A3007808F
:1008F000E802FFF774FE0546042D0AD1B8F1FF0F98
:1009000007D011480C30A0F80080E802FFF767FE1E
:100910000546042D0AD1B9F1FF0F07D00A480E3061
:10092000A0F80090E802FFF75AFE0546052D0FD00B
:100930000248006941F6EF71084007E000200240DC
:1009400023016745AB89EFCD00F8FF1F66490861B9
:100950002846BDE8F08330B5054604244FF4302026
:10096000FFF73DFE0446042C41D160485E49886093
:100970005F4888600846006940F02000086108462A
:10098000006940F0400008614FF43020FFF727FE77
:100990000446042C22D15448006941F6DF71084016
:1009A000514908610846006940F0100008611DB116
:1009B00000205049088002E0A5204E4908804FF4ED
:1009C0003020FFF70CFE0446052C10D04648006985
:1009D00041F6EF7108404449086108E0052C06D053
:1009E0004148006941F6DF7108403F4908612046EF
:1009F00030BDF0B505460E46174604243B483A493B
:100A000088603B488860E002FFF7E9FD0446042C5B
:100A100019D13548006940F010003349086147F0AA
:100A2000F800304328433349891C0880E002FFF76F
:100A3000D6FD0446052C06D02B48006941F6EF711F
:100A40000840294908612046F0BD2748C069800850
:100A500070472548006A704700202349096811F053
:100A6000200F01D0012000E00020704729B11E4A6C
:100A7000126902431C4B1A6104E01B4A126982434B
:100A8000194B1A61704701460020012908D1164A06
:100A9000D26912F0010F01D0012008E0002006E029
:100AA000114AD2680A4201D0012000E000207047BC
:100AB0000D49C860704704200B49C96811F0010F47
:100AC00001D001200EE00849C96811F0040F01D0DF
:100AD000022007E00449C96811F0100F01D003207B
:100AE00000E0042070470000002002402301674519
:100AF000AB89EFCD00F8FF1F10B50446CA48844209
:100B000008D10121042000F027FB0021042000F07F
:100B100023FB46E0C548844208D10121082000F0AB
:100B20001BFB0021082000F017FB3AE0C04884427C
:100B300008D10121102000F00FFB0021102000F04F
:100B40000BFB2EE0BB48844208D10121202000F09D
:100B500003FB0021202000F0FFFA22E0B648844287
:100B600008D10121402000F0F7FA0021402000F0D8
:100B7000F3FA16E0B148844208D10121802000F048
:100B8000EBFA0021802000F0E7FA0AE0AC4884424A
:100B900007D10121801500F0DFFA0021A01500F037
:100BA000DBFA10BD10B50121084600F0D5FA00218E
:100BB000012000F0D1FA10BD2DE9F04102460025D8
:100BC0000026002000230024002791F803C00CF029
:100BD0000F0591F803C01CF0100F03D091F802C06C
:100BE0004CEA050591F800C0BCF1000F31D0146843
:100BF00000202BE04FF0010C0CFA00F3B1F800C01C
:100C00000CEA03069E4220D183004FF00F0C0CFA31
:100C100003F7BC4305FA03FC4CEA040491F803C053
:100C2000BCF1280F06D14FF0010C0CFA00FCC2F801
:100C300014C00AE091F803C0BCF1480F05D14FF091
:100C4000010C0CFA00FCC2F810C0401C0828D1D3DB
:100C50001460B1F800C0BCF1FF0F34DD546800200F
:100C60002EE000F1080C4FF0010808FA0CF3B1F87F
:100C700000C00CEA03069E4221D183004FF00F0C06
:100C80000CFA03F7BC4305FA03FC4CEA040491F8A0
:100C900003C0BCF1280F05D100F1080C08FA0CF8CC
:100CA000C2F8148091F803C0BCF1480F07D100F1DD
:100CB000080C4FF0010808FA0CF8C2F81080401C2C
:100CC0000828CED35460BDE8F0814FF6FF71018053
:100CD000022181700421C170704702460020936890
:100CE0000B4201D0012000E00020704701468868D7
:100CF00080B2704702460020D3680B4201D0012029
:100D000000E0002070470146C86880B2704701616A
:100D10007047416170470AB1016100E0416170476D
:100D2000C16070474FF480320A4382618161826101
:100D300082698269704702460020424B18684FF66C
:100D40008073184040EA021008433E4B1860704719
:100D50003D49C8617047F0B50A46002300240021D0
:100D6000002500F00046B6F1004F02D1354EF16982
:100D700001E0344E7168C0F3034583B200F44016BD
:100D8000B6F5401F08D121F070612E4E766826F02E
:100D900070662C4F7E6012E000F48016B6F5801F5E
:100DA00006D1032606FA05F4A14341F0706106E07E
:100DB000460D360103FA06F6B14341F0706122B1E7
:100DC000460D360103FA06F6314300F00046B6F14F
:100DD000004F02D11B4EF16101E01A4E7160F0BD6F
:100DE00030B500228B071C0F0F2303FA04F2154BBA
:100DF00008338C1053F824309343124C08348D1070
:100E000044F8253023468C1053F824308C07240FE7
:100E100000FA04F423430B4C08348D1044F82530B9
:100E200030BD0A490860704700080140000C0140CD
:100E3000001001400014014000180140001C014056
:100E4000002001400000014000002042DC00204260
:100E5000DD48006840F00100DB4908600846406852
:100E6000DA490840D849486008460068D84908402F
:100E7000D54908600846006820F4802008600846CC
:100E8000406820F4FE0048604FF41F0088607047FF
:100E9000CD49096821F48031CB4A116011460968B7
:100EA00021F480211160B0F5803F03D0B0F5802F90
:100EB0000ED106E0C449096841F48031C24A11608C
:100EC00007E0C149096841F4A021BF4A116000E070
:100ED00000BF00BF704710B501460022002300206C
:100EE0004A11012A02D1B84C236806E0022A02D135
:100EF000B54C236A01E0B44C636A01F01F0201247F
:100F000094401C4201D0012000E0002010BD38B503
:100F1000002000900024002500BF3120FFF7DBFFF8
:100F200005460098401C00900098B0F5A06F01D0D5
:100F3000002DF2D03120FFF7CEFF08B1012400E0F0
:100F40000024204638BD014600209F4A106820F04A
:100F5000F80040EAC100106070479E490860704781
:100F600002460020984B586820F47C1042EA0103A6
:100F70001843954B5860704796490866704701467C
:100F80000020914A506820F00300084350607047E9
:100F90008D48406800F00C007047014600208A4AE6
:100FA000506820F0F0000843506070470146002070
:100FB000854A506820F4E06008435060704701465D
:100FC0000020814A506820F4605040EAC10050601F
:100FD000704729B17C4A527A02437B4B5A7204E033
:100FE000794A527A8243784B5A7270477A4908603C
:100FF000704701460020744A506820F4404008437E
:10100000506070470021754A11706F4A82F82010B5
:10101000012802D0042808D103E001216F4A117091
:1010200004E005216D4A117000E000BF00BF704769
:101030006B49086070476449096A0143624A11625A
:101040007047674944390860704730B50021002275
:10105000002400235C4D6D6805F00C0121B10429CA
:1010600005D0082923D105E05E4D056022E05D4DE5
:1010700005601FE0544D6D6805F47012524D6D68A7
:1010800005F48034022505EB92421CB9564D5543B8
:1010900005600BE04C4D6D6815F4003F03D0524DD8
:1010A0005543056002E04F4D5543056002E04D4D4C
:1010B000056000BF00BF444D6D6805F0F0010909EF
:1010C0004A4D6B5C0568DD4045603F4D6D6805F439
:1010D000E061090A454D6B5C4568DD4085603A4D2D
:1010E0006D6805F46051C90A404D6B5C4568DD4090
:1010F000C560354D6D6805F44041890B3C4D6B5C16
:10110000C568B5FBF3F5056130BD29B12E4A5269BA
:1011100002432D4B5A6104E02B4A526982432A4B09
:101120005A61704729B1284A92690243264B9A6155
:1011300004E0254A92698243234B9A61704729B1A2
:10114000214AD2690243204BDA6104E01E4AD26987
:1011500082431D4BDA61704729B11B4AD2680243B2
:10116000194BDA6004E0184AD2688243164BDA6001
:10117000704729B1144A12690243134B1A6104E003
:10118000114A12698243104B1A6170471449403961
:10119000086070470F49C86470470B49C8717047B1
:1011A0000948406A40F0807007494862704701462C
:1011B0000020054A92680A4201D0012000E0002088
:1011C0007047014988727047001002400000FFF824
:1011D000FFFFF6FE00004242D800424220100240CB
:1011E0008004424200127A0000093D0014000020F1
:1011F0002400002010B50446FE48844208D1012195
:10120000C014FFF7A9FF0021E014FFF7A5FFC4E019
:10121000B4F1804F08D101210846FFF7AAFF002151
:101220000120FFF7A6FFB8E0F348844208D101216E
:101230000220FFF79EFF00210220FFF79AFFACE09B
:10124000EE48844208D101210420FFF792FF0021DB
:101250000420FFF78EFFA0E0E948844208D1012175
:101260000820FFF786FF00210820FFF782FF94E0A7
:10127000E448844208D101211020FFF77AFF0021C1
:101280001020FFF776FF88E0DF48844208D1012173
:101290002020FFF76EFF00212020FFF76AFF7CE08F
:1012A000DA48844208D101214014FFF755FF00219C
:1012B0006014FFF751FF70E0D548844209D1012145
:1012C000C804FFF749FF00214FF40020FFF744FF57
:1012D00063E0D048844209D101210805FFF73CFFB3
:1012E00000214FF48010FFF737FF56E0CA488442D0
:1012F00009D101214805FFF72FFF00214FF400100D
:10130000FFF72AFF49E0C548844208D10121402067
:10131000FFF72FFF00214020FFF72BFF3DE0C048E3
:10132000844208D101218020FFF723FF0021802083
:10133000FFF71FFF31E0BB48844208D1012180152F
:10134000FFF717FF0021A015FFF713FF25E0B648B0
:10135000844209D101210804FFF7FEFE00214FF469
:101360008030FFF7F9FE18E0B048844209D101212E
:101370004804FFF7F1FE00214FF40030FFF7ECFEC8
:101380000BE0AB48844208D101218804FFF7E4FE5A
:1013900000214FF48020FFF7DFFE10BD00220288FD
:1013A000944B98420ED0994B98420BD0B0F1804F9D
:1013B00008D0914B984205D0904B984202D0904B68
:1013C000984204D14FF68F731A404B881A438D4BC5
:1013D000984207D08C4B984204D04FF6FF431A40F6
:1013E000CB881A4302808B8883850B880385814BC9
:1013F00098420BD0854B984208D08B4B984205D031
:101400008A4B984202D08A4B984201D10B7A0386CC
:1014100001238382704770B5002400220023058CCD
:101420004FF6FE7635400584028C8388048B4FF698
:101430008F752C40B51E2C400D882C43751E2A40FC
:101440000D892A434D882A436A4DA8420BD06F4D1F
:10145000A84208D0744DA84205D0744DA84202D0CD
:10146000734DA84213D14FF6F7752A404D892A4390
:101470004FF6FB752A408D882A434FF6FF652B40B7
:101480004FF6FF552B408D892B43CD892B4383800D
:101490000483CD888586028470BD70B50024002247
:1014A0000023058C4FF6EF7635400584028C838847
:1014B000048B48F6FF752C404FF6FF452C400D88F5
:1014C0004FF6FF7606EA05252C434FF6DF752A40D6
:1014D0000D8906EA05152A434D8806EA05152A43B3
:1014E000444DA84202D0494DA8421DD14FF67F7508
:1014F0002A404D894FF6FF7606EA05152A434FF636
:10150000BF752A408D8806EA05152A434FF6FF3538
:101510002B404FF2FF752B408D8906EA85052B4342
:10152000CD8906EA85052B4383800483CD88058712
:10153000028470BD70B5002400220023058C4FF694
:10154000FF6635400584028C8388848B4FF68F7547
:101550002C404FF6FC752C400D882C434FF6FF5560
:101560002A400D894FF6FF7606EA05252A434D8865
:1015700006EA05252A431F4DA84202D0234DA84262
:101580001DD14FF2FF752A404D894FF6FF7606EACE
:1015900005252A434FF6FF352A408D8806EA0525A2
:1015A0002A434EF6FF752B404DF6FF752B408D8973
:1015B00006EA05152B43CD8906EA05152B438380E2
:1015C0008483CD888587028470BD70B50022002396
:1015D0000024058C4EF6FF7635400584038C848804
:1015E000828B48F6FF752A404FF6FF452A400D884A
:1015F00020E00000002C01400004004000080040F2
:10160000000C004000100040001400400034014075
:10161000004C0140005001400054014000180040BF
:10162000001C0040002000400040014000440140F8
:10163000004801404FF6FF7606EA05252A434DF69D
:10164000FF752B400D8906EA05352B434D8806EAC8
:1016500005352B43FA4DA84202D0FA4DA84208D1D5
:101660004BF6FF752C408D894FF6FF7606EA8515FF
:101670002C4384808283CD88A0F84050038470BDC1
:10168000828B4FF2FF331A408283828B4FF6FF73B7
:1016900003EA01231A4382837047F0B50C461546CE
:1016A000002200210026078C4EF6FF7C07EA0C077B
:1016B0000784828B018C4FF6FF7707EA043640F6E9
:1016C000FF473A404FF6FF7707EA05273A434FF6C0
:1016D000FF7707EA03373A43D94FB8420ED0D94FC4
:1016E000B8420BD0B0F1804F08D0D74FB84205D0E8
:1016F000D64FB84202D0D64FB84206D14DF6FF774A
:10170000394046F48057394305E047F6FF573940E2
:1017100044F48057394382830184F0BD828B4FF6B5
:10172000F3731A408283828B0A4382837047F0B539
:101730000C461546002200210026078C4FF6FF6C50
:1017400007EA0C070784828B018C4FF6FF7707EAC4
:1017500004264FF60C773A404FF6FF7707EA031757
:101760002F433A43B64FB8420ED0B64FB8420BD0D3
:10177000B0F1804F08D0B44FB84205D0B34FB84253
:1017800002D0B34FB84206D14FF6FF57394046F466
:101790008077394305E04FF2FF57394044F48077B2
:1017A000394382830184F0BD028B4FF2FF331A402C
:1017B0000283028B4FF6FF7303EA01231A4302836D
:1017C0007047F0B50C461546002200210026078C14
:1017D0004FF6EF7C07EA0C070784028B018C4FF66B
:1017E000FF7707EA041640F6FF473A404FF6FF77C7
:1017F00007EA03373A434FF6FF7707EA05273A43EC
:101800008F4FB8420ED08F4FB8420BD0B0F1804FFF
:1018100008D08D4FB84205D08C4FB84202D08C4FC3
:10182000B84206D14FF6DF77394046F0100739430A
:1018300005E04FF65F77394044F0100739430283E3
:101840000184F0BD028B4FF6F3731A400283028BC2
:101850000A4302837047F0B50C461546002200216A
:10186000068C4FF6FE773E400684028B018C4FF6C5
:101870000C7632407E1C06EA03162E433243704E2D
:10188000B0420ED06F4EB0420BD0B0F1804F08D0B6
:101890006D4EB04205D06D4EB04202D06C4EB0429B
:1018A00006D14FF6FD76314044F00106314305E0A4
:1018B0004FF6F576314044F001063143028301844E
:1018C000F0BD70B505460C465D4885420ED05D48BA
:1018D00085420BD0B5F1804F08D05B48854205D0DA
:1018E0005A48854202D05A48854200D100E000BFE4
:1018F000208850B92389A28861882846FFF7ABFF6A
:10190000E1882846FFF79EFF25E0208804280AD1B9
:101910002389A28861882846FFF753FFE18828467B
:10192000FFF742FF17E0208808280AD12389A28800
:1019300061882846FFF7FBFEE1882846FFF7EEFEA8
:1019400009E02389A28861882846FFF7A6FEE1887E
:101950002846FFF795FE70BD2DE9F04105460C467F
:1019600000260127608808B9022600E00026A0882A
:10197000012801D1022700E001272088A0B923898E
:10198000A28861882846FFF766FFE1882846FFF7AE
:1019900059FF23893A4631462846FFF712FFE1886E
:1019A0002846FFF701FF13E02389A28861882846B3
:1019B000FFF707FFE1882846FFF7F6FE23893A463E
:1019C00031462846FFF747FFE1882846FFF73AFFF0
:1019D000BDE8F0810A884B881A438B881A43CB886C
:1019E0001A430B891A434B891A438B891A43A0F86F
:1019F000442070474FF6FF71818000210180C18033
:101A00004180017270470021018041808180C18046
:101A1000018141818181C181704700210180418024
:101A2000012181800021C180018170470021018056
:101A300041808180C18001814181818170470000A6
:101A4000002C014000340140000400400008004028
:101A5000000C004021B1028842F00102028004E043
:101A600002884FF6FE731A400280704731B1B0F819
:101A7000442042F40042A0F8442005E0B0F844209D
:101A8000C2F30E02A0F8442070471AB183890B43B9
:101A9000838102E083898B43838170478182704711
:101AA00041EA0203A0F8483070471AB183890B431A
:101AB000838102E083898B438381704701894FF6DC
:101AC000F8721140018170470A46002101894FF6E2
:101AD0008F73194011430181704730B504460D469C
:101AE00029462046FFF7F0FF208940F007002081BB
:101AF00030BD2DE9F04104460D4616461F46602DC7
:101B000006D13B46012231462046FFF75AFE05E04A
:101B10003B46012231462046FFF79DFE29462046DE
:101B2000FFF7D2FF208940F007002081BDE8F08157
:101B300030B50C4600210189C9B24FF6FF7505EAA0
:101B40000325154325432943018130BD2DE9F0418B
:101B500005460E4617469846002443463A46314607
:101B60002846FFF7E5FF2C894FF6F870044044F053
:101B700007044FF68F70044044F070042C81BDE8D8
:101B8000F081F0B504460D4616461F463B463246E8
:101B900029462046FFF7CCFF208940F48040208171
:101BA000F0BD0185828270470A46002101884FF608
:101BB0008F731940114301807047F0B50C461546EC
:101BC0001E460021002200230189028B038C4FF660
:101BD000F877394021434FF6FC473A4040F201176D
:101BE0003A434FF6DD773B404FF6FF7707EA06179B
:101BF0002F433B43018102830384F0BD0A46002149
:101C0000018B4FF68F7319401143018370470A46C9
:101C10000021018B48F6FF7319404FF6FF7303EA6A
:101C200002231943018370470A460021818B4FF636
:101C30008F7319401143818370470A460021818BBD
:101C400048F6FF7319404FF6FF7303EA0223194366
:101C50008183704721B1028842F08002028004E053
:101C600002884FF67F731A400280704721B1828844
:101C700042F00402828004E082884FF6FB731A402F
:101C80008280704721B1828842F00802828004E09D
:101C900082884FF6F7731A408280704721B182889C
:101CA00042F00102828004E082884FF6FE731A40FF
:101CB000828070470A460021018B4FF6F773194066
:101CC0001143018370470A460021018B4FF2FF73D5
:101CD00019404FF6FF7303EA02231943018370474B
:101CE0000A460021818B4FF6F77319401143818317
:101CF00070470A460021818B4FF2FF7319404FF65F
:101D0000FF7303EA02231943818370470A460021C7
:101D1000018B4FF6FB7319401143018370470A464C
:101D20000021018B4FF6FF3319404FF6FF7303EA92
:101D300002231943018370470A460021818B4FF625
:101D4000FB7319401143818370470A460021818B40
:101D50004FF6FF3319404FF6FF7303EA022319438E
:101D6000818370470A460021018B4FF67F7319402B
:101D70001143018370470A460021018BC1F30E0114
:101D80004FF6FF7303EA02231943018370470A46A3
:101D90000021818B4FF67F73194011438183704777
:101DA0000A460021818BC1F30E014FF6FF7303EA4F
:101DB00002231943818370470A460021018C4FF6A4
:101DC000FD7319401143018470470A460021018CBC
:101DD0004FF6F77319401143018470470A460021FA
:101DE000018C4FF6DF7319404FF6FF7303EA0213BD
:101DF0001943018470470A460021018C4FF67F7316
:101E000019404FF6FF7303EA021319430184704728
:101E10000A460021018C4FF6FF5319404FF6FF731D
:101E200003EA02231943018470470A460021018C0A
:101E30004FF2FF7319404FF6FF7303EA0223194371
:101E4000018470470A460021018C4DF6FF7319404A
:101E50004FF6FF7303EA023319430184704730B52C
:101E6000002301248C40A3B2048C9C430484048C82
:101E700002FA01F5ADB22C43048430BD30B5002325
:101E800004248C40A3B2048C9C430484048C02FA86
:101E900001F5ADB22C43048430BD70B5034600207B
:101EA00000241846183001258D40ACB21D8CA54386
:101EB0001D8409B1082909D100EB6100056825F0EE
:101EC000700505600568154305600EE00D1FC5F33C
:101ED0004E052844056825F4E045056005684FF681
:101EE000FF7606EA02263543056070BD21B10288FF
:101EF00042F00202028004E002884FF6FD731A40AD
:101F00000280704721B1028842F00402028004E09E
:101F100002884FF6FB731A400280704721B1828815
:101F200042F08002828004E082884FF67F731A407C
:101F30008280704702884FF6F7731A400280028849
:101F40000A430280704782884FF68F731A4082805E
:101F500082880A438280704702894FF6F8731A40DC
:101F6000028102890A430281704702894FF67F731A
:101F70001A40028102890A430281704781847047B6
:101F800081857047818670470187704781877047D8
:101F9000A0F84010704702884FF6FF431A400280B5
:101FA00002880A43028070470146888E70470146C6
:101FB000088F70470146888F70470146B1F840008E
:101FC00070470146888C70470146088D704702466D
:101FD0000020138A0B4201D0012000E0002070474E
:101FE000CA430282704730B5024600200023002415
:101FF000158A05EA0103958905EA010413B10CB1BC
:10200000012000E0002030BDCA430282704700007A
:1020100010B50446FB48844209D101218803FFF72B
:102020009BF800214FF48040FFF796F832E0F64825
:10203000844209D101214804FFF79BF800214FF4A5
:102040000030FFF796F825E0F048844209D10121DD
:102050008804FFF78EF800214FF48020FFF789F8FD
:1020600018E0EB48844209D10121C804FFF781F848
:1020700000214FF40020FFF77CF80BE0E548844294
:1020800008D101210805FFF774F800214FF48010F2
:10209000FFF76FF810BD2DE9F04786B005460E46F4
:1020A0000024A24600BFA1460027B08900B100BFAE
:1020B0002F462C8A4CF6FF700440F08804432C8293
:1020C000AC894EF6F3100440B08831890843718919
:1020D00008430443AC81AC8A4FF6FF400440B0890A
:1020E0000443AC8201A8FEF7B0FFC648874202D184
:1020F000DDF810A001E0DDF80CA0A88910F4004F75
:1021000008D00AEBCA0000EB0A1031684900B0FBA6
:10211000F1F807E00AEBCA0000EB0A103168890009
:10212000B0FBF1F86420B8FBF0F004012009642151
:1021300001FB1089A88910F4004F08D0322000EB71
:10214000C900B0FBF1F000F00700044308E03220C2
:1021500000EB09106421B0FBF1F000F00F00044324
:102160002C8106B0BDE8F0874FF4165101600021C4
:102170008180C18001810C214181002181817047D2
:1021800010B502460020108A4FF2FF0318400B885A
:102190004C8823438C882343CC88234318431082E4
:1021A00010BD0021018041808180C180704721B134
:1021B000828942F40052828104E082894DF6FF73E5
:1021C0001A4082817047F0B503460024002600259E
:1021D0000020A1F510676A3F00D100BF1846C1F387
:1021E000421401F01F06012707FA06F5012C01D160
:1021F0000C3004E0022C01D1103000E014301AB190
:1022000007682F43076002E00768AF430760F0BD2F
:102210001AB1838A0B43838202E0838A8B438382D1
:102220007047028A4FF6F0731A400282028A0A430C
:102230000282704782894FF2FF731A40828182893D
:102240000A438281704721B1828942F00202828171
:1022500004E082894FF6FD731A4082817047028A3A
:102260004FF6DF731A400282028A0A4302827047E5
:1022700021B1028A42F48042028204E0028A4BF6D3
:10228000FF731A4002827047C1F3080282807047D0
:1022900001468888C0F308007047818941F0010138
:1022A00081817047028BD2B20283028B42EA012203
:1022B00002837047028B02F47F420283028B0A433F
:1022C0000283704721B1828A42F02002828204E0B8
:1022D000828A4FF6DF731A408282704721B1828A68
:1022E00042F01002828204E0828A4FF6EF731A40B5
:1022F0008282704721B1828A42F00802828204E021
:10230000828A4FF6F7731A408282704721B1828920
:1023100042F40042828103E08289C2F30E0282818C
:10232000704721B1828A42F40062828204E0828A8C
:102330004FF2FF731A4082827047828A4FF6FB7316
:102340001A408282828A0A438282704721B1828A3D
:1023500042F00202828204E0828A4FF6FD731A4044
:102360008282704702460020B1F5007F00D100BF95
:1023700013880B4201D0012000E00020704701F4D7
:102380000072B2F5007F00D100BFCA4302807047DF
:1023900070B502460024002300250020A1F5106638
:1023A0006A3E00D100BFC1F3421501F01F030126B0
:1023B00006FA03F3012D02D19689334006E0022D7F
:1023C00002D1168A334001E0968A33400C1201266E
:1023D00006FA04F41688344013B10CB1012000E071
:1023E000002070BD10B500220023A1F510646A3CE6
:1023F00000D100BF0A1201249440A3B2DC43048040
:1024000010BD00000038014000440040004800407A
:10241000004C00400050004008B54FF4A060FDF7AC
:1024200091FF25208DF8000000208DF8010002208A
:102430008DF8020001208DF803006846FDF787FF44
:1024400008208DF8000000208DF8010001208DF893
:1024500002008DF803006846FDF779FF17208DF81C
:10246000000000208DF801008DF8020001208DF899
:1024700003006846FDF76BFF08BD2DE9F041FAA0A7
:1024800004F0C2FA8820FE49487088700020FD4997
:102490000870FF20FC498870487008700020C870E0
:1024A00008716420F94908704FF07C50F8490860C1
:1024B000F8490888F849098803F044FEF549488836
:1024C000F249097803F03EFEEF4A1179F14A90880B
:1024D00003F038FEEA4A5278E94B9B7842EA03213E
:1024E000EC4AD08803F02EFEEA490889EB490988B6
:1024F00003F028FEE44A1178E64A508903F022FEF0
:10250000E14A5178E34A908903F01CFEDE4A917853
:10251000E04AD08903F016FEDB4AD178DD4A108A02
:1025200003F010FEDB49488AD649097803F00AFE19
:10253000D849888ADA49097803F004FED949D44891
:10254000006803F083FE054604F061F884B2D149C7
:10255000C88A214603F0F6FDD34801F029FACF4896
:10256000008804F047F806460022D04B03F0BDFF78
:10257000044622460B46CEA004F046FAC648008820
:1025800004F038F806460022C84B03F0AEFF0446BC
:1025900022460B46CCA004F037FABC480178D0A004
:1025A00004F032FAB848C2780179D2A004F02CFACB
:1025B000B548837842780178D4A004F025FAB04871
:1025C00042788178AF480378D5A004F01DFAAF486F
:1025D000007804F00FF806460022D84B03F085FF80
:1025E000044604F03BF8AA490860A848007802F0C5
:1025F00048F9BDE8F08110B503F089FAD0490870B8
:102600000846007862284FD008460078A2284BD0B0
:1026100008460078E22847D008460078C22843D010
:102620000846007890283FD00846007868283BD0BC
:1026300008460078302837D008460078182833D06C
:10264000084600787A282FD00846007810282BD02A
:1026500008460078382827D0084600785A2823D022
:102660000846007842281FD0084600784A281BD028
:1026700008460078522817D008460078A82813D0BA
:1026800008460078E0280FD00846007822280BD0B2
:1026900008460078022807D008460078982803D01A
:1026A00008460078B0285DD1A6480078012839D1C5
:1026B0000020A5490880FF20A4490870052001F0EA
:1026C00077F972480078E8B99D480078A82807D0C3
:1026D0009B480078E02803D099480078902803D1DF
:1026E00000209B49087003E09548007898490870DD
:1026F000974802F076FD012096490870642002F0A8
:10270000C0F825E08E480078902803D10020904939
:10271000087003E08A4800788D4908708C4802F000
:1027200060FD15E0874800780F2811D184480078B3
:10273000902807D1052001F03BF9814800788449B1
:10274000087005E07E480078C22801D1FFF795FEA9
:102750007B48017880A004F057F97A48017882A07C
:1027600004F052F910BD10B58248007830B172B64D
:1027700001F056FB00207F49087062B610BD10B50D
:1027800040480078002835D03D4880787A498978DB
:1027900088420BD13A48407877494978884205D138
:1027A0007548007810B901206849087067480078BA
:1027B00000280EDD6548007820280ADA6348007892
:1027C000401C624908703148007810B9642002F05A
:1027D00058F85E48007820280CD1FF205B4908702B
:1027E00040216648FEF795FA2848007810B9012084
:1027F0005849087055480078FF2808D1204840788B
:102800005D494978884202D000205049087010BDC7
:1028100010B55948007878B95748407860B956489B
:102820008078082808DD54488078222804DA474850
:10283000007808B901F0CAF810BD10B51348007847
:1028400000280ED14348007820B142480078401C4F
:102850004049087048488078062803DA464840789E
:102860008EE0B8E096E00000466163746F727920F4
:102870005265736574696E672E2E2E0D0A0D0A005F
:102880006A0000204100002078000020380000206D
:1028900098000020AC00002034000020360000200A
:1028A0003D0000200000C842006A180000001040EF
:1028B00052756E54696D653A252E326620486F75E3
:1028C00072200D0A000000004C6967687454696D3D
:1028D000653A252E326620486F7572200D0A000079
:1028E0004C696768744C6576656C3A2564200D0AFE
:1028F000000000005247423A53746174652D25640C
:10290000204D6F64652D25640D0A0000523A256440
:1029100020473A256420423A256420200D0A000011
:10292000416C61726D3A25783A2578205377697445
:1029300063683A25640D0A0D0A00000000E06F404C
:1029400028000020A40000204400002040000020B7
:10295000290000204200002052656D6F74654B65B0
:10296000793A256420000000636E743A2564200DD6
:102970000A0000005000002063000020000C01400D
:10298000A0B9FD48007888B9FC480078401CFB4994
:1029900008700BE0F848007818B1F7480078302844
:1029A00004D1F6480078401CF4490870F3480078D8
:1029B000002806DDF1480078062802DA642001F0DC
:1029C00060FFEE480078062808DB0020EB4908701D
:1029D00001F057FF02E00020E849087010BD10B573
:1029E0000024E7480078002878D0E3488079E5495A
:1029F0008871E14840794871DF4800790871DE4804
:102A000080788870DC484078487000200870DA4888
:102A1000C078C8700020DC4908700420DB490870C9
:102A2000DB48007818B9642001F02BFF012459E03D
:102A3000D84802F0A2FCD8480078A0B30020D649BC
:102A40000870D6480068401CD4490860D048007817
:102A500020B1D3480068401CD1490860CF480068C5
:102A6000B0F5617F07D10020CC490860CD480088CF
:102A7000401CCC490880CA480068B0F5617F07D186
:102A80000020C7490860C8480088401CC649088023
:102A9000B948007808B902F06EFBC448006880F0BD
:102AA0004000C2490860C248007820B102F042FBF1
:102AB0000020BF49087003F02AF8BE490870084694
:102AC000007860B1BC480078012808D1052000F0EA
:102AD0006FFFB8480078AF49087003E028E0002095
:102AE000AC490870A64800780028A1D1012C01D17A
:102AF00001F0C7FEA5480078042816D10002AF49AE
:102B0000086040000860AE488078242803DCAC48A8
:102B100040783C2803DB0020AA49087002E001202D
:102B2000A849087002F0B6FB02E0964800F045FDA7
:102B300010BD2DE9F041A449888AA44903F05CF94D
:102B4000A2480078A249087008460078AA2803D055
:102B5000AA200870FFF791FC9B4908899B4903F064
:102B60004BF99A4800888F49088097490888974907
:102B700003F042F9954800888B49088092494888BB
:102B8000924903F039F991480078814908708E49DB
:102B900088888E4903F030F98C4800788D49087197
:102BA0008949C888894903F027F988480088000ABC
:102BB00083498870854800784870834988888349AC
:102BC00003F01AF981480078824908717E494889E2
:102BD0007E4903F011F97D4800787E4908707A49F2
:102BE00088897A4903F008F978480078794948706B
:102BF0007549C889754903F0FFF87448007875492C
:102C000088707149088A714903F0F6F86F480078B6
:102C10007049C8706C49488A6C4903F0EDF86B48FC
:102C20000078684908706849C88A684903F0E4F880
:102C30006648008803F0DEFC06460022664B03F07F
:102C400054FC044603F00AFD6449086055480088B6
:102C500003F0D0FC06460022614B03F046FC04461C
:102C600022460B465FA003F0CFFE4F48008803F0DA
:102C7000C1FC064600225A4B03F037FC04462246AC
:102C80000B465EA003F0C0FE41480178AFF2B030C1
:102C900003F0BAFE5148006803F0CDFC044622461A
:102CA0000B465CA003F0B0FE4A48C2780179AFF24F
:102CB000BC3003F0A9FE4748837842780178AFF230
:102CC000B43003F0A1FE3E48427881783D48037855
:102CD00055A003F099FEBDE8F0810EB500F094FA1E
:102CE00000F0DEFAFFF798FB02F048FF00F09BFFD0
:102CF00000F030FB00F051FC00F043FE00F0E0FF7C
:102D000002F089FE02F0B2FDFDF737FC03F093F903
:102D1000FFF70FFF01F0D5FD1D48007801F0B1FD70
:102D200001201649087000BF00F06BFEFFF757FE48
:102D3000184802F022FB1848007800281BD0002019
:102D40001549087015480068401C1449086010486F
:102D5000007848B93A480088B0F5616F04DA38481D
:102D60000088401C364908800948007810B9354869
:102D7000008869E069E034E163000020420000203F
:102D8000390000205C0000203A0000203B000020B9
:102D900038000020290000204800002030000020DA
:102DA0002C00002036000020340000200C080140D8
:102DB0005100002028000020A4000020100C014039
:102DC0006A00002041000020AC0000203E000020EE
:102DD0003D000020780000200000594098000020AD
:102DE000000010402052756E54696D6520203A2510
:102DF0002E326620486F7572200D0A004C69676894
:102E00007454696D65203A252E326620486F7572BC
:102E1000200D0A004C69676874436F6520203A25CD
:102E20002E3266200D0A0000416C61726D3A2578E1
:102E30003A2578205377697463683A25640D0A004F
:102E4000440000204000004020B168480068401C59
:102E50006649086066480068B0F5617F09D10020C6
:102E60006349086063480088401C6249088002F09A
:102E700011FA5E480068B0F5617F07D100205B4918
:102E800008605D480088401C5B4908805B4800780A
:102E900008B902F070F900F0CEFE594908605948AF
:102EA00002F09FF9FFF7C9FCFFF7B2FCFFF767FCE0
:102EB0005548006880F04000534908604F48C17889
:102EC00000784E4A5278CDE9002002914B48837831
:102ED000027941794DA003F097FD4948006803F05D
:102EE000AAFB044622460B4651A003F08DFD544830
:102EF000018854A003F088FD5548017855A003F0DF
:102F000083FD5748017857A003F07EFD58480178AB
:102F100058A003F079FD5948017859A003F074FDD9
:102F20005A4801785AA003F06FFD5C4801785CA014
:102F300003F06AFD5D4801795DA003F065FD2B4853
:102F400000683C21B0FBF1F201FB12042748006845
:102F5000B0FBF1F028490988C1EB011108443C217C
:102F6000B0FBF1F201FB120520480068B0FBF1F064
:102F700021490988C1EB011108443C21B0FBF1F65D
:102F800023462A4631464EA003F03EFD184800680D
:102F90003C21B0FBF1F201FB120415480068B0FBC4
:102FA000F1F014490988C1EB011108443C21B0FB40
:102FB000F1F201FB12050E480068B0FBF1F00D497B
:102FC0000988C1EB011108443C21B0FBF1F623460E
:102FD0002A4631463EA003F017FDAFF2B81003F0C9
:102FE00013FDFFF7C0FBFFF706FB9DE62C0000205A
:102FF0003000002036000020340000206300002054
:1030000074000020290000200C080140443A2530BB
:1030100032782D2530327820543A253032783A25CE
:103020003032783A2530327820576B3A25782000B4
:10303000546D703A25332E3166A1E6207C200000C5
:10304000440000204E6264793A25642000000000AC
:10305000380000204C4C766C3A25642000000000BB
:1030600042000020466F734C743A25642000000033
:1030700040000020416C6D3A25642000A50000202E
:10308000526D5264793A2564200000002800002027
:10309000526D6B65793A256420000000A400002081
:1030A000526D436E743A25642000000078000020C1
:1030B0005247427374653A2564207C20000000006A
:1030C0004C543A25643A25643A25642000000000F7
:1030D00052543A25643A25643A25642000000000E1
:1030E000704700BFFEE700BFFEE700BFFEE700BF7E
:1030F000FEE770477047704710B50420FDF704FAEB
:1031000040B1384800F0C1FA012037490870042066
:10311000FDF70BFA10BD10B500F00AF9334800684E
:10312000401C32490860084600683221B0FBF1F2C9
:1031300001FB120010B901202D4908702B480068CE
:103140004FF4FA71B0FBF1F201FB120010B901204B
:1031500028490870254800684FF47A71B0FBF1F2F5
:1031600001FB1200B0F5FA7F03D20120224908705A
:1031700002E00020204908702048007888B31B48EE
:1031800000686421B0FBF1F201FB120048BB1C494E
:10319000087800EBD0714910B0EB410107D1184914
:1031A0000978072903DA01201649087002E0002097
:1031B0001449087012480078072806DB1048007888
:1031C0000D2802DC00200F4908700D4800780A28FD
:1031D00002DB00200A49087009480078401C0849B1
:1031E000087010BD63000020480000204C00002043
:1031F000500000205100002052000020400000201C
:10320000540000205300002008B501210C20FDF7D8
:1032100089FF4020ADF8000010208DF80300032046
:103220008DF8020069461B48FDF7C6FC4FF440606C
:10323000ADF8000010208DF8030003208DF8020087
:1032400069461548FDF7B8FC40211248FDF75FFDBF
:103250004FF440611048FDF75AFD08BD0E480C3090
:10326000006880F480600C490C31086008460068F2
:1032700080F400600860704710B50848007820B1FD
:1032800040210448FDF743FD03E040210148FDF7DC
:1032900040FD10BD00080140000C0140520000201C
:1032A00030B5284800684FF47A72B0FBF2F1B1F102
:1032B000807F01D301201DE021F07F40401E4FF0B0
:1032C000E022506150170F22002807DA13071D0E65
:1032D0001D4B00F00F04241F1D5503E013071C0EA7
:1032E0001A4B1C5400BF00204FF0E02290610720D1
:1032F0001061002008B100BFFEE74FF0E020006938
:1033000040F001004FF0E021086130BD01B51049E7
:10331000009808604FF0E020006940F001004FF095
:10332000E021086100BF0A4800680028FBD108BD01
:103330000748006820B106480068401E044908603C
:10334000704700000000002018ED00E000E400E0FD
:103350005800002000B585B0012144F20400FDF7BB
:10336000E1FE4FF40070ADF8100018208DF8130046
:1033700003208DF8120004A94048FDF71DFC4FF40E
:103380008060ADF8100004208DF8130004A93B48BC
:10339000FDF712FC4FF4E13000900020ADF804007E
:1033A000ADF80600ADF80800ADF80C000C20ADF843
:1033B0000A0069463248FEF76EFE012240F22551AE
:1033C0002F48FEF700FF01212D48FEF7F0FE05B063
:1033D00000BD10B540F225512948FEF7D9FF38B19C
:1033E0002748FEF755FFC4B2214626A003F00CFB88
:1033F00010BD70B504460D46E1B22148FEF744FF0A
:1034000000BF40211E48FEF7ADFF0028F9D020463E
:1034100070BD10B5044600BF20211948FEF7A2FF79
:103420000028F9D01648FEF733FF10BD70B50446EA
:103430000D4629462046FEF727FF00BF40212046C3
:10344000FEF790FF0028F9D070BD2DE9F041074646
:103450000D461646002400BF0CE0295D3846FEF7F5
:1034600013FF00BF40213846FEF77CFF0028F9D04B
:10347000601C84B2B442F0DBBDE8F081000801407A
:103480000038014025630D0A000000000EB501213F
:103490002120FDF747FE0420ADF8080048208DF8F4
:1034A0000B0002A9A748FDF787FB02210320FDF7C7
:1034B00097FC0420009000208DF804000C208DF86B
:1034C000050001208DF806006846FCF7B7FF0EBD29
:1034D00010B5D02000F037FA10BD2DE9F0470646B0
:1034E0000F469046B94600242BE0ECB900F06BF98A
:1034F00000250AE000F04FF9D02000F076F900F046
:10350000C2F900B903E0681C85B2642DF2DB00BF8C
:10351000B5F57A7F00D11BE009F0FF0000F065F9F6
:1035200000F0B1F900B113E0305D00F05EF900F099
:10353000AAF900B10CE009F101001FFA80F9601C42
:1035400084B24445D1DB00F03EF90120BDE8F087AC
:1035500000F039F90020F9E71CB500200190802027
:1035600000900120019001220E2101A8FFF7B5FF74
:10357000012207216846FFF7B0FF012208216846B3
:10358000FFF7ABFF012209216846FFF7A6FF0122E2
:103590000A216846FFF7A1FF1CBD10B501210846AE
:1035A000FDF7C0FD01216848FDF7D5FBFFF790FF4F
:1035B000FFF76CFFFFF7D0FF10BD7CB5044600207D
:1035C00000900190002520788DF8000060788DF83B
:1035D0000100A0788DF80200E0788DF803002079D2
:1035E0008DF8040060798DF80500A0798DF806004B
:1035F0000FE0681CC5B2072200216846FFF76DFF87
:10360000012803D151A003F0FFF904E052A003F018
:10361000FBF9052DEDDB00BF7CBD2DE9F041064631
:103620000F46154600F0B7F8D02000F0DEF800F0A5
:103630002AF900B125E0F8B200F0D7F800F023F93C
:1036400000B11EE000F0A7F8D12000F0CEF800F0A5
:103650001AF900B115E000240CE000F0F3F8305541
:10366000681EA04202D000F02BF901E000F042F900
:10367000601C84B2AC42F0DB00F0A5F80120BDE88C
:10368000F08100F0A0F80020F9E71CB50446002006
:1036900000900190072200216846FFF7BEFF012835
:1036A00015D19DF8000020709DF8010060709DF814
:1036B0000200A0709DF80300E0709DF804002071E6
:1036C0009DF8050060719DF80600A07102E026A03B
:1036D00003F09AF91CBD38B504460122214668461C
:1036E000FFF79BFF9DF8000038BD13B5044601228B
:1036F000214601A8FFF7F1FE012800D11CBD0020E2
:10370000FCE710B586B0142101A802F03CFD0024AE
:103710001322002101A8FFF780FF01280CD100BF70
:1037200007E001A8025D214613A003F06DF9601CBB
:10373000C4B2132CF5DB02E00BA003F065F906B070
:1037400010BD00000014014000023000577269747F
:1037500065204F4B0D0A0000577269746520466161
:10376000696C6564210D0A005265616420666169B7
:103770006C6564210D0A0000526567307825783A3F
:10378000307825780D0A0000002001E0411CC8B205
:103790000A28FBDB704710B510217348FDF7B7FA14
:1037A00008217148FDF7B3FAFFF7EEFF10216E48CC
:1037B000FDF7AFFAFFF7E8FF08216B48FDF7A9FA1C
:1037C000FFF7E2FF10BD10B510216748FDF7A1FA21
:1037D00008216548FDF79BFAFFF7D6FF10216248E4
:1037E000FDF795FAFFF7D0FF10BD70B50446002530
:1037F00023E014F0800F04D010215B48FDF787FA16
:1038000003E010215848FDF784FAFFF7BDFF0821B7
:103810005548FDF77CFAFFF7B7FF08215248FDF73E
:1038200078FA072D03D110214F48FDF770FA600692
:10383000040EFFF7A9FF681CC5B2082DD9DBFFF7FE
:10384000A3FF70BD70B50024002516E06006040ECD
:1038500008214548FDF75BFAFFF796FF1021424823
:10386000FDF73BFA08B1601CC4B208213E48FDF7E1
:1038700050FAFFF789FF681CC5B2082DE6DBFFF799
:1038800083FF204670BD10B510213748FDF73FFA81
:10389000FFF77AFF08213448FDF739FAFFF774FF84
:1038A00010213148FDF719FA08B1012400E0002485
:1038B00008212D48FDF72DFAFFF766FF204610BDC1
:1038C00010B510212848FDF724FAFFF75DFF082105
:1038D0002548FDF71CFAFFF757FF08212248FDF79E
:1038E00018FAFFF751FF10211F48FDF710FAFFF7F4
:1038F0004BFF10BD10B510211B48FDF708FAFFF76C
:1039000043FF08211848FDF702FAFFF73DFF0821A1
:103910001548FDF7FEF9FFF737FF10BD08B5012187
:103920000820FDF7FFFB1820ADF8000003208DF8FC
:10393000020014208DF8030069460B48FDF73CF99E
:10394000FFF741FF08BD70B50446FFF7E7FFFFF73B
:1039500022FF2046FFF749FFFFF795FF0546FFF7D7
:1039600032FF284670BD0000000C0140002105E038
:1039700000E0491C304A9142FBD3401E0028F7D199
:10398000704708B501210820FDF7CCFB4020ADF8B9
:10399000000010208DF8030003208DF80200694616
:1039A0002648FDF709F940212448FDF7B2F908BD82
:1039B00010B5044640212148FDF7A9F92046FFF73C
:1039C000D5FF40211D48FDF7A4F910BD10B54021D9
:1039D0001A48FDF79CF90520FFF7C8FF402117485A
:1039E000FDF797F91648FFF7C1FF40211348FDF78F
:1039F0008EF90520FFF7BAFF40211048FDF789F93D
:103A000010BD10B50F480078002810DD0D48007873
:103A10003E280CDA0C48007820B140210748FDF719
:103A200076F908E040210548FDF773F903E04021ED
:103A30000248FDF76EF910BDFFFF0100000C0140C8
:103A400000350C0040000020530000200146642097
:103A500005E0642001E0421ED0B20028FBD10A003C
:103A6000A1F10103D9B2F4D1704708B501210820B2
:103A7000FDF758FB4FF48070ADF8000010208DF872
:103A8000030003208DF8020069468B48FDF794F887
:103A90004FF480718848FDF73AF908BD08B54FF436
:103AA0008070ADF8000048208DF803006946824818
:103AB000FDF782F808BD08B54FF48070ADF800003E
:103AC00010208DF8030003208DF8020069467A4823
:103AD000FDF772F808BD10B5FFF7EDFF4FF48071E8
:103AE0007548FDF716F94B20FFF7B0FF4FF48071D2
:103AF0007148FDF70CF90220FFF7A8FF10BD10B5C3
:103B00000024FFF7CBFF04E0601CC4B20120FFF7E4
:103B10009DFF4FF480716848FDF7DFF808B1642C11
:103B2000F2DB642C01DB012010BD002404E0601CEA
:103B3000C4B20120FFF78AFF4FF480715E48FDF7A1
:103B4000CCF808B9F02CF2DBF02C01DB0120EBE71C
:103B50000020E9E710B5FFF7AEFF4FF4807156483B
:103B6000FDF7D7F80120FFF771FFFFF797FF4FF43C
:103B700080715148FDF7B1F8012801D1012400E01E
:103B800000240520FFF762FF204610BD70B5002617
:103B9000002408E0FFF7DEFF054605FA04F0304395
:103BA000C6B2601CC4B2082CF4DB304670BD70B5E0
:103BB0000446FFF780FF002526E004F001066410AC
:103BC00086B14FF480713C48FDF7A3F80120FFF760
:103BD0003DFF4FF480713848FDF799F80620FFF754
:103BE00035FF0FE04FF480713348FDF792F807205E
:103BF000FFF72CFF4FF480712F48FDF788F8012064
:103C0000FFF724FF681CC5B2082DD6DB70BD10B5C8
:103C1000FFF761FFFFF773FFCC20FFF7C8FF4420D9
:103C2000FFF7C5FF10BD10B5FFF71FFFFFF753FFEC
:103C3000FFF765FF10BD2DE9F05FFFF74CFFFFF7C1
:103C40005EFFCC20FFF7B3FF4420FFF7B0FFFFF784
:103C500042FFFFF754FFCC20FFF7A9FFBE20FFF77C
:103C6000A6FFFFF793FF8346FFF790FF82464FEAD8
:103C70000A2004B244EA0B04002C0DDAE043401C95
:103C800002F0A7FC074600220C4B02F0BCFB0546E5
:103C900002F0E4FC81460BE0204602F09AFC074665
:103CA0000022064B02F0AFFB054602F0D7FC81462E
:103CB0004846BDE8F09F0000000C01400000B03F06
:103CC00008B501210820FDF72DFA0120ADF800000C
:103CD00010208DF8030003208DF802006946FB4890
:103CE000FCF76AFF08BD0120F8491031086000BFE9
:103CF00000BF00BF00BF00BF00BF00BF00BF00BFCC
:103D000000BF00BF00BF00BF00BF00BF00BF00BFBB
:103D100000BF00BF00BF0120EC491431086000BFA4
:103D200000BF00BF00BF00BF00BF00BF00BF00BF9B
:103D300000BF00BF00BF00BF00BF00BF00BF00BF8B
:103D400000BF00BF00BF00BF00BF00BF00BF00BF7B
:103D500000BF00BF00BF00BF00BF00BF00BF00BF6B
:103D600000BF00BF00BF00BF00BF70470120D749A0
:103D70001031086000BF00BF00BF00BF00BF00BF20
:103D800000BF00BF00BF00BF00BF00BF00BF00BF3B
:103D900000BF00BF00BF00BF00BF00BF00BF00BF2B
:103DA00000BF00BF00BF00BF00BF00BF00BF00BF1B
:103DB00000BF00BF00BF00BF00BF00BF00BF00BF0B
:103DC0000120C2491431086000BF00BF00BF00BF1E
:103DD00000BF704700B50346002200BF0AE0802004
:103DE0001041184202D0FFF7C1FF01E0FFF77BFF4F
:103DF000501CC2B2082AF2DB00BD30B500250CE031
:103E0000002407E005EB4501B14A1144085DFFF7C6
:103E1000E1FF641C032CF5D36D1C042DF0D330BDE1
:103E20002DE9FC5F4FF000090024AA480078AA4958
:103E3000097888420BD1A7484078A8490978884278
:103E400005D1A4488078A6490978884216D0A148AF
:103E50000078A14908709F484078A04908709D48A3
:103E600080789F49087000209E4908609E4908603C
:103E70009E4908609E4908609E49087095480079EF
:103E800000287DD19348C07800287AD198480068EE
:103E900002F0D1FBCDE9000103F058FD05460E46C6
:103EA0008D48007802F090FB0090934801680098DC
:103EB00002F0CCF9019002F0BEFB07462A463346D9
:103EC00002F0A1FA824602F0C9FB864908608848E0
:103ED000006802F0B0FB824603F038FD05460E464E
:103EE0007E48007802F070FB83468348016858469C
:103EF00002F0ACF9824602F09EFB07462A463346A2
:103F000002F081FACDE9000102F0A8FB76490860D1
:103F10007748006802F08FFB074603F017FD05465F
:103F20000E466F48007802F04FFB804672480168E9
:103F3000404602F08BF9074602F07DFB82462A4696
:103F4000334602F060FACDE9000102F087FB6749D1
:103F5000086000216348006802F09CFB05D26148BC
:103F6000006880F000405F49086000215E480068FA
:103F700002F090FB08D25C48006880F0004001E04D
:103F8000F0E01BE05849086000215848006802F042
:103F900081FB05D25548006880F000405349086015
:103FA0005348006802F047FB0546544A544B02F060
:103FB00083F9074602F052FB4D4908604548C07836
:103FC00001287DD14B48007807287AD2DFE800F03D
:103FD000041E384C669CB6004FF081414148006891
:103FE00002F0DCF83F49086043480168454802F0A8
:103FF0002DF905463B480168284602F04BFB04D2E8
:104000003C480078401C3B490870AAE04FF08141D1
:104010003548006802F0C2F8334908603648016844
:10402000384802F013F905462F480168284602F087
:1040300031FB04D22F480078401C2E49087090E0D4
:104040004FF081412748006802F0FAF825490860DE
:1040500000212448006802F01DFB04D125480078A7
:10406000401C244908707CE04FF081411F480068E3
:1040700002F094F81D4908601F480168214802F0C9
:10408000E5F8054619480168284602F003FB04D20A
:1040900018480078401C1749087062E04FF08141D1
:1040A0001148006802F0CCF80F49086000210E4862
:1040B000006802F0EFFA07D10E480078401C01E0DA
:1040C00066E04DE00B4908704BE00000000C014039
:1040D0002C010020780000208C0000208D000020A2
:1040E0008E00002080000020840000208800002036
:1040F000900000208F00002098000020B81E85EB63
:1041000051B89E3F00007A434FF0814165480068F6
:1041100002F044F86349086063480168634802F0AC
:1041200095F805465F480168284602F0B3FA04D2C4
:104130005F480078401C5E49087012E04FF08141F2
:104140005C48006802F07CF85A4908600021594830
:10415000006802F09FFA02D101205549087000E082
:1041600000BF15E054480079012811D15249087860
:1041700002F02AFA4B4908604F49487802F024FAC5
:104180004E4908604C49887802F01EFA4949086097
:104190004FF000092EE0002426E024B1012C0CD0C1
:1041A000022C1ED113E04548006802F030FA09EBFA
:1041B0004901434A1144085513E03A48006802F0A7
:1041C00026FA09EB49013E4A1144085509E03948ED
:1041D000006802F01CFA09EB4901394A11440855FC
:1041E00000BF00BF601CC4B2032CD6DB09F1010084
:1041F00000F0FF09B9F1040FCDDB2F480079022848
:104200000ED02D48007828B92B48407810B92A489C
:10421000807828B100212448006802F03BFA04D1DC
:1042200027480021016041608160FFF7E6FDBDE89D
:10423000FC9F2DE9F04106460F46904600250024DC
:1042400072B61F480021016041608160002521E0B5
:1042500000241BE024B1012C08D0022C13D10BE068
:1042600005EB45001649084407550CE005EB4500F1
:1042700013490844065506E005EB4500104908447B
:1042800000F8048000BF00BF601CC4B2032CE1DB57
:10429000681CC5B2042DDBDBFFF7AFFD62B6BDE8DD
:1042A000F0810000800000209800002000007A4388
:1042B0008F0000208800002078000020840000206B
:1042C0002C0100200021002005E000E0491CF84AF4
:1042D0009142FBD3401C0328F7D3704730B5044606
:1042E00000BF631C03EB830301EB4303D8B2631CE1
:1042F00003EB83035B000A2B06D0142B71D01E2B1B
:1043000070D0282B6FD1EFE1A0F10A050A2D14D24D
:10431000DFE805F00514233241505F71808F32B120
:10432000E44B1B7943F08003E24D2B7105E0E14B38
:104330001B7923F08003DF4D2B7189E032B1DD4B17
:104340001B7943F04003DB4D2B7105E0D94B1B7902
:1043500023F04003D74D2B717AE032B1D54B1B7956
:1043600043F02003D34D2B7105E0D24B1B7923F092
:104370002003D04D2B716BE032B1CE4B1B7943F053
:104380001003CC4D2B7105E0CA4B1B7923F01003B1
:10439000C84D2B715CE032B1C64B1B7943F008036A
:1043A000C44D2B7105E0C34B1B7923F00803C14DAD
:1043B0002B714DE032B1BF4B1B7943F00403BD4D6F
:1043C0002B7105E0BB4B1B7923F00403B94D2B7116
:1043D0003EE04AB1B74B1B7943F00203B54D2B7158
:1043E00008E037E0D9E022E2B24B1B7923F0020368
:1043F000B04D2B712CE032B1AE4B1B7943F0010371
:10440000AC4D2B7105E0AB4B1B7923F00103A94D9B
:104410002B711DE032B1A74BDB7843F08003A54D33
:10442000EB7005E0A34BDB7823F08003A14DEB702C
:104430000EE032B19F4BDB7843F040039D4DEB70B3
:1044400005E09C4BDB7823F040039A4DEB7000BFF6
:1044500000BFEDE1A0F114050A2D14D2DFE805F04C
:104460000514233241505F6E7D8C32B1914BDB7865
:1044700043F020038F4DEB7005E08E4BDB7823F08B
:1044800020038C4DEB7086E032B18A4BDB7843F031
:104490001003884DEB7005E0864BDB7823F01003AA
:1044A000844DEB7077E032B1824BDB7843F0080348
:1044B000804DEB7005E07F4BDB7823F008037D4DEA
:1044C000EB7068E032B17B4BDB7843F00403794D4D
:1044D000EB7005E0774BDB7823F00403754DEB7050
:1044E00059E032B1734BDB7843F00203714DEB704E
:1044F00005E0704BDB7823F002036E4DEB704AE071
:1045000032B16C4BDB7843F001036A4DEB7005E090
:10451000684BDB7823F00103664DEB703BE032B172
:10452000644B9B7843F08003624DAB7005E0614BB8
:104530009B7823F080035F4DAB702CE032B15D4B74
:104540009B7843F040035B4DAB7005E0594B9B7883
:1045500023F04003574DAB701DE032B1554B9B78B3
:1045600043F02003534DAB7005E0524B9B7823F092
:104570002003504DAB700EE032B14E4B9B7843F0B0
:1045800010034C4DAB7005E04A4B9B7823F01003B1
:10459000484DAB7000BF00BF4AE1A0F11E050A2DD7
:1045A00014D2DFE805F00514233241505F6E7D9090
:1045B00032B1404B9B7843F008033E4DAB7005E0B1
:1045C0003C4B9B7823F008033A4DAB708AE032B144
:1045D000384B9B7843F00403364DAB7005E0354B08
:1045E0009B7823F00403334DAB707BE032B1314B49
:1045F0009B7843F002032F4DAB7005E02D4B9B7869
:1046000023F002032B4DAB706CE032B1294B9B7849
:1046100043F00103274DAB7005E0264B9B7823F058
:104620000103244DAB705DE032B1224B5B7843F067
:104630008003204D6B7005E01E4B5B7823F08003F8
:104640001C4D6B704EE032B11A4B5B7843F0400367
:10465000184D6B7005E0174B5B7823F04003154D48
:104660006B703FE032B1134B5B7843F02003114D88
:104670006B7005E00F4B5B7823F020030D4D6B70E2
:1046800030E032B10B4B5B7843F01003094D6B7097
:1046900005E0084B5B7823F01003064D6B7021E0BA
:1046A00052B1044B5B7843F00803024D6B7009E094
:1046B000FFFF0F00A6000020F84B5B7823F00803F3
:1046C000F64D6B700EE032B1F44B5B7843F00403AF
:1046D000F24D6B7005E0F14B5B7823F00403EF4D76
:1046E0006B7000BF00BFA3E0A0F128050A2D14D213
:1046F000DFE805F00514233241505F6E7D8C32B146
:10470000E64B5B7843F00203E44D6B7005E0E34B4E
:104710005B7823F00203E14D6B7086E032B1DF4B32
:104720005B7843F00103DD4D6B7005E0DB4B5B789C
:1047300023F00103D94D6B7077E032B1D74B1B7872
:1047400043F08003D54D2B7005E0D44B1B7823F04C
:104750008003D24D2B7068E032B1D04B1B7843F010
:104760004003CE4D2B7005E0CC4B1B7823F040036B
:10477000CA4D2B7059E032B1C84B1B7843F020036F
:10478000C64D2B7005E0C54B1B7823F02003C34DAD
:104790002B704AE032B1C14B1B7843F01003BF4D80
:1047A0002B7005E0BD4B1B7823F01003BB4D2B7025
:1047B0003BE032B1B94B1B7843F00803B74D2B7087
:1047C00005E0B64B1B7823F00803B44D2B702CE0AA
:1047D00032B1B24B1B7843F00403B04D2B7005E0AF
:1047E000AE4B1B7823F00403AC4D2B701DE032B1AF
:1047F000AA4B1B7843F00203A84D2B7005E0A74B92
:104800001B7823F00203A54D2B700EE032B1A34BB1
:104810001B7843F00103A14D2B7005E09F4B1B78E3
:1048200023F001039D4D2B7000BF00BF00E000BFCF
:1048300000BF30BD70B50646002410E000250AE038
:1048400004EB840006EB4000425D29462046FFF75A
:1048500045FD681CC5B20A2DF2DB601CC4B2042CF5
:10486000ECDB70BD10B505218C4801F004FA10BDD9
:10487000002000BF00E0401C42F210718842FAD3D1
:10488000704770B50546002485480088C6B2B54219
:104890000ADB344605E082480480FFF7E9FF601C2C
:1048A000C4B2AC42F7DB0BE0344605E07C48048040
:1048B000FFF7DEFF601EC4B2AC42F7DC784804802C
:1048C00070BD70B5002472B6764800210160416069
:1048D0008160FFF792FA62B66420FFF7D2FF19E019
:1048E0002821714801F04FFC002508E0012005EB6C
:1048F00085016D4A02EB41010855681CC5B2042DC3
:10490000F4DB6948FFF796FFFFF7ACFFFFF7DAFC2F
:10491000601CC4B20A2CE3DB70BD10B528216248CC
:1049200001F031FC0120614989785F4A02EB2111D5
:10493000087001215D48807800F00F025A480A3063
:1049400081545A4842785848143000EB22100170C4
:104950005648407800F00F0253481E3081541E38EC
:10496000FFF768FFFFF77EFF5148007810B9514804
:10497000007810B1FEF772FC05E04FF480604E49FC
:1049800008604000086010BD10B52821464801F0BD
:10499000FAFB012045494979434A02EB211108708D
:1049A00001214248407900F00F023F480A3081540B
:1049B0003E4802793C48143000EB221001703B481D
:1049C000007900F00F0238481E30815488023A49BD
:1049D00008604000091F08603348FFF72BFFFFF70E
:1049E00041FF10BD10B528212F4801F0CCFB01215B
:1049F0002E48C2782C48143000EB221001702B484E
:104A0000C07800F00F0228481E30815488022A49DD
:104A1000091F08604000091D08602348FFF70AFFCE
:104A2000FFF720FF10BD10B528211F4801F0ABFB98
:104A30002248006801F0EBFDC0B20A2190FBF1F1C1
:104A400019481430012242541C48006801F0DFFD6F
:104A5000C0B20A2190FBF1F201FB120112481E3094
:104A60000122425490021449091F08604000086066
:104A70000D48FFF7DFFEFFF7F5FE10BD10B510483B
:104A80000078FF2878D00F480078E8B101282ED0B0
:104A9000022844D0032862D154E00000A600002080
:104AA000400000402C01002038010020630000205D
:104AB0003800002042000020140C01407400002047
:104AC0003C0000203A000020FA480078022802DD6D
:104AD0000020F8490870F7480178F748807861F3BA
:104AE0001F10F5498870FF20F249087038E0F2483D
:104AF0008078202806DBEF480078042802DD0420B7
:104B0000EC490870EC48807800F0F000E949097839
:104B10000843E9498870FF20E649087020E0E5482D
:104B20000078062802DD0020E2490870E14801789B
:104B3000E148407861F31F10DF494870FF20DD49EC
:104B400008700DE0DC48407800F0F000D9490978A1
:104B50000843D9494870FF20D649087000E000BFDB
:104B600000BFD6480078401CD44908700846007839
:104B7000042801DB002008702821D14801F003FB44
:104B80000120CD498978CE4A02EB2111087001211C
:104B9000C948807800F00F02C9480A308154C648DD
:104BA0004278C748143000EB22100170C2484078A8
:104BB00000F00F02C2481E308154C248007870B322
:104BC000BE48007830B101280CD0022813D0032849
:104BD00023D119E00020B8498978B94A02EB2111A4
:104BE00008701BE00021B448807800F00F02B44840
:104BF0000A30815412E00021AF484278B0481430A6
:104C000000EB2210017009E00021AB48407800F071
:104C10000F02AB481E30815400E000BF00BFA8481F
:104C2000FFF708FEFFF71EFEA748007858B1A64818
:104C30000078C043A44908704FF48060A34908601D
:104C4000400008600BE0A0480078C0439E4908700F
:104C50004FF480609D49091D08604000086010BD48
:104C600010B594480078FF2861D09448007830B19E
:104C7000012817D0022822D003284BD132E08D48DA
:104C80000078022802DD00208A49087089480178EE
:104C90008948407961F31F1087494871FF20854991
:104CA000087038E08448407900F0F00081490978C4
:104CB000084381494871FF207E4908702BE07D48F8
:104CC0000078032802DD00207A49087079480178CD
:104CD0007948007961F31F1077490871FF20754901
:104CE000087018E074480079302806DB71480078B5
:104CF000012802DD00206F4908706F48007900F03C
:104D0000F0006C49097808436B490871FF20694934
:104D1000087000E000BF00BF68480078401C674989
:104D2000087008460078042801DB0020087028215C
:104D3000634801F028FA01205F494979604A02EB93
:104D40002111087001215C48407900F00F025C4895
:104D50000A308154584802795948143000EB221027
:104D600001705548007900F00F0255481E308154FB
:104D70005448007870B35148007830B101280CD005
:104D8000022813D0032823D119E000204A49497989
:104D90004B4A02EB211108701BE000214648407984
:104DA00000F00F0246480A30815412E000214248C8
:104DB00002794348143000EB2210017009E0002111
:104DC0003D48007900F00F023D481E30815400E05C
:104DD00000BF00BF3A48FFF72DFDFFF743FD4FF43A
:104DE00080603A4908604000086010BD10B5334843
:104DF0000078032802DA0320304908702D48007833
:104E0000FF282BD02D48007803281AD12948007894
:104E1000072802DD0120274908702648007801286C
:104E200002DA0120234908702348C07800F0F0001E
:104E30002049097808432049C870FF201D4908709F
:104E400000E000BF00BF1D480078401C1B490870EF
:104E500008460078042801DB002008702821184843
:104E600001F091F901211448C07800F00F021448B4
:104E70001E3081541348007870B110480078032820
:104E800008D100210C48C07800F00F020C481E30F9
:104E9000815400E000BF00BF0948FFF7CBFCFFF7DB
:104EA000E1FC4FF480600949091D0860400008607A
:104EB00010BD00003C0000205C0000203A000020F3
:104EC00038010020940000209C000020100C0140BC
:104ED00010B5FE480078022802DA0220FB4908706B
:104EE000FB480078FF282CD0F8480078022802D030
:104EF000032819D10BE0F6480178F648807961F370
:104F00001F10F4498871FF20F14908700DE0F14845
:104F1000807900F0F000EE4909780843ED49887186
:104F2000FF20EB49087000E000BF00BFE7480078B1
:104F3000401CE649087008460078042801DB002080
:104F400008702821E44801F01EF90120E249887028
:104F500088720121DF488279DF48143000EB22108B
:104F60000170DC48807900F00F02DB481E3081546C
:104F7000DA480078D0B1D5480078022802D003285A
:104F800012D108E00021D3488279D348143000EBD5
:104F90002210017009E00021CE48807900F00F0254
:104FA000CD481E30815400E000BF00BFCA48FFF763
:104FB00041FCFFF757FC4FF48060C949086040008E
:104FC000086010BD10B5C2480078FF2848D0BF481F
:104FD000007830B1012810D002281BD0032832D12C
:104FE00024E0BB480178BF48807861F31F10BD49B9
:104FF0008870FF20B649087026E0BA48807800F033
:10500000F000B34909780843B6498870FF20B049D9
:10501000087019E0AE480178B248407861F31F107B
:10502000B0494870FF20AA4908700DE0AD484078AB
:1050300000F0F000A64909780843AA494870FF200B
:10504000A349087000E000BF00BFA0480078401CE2
:105050009E49087008460078042801DB002008708B
:1050600028219D4801F08FF801209E4989789A4AAD
:1050700002EB2111087001219A48807800F00F029C
:1050800095480A308154974842789348143000EB91
:10509000221001709348407800F00F028E481E30B5
:1050A00081548E480078B8B38848007830B1012820
:1050B0000CD0022813D0032823D119E000208949FD
:1050C0008978854A02EB211108701BE00021854890
:1050D000807800F00F0280480A30815412E00021ED
:1050E000804842787C48143000EB2210017009E0BF
:1050F00000217C48407800F00F0277481E30815430
:1051000000E000BF00BF4FF480607549091F0860D0
:105110004000091D086007E0FFE74FF48060704918
:1051200008604000091F08606B48FFF783FBFFF72A
:1051300099FB10BD10B56C480078052813D2DFE844
:1051400000F00306090C0F00FFF798FC0CE0FFF7D6
:1051500087FD09E0FFF74AFE06E0FFF7B9FE03E02E
:10516000FFF730FF00E000BF00BF5C480078C0439D
:105170005A49087010BD10B58AB00024282168462D
:1051800001F001F80120594A12780DF802000121BE
:105190000DF10A00554A1278815405A8534A127835
:1051A00081540A30514A127881545048017800786D
:1051B000401C4E4A10700A2902D100201146087086
:1051C0006846FFF737FBFFF74DFB002400E0641C47
:1051D000052CFCD34048FFF72DFBFFF743FB0AB03B
:1051E00010BD10B50446207830B1622807D0A2283F
:1051F0001DD0E2284BD132E0FFF78FFB48E0FFF7EC
:1052000012FC3B480078401C394908700846007879
:1052100004280BDB002008704FF4806030490860E0
:105220004000086000202070FFF777FB30E0FFF7B8
:10523000ABFB2F480078401C2D49087008460078C9
:1052400004280BDB002008704FF4806024490860BC
:105250004000086000202070FFF75FFB18E0FFF7B8
:10526000C1FB23480078401C21490870084600789B
:1052700004280BDB002008704FF480601849086098
:105280004000086000202070FFF747FB00E000BFEF
:1052900000BF10BD70B5174908881749098800F08C
:1052A00051FF144948881549097800F04BFF144A0A
:1052B0001179104A908800F045FF0A4A5278094B4C
:1052C0009B7842EA03210B4AD0881BE03A00002079
:1052D0003C0000205C0000203801002094000020E9
:1052E000140C01406A0000203B0000209D000020BB
:1052F0009E000020AC000020340000203800002078
:105300007800002000F01EFFF9490889F949098852
:1053100000F018FFF84A1178F54A508900F012FFA2
:10532000F54A5178F24A908900F00CFFF24A9178E0
:10533000EF4AD08900F006FFEF4AD178EC4A108A94
:1053400000F000FFEA49488AEC49097800F0FAFECB
:10535000E749888AEA49097800F0F4FEE949EA4811
:10536000006800F073FF054601F051F984B2E0498E
:10537000C88A214600F0E6FE70BD2DE9FF410446D3
:10538000E248007800287DD1207852287BD00FDCBD
:10539000302879D005DCE0B1102876D0182875D1F6
:1053A000C6E0382873D0422872D04A28F7D12EE1BF
:1053B00090286ED006DC5A286CD068287DD07A28D8
:1053C000EDD1C8E0A8281FD0C22803D0E028E6D13C
:1053D00041E052E100202070CD48007818B96420E7
:1053E000CB49087004E00020C9490870C949087019
:1053F000C7480078FFF745FAC5480178C6A001F014
:1054000003FBFFF747FF38E100202070C048007819
:105410003230BF49087008460078C82801DD3220C4
:105420000870BB480178BCA001F0EEFAB8480078DB
:10543000FFF727FAB648007801F0DCF805460022AD
:10544000B94B01F052F8074601F008F9AE4908607F
:10545000FFF720FF11E100202070AD4800783238BE
:10546000AB49087008460078322801DAC820087075
:10547000A7480178A8A001F0C7FAA5480078FFF76F
:1054800000FA09E0FAE0D4E040E076E0E9E086E006
:10549000A9E0E0E095E010E09D48007801F0AAF86E
:1054A00005460022A04B01F020F8074601F0D6F88F
:1054B00095490860FFF7EEFEDFE0002020708E487F
:1054C0000079401C8C49087108460079032801DBEB
:1054D0000020087188480079012811D1934800689C
:1054E00001F095F8844908709148006801F08FF840
:1054F000814948708F48006801F089F87E498870BA
:105500007D48007908B9FFF7C5FEB6E0002020709D
:10551000FF2079490870002048708870C8700846DC
:105520000079012801D100200871FFF7B3FEA4E043
:1055300000202070FF20704908709C2048700020D7
:105540008870C87008460079012801D100200871D0
:10555000FFF7A0FE91E000202070FF206649087050
:10556000487000208870C87008460079012801D171
:1055700000200871FFF78EFE7FE0002020705E495A
:105580000870FF20487000208870C87008460079B5
:10559000012801D100200871FFF77CFE6DE000209A
:1055A000207055490870FF20487088700020C8702E
:1055B00008460079012801D100200871FFF76AFE32
:1055C0005BE0002020704C4908704870FF20887014
:1055D0000020C87008460079012801D10020087118
:1055E000FFF758FE49E000202070FF204249087074
:1055F00000204870FF2088700020C870084600799D
:10560000012801D100200871FFF744FE35E0002099
:105610002070FF2038490870487088700020C870DA
:1056200008460079012801D100200871FFF732FEF9
:1056300023E000202070FF202F49087048708870F8
:105640000120C87008460079012801D100200871A6
:10565000FFF720FE11E00020207001202B49087088
:105660000BE02078622807D02078A22804D0207888
:10567000E22801D00020207000BFF5E020786228E9
:105680005AD013DC382878D007DC10B3102875D036
:10569000182874D0302873D18EE0422871D04A285F
:1056A00070D052286FD05A28F5D1A3E0A8286BD02B
:1056B00008DC68287BD07A2868D0902867D0A22898
:1056C000E9D14CE0C22805D0E0286FD0E228E2D131
:1056D0005EE0C8E0002020700D48007810B964201A
:1056E0000B4908700A480078FFF7CBF8BBE00000D0
:1056F000AC0000203600002078000020410000208F
:105700003D0000200000C842980000203900002021
:1057100038000020420000204C696768744C6576B0
:10572000656C3A25640D0A00000069408000002085
:105730008400002088000020002020706F4800783E
:10574000401C6E49087008460078052801DB0020DF
:1057500008706A4801786AA001F056F983E00020D9
:1057600020706A480078401E684908700846007832
:10577000FF2801D10320087075E035E02EE021E01C
:105780006EE03DE042E047E04CE010E020E04FE01A
:10579000002020705D480078401C5C490870084675
:1057A0000078042801D1002008705CE03DE0002072
:1057B00020705749087056E000202070012054499D
:1057C000087050E0002020700220514908704AE023
:1057D0000020207003204E49087044E00020207013
:1057E00004204B4908703EE0002020700520484905
:1057F000087038E00020207006204549087032E02B
:10580000002020700720424908702CE00020207002
:1058100008203F49087026E00020207009203C49FC
:10582000087020E0002020701DE0002020701AE0A9
:10583000002020703748C1780078364A5278354BBE
:105840009B78CDE90032CDE90201324803794279F3
:10585000817931A001F0D8F800203D49087002E0BC
:105860000020207000BF00BFBDE8FF8100B587B0F9
:1058700001210420FBF756FC0820ADF81800182081
:105880008DF81B0003208DF81A0006A93148FBF79C
:1058900093F901210846FBF752FCFF20ADF81400F4
:1058A00040F2CF70ADF810000020ADF81600ADF852
:1058B000120004A94FF08040FBF770FD6020ADF8A6
:1058C00000000120ADF802006420ADF806000220BF
:1058D000ADF8080069464007FBF777FE0821C806C7
:1058E000FCF707FA01218807FCF7B4F901218807C2
:1058F000FCF7B0F807B000BD704700003B00002087
:10590000747970653A25640D0A0000003A000020A1
:105910003C0000205C0000205345543A0D0A20440E
:10592000743A3230253032782D253032782D2532B8
:105930007820546D3A253032783A253032783A253D
:105940003032782020576B3A2532780D0A0000005B
:1059500039000020000801405AE000BF00BF00BF2E
:1059600000BF00BF00BF00BF00BF00BF00BF00BF3F
:1059700000BF00BF00BF00BF00BF00BF00BF00BF2F
:1059800000BF00BF00BF00BF00BF00BF00BF00BF1F
:1059900000BF00BF00BF00BF00BF00BF00BF00BF0F
:1059A00000BF00BF00BF00BF00BF00BF00BF00BFFF
:1059B00000BF00BF00BF00BF00BF00BF00BF00BFEF
:1059C00000BF00BF00BF00BF00BF00BF00BF00BFDF
:1059D00000BF00BF00BF00BF00BF00BF00BF00BFCF
:1059E00000BF00BF00BF00BF00BF00BF00BF00BFBF
:1059F00000BF00BF00BF00BF00BF00BF00BF00BFAF
:105A000000BF00BF00BF00BF00BF00BF411EC8B243
:105A10000028A2DC70470EB501210920FBF782FBAC
:105A20008020ADF8080048208DF80B0003208DF889
:105A30000A0002A94648FBF7BFF807210120FBF73F
:105A4000CFF98020009000208DF804000C208DF804
:105A5000050001208DF806006846FAF7EFFC0EBD40
:105A600000B5002208E0501CC2B20F20FFF774FFFF
:105A7000FA2A01D1104600BD364800680028F2D14C
:105A80001046F8E770B50024002500268020FAF7BC
:105A90003BFD00283AD034E02E480068002830D082
:105AA000FFF7DEFF0446FA2C00D12BE0C82C03DB05
:105AB000FA2C01DA012517E0552C0ADBC82C08DA8C
:105AC00001202549087025480078401C23490870AA
:105AD00018E0322C03DB552C01DA012604E00A2CF5
