:020000040800F2
:100000006009002045010008113100081331000883
:10001000173100081B3100081F31000800000000E4
:100020000000000000000000000000002331000874
:100030002531000800000000273100084731000882
:100040005F0100085F0100085F0100085F01000810
:100050005F0100085F0100085F0100085F01000800
:10006000293100085F0100085F0100085F010008F6
:100070005F0100085F0100085F0100085F010008E0
:100080005F0100085F0100085F0100085F010008D0
:100090005F0100085F0100085F0100087D5D000846
:1000A0005F0100085F0100085F0100085F010008B0
:1000B0005F0100085F0100085F0100085F010008A0
:1000C0005F0100085F0100085F0100085F01000890
:1000D0005F010008033400085F0100085F010008A9
:1000E0005F0100085F0100085F0100085F01000870
:1000F0005F0100085F0100085F0100085F01000860
:100100005F0100085F0100085F0100085F0100084F
:100110005F0100085F0100085F0100085F0100083F
:100120005F0100085F0100085F0100085F0100082F
:10013000DFF80CD006F07CFD00480047072D0008D2
:10014000600900200648804706480047FEE7FEE7B2
:10015000FEE7FEE7FEE7FEE7FEE7FEE7FEE7FEE777
:1001600045020008310100080CB500200190009004
:100170006B48006840F480306949086000BF6848F7
:10018000006800F4003000900198401C0190009835
:1001900018B90198B0F5A06FF1D16148006810F46A
:1001A000003F02D00120009001E000200090009864
:1001B000012842D15B48006840F0100059490860AE
:1001C0000846006820F0030008600846006840F018
:1001D000020008605248406851494860084640683B
:1001E00048600846406840F48060486008464068BF
:1001F00020F47C1048600846406840F4E8104860ED
:100200000846006840F08070086000BF44480068FD
:1002100010F0007FFAD04248406820F003004049C7
:1002200048600846406840F00200486000BF3C4813
:10023000406800F00C000828F9D10CBD10B5FFF79C
:1002400093FF10BD10B53648006840F001003449F6
:10025000086008464068344908403149486008460B
:100260000068324908402E4908600846006820F4BA
:10027000802008600846406820F4FE0048604FF483
:100280001F008860FFF7DAFF4FF000602849086020
:1002900010BD10B5002100200022214B5B6803F047
:1002A0000C0121B1042906D0082928D107E0214BEF
:1002B000214C236027E01F4B1F4C236023E0184B89
:1002C0005B6803F47010164B5B6803F48032022302
:1002D00003EB904022B9194B4343174C23600DE0C8
:1002E0000F4B5B6813F4003F04D0144B4343124C94
:1002F000236003E00F4B43430F4C236003E00D4B9F
:100300000D4C236000BF00BF054B5B68C3F30313B4
:100310000B4CE15C084B1B68CB40074C236010BDC5
:1003200000100240002002400000FFF8FFFFF6FE30
:1003300008ED00E000127A000000002000093D00F6
:100340000400002031490143314A1160704770B503
:10035000002100230F22C4780CB32D4C246804F430
:10036000E064C4F5E064210AC1F10403CA404478A2
:1003700004FA03F18478144021430901254C0678DE
:10038000A155047804F01F050124AC4005786D11D7
:100390004FF0E02606EB8505C5F8004109E004783A
:1003A00004F01F050124AC401B4D0678761145F87A
:1003B000264070BD194A0A400243154B1B1F1A60A4
:1003C000704739B1124A121D12680243104B1B1DAF
:1003D0001A6006E00E4A121D126882430C4B1B1D68
:1003E0001A607047042808D14FF0E021096941F0F4
:1003F00004014FF0E022116107E04FF0E0210969AC
:1004000021F004014FF0E022116170470000FA056D
:100410000CED00E000E400E080E100E080FFFF1F61
:10042000002044490860091D0860091D0860091D75
:10043000086041483F4914310860704700213D4938
:100440008279002A3AD00A46126803689A430B461A
:100450001A600A1D126803689A430B1D1A6002791C
:1004600011440A6803681A430A60324A0832126863
:1004700003689A432F4B08331A601A1D12680368E9
:100480009A432C4B0C331A604279102A0ED11A1F52
:10049000126803681A43274B08331A601A1D126842
:1004A00003681A43234B0C331A600DE0214942794B
:1004B00011440A6803681A430A6005E0027911448E
:1004C0000A6803689A430A6070470021016001715D
:1004D0000C21417100218171704716491031096862
:1004E0000143144A10321160704701460020114A3E
:1004F000143212680A4201D0012000E00020704747
:100500000C49143108607047014600200022094B55
:100510001B6803EA0102074B14331B680B4202D02D
:100520000AB1012000E00020704702491431086040
:100530007047000000040140FFFF0F00014600204B
:10054000FE4A106800F03800084310607047FB490D
:10055000096821F00801F94A116011460968014350
:1005600011607047F549096821F01001F34A1160E4
:1005700011460968014311607047F148EF4948602E
:10058000F04848607047EE48EC494860ED484860E4
:100590007047EA48006940F08000E8490861704708
:1005A000E648006940F08000E44908617047042093
:1005B000E249C96811F0010F01D001200EE0DF49C6
:1005C000C96811F0040F01D0022007E0DB49C968B7
:1005D00011F0100F01D0032000E00420704700B597
:1005E00002460423FFF7E3FF034603E0FFF7DFFFC4
:1005F0000346521E012B01D1002AF7D102B905236F
:10060000184600BD30B5044604254FF43020FFF7EE
:10061000E6FF0546042D17D1C848006940F00200E6
:10062000C649086108464461006940F0400008611D
:100630004FF43020FFF7D3FF0546C048006941F66C
:10064000FD710840BD490861284630BD10B504243D
:100650004FF43020FFF7C3FF0446042C16D1B748EF
:10066000006940F00400B54908610846006940F09F
:10067000400008614FF43020FFF7B1FF0446AF4857
:10068000006941F6FB710840AC490861204610BD85
:1006900000B502460423FFF78AFF034603E0FFF795
:1006A00086FF0346521E012B01D1002AF7D102B961
:1006B0000523184600BD10B504244FF43020FFF781
:1006C000E7FF0446042C16D19C48006940F0040062
:1006D0009A4908610846006940F0400008614FF4FB
:1006E0003020FFF7D5FF04469448006941F6FB71BE
:1006F000084092490861204610BD00208F49C96911
:1007000011F0020F01D0012000E00020704730B549
:10071000A5250424FFF7F1FF00B100254FF4302098
:10072000FFF75DFF0446042C3AD185488349886071
:10073000844888600846006940F020000861084647
:10074000006940F0400008614FF43020FFF747FF98
:100750000446042C1BD17948006941F6DF7108403A
:10076000764908610846006940F010000861764843
:100770000580E002FFF733FF0446052C10D06F48D8
:10078000006941F6EF7108406C49086108E0052CEA
:1007900006D06A48006941F6EF7108406749086170
:1007A000204630BD78B506460C4604250020009052
:1007B000E802FFF714FF0546042D24D15F480069C5
:1007C00040F001005D4908613480E802FFF707FF4F
:1007D0000546042D10D1B01C0090200C0099088013
:1007E000E802FFF7FCFE05465448006941F6FE7139
:1007F00008405249086106E05048006941F6FE7120
:1008000008404E490861284678BD70B504460D463B
:100810000426F002FFF7E3FE0646042E11D14748F6
:10082000006940F00100454908612580F002FFF7AA
:10083000D6FE06464148006941F6FE7108403F4930
:100840000861304670BD70B505460E460424E002CE
:10085000FFF7C5FE0446042C17D139483749886094
:10086000384888600846006940F0100008612E8012
:10087000E002FFF7B4FE0446052C06D02F480069BD
:1008800041F6EF7108402D490861204670BD2DE901
:10089000F04304464FF6FF763746B046B14604258E
:1008A000E443E6B2C4F30727C4F307484FEA1469E8
:1008B000E802FFF794FE0546042D49D120481F4960
:1008C0008860204888600846006940F01000086190
:1008D000FF2E06D01C4808300680E802FFF77FFE96
:1008E0000546042D08D1FF2F06D017480A3007808F
:1008F000E802FFF774FE0546042D0AD1B8F1FF0F98
:1009000007D011480C30A0F80080E802FFF767FE1E
:100910000546042D0AD1B9F1FF0F07D00A480E3061
:10092000A0F80090E802FFF75AFE0546052D0FD00B
:100930000248006941F6EF71084007E000200240DC
:1009400023016745AB89EFCD00F8FF1F66490861B9
:100950002846BDE8F08330B5054604244FF4302026
:10096000FFF73DFE0446042C41D160485E49886093
:100970005F4888600846006940F02000086108462A
:10098000006940F0400008614FF43020FFF727FE77
:100990000446042C22D15448006941F6DF71084016
:1009A000514908610846006940F0100008611DB116
:1009B00000205049088002E0A5204E4908804FF4ED
:1009C0003020FFF70CFE0446052C10D04648006985
:1009D00041F6EF7108404449086108E0052C06D053
:1009E0004148006941F6DF7108403F4908612046EF
:1009F00030BDF0B505460E46174604243B483A493B
:100A000088603B488860E002FFF7E9FD0446042C5B
:100A100019D13548006940F010003349086147F0AA
:100A2000F800304328433349891C0880E002FFF76F
:100A3000D6FD0446052C06D02B48006941F6EF711F
:100A40000840294908612046F0BD2748C069800850
:100A500070472548006A704700202349096811F053
:100A6000200F01D0012000E00020704729B11E4A6C
:100A7000126902431C4B1A6104E01B4A126982434B
:100A8000194B1A61704701460020012908D1164A06
:100A9000D26912F0010F01D0012008E0002006E029
:100AA000114AD2680A4201D0012000E000207047BC
:100AB0000D49C860704704200B49C96811F0010F47
:100AC00001D001200EE00849C96811F0040F01D0DF
:100AD000022007E00449C96811F0100F01D003207B
:100AE00000E0042070470000002002402301674519
:100AF000AB89EFCD00F8FF1F10B50446CA48844209
:100B000008D10121042000F027FB0021042000F07F
:100B100023FB46E0C548844208D10121082000F0AB
:100B20001BFB0021082000F017FB3AE0C04884427C
:100B300008D10121102000F00FFB0021102000F04F
:100B40000BFB2EE0BB48844208D10121202000F09D
:100B500003FB0021202000F0FFFA22E0B648844287
:100B600008D10121402000F0F7FA0021402000F0D8
:100B7000F3FA16E0B148844208D10121802000F048
:100B8000EBFA0021802000F0E7FA0AE0AC4884424A
:100B900007D10121801500F0DFFA0021A01500F037
:100BA000DBFA10BD10B50121084600F0D5FA00218E
:100BB000012000F0D1FA10BD2DE9F04102460025D8
:100BC0000026002000230024002791F803C00CF029
:100BD0000F0591F803C01CF0100F03D091F802C06C
:100BE0004CEA050591F800C0BCF1000F31D0146843
:100BF00000202BE04FF0010C0CFA00F3B1F800C01C
:100C00000CEA03069E4220D183004FF00F0C0CFA31
:100C100003F7BC4305FA03FC4CEA040491F803C053
:100C2000BCF1280F06D14FF0010C0CFA00FCC2F801
:100C300014C00AE091F803C0BCF1480F05D14FF091
:100C4000010C0CFA00FCC2F810C0401C0828D1D3DB
:100C50001460B1F800C0BCF1FF0F34DD546800200F
:100C60002EE000F1080C4FF0010808FA0CF3B1F87F
:100C700000C00CEA03069E4221D183004FF00F0C06
:100C80000CFA03F7BC4305FA03FC4CEA040491F8A0
:100C900003C0BCF1280F05D100F1080C08FA0CF8CC
:100CA000C2F8148091F803C0BCF1480F07D100F1DD
:100CB000080C4FF0010808FA0CF8C2F81080401C2C
:100CC0000828CED35460BDE8F0814FF6FF71018053
:100CD000022181700421C170704702460020936890
:100CE0000B4201D0012000E00020704701468868D7
:100CF00080B2704702460020D3680B4201D0012029
:100D000000E0002070470146C86880B2704701616A
:100D10007047416170470AB1016100E0416170476D
:100D2000C16070474FF480320A4382618161826101
:100D300082698269704702460020424B18684FF66C
:100D40008073184040EA021008433E4B1860704719
:100D50003D49C8617047F0B50A46002300240021D0
:100D6000002500F00046B6F1004F02D1354EF16982
:100D700001E0344E7168C0F3034583B200F44016BD
:100D8000B6F5401F08D121F070612E4E766826F02E
:100D900070662C4F7E6012E000F48016B6F5801F5E
:100DA00006D1032606FA05F4A14341F0706106E07E
:100DB000460D360103FA06F6B14341F0706122B1E7
:100DC000460D360103FA06F6314300F00046B6F14F
:100DD000004F02D11B4EF16101E01A4E7160F0BD6F
:100DE00030B500228B071C0F0F2303FA04F2154BBA
:100DF00008338C1053F824309343124C08348D1070
:100E000044F8253023468C1053F824308C07240FE7
:100E100000FA04F423430B4C08348D1044F82530B9
:100E200030BD0A490860704700080140000C0140CD
:100E3000001001400014014000180140001C014056
:100E4000002001400000014000002042DC00204260
:100E5000DD48006840F00100DB4908600846406852
:100E6000DA490840D849486008460068D84908402F
:100E7000D54908600846006820F4802008600846CC
:100E8000406820F4FE0048604FF41F0088607047FF
:100E9000CD49096821F48031CB4A116011460968B7
:100EA00021F480211160B0F5803F03D0B0F5802F90
:100EB0000ED106E0C449096841F48031C24A11608C
:100EC00007E0C149096841F4A021BF4A116000E070
:100ED00000BF00BF704710B501460022002300206C
:100EE0004A11012A02D1B84C236806E0022A02D135
:100EF000B54C236A01E0B44C636A01F01F0201247F
:100F000094401C4201D0012000E0002010BD38B503
:100F1000002000900024002500BF3120FFF7DBFFF8
:100F200005460098401C00900098B0F5A06F01D0D5
:100F3000002DF2D03120FFF7CEFF08B1012400E0F0
:100F40000024204638BD014600209F4A106820F04A
:100F5000F80040EAC100106070479E490860704781
:100F600002460020984B586820F47C1042EA0103A6
:100F70001843954B5860704796490866704701467C
:100F80000020914A506820F00300084350607047E9
:100F90008D48406800F00C007047014600208A4AE6
:100FA000506820F0F0000843506070470146002070
:100FB000854A506820F4E06008435060704701465D
:100FC0000020814A506820F4605040EAC10050601F
:100FD000704729B17C4A527A02437B4B5A7204E033
:100FE000794A527A8243784B5A7270477A4908603C
:100FF000704701460020744A506820F4404008437E
:10100000506070470021754A11706F4A82F82010B5
:10101000012802D0042808D103E001216F4A117091
:1010200004E005216D4A117000E000BF00BF704769
:101030006B49086070476449096A0143624A11625A
:101040007047674944390860704730B50021002275
:10105000002400235C4D6D6805F00C0121B10429CA
:1010600005D0082923D105E05E4D056022E05D4DE5
:1010700005601FE0544D6D6805F47012524D6D68A7
:1010800005F48034022505EB92421CB9564D5543B8
:1010900005600BE04C4D6D6815F4003F03D0524DD8
:1010A0005543056002E04F4D5543056002E04D4D4C
:1010B000056000BF00BF444D6D6805F0F0010909EF
:1010C0004A4D6B5C0568DD4045603F4D6D6805F439
:1010D000E061090A454D6B5C4568DD4085603A4D2D
:1010E0006D6805F46051C90A404D6B5C4568DD4090
:1010F000C560354D6D6805F44041890B3C4D6B5C16
:10110000C568B5FBF3F5056130BD29B12E4A5269BA
:1011100002432D4B5A6104E02B4A526982432A4B09
:101120005A61704729B1284A92690243264B9A6155
:1011300004E0254A92698243234B9A61704729B1A2
:10114000214AD2690243204BDA6104E01E4AD26987
:1011500082431D4BDA61704729B11B4AD2680243B2
:10116000194BDA6004E0184AD2688243164BDA6001
:10117000704729B1144A12690243134B1A6104E003
:10118000114A12698243104B1A6170471449403961
:10119000086070470F49C86470470B49C8717047B1
:1011A0000948406A40F0807007494862704701462C
:1011B0000020054A92680A4201D0012000E0002088
:1011C0007047014988727047001002400000FFF824
:1011D000FFFFF6FE00004242D800424220100240CB
:1011E0008004424200127A0000093D0014000020F1
:1011F0002400002010B50446FE48844208D1012195
:10120000C014FFF7A9FF0021E014FFF7A5FFC4E019
:10121000B4F1804F08D101210846FFF7AAFF002151
:101220000120FFF7A6FFB8E0F348844208D101216E
:101230000220FFF79EFF00210220FFF79AFFACE09B
:10124000EE48844208D101210420FFF792FF0021DB
:101250000420FFF78EFFA0E0E948844208D1012175
:101260000820FFF786FF00210820FFF782FF94E0A7
:10127000E448844208D101211020FFF77AFF0021C1
:101280001020FFF776FF88E0DF48844208D1012173
:101290002020FFF76EFF00212020FFF76AFF7CE08F
:1012A000DA48844208D101214014FFF755FF00219C
:1012B0006014FFF751FF70E0D548844209D1012145
:1012C000C804FFF749FF00214FF40020FFF744FF57
:1012D00063E0D048844209D101210805FFF73CFFB3
:1012E00000214FF48010FFF737FF56E0CA488442D0
:1012F00009D101214805FFF72FFF00214FF400100D
:10130000FFF72AFF49E0C548844208D10121402067
:10131000FFF72FFF00214020FFF72BFF3DE0C048E3
:10132000844208D101218020FFF723FF0021802083
:10133000FFF71FFF31E0BB48844208D1012180152F
:10134000FFF717FF0021A015FFF713FF25E0B648B0
:10135000844209D101210804FFF7FEFE00214FF469
:101360008030FFF7F9FE18E0B048844209D101212E
:101370004804FFF7F1FE00214FF40030FFF7ECFEC8
:101380000BE0AB48844208D101218804FFF7E4FE5A
:1013900000214FF48020FFF7DFFE10BD00220288FD
:1013A000944B98420ED0994B98420BD0B0F1804F9D
:1013B00008D0914B984205D0904B984202D0904B68
:1013C000984204D14FF68F731A404B881A438D4BC5
:1013D000984207D08C4B984204D04FF6FF431A40F6
:1013E000CB881A4302808B8883850B880385814BC9
:1013F00098420BD0854B984208D08B4B984205D031
:101400008A4B984202D08A4B984201D10B7A0386CC
:1014100001238382704770B5002400220023058CCD
:101420004FF6FE7635400584028C8388048B4FF698
:101430008F752C40B51E2C400D882C43751E2A40FC
:101440000D892A434D882A436A4DA8420BD06F4D1F
:10145000A84208D0744DA84205D0744DA84202D0CD
:10146000734DA84213D14FF6F7752A404D892A4390
:101470004FF6FB752A408D882A434FF6FF652B40B7
:101480004FF6FF552B408D892B43CD892B4383800D
:101490000483CD888586028470BD70B50024002247
:1014A0000023058C4FF6EF7635400584028C838847
:1014B000048B48F6FF752C404FF6FF452C400D88F5
:1014C0004FF6FF7606EA05252C434FF6DF752A40D6
:1014D0000D8906EA05152A434D8806EA05152A43B3
:1014E000444DA84202D0494DA8421DD14FF67F7508
:1014F0002A404D894FF6FF7606EA05152A434FF636
:10150000BF752A408D8806EA05152A434FF6FF3538
:101510002B404FF2FF752B408D8906EA85052B4342
:10152000CD8906EA85052B4383800483CD88058712
:10153000028470BD70B5002400220023058C4FF694
:10154000FF6635400584028C8388848B4FF68F7547
:101550002C404FF6FC752C400D882C434FF6FF5560
:101560002A400D894FF6FF7606EA05252A434D8865
:1015700006EA05252A431F4DA84202D0234DA84262
:101580001DD14FF2FF752A404D894FF6FF7606EACE
:1015900005252A434FF6FF352A408D8806EA0525A2
:1015A0002A434EF6FF752B404DF6FF752B408D8973
:1015B00006EA05152B43CD8906EA05152B438380E2
:1015C0008483CD888587028470BD70B50022002396
:1015D0000024058C4EF6FF7635400584038C848804
:1015E000828B48F6FF752A404FF6FF452A400D884A
:1015F00020E00000002C01400004004000080040F2
:10160000000C004000100040001400400034014075
:10161000004C0140005001400054014000180040BF
:10162000001C0040002000400040014000440140F8
:10163000004801404FF6FF7606EA05252A434DF69D
:10164000FF752B400D8906EA05352B434D8806EAC8
:1016500005352B43FA4DA84202D0FA4DA84208D1D5
:101660004BF6FF752C408D894FF6FF7606EA8515FF
:101670002C4384808283CD88A0F84050038470BDC1
:10168000828B4FF2FF331A408283828B4FF6FF73B7
:1016900003EA01231A4382837047F0B50C461546CE
:1016A000002200210026078C4EF6FF7C07EA0C077B
:1016B0000784828B018C4FF6FF7707EA043640F6E9
:1016C000FF473A404FF6FF7707EA05273A434FF6C0
:1016D000FF7707EA03373A43D94FB8420ED0D94FC4
:1016E000B8420BD0B0F1804F08D0D74FB84205D0E8
:1016F000D64FB84202D0D64FB84206D14DF6FF774A
:10170000394046F48057394305E047F6FF573940E2
:1017100044F48057394382830184F0BD828B4FF6B5
:10172000F3731A408283828B0A4382837047F0B539
:101730000C461546002200210026078C4FF6FF6C50
:1017400007EA0C070784828B018C4FF6FF7707EAC4
:1017500004264FF60C773A404FF6FF7707EA031757
:101760002F433A43B64FB8420ED0B64FB8420BD0D3
:10177000B0F1804F08D0B44FB84205D0B34FB84253
:1017800002D0B34FB84206D14FF6FF57394046F466
:101790008077394305E04FF2FF57394044F48077B2
:1017A000394382830184F0BD028B4FF2FF331A402C
:1017B0000283028B4FF6FF7303EA01231A4302836D
:1017C0007047F0B50C461546002200210026078C14
:1017D0004FF6EF7C07EA0C070784028B018C4FF66B
:1017E000FF7707EA041640F6FF473A404FF6FF77C7
:1017F00007EA03373A434FF6FF7707EA05273A43EC
:101800008F4FB8420ED08F4FB8420BD0B0F1804FFF
:1018100008D08D4FB84205D08C4FB84202D08C4FC3
:10182000B84206D14FF6DF77394046F0100739430A
:1018300005E04FF65F77394044F0100739430283E3
:101840000184F0BD028B4FF6F3731A400283028BC2
:101850000A4302837047F0B50C461546002200216A
:10186000068C4FF6FE773E400684028B018C4FF6C5
:101870000C7632407E1C06EA03162E433243704E2D
:10188000B0420ED06F4EB0420BD0B0F1804F08D0B6
:101890006D4EB04205D06D4EB04202D06C4EB0429B
:1018A00006D14FF6FD76314044F00106314305E0A4
:1018B0004FF6F576314044F001063143028301844E
:1018C000F0BD70B505460C465D4885420ED05D48BA
:1018D00085420BD0B5F1804F08D05B48854205D0DA
:1018E0005A48854202D05A48854200D100E000BFE4
:1018F000208850B92389A28861882846FFF7ABFF6A
:10190000E1882846FFF79EFF25E0208804280AD1B9
:101910002389A28861882846FFF753FFE18828467B
:10192000FFF742FF17E0208808280AD12389A28800
:1019300061882846FFF7FBFEE1882846FFF7EEFEA8
:1019400009E02389A28861882846FFF7A6FEE1887E
:101950002846FFF795FE70BD2DE9F04105460C467F
:1019600000260127608808B9022600E00026A0882A
:10197000012801D1022700E001272088A0B923898E
:10198000A28861882846FFF766FFE1882846FFF7AE
:1019900059FF23893A4631462846FFF712FFE1886E
:1019A0002846FFF701FF13E02389A28861882846B3
:1019B000FFF707FFE1882846FFF7F6FE23893A463E
:1019C00031462846FFF747FFE1882846FFF73AFFF0
:1019D000BDE8F0810A884B881A438B881A43CB886C
:1019E0001A430B891A434B891A438B891A43A0F86F
:1019F000442070474FF6FF71818000210180C18033
:101A00004180017270470021018041808180C18046
:101A1000018141818181C181704700210180418024
:101A2000012181800021C180018170470021018056
:101A300041808180C18001814181818170470000A6
:101A4000002C014000340140000400400008004028
:101A5000000C004021B1028842F00102028004E043
:101A600002884FF6FE731A400280704731B1B0F819
:101A7000442042F40042A0F8442005E0B0F844209D
:101A8000C2F30E02A0F8442070471AB183890B43B9
:101A9000838102E083898B43838170478182704711
:101AA00041EA0203A0F8483070471AB183890B431A
:101AB000838102E083898B438381704701894FF6DC
:101AC000F8721140018170470A46002101894FF6E2
:101AD0008F73194011430181704730B504460D469C
:101AE00029462046FFF7F0FF208940F007002081BB
:101AF00030BD2DE9F04104460D4616461F46602DC7
:101B000006D13B46012231462046FFF75AFE05E04A
:101B10003B46012231462046FFF79DFE29462046DE
:101B2000FFF7D2FF208940F007002081BDE8F08157
:101B300030B50C4600210189C9B24FF6FF7505EAA0
:101B40000325154325432943018130BD2DE9F0418B
:101B500005460E4617469846002443463A46314607
:101B60002846FFF7E5FF2C894FF6F870044044F053
:101B700007044FF68F70044044F070042C81BDE8D8
:101B8000F081F0B504460D4616461F463B463246E8
:101B900029462046FFF7CCFF208940F48040208171
:101BA000F0BD0185828270470A46002101884FF608
:101BB0008F731940114301807047F0B50C461546EC
:101BC0001E460021002200230189028B038C4FF660
:101BD000F877394021434FF6FC473A4040F201176D
:101BE0003A434FF6DD773B404FF6FF7707EA06179B
:101BF0002F433B43018102830384F0BD0A46002149
:101C0000018B4FF68F7319401143018370470A46C9
:101C10000021018B48F6FF7319404FF6FF7303EA6A
:101C200002231943018370470A460021818B4FF636
:101C30008F7319401143818370470A460021818BBD
:101C400048F6FF7319404FF6FF7303EA0223194366
:101C50008183704721B1028842F08002028004E053
:101C600002884FF67F731A400280704721B1828844
:101C700042F00402828004E082884FF6FB731A402F
:101C80008280704721B1828842F00802828004E09D
:101C900082884FF6F7731A408280704721B182889C
:101CA00042F00102828004E082884FF6FE731A40FF
:101CB000828070470A460021018B4FF6F773194066
:101CC0001143018370470A460021018B4FF2FF73D5
:101CD00019404FF6FF7303EA02231943018370474B
:101CE0000A460021818B4FF6F77319401143818317
:101CF00070470A460021818B4FF2FF7319404FF65F
:101D0000FF7303EA02231943818370470A460021C7
:101D1000018B4FF6FB7319401143018370470A464C
:101D20000021018B4FF6FF3319404FF6FF7303EA92
:101D300002231943018370470A460021818B4FF625
:101D4000FB7319401143818370470A460021818B40
:101D50004FF6FF3319404FF6FF7303EA022319438E
:101D6000818370470A460021018B4FF67F7319402B
:101D70001143018370470A460021018BC1F30E0114
:101D80004FF6FF7303EA02231943018370470A46A3
:101D90000021818B4FF67F73194011438183704777
:101DA0000A460021818BC1F30E014FF6FF7303EA4F
:101DB00002231943818370470A460021018C4FF6A4
:101DC000FD7319401143018470470A460021018CBC
:101DD0004FF6F77319401143018470470A460021FA
:101DE000018C4FF6DF7319404FF6FF7303EA0213BD
:101DF0001943018470470A460021018C4FF67F7316
:101E000019404FF6FF7303EA021319430184704728
:101E10000A460021018C4FF6FF5319404FF6FF731D
:101E200003EA02231943018470470A460021018C0A
:101E30004FF2FF7319404FF6FF7303EA0223194371
:101E4000018470470A460021018C4DF6FF7319404A
:101E50004FF6FF7303EA023319430184704730B52C
:101E6000002301248C40A3B2048C9C430484048C82
:101E700002FA01F5ADB22C43048430BD30B5002325
:101E800004248C40A3B2048C9C430484048C02FA86
:101E900001F5ADB22C43048430BD70B5034600207B
:101EA00000241846183001258D40ACB21D8CA54386
:101EB0001D8409B1082909D100EB6100056825F0EE
:101EC000700505600568154305600EE00D1FC5F33C
:101ED0004E052844056825F4E045056005684FF681
:101EE000FF7606EA02263543056070BD21B10288FF
:101EF00042F00202028004E002884FF6FD731A40AD
:101F00000280704721B1028842F00402028004E09E
:101F100002884FF6FB731A400280704721B1828815
:101F200042F08002828004E082884FF67F731A407C
:101F30008280704702884FF6F7731A400280028849
:101F40000A430280704782884FF68F731A4082805E
:101F500082880A438280704702894FF6F8731A40DC
:101F6000028102890A430281704702894FF67F731A
:101F70001A40028102890A430281704781847047B6
:101F800081857047818670470187704781877047D8
:101F9000A0F84010704702884FF6FF431A400280B5
:101FA00002880A43028070470146888E70470146C6
:101FB000088F70470146888F70470146B1F840008E
:101FC00070470146888C70470146088D704702466D
:101FD0000020138A0B4201D0012000E0002070474E
:101FE000CA430282704730B5024600200023002415
:101FF000158A05EA0103958905EA010413B10CB1BC
:10200000012000E0002030BDCA430282704700007A
:1020100010B50446FB48844209D101218803FFF72B
:102020009BF800214FF48040FFF796F832E0F64825
:10203000844209D101214804FFF79BF800214FF4A5
:102040000030FFF796F825E0F048844209D10121DD
:102050008804FFF78EF800214FF48020FFF789F8FD
:1020600018E0EB48844209D10121C804FFF781F848
:1020700000214FF40020FFF77CF80BE0E548844294
:1020800008D101210805FFF774F800214FF48010F2
:10209000FFF76FF810BD2DE9F04786B005460E46F4
:1020A0000024A24600BFA1460027B08900B100BFAE
:1020B0002F462C8A4CF6FF700440F08804432C8293
:1020C000AC894EF6F3100440B08831890843718919
:1020D00008430443AC81AC8A4FF6FF400440B0890A
:1020E0000443AC8201A8FEF7B0FFC648874202D184
:1020F000DDF810A001E0DDF80CA0A88910F4004F75
:1021000008D00AEBCA0000EB0A1031684900B0FBA6
:10211000F1F807E00AEBCA0000EB0A103168890009
:10212000B0FBF1F86420B8FBF0F004012009642151
:1021300001FB1089A88910F4004F08D0322000EB71
:10214000C900B0FBF1F000F00700044308E03220C2
:1021500000EB09106421B0FBF1F000F00F00044324
:102160002C8106B0BDE8F0874FF4165101600021C4
:102170008180C18001810C214181002181817047D2
:1021800010B502460020108A4FF2FF0318400B885A
:102190004C8823438C882343CC88234318431082E4
:1021A00010BD0021018041808180C180704721B134
:1021B000828942F40052828104E082894DF6FF73E5
:1021C0001A4082817047F0B503460024002600259E
:1021D0000020A1F510676A3F00D100BF1846C1F387
:1021E000421401F01F06012707FA06F5012C01D160
:1021F0000C3004E0022C01D1103000E014301AB190
:1022000007682F43076002E00768AF430760F0BD2F
:102210001AB1838A0B43838202E0838A8B438382D1
:102220007047028A4FF6F0731A400282028A0A430C
:102230000282704782894FF2FF731A40828182893D
:102240000A438281704721B1828942F00202828171
:1022500004E082894FF6FD731A4082817047028A3A
:102260004FF6DF731A400282028A0A4302827047E5
:1022700021B1028A42F48042028204E0028A4BF6D3
:10228000FF731A4002827047C1F3080282807047D0
:1022900001468888C0F308007047818941F0010138
:1022A00081817047028BD2B20283028B42EA012203
:1022B00002837047028B02F47F420283028B0A433F
:1022C0000283704721B1828A42F02002828204E0B8
:1022D000828A4FF6DF731A408282704721B1828A68
:1022E00042F01002828204E0828A4FF6EF731A40B5
:1022F0008282704721B1828A42F00802828204E021
:10230000828A4FF6F7731A408282704721B1828920
:1023100042F40042828103E08289C2F30E0282818C
:10232000704721B1828A42F40062828204E0828A8C
:102330004FF2FF731A4082827047828A4FF6FB7316
:102340001A408282828A0A438282704721B1828A3D
:1023500042F00202828204E0828A4FF6FD731A4044
:102360008282704702460020B1F5007F00D100BF95
:1023700013880B4201D0012000E00020704701F4D7
:102380000072B2F5007F00D100BFCA4302807047DF
:1023900070B502460024002300250020A1F5106638
:1023A0006A3E00D100BFC1F3421501F01F030126B0
:1023B00006FA03F3012D02D19689334006E0022D7F
:1023C00002D1168A334001E0968A33400C1201266E
:1023D00006FA04F41688344013B10CB1012000E071
:1023E000002070BD10B500220023A1F510646A3CE6
:1023F00000D100BF0A1201249440A3B2DC43048040
:1024000010BD00000038014000440040004800407A
:10241000004C00400050004008B54FF4A060FDF7AC
:1024200091FF25208DF8000000208DF8010002208A
:102430008DF8020001208DF803006846FDF787FF44
:1024400008208DF8000000208DF8010001208DF893
:1024500002008DF803006846FDF779FF17208DF81C
:10246000000000208DF801008DF8020001208DF899
:1024700003006846FDF76BFF08BD2DE9F041FAA0A7
:1024800004F026FC8820FE49487088700020FD4931
:102490000870FF20FC49887048700870002048715F
:1024A000C8704A20F94908706420F94908704FF053
:1024B0007C50F8490860F8490888F849098803F011
:1024C000BDFFF5494888F249097803F0B7FFEE4AA5
:1024D0005179F14A908803F0B1FFE94A5278E84B0C
:1024E0009B7842EA0321EC4AD08803F0A7FFEA492F
:1024F0000889EB49098803F0A1FFE34A1178E64A0D
:10250000508903F09BFFE04A5178E34A908903F039
:1025100095FFDD4A9178E04AD08903F08FFFDA4ACF
:10252000D178DD4A108A03F089FFDB49488AD54912
:10253000097803F083FFD849888AD449097803F0E1
:102540007DFFD549C88AD749097803F077FFD64976
:10255000D048006803F0F6FF054604F0D4F984B2D1
:10256000CD49088B214603F069FFD04801F038FAC5
:10257000CB48008804F0BAF906460022CC4B04F0A0
:1025800030F9044622460B46CAA004F0A1FBC3481A
:10259000008804F0ABF906460022C54B04F021F98F
:1025A000044622460B46C9A004F092FBB8480178C5
:1025B000CCA004F08DFBB448C2784179B3480378CD
:1025C000CDA004F085FBB048837842780178D2A092
:1025D00004F07EFBAA4842788178AA480378D3A009
:1025E00004F076FBAA48007804F080F90646002241
:1025F000D54B04F0F6F8044604F0D4F9A549086078
:10260000A348007802F06DFABDE8F08110B503F040
:10261000FAFBCE4908700846007862284FD0084679
:102620000078A2284BD008460078E22847D0084618
:102630000078C22843D00846007890283FD008464A
:10264000007868283BD008460078302837D0084604
:102650000078182833D0084600787A282FD008460A
:10266000007810282BD008460078382827D0084654
:1026700000785A2823D00846007842281FD0084600
:1026800000784A281BD008460078522817D0084600
:102690000078A82813D008460078E0280FD0084614
:1026A000007822280BD008460078022807D0084678
:1026B0000078982803D008460078B02857D1A4485D
:1026C0000078012833D10020A2490880FF20A249C8
:1026D0000870052001F084F96D480078D0B99B4856
:1026E0000078A82807D099480078E02803D09748B8
:1026F0000078902803D100209849087003E093489F
:10270000007896490870012095490870642002F00D
:10271000E8F922E08D480078902803D100208F4905
:1027200008701AE0894800788C49087015E08848DC
:1027300000780F2811D185480078902807D105200E
:1027400001F04EF9814800788449087005E07F481F
:102750000078C22801D1FFF790FE7C48017881A063
:1027600004F0B6FA7A48017882A004F0B1FA10BDFC
:1027700010B58348007830B172B601F069FB0020D3
:102780007F49087062B610BD10B53E480078002839
:1027900035D03B4880787B49897888420BD13848CE
:1027A000407878494978884205D17648007810B950
:1027B0000120694908706848007800280EDD6648E5
:1027C000007820280ADA64480078401C62490870C2
:1027D0002F48007810B9642002F083F95E48007831
:1027E00020280CD1FF205C49087040216648FEF784
:1027F00090FA2748007810B90120594908705648C6
:102800000078FF2808D11E4840785E494978884200
:1028100002D000205049087010BD10B5594800780A
:1028200078B95848407860B956488078082808DD5B
:1028300054488078222804DA4748007808B901F023
:10284000DDF810BD10B51248007800280AD14448C0
:10285000007820B142480078401C4149087049483E
:10286000807893E0C6E00000466163746F7279205F
:102870005265736574696E672E2E2E0D0A0D0A005F
:102880006A00002043000020780000203D00002066
:10289000380000209C000020B00000203400002000
:1028A000360000203E0000200000C842006A1800E8
:1028B0000000104052756E54696D653A252E3266DF
:1028C00020486F7572200D0A000000004C6967688F
:1028D0007454696D653A252E326620486F757220F2
:1028E0000D0A00004C696768744C6576656C3A2582
:1028F00064200D0A000000005247423A537461748C
:10290000652D2564204D6F64652D256420547970F4
:10291000652D25640D0A0000523A256420473A25AA
:102920006420423A256420200D0A0000416C617247
:102930006D3A25783A2578205377697463683A258B
:10294000640D0A0D0A00000000E06F40280000201E
:10295000A80000204600002042000020290000209E
:102960004400002052656D6F74654B65793A2564AB
:1029700020000000636E743A2564200D0A000000F8
:102980005000002063000020000C0140062804DBFA
:10299000FD480088B0F5616F0BDBFC484078A0B9BA
:1029A000FA48007888B9FA480078401CF84908705D
:1029B0000BE0F648007818B1F4480078302804D1CC
:1029C000F3480078401CF2490870F148007800286C
:1029D00006DDEF480078062802DA642002F081F86C
:1029E000EB480078062808DB0020E949087002F06F
:1029F00078F802E00020E649087010BD10B5E548FF
:102A00000078002879D0E1488079E3498871DF486F
:102A100040794871DD4800790871DC488078887019
:102A2000DA484078487000200870D848C078C870EC
:102A30000020DA4908700420D94908706420D94977
:102A400008700846007802F04CF85AE0D64802F0C8
:102A50009FFDD6480078002834D00020D349087064
:102A6000D3480068401CD2490860CE48007820B1A5
:102A7000D0480068401CCF490860CD480068B0F5D8
:102A8000617F07D10020CA490860CB480088401CFC
:102A9000C9490880C7480068B0F5617F07D10020A8
:102AA000C4490860C5480088401CC4490880B7482C
:102AB000007808B902F073FCC148006880F040005B
:102AC000BF490860BF48007820B102F047FC0020F1
:102AD000BC49087003F097F9BB49087008460078B4
:102AE00060B1BA480078012808D1052000F078FFCD
:102AF000B5480078AC49087003E024E00020AA49FA
:102B00000870A44800780028A0D1A54800780428BF
:102B100016D10002AE49086040000860AD488078D8
:102B2000242803DCAB4840783C2803DB0020AA497A
:102B3000087002E00120A849087002F0A4FC02E03D
:102B4000954800F052FD10BD2DE9F041A349C88A17
:102B5000A34903F0CDFAA2480078A24908700846BC
:102B60000078AA2803D0AA200870FFF786FC9B49AA
:102B700008899B4903F0BCFA994800888E4908806F
:102B800096490888964903F0B3FA954800888B491E
:102B9000088092494888924903F0AAFA9048007840
:102BA000804908708D4988888D4903F0A1FA8C48C6
:102BB00000788D4948718949C888894903F098FA95
:102BC00087480088000A83498870854800784870E3
:102BD00082498888824903F08BFA814800788249CB
:102BE00048717E4948897E4903F082FA7C48007822
:102BF0007D49087079498889794903F079FA7848DC
:102C00000078794948707549C889754903F070FAA8
:102C100073480078744988707049088A704903F0D5
:102C200067FA6F4800787049C8706C49488A6C49E7
:102C300003F05EFA6A480078674908706749888A35
:102C4000674903F055FA6648007868490870634997
:102C5000088B634903F04CFA6148008803F046FE94
:102C600006460022624B03F0BCFD044603F09AFEC8
:102C7000604908605048008803F038FE064600228C
:102C80005D4B03F0AEFD044622460B465BA004F00C
:102C90001FF84A48008803F029FE06460022564BDA
:102CA00003F09FFD044622460B465AA004F010F89C
:102CB0003C480178AFF2D43004F00AF84D4800687F
:102CC00003F035FE044622460B4658A004F000F8F7
:102CD0004548C278417945480378AFF2E43003F0C3
:102CE000F7FF4148837842780178AFF2D43003F09F
:102CF000EFFF3848427881783748037850A003F0D6
:102D0000E7FFBDE8F0810EB500F096FA00F0E0FABA
:102D1000FFF782FB03F0AEF800F09DFF00F032FBFE
:102D200000F053FC00F045FE00F0E2FF02F0EFFF80
:102D300002F00EFFFDF721FC03F0F9FAFFF704FFA4
:102D400001F0EFFE1748007801F0CBFE012010499A
:102D5000087000BF00F06DFEFFF750FE124802F051
:102D600017FC12480078002876D000200F49087020
:102D70000F480068401C0E4908600A48007810B9E6
:102D80000148008869E070E04600002063000020F0
:102D900044000020390000205C0000203A000020A0
:102DA0003B000020380000202900002048000020BF
:102DB000300000202C0000203600002034000020CD
:102DC0000C0801405100002028000020A80000202D
:102DD000100C01406A00002043000020B0000020D9
:102DE000400000203E000020780000203D00002030
:102DF000000059409C000020000010402052756ED9
:102E000054696D6520203A252E326620486F757210
:102E1000200D0A004C6967687454696D65203A2575
:102E20002E326620486F7572200D0A004C69676863
:102E300074436F6520203A252E3266200D0A00006B
:102E4000416C61726D3A25783A2578205377697420
:102E500063683A25640D0A00D9E0B0F5616F04DAC1
:102E60006D480088401C6C4908806C48007810B997
:102E70006B48008820B16B480068401C69490860B5
:102E800069480068B0F5617F09D100206649086093
:102E900066480088401C6549088002F0F4FA6148E1
:102EA0000068B0F5617F07D100205E490860604886
:102EB0000088401C5E4908805E48007808B902F02E
:102EC0006EFA00F0D0FE5C4908605C4802F09DFAA2
:102ED000FFF7B8FCFFF7A1FCFFF756FC5848006865
:102EE00080F04000564908605248C1780078514A45
:102EF0005278CDE9002002914E48837802794179D9
:102F000050A003F0E5FE4C48006803F010FD0446B5
:102F100022460B4654A003F0DBFE3F48018856A032
:102F200003F0D6FE3D48017856A003F0D1FE584884
:102F3000017858A003F0CCFE5948017859A003F05D
:102F4000C7FE5A4801785AA003F0C2FE5B480178D8
:102F50005BA003F0BDFE5D4801785DA003F0B8FE04
:102F60005E4841795EA003F0B3FE2E4800683C2124
:102F7000B0FBF1F201FB12042A480068B0FBF1F04B
:102F80002B490988C1EB011108443C21B0FBF1F247
:102F900001FB120523480068B0FBF1F024490988C1
:102FA000C1EB011108443C21B0FBF1F623462A464F
:102FB00031464FA003F08CFE1B4800683C21B0FB5B
:102FC000F1F201FB120418480068B0FBF1F0174958
:102FD0000988C1EB011108443C21B0FBF1F201FB6F
:102FE000120511480068B0FBF1F010490988C1EBE7
:102FF000011108443C21B0FBF1F623462A46314634
:103000003FA003F065FEAFF2CC1003F061FEFFF7C6
:10301000AFFBFFF7FBFA9DE64600002038000020DA
:10302000400000402C00002030000020360000202E
:1030300034000020630000207400002029000020DC
:103040000C080140443A253032782D253032782062
:10305000543A253032783A253032783A2530327871
:1030600020576B3A25782000546D703A25332E3165
:1030700066A1E6207C2000004E6264793A25642037
:10308000000000004C4C766C3A25642000000000E3
:1030900044000020466F734C743A25642000000001
:1030A00042000020416C6D3A25642000A9000020F8
:1030B000526D5264793A25642000000028000020F7
:1030C000526D6B65793A256420000000A80000204D
:1030D000526D436E743A2564200000007800002091
:1030E0005247427374653A2564207C20000000003A
:1030F0004C543A25643A25643A25642000000000C7
:1031000052543A25643A25643A25642000000000B0
:10311000704700BFFEE700BFFEE700BFFEE700BF4D
:10312000FEE770477047704710B50420FDF7ECF9D3
:1031300040B1384800F0C1FA012037490870042036
:10314000FDF7F3F910BD10B500F00AF93348006837
:10315000401C32490860084600683221B0FBF1F299
:1031600001FB120010B901202D4908702B4800689E
:103170004FF4FA71B0FBF1F201FB120010B901201B
:1031800028490870254800684FF47A71B0FBF1F2C5
:1031900001FB1200B0F5FA7F03D20120224908702A
:1031A00002E00020204908702048007888B31B48BE
:1031B00000686421B0FBF1F201FB120048BB1C491E
:1031C000087800EBD0714910B0EB410107D11849E4
:1031D0000978072903DA01201649087002E0002067
:1031E0001449087012480078072806DB1048007858
:1031F0000D2802DC00200F4908700D4800780A28CD
:1032000002DB00200A49087009480078401C084980
:10321000087010BD63000020480000204C00002012
:1032200050000020510000205200002042000020E9
:10323000540000205300002008B501210C20FDF7A8
:1032400071FF4020ADF8000010208DF8030003202E
:103250008DF8020069461B48FDF7AEFC4FF4406054
:10326000ADF8000010208DF8030003208DF8020057
:1032700069461548FDF7A0FC40211248FDF747FDBF
:103280004FF440611048FDF742FD08BD0E480C3078
:10329000006880F480600C490C31086008460068C2
:1032A00080F400600860704710B50848007820B1CD
:1032B00040210448FDF72BFD03E040210148FDF7C4
:1032C00028FD10BD00080140000C01405200002004
:1032D00030B5284800684FF47A72B0FBF2F1B1F1D2
:1032E000807F01D301201DE021F07F40401E4FF080
:1032F000E022506150170F22002807DA13071D0E35
:103300001D4B00F00F04241F1D5503E013071C0E76
:103310001A4B1C5400BF00204FF0E02290610720A0
:103320001061002008B100BFFEE74FF0E020006907
:1033300040F001004FF0E021086130BD01B51049B7
:10334000009808604FF0E020006940F001004FF065
:10335000E021086100BF0A4800680028FBD108BDD1
:103360000748006820B106480068401E044908600C
:10337000704700000000002018ED00E000E400E0CD
:103380005800002000B585B0012144F20400FDF78B
:10339000C9FE4FF40070ADF8100018208DF813002E
:1033A00003208DF8120004A94048FDF705FC4FF4F6
:1033B0008060ADF8100004208DF8130004A93B488C
:1033C000FDF7FAFB4FF4E13000900020ADF8040067
:1033D000ADF80600ADF80800ADF80C000C20ADF813
:1033E0000A0069463248FEF756FE012240F2255196
:1033F0002F48FEF7E8FE01212D48FEF7D8FE05B064
:1034000000BD10B540F225512948FEF7C1FF38B183
:103410002748FEF73DFFC4B2214626A003F058FC22
:1034200010BD70B504460D46E1B22148FEF72CFFF1
:1034300000BF40211E48FEF795FF0028F9D0204626
:1034400070BD10B5044600BF20211948FEF78AFF61
:103450000028F9D01648FEF71BFF10BD70B50446D2
:103460000D4629462046FEF70FFF00BF40212046AB
:10347000FEF778FF0028F9D070BD2DE9F04107462E
:103480000D461646002400BF0CE0295D3846FEF7C5
:10349000FBFE00BF40213846FEF764FF0028F9D04C
:1034A000601C84B2B442F0DBBDE8F081000801404A
:1034B0000038014025630D0A000000000EB501210F
:1034C0002120FDF72FFE0420ADF8080048208DF8DC
:1034D0000B0002A9A748FDF76FFB02210320FDF7AF
:1034E0007FFC0420009000208DF804000C208DF853
:1034F000050001208DF806006846FCF79FFF0EBD11
:1035000010B5D02000F037FA10BD2DE9F04706467F
:103510000F469046B94600242BE0ECB900F06BF959
:1035200000250AE000F04FF9D02000F076F900F015
:10353000C2F900B903E0681C85B2642DF2DB00BF5C
:10354000B5F57A7F00D11BE009F0FF0000F065F9C6
:1035500000F0B1F900B113E0305D00F05EF900F069
:10356000AAF900B10CE009F101001FFA80F9601C12
:1035700084B24445D1DB00F03EF90120BDE8F0877C
:1035800000F039F90020F9E71CB5002001908020F7
:1035900000900120019001220E2101A8FFF7B5FF44
:1035A000012207216846FFF7B0FF01220821684683
:1035B000FFF7ABFF012209216846FFF7A6FF0122B2
:1035C0000A216846FFF7A1FF1CBD10B5012108467E
:1035D000FDF7A8FD01216848FDF7BDFBFFF790FF4F
:1035E000FFF76CFFFFF7D0FF10BD7CB5044600204D
:1035F00000900190002520788DF8000060788DF80B
:103600000100A0788DF80200E0788DF803002079A1
:103610008DF8040060798DF80500A0798DF806001A
:103620000FE0681CC5B2072200216846FFF76DFF56
:10363000012803D151A003F04BFB04E052A003F09A
:1036400047FB052DEDDB00BF7CBD2DE9F0410646B3
:103650000F46154600F0B7F8D02000F0DEF800F075
:103660002AF900B125E0F8B200F0D7F800F023F90C
:1036700000B11EE000F0A7F8D12000F0CEF800F075
:103680001AF900B115E000240CE000F0F3F8305511
:10369000681EA04202D000F02BF901E000F042F9D0
:1036A000601C84B2AC42F0DB00F0A5F80120BDE85C
:1036B000F08100F0A0F80020F9E71CB504460020D6
:1036C00000900190072200216846FFF7BEFF012805
:1036D00015D19DF8000020709DF8010060709DF8E4
:1036E0000200A0709DF80300E0709DF804002071B6
:1036F0009DF8050060719DF80600A07102E026A00B
:1037000003F0E6FA1CBD38B504460122214668469E
:10371000FFF79BFF9DF8000038BD13B5044601225A
:10372000214601A8FFF7F1FE012800D11CBD0020B1
:10373000FCE710B586B0142101A802F0A0FE002419
:103740001322002101A8FFF780FF01280CD100BF40
:1037500007E001A8025D214613A003F0B9FA601C3E
:10376000C4B2132CF5DB02E00BA003F0B1FA06B0F3
:1037700010BD00000014014000023000577269744F
:1037800065204F4B0D0A0000577269746520466131
:10379000696C6564210D0A00526561642066616987
:1037A0006C6564210D0A0000526567307825783A0F
:1037B000307825780D0A0000002001E0411CC8B2D5
:1037C0000A28FBDB704710B510217348FDF79FFAFC
:1037D00008217148FDF79BFAFFF7EEFF10216E48B4
:1037E000FDF797FAFFF7E8FF08216B48FDF791FA1C
:1037F000FFF7E2FF10BD10B510216748FDF789FA09
:1038000008216548FDF783FAFFF7D6FF10216248CB
:10381000FDF77DFAFFF7D0FF10BD70B50446002517
:1038200023E014F0800F04D010215B48FDF76FFAFD
:1038300003E010215848FDF76CFAFFF7BDFF08219F
:103840005548FDF764FAFFF7B7FF08215248FDF726
:1038500060FA072D03D110214F48FDF758FA600692
:10386000040EFFF7A9FF681CC5B2082DD9DBFFF7CE
:10387000A3FF70BD70B50024002516E06006040E9D
:1038800008214548FDF743FAFFF796FF102142480B
:10389000FDF723FA08B1601CC4B208213E48FDF7C9
:1038A00038FAFFF789FF681CC5B2082DE6DBFFF781
:1038B00083FF204670BD10B510213748FDF727FA69
:1038C000FFF77AFF08213448FDF721FAFFF774FF6C
:1038D00010213148FDF701FA08B1012400E000246D
:1038E00008212D48FDF715FAFFF766FF204610BDA9
:1038F00010B510212848FDF70CFAFFF75DFF0821ED
:103900002548FDF704FAFFF757FF08212248FDF785
:1039100000FAFFF751FF10211F48FDF7F8F9FFF7F4
:103920004BFF10BD10B510211B48FDF7F0F9FFF754
:1039300043FF08211848FDF7EAF9FFF73DFF08218A
:103940001548FDF7E6F9FFF737FF10BD08B501216F
:103950000820FDF7E7FB1820ADF8000003208DF8E4
:10396000020014208DF8030069460B48FDF724F986
:10397000FFF741FF08BD70B50446FFF7E7FFFFF70B
:1039800022FF2046FFF749FFFFF795FF0546FFF7A7
:1039900032FF284670BD0000000C0140002105E008
:1039A00000E0491C304A9142FBD3401E0028F7D169
:1039B000704708B501210820FDF7B4FB4020ADF8A1
:1039C000000010208DF8030003208DF802006946E6
:1039D0002648FDF7F1F840212448FDF79AF908BD83
:1039E00010B5044640212148FDF791F92046FFF724
:1039F000D5FF40211D48FDF78CF910BD10B54021C1
:103A00001A48FDF784F90520FFF7C8FF4021174841
:103A1000FDF77FF91648FFF7C1FF40211348FDF776
:103A200076F90520FFF7BAFF40211048FDF771F93C
:103A300010BD10B50F480078002810DD0D48007843
:103A40003E280CDA0C48007820B140210748FDF7E9
:103A50005EF908E040210548FDF75BF903E04021ED
:103A60000248FDF756F910BDFFFF0100000C0140B0
:103A700000350C0042000020530000200146642065
:103A800005E0642001E0421ED0B20028FBD10A000C
:103A9000A1F10103D9B2F4D1704708B50121082082
:103AA000FDF740FB4FF48070ADF8000010208DF85A
:103AB000030003208DF8020069468B48FDF77CF86F
:103AC0004FF480718848FDF722F908BD08B54FF41E
:103AD0008070ADF8000048208DF8030069468248E8
:103AE000FDF76AF808BD08B54FF48070ADF8000026
:103AF00010208DF8030003208DF8020069467A48F3
:103B0000FDF75AF808BD10B5FFF7EDFF4FF48071CF
:103B10007548FDF7FEF84B20FFF7B0FF4FF48071BA
:103B20007148FDF7F4F80220FFF7A8FF10BD10B5AB
:103B30000024FFF7CBFF04E0601CC4B20120FFF7B4
:103B40009DFF4FF480716848FDF7C7F808B1642CF9
:103B5000F2DB642C01DB012010BD002404E0601CBA
:103B6000C4B20120FFF78AFF4FF480715E48FDF771
:103B7000B4F808B9F02CF2DBF02C01DB0120EBE704
:103B80000020E9E710B5FFF7AEFF4FF4807156480B
:103B9000FDF7BFF80120FFF771FFFFF797FF4FF424
:103BA00080715148FDF799F8012801D1012400E006
:103BB00000240520FFF762FF204610BD70B50026E7
:103BC000002408E0FFF7DEFF054605FA04F0304365
:103BD000C6B2601CC4B2082CF4DB304670BD70B5B0
:103BE0000446FFF780FF002526E004F0010664107C
:103BF00086B14FF480713C48FDF78BF80120FFF748
:103C00003DFF4FF480713848FDF781F80620FFF73B
:103C100035FF0FE04FF480713348FDF77AF8072045
:103C2000FFF72CFF4FF480712F48FDF770F801204B
:103C3000FFF724FF681CC5B2082DD6DB70BD10B598
:103C4000FFF761FFFFF773FFCC20FFF7C8FF4420A9
:103C5000FFF7C5FF10BD10B5FFF71FFFFFF753FFBC
:103C6000FFF765FF10BD2DE9F05FFFF74CFFFFF791
:103C70005EFFCC20FFF7B3FF4420FFF7B0FFFFF754
:103C800042FFFFF754FFCC20FFF7A9FFBE20FFF74C
:103C9000A6FFFFF793FF8346FFF790FF82464FEAA8
:103CA0000A2004B244EA0B04002C0DDAE043401C65
:103CB00002F00BFE074600220C4B02F020FD0546E9
:103CC00002F070FE81460BE0204602F0FEFD074642
:103CD0000022064B02F013FD054602F063FE81460A
:103CE0004846BDE8F09F0000000C01400000B03FD6
:103CF00008B501210820FDF715FA0120ADF80000F4
:103D000010208DF8030003208DF802006946FE485C
:103D1000FCF752FF08BD0120FB491031086000BFCD
:103D200000BF00BF00BF00BF00BF00BF00BF00BF9B
:103D300000BF00BF00BF00BF00BF00BF00BF00BF8B
:103D400000BF00BF00BF0120EF491431086000BF71
:103D500000BF00BF00BF00BF00BF00BF00BF00BF6B
:103D600000BF00BF00BF00BF00BF00BF00BF00BF5B
:103D700000BF00BF00BF00BF00BF00BF00BF00BF4B
:103D800000BF00BF00BF00BF00BF00BF00BF00BF3B
:103D900000BF00BF00BF00BF00BF70470120DA496D
:103DA0001031086000BF00BF00BF00BF00BF00BFF0
:103DB00000BF00BF00BF00BF00BF00BF00BF00BF0B
:103DC00000BF00BF00BF00BF00BF00BF00BF00BFFB
:103DD00000BF00BF00BF00BF00BF00BF00BF00BFEB
:103DE00000BF00BF00BF00BF00BF00BF00BF00BFDB
:103DF0000120C5491431086000BF00BF00BF00BFEB
:103E000000BF704700B50346002200BF0AE08020D3
:103E10001041184202D0FFF7C1FF01E0FFF77BFF1E
:103E2000501CC2B2082AF2DB00BD30B500250CE000
:103E3000002407E005EB4501B44A1144085DFFF793
:103E4000E1FF641C032CF5D36D1C042DF0D330BDB1
:103E50002DE9FF5F4FF000090024AD480078AD491F
:103E6000097888420BD1AA484078AB490978884242
:103E700005D1A7488078A949097888422BD0A44861
:103E80000078A4490870A2484078A3490870A04867
:103E90008078A24908709E48C07830B90020A049B7
:103EA0000860A0490860A04908609948C0780128C6
:103EB00011D19848007802F003FD994908609648AE
:103EC000007802F0FDFC974908609448007802F001
:103ED000F7FC954908608E48C07800287DD18D4850
:103EE000007802F0EDFC804690480168404602F000
:103EF00029FB074602F01BFDCDE902018548007849
:103F000002F0F4FC07460022894B02F06AFCCDE97E
:103F100000018348006802F00AFD8246DDE90023C3
:103F200002F046FB0546DDE9022302F027FD02D838
:103F30000020804908707748007802F0D7FC0746D7
:103F400000227B4B02F04DFC82468B467448006891
:103F500002F0EDFC054652465B4602F0FBFC0CD23B
:103F60007448007848B901207249087000206C49F3
:103F700008606C4908606C4908606748007802F086
:103F80009FFC804669480168404602F0DBFA07461C
:103F900002F0CDFCCDE902015E48007802F0A6FCFB
:103FA00007460022624B02F01CFC82468B465D48AD
:103FB000006802F0BCFC52465B46CDE9000102F00D
:103FC000F7FA0546DDE9022302F0D8FC02D800200A
:103FD000594908705048007800E06FE002F086FC14
:103FE00007460022524B02F0FCFB05460E464D48A8
:103FF000006802F09CFC82462A46334602F0AAFC86
:104000000CD24D48007848B901204B490870002077
:104010004349086043490860434908603F480078C5
:1040200002F04EFC064641480168304602F08AFA2A
:10403000054602F07CFC82468B463648007802F04A
:1040400055FC054600223A4B02F0CBFB074688465A
:104050003548006802F06BFC3A464346CDE9000162
:1040600002F0A6FA52465B46CDE9020102F086FC58
:1040700002D80020314908702848007802F036FC48
:10408000824600222A4B02F0ACFB074688462648AF
:10409000006802F04CFC05463A46434602F05AFCE2
:1040A0000CD22648007848B9012024490870002025
:1040B0001B4908601B4908601B4908601448C07808
:1040C000012874D1194801681D4802F03BFA0546E1
:1040D0001C491348006802F0DDF90646294602F043
:1040E00087FC02D200201349087016490C4800686A
:1040F00002F074FC02D801200E4908700B480168D8
:104100000F4802F01FFA1FE0000C01402C010020B4
:1041100078000020900000209100002092000020F4
:1041200084000020880000208C0000209C000020DB
:10413000004055409300002094000020950000208E
:1041400000007A43000040400546E749E748006820
:1041500002F0A0F90646294602F04AFC02D20020ED
:10416000E3490870E049E148006802F037FC02D8F2
:104170000120DF490870DF480168DF4802F0E2F9FA
:104180000546D949DD48006802F084F9064629460B
:1041900002F02EFC02D20020D9490870D249D7483B
:1041A000006802F01BFC02D80120D5490870D548F0
:1041B000407900287DD1D348C07800287AD1D248F0
:1041C0000078D0B1D148007802F090FB82460022FE
:1041D000CF4B02F006FB05460E46CE48006802F0C3
:1041E000A6FB07462A46334602F0E2F9CDE9020172
:1041F00002F0D8FBC749086019E0C448007802F013
:1042000075FB82460022C24B02F0EBFA05460E46D1
:10421000C048006802F08BFB07462A46334602F08E
:1042200068FACDE9020102F0BDFBBA490860B04866
:104230000078D0B1B848007802F058FB0022B44BA7
:10424000CDE9020102F0CDFA05460E46A748006806
:1042500002F06DFB07462A46334602F0A9F9824672
:1042600002F0A0FBA149086018E0AB48007802F01A
:104270003DFB05460022A64B02F0B3FACDE9020150
:104280009A48006802F053FB0746DDE9022302F07A
:1042900030FA824602F086FB94490860984800781C
:1042A000E8B19E48007802F021FB07460022984BB7
:1042B00001E07AE03EE002F094FA82468B468F48B5
:1042C000006802F034FB52465B46CDE9020102F081
:1042D0006FF9054602F066FB8849086018E08F48D0
:1042E000007802F003FB07460022894B02F079FABE
:1042F000CDE902018148006802F019FB8246DDE940
:10430000022302F0F6F9054602F04CFB7B490860F7
:104310007E48007810B900207E4908607E48007809
:1043200010B90020714908607C48007810B900205D
:10433000724908607348C07801284CD172480078EF
:1043400038B169497348006802F0A4F871490860FF
:1043500006E065496F48006802F0EEF86D490860B4
:104360006348007838B160496048006802F092F80C
:104370005E49086006E05C495C48006802F0DCF8D1
:104380005A4908605E48007838B157495B48006870
:1043900002F080F8594908601DE053495748006809
:1043A00002F0CAF85549086015E0564840790128DE
:1043B00011D15449087802F083FA564908605149EE
:1043C000487802F07DFA494908604E49887802F041
:1043D00077FA4A4908604FF000092EE0002426E0F1
:1043E00024B1012C0CD0022C1ED113E03F480068F0
:1043F00002F089FA09EB4901494A1144085513E0D2
:104400004448006802F07FFA09EB4901444A11442C
:10441000085509E03948006802F075FA09EB4901CE
:104420003F4A1144085500BF00BF601CC4B2032CB2
:10443000D6DB09F1010000F0FF09B9F1040FCDDB73
:104440003048407902280ED02E48007828B92D48EF
:10445000407810B92B48807828B1002125480068A1
:1044600002F0BCFA04D12E48002101604160816055
:10447000FFF7DBFCBDE8FF9F2DE9F04106460F4644
:1044800090460025002472B6254800210160416055
:104490008160002521E000241BE024B1012C08D01C
:1044A000022C13D10BE005EB45001D4908440755CC
:1044B0000CE005EB45001A490844065506E005EBFB
:1044C00045001749084400F8048000BF00BF601C85
:1044D000C4B2032CE1DB681CC5B2042DDBDBFFF7A3
:1044E000A4FC62B6BDE8F0810000404088000020D6
:1044F000940000209C00002000007A438C000020E3
:1045000095000020780000209300002090000020FB
:1045100000405540840000209100002092000020BF
:104520002C0100200021002005E000E0491CF84A91
:104530009142FBD3401C0328F7D3704730B50446A3
:1045400000BF631C03EB830301EB4303D8B2631C7E
:1045500003EB83035B000A2B06D0142B71D01E2BB8
:1045600070D0282B6FD1EFE1A0F10A050A2D14D2EB
:10457000DFE805F00514233241505F71808F32B1BE
:10458000E44B1B7943F08003E24D2B7105E0E14BD6
:104590001B7923F08003DF4D2B7189E032B1DD4BB5
:1045A0001B7943F04003DB4D2B7105E0D94B1B79A0
:1045B00023F04003D74D2B717AE032B1D54B1B79F4
:1045C00043F02003D34D2B7105E0D24B1B7923F030
:1045D0002003D04D2B716BE032B1CE4B1B7943F0F1
:1045E0001003CC4D2B7105E0CA4B1B7923F010034F
:1045F000C84D2B715CE032B1C64B1B7943F0080308
:10460000C44D2B7105E0C34B1B7923F00803C14D4A
:104610002B714DE032B1BF4B1B7943F00403BD4D0C
:104620002B7105E0BB4B1B7923F00403B94D2B71B3
:104630003EE04AB1B74B1B7943F00203B54D2B71F5
:1046400008E037E0D9E022E2B24B1B7923F0020305
:10465000B04D2B712CE032B1AE4B1B7943F001030E
:10466000AC4D2B7105E0AB4B1B7923F00103A94D39
:104670002B711DE032B1A74BDB7843F08003A54DD1
:10468000EB7005E0A34BDB7823F08003A14DEB70CA
:104690000EE032B19F4BDB7843F040039D4DEB7051
:1046A00005E09C4BDB7823F040039A4DEB7000BF94
:1046B00000BFEDE1A0F114050A2D14D2DFE805F0EA
:1046C0000514233241505F6E7D8C32B1914BDB7803
:1046D00043F020038F4DEB7005E08E4BDB7823F029
:1046E00020038C4DEB7086E032B18A4BDB7843F0CF
:1046F0001003884DEB7005E0864BDB7823F0100348
:10470000844DEB7077E032B1824BDB7843F00803E5
:10471000804DEB7005E07F4BDB7823F008037D4D87
:10472000EB7068E032B17B4BDB7843F00403794DEA
:10473000EB7005E0774BDB7823F00403754DEB70ED
:1047400059E032B1734BDB7843F00203714DEB70EB
:1047500005E0704BDB7823F002036E4DEB704AE00E
:1047600032B16C4BDB7843F001036A4DEB7005E02E
:10477000684BDB7823F00103664DEB703BE032B110
:10478000644B9B7843F08003624DAB7005E0614B56
:104790009B7823F080035F4DAB702CE032B15D4B12
:1047A0009B7843F040035B4DAB7005E0594B9B7821
:1047B00023F04003574DAB701DE032B1554B9B7851
:1047C00043F02003534DAB7005E0524B9B7823F030
:1047D0002003504DAB700EE032B14E4B9B7843F04E
:1047E00010034C4DAB7005E04A4B9B7823F010034F
:1047F000484DAB7000BF00BF4AE1A0F11E050A2D75
:1048000014D2DFE805F00514233241505F6E7D902D
:1048100032B1404B9B7843F008033E4DAB7005E04E
:104820003C4B9B7823F008033A4DAB708AE032B1E1
:10483000384B9B7843F00403364DAB7005E0354BA5
:104840009B7823F00403334DAB707BE032B1314BE6
:104850009B7843F002032F4DAB7005E02D4B9B7806
:1048600023F002032B4DAB706CE032B1294B9B78E7
:1048700043F00103274DAB7005E0264B9B7823F0F6
:104880000103244DAB705DE032B1224B5B7843F005
:104890008003204D6B7005E01E4B5B7823F0800396
:1048A0001C4D6B704EE032B11A4B5B7843F0400305
:1048B000184D6B7005E0174B5B7823F04003154DE6
:1048C0006B703FE032B1134B5B7843F02003114D26
:1048D0006B7005E00F4B5B7823F020030D4D6B7080
:1048E00030E032B10B4B5B7843F01003094D6B7035
:1048F00005E0084B5B7823F01003064D6B7021E058
:1049000052B1044B5B7843F00803024D6B7009E031
:10491000FFFF0F00AA000020FE4B5B7823F0080386
:10492000FC4D6B700EE032B1FA4B5B7843F0040340
:10493000F84D6B7005E0F74B5B7823F00403F54D01
:104940006B7000BF00BFA3E0A0F128050A2D14D2B0
:10495000DFE805F00514233241505F6E7D8C32B1E3
:10496000EC4B5B7843F00203EA4D6B7005E0E94BDA
:104970005B7823F00203E74D6B7086E032B1E54BC4
:104980005B7843F00103E34D6B7005E0E14B5B782E
:1049900023F00103DF4D6B7077E032B1DD4B1B7804
:1049A00043F08003DB4D2B7005E0DA4B1B7823F0DE
:1049B0008003D84D2B7068E032B1D64B1B7843F0A2
:1049C0004003D44D2B7005E0D24B1B7823F04003FD
:1049D000D04D2B7059E032B1CE4B1B7843F0200301
:1049E000CC4D2B7005E0CB4B1B7823F02003C94D39
:1049F0002B704AE032B1C74B1B7843F01003C54D12
:104A00002B7005E0C34B1B7823F01003C14D2B70B6
:104A10003BE032B1BF4B1B7843F00803BD4D2B7018
:104A200005E0BC4B1B7823F00803BA4D2B702CE03B
:104A300032B1B84B1B7843F00403B64D2B7005E040
:104A4000B44B1B7823F00403B24D2B701DE032B140
:104A5000B04B1B7843F00203AE4D2B7005E0AD4B1D
:104A60001B7823F00203AB4D2B700EE032B1A94B43
:104A70001B7843F00103A74D2B7005E0A54B1B7875
:104A800023F00103A34D2B7000BF00BF00E000BF67
:104A900000BF30BD70B50646002410E000250AE0D6
:104AA00004EB840006EB4000425D29462046FFF7F8
:104AB00045FD681CC5B20A2DF2DB601CC4B2042C93
:104AC000ECDB70BD10B50521924801F050FA10BD25
:104AD000002000BF00E0401C42F210718842FAD36F
:104AE000704770B5054600248B480088C6B2B542B1
:104AF0000ADB344605E088480480FFF7E9FF601CC4
:104B0000C4B2AC42F7DB0BE0344605E082480480D7
:104B1000FFF7DEFF601EC4B2AC42F7DC7E480480C3
:104B200070BD70B500246420FFF7DBFF19E0282179
:104B30007A4801F0A4FC002508E0012005EB85017E
:104B4000764A02EB41010855681CC5B2042DF4DB1E
:104B50007248FFF79FFFFFF7B5FFFFF7E3FC601C0C
:104B6000C4B20A2CE3DB70BD10B528216B4801F0FC
:104B700086FC01206A498978684A02EB2111087095
:104B800001216748807800F00F0264480A308154A0
:104B9000634842786148143000EB2210017060488D
:104BA000407800F00F025D481E3081541E38FFF738
:104BB00071FFFFF787FF5B48007810B95A4800780B
:104BC00010B1FEF763FB05E04FF4806057490860C1
:104BD0004000086010BD10B52821504801F04FFC7E
:104BE00001204F4949794D4A02EB211108700121FA
:104BF0004B48407900F00F0248480A308154484839
:104C000002794648143000EB2210017044480079C4
:104C100000F00F0241481E3081541E38FFF73AFF62
:104C2000FFF750FF10BD10B528213C4801F027FCCC
:104C300001213B48C2783948143000EB2210017042
:104C40003748C07800F00F0234481E3081541E38B7
:104C5000FFF720FFFFF736FF10BD10B528212F48C2
:104C600001F00DFC3248006801F04DFEC0B20A218F
:104C700090FBF1F129481430012242542C4800687D
:104C800001F041FEC0B20A2190FBF1F201FB1201DA
:104C900022481E30012242541E38FFF7FBFEFFF768
:104CA00011FF10BD10B523480078FF2878D02248A6
:104CB000007830B1012817D0022844D0032862D1EF
:104CC00054E01C480078022802DD002019490870D1
:104CD000184801781948807861F31F1017498870C7
:104CE000FF20144908704FE014488078202806DB24
:104CF00010480078042802DD04200E4908700F488F
:104D0000807800F0F0000B49097808430B4988705F
:104D1000FF2015E0AA0000204000004038010020DC
:104D2000630000203800002044000020140C0140E3
:104D3000740000203C0000203A0000205C000020AD
:104D4000FC49087020E0FB480078062802DD0020BE
:104D5000F8490870F7480178F748407861F31F1068
:104D6000F5494870FF20F34908700DE0F24840789B
:104D700000F0F000EF4909780843EF494870FF2040
:104D8000EC49087000E000BF00BFEC480078401C10
:104D9000EA49087008460078042801DB0020087002
:104DA0002821E74801F06BFB0120E3498978E44AB8
:104DB00002EB211108700121DF48807800F00F021A
:104DC000DF480A308154DC484278DD48143000EB7B
:104DD00022100170D848407800F00F02D8481E30E9
:104DE0008154D848007870B3D448007830B1012895
:104DF0000CD0022813D0032823D119E00020CE497B
:104E00008978CF4A02EB211108701BE00021CA48C3
:104E1000807800F00F02CA480A30815412E0002165
:104E2000C5484278C648143000EB2210017009E0F2
:104E30000021C148407800F00F02C1481E30815463
:104E400000E000BF00BFBE48FFF724FEFFF73AFEB8
:104E5000BD48007858B1BC480078C043BA490870D2
:104E60004FF48060B9490860400008600BE0B64824
:104E70000078C043B44908704FF48060B349091DFD
:104E800008604000086010BD10B5AA480078FF28EF
:104E900061D0AA48007830B1012817D0022822D06A
:104EA00003284BD132E0A3480078022802DD00201D
:104EB000A04908709F4801789F48407961F31F100E
:104EC0009D494871FF209B49087038E09A48407915
:104ED00000F0F00097490978084397494871FF208E
:104EE000944908702BE093480078032802DD0020E5
:104EF000904908708F4801788F48007961F31F103E
:104F00008D490871FF208B49087018E08A480079A4
:104F1000302806DB87480078012802DD002085491B
:104F200008708548007900F0F0008249097808434C
:104F300081490871FF207F49087000E000BF00BF71
:104F40007E480078401C7D49087008460078042897
:104F500001DB002008702821794801F090FA012037
:104F600075494979764A02EB21110870012172488E
:104F7000407900F00F0272480A3081546E4802797D
:104F80006F48143000EB221001706B48007900F07C
:104F90000F026B481E3081546A48007870B367482E
:104FA000007830B101280CD0022813D0032823D177
:104FB00019E0002060494979614A02EB211108702B
:104FC0001BE000215C48407900F00F025C480A3089
:104FD000815412E00021584802795948143000EBFE
:104FE0002210017009E000215348007900F00F02FF
:104FF00053481E30815400E000BF00BF5048FFF707
:1050000049FDFFF75FFD4FF48060504908604000A4
:10501000086010BD10B549480078032802DA032063
:105020004649087043480078FF282BD04348007851
:1050300003281AD13F480078072802DD01203D49A6
:1050400008703C480078012802DA012039490870CC
:105050003948C07800F0F0003649097808433649ED
:10506000C870FF203349087000E000BF00BF33481C
:105070000078401C3149087008460078042801DB9C
:105080000020087028212E4801F0F9F901212A4852
:10509000C07800F00F022A481E3081542948007859
:1050A00070B126480078032808D100212248C07832
:1050B00000F00F0222481E30815400E000BF00BF04
:1050C0001F48FFF7E7FCFFF7FDFC4FF480601F4926
:1050D000091D08604000086010BD10B51748007831
:1050E000022802DA02201549087012480078FF28C9
:1050F0003BD012480078022802D0032828D10BE0C8
:105100000C4801780C48807961F31F100A498871B6
:10511000FF20084908701CE00748807900F0F00083
:1051200004490978084304498871FF20014908703F
:105130000FE000003C0000205C0000203A0000204E
:105140003801002098000020A0000020100C014031
:1051500000BF00BFFA480078401CF94908700846B3
:105160000078042801DB002008702821F54801F0B0
:1051700086F90120F349887088720121F24882790A
:10518000F048143000EB22100170EF48807900F0F5
:105190000F02EC481E308154EC480078D0B1E8484A
:1051A0000078022802D0032812D108E00021E64846
:1051B0008279E448143000EB2210017009E00021EC
:1051C000E148807900F00F02DE481E30815400E093
:1051D00000BF00BFDB48FFF75DFCFFF773FC4FF437
:1051E0008060DB4908604000086010BD10B5D948F8
:1051F0000078FF2848D0D248007830B1012810D07C
:1052000002281BD0032832D124E0D2480178D248AA
:10521000807861F31F10D0498870FF20CD49087055
:1052200026E0CD48807800F0F000CA4909780843AC
:10523000C9498870FF20C749087019E0C54801783E
:10524000C548407861F31F10C3494870FF20C14929
:1052500008700DE0C048407800F0F000BD490978C2
:105260000843BD494870FF20BA49087000E000BFFC
:1052700000BFB3480078401CB14908700846007868
:10528000042801DB002008702821AE4801F0F7F85F
:105290000120B1498978AB4A02EB21110870012144
:1052A000AD48807800F00F02A6480A308154AA4821
:1052B0004278A448143000EB22100170A6484078D0
:1052C00000F00F029F481E308154A0480078B8B308
:1052D0009B48007830B101280CD0022813D0032855
:1052E00023D119E000209C498978964A02EB2111CC
:1052F00008701BE000219848807800F00F02914868
:105300000A30815412E00021934842788D481430CD
:1053100000EB2210017009E000218F48407800F076
:105320000F0288481E30815400E000BF00BF4FF4D8
:1053300080608749091F08604000091D086007E078
:10534000FFE74FF48060824908604000091F086051
:105350007C48FFF79FFBFFF7B5FB10BD10B57F48FA
:105360000078052813D2DFE800F00306090C0F00CF
:10537000FFF798FC0CE0FFF787FD09E0FFF74AFE16
:1053800006E0FFF7AAFE03E0FFF730FF00E000BFF2
:1053900000BF6E480078C0436C49087010BD10B55E
:1053A0008AB000242821684601F069F801206C4A7F
:1053B00012780DF8020001210DF10A00684A1278F6
:1053C000815405A8664A127881540A30644A1278DA
:1053D0008154634801780078401C614A10700A29A2
:1053E00002D10020114608706846FFF753FBFFF713
:1053F00069FB002400E0641C052CFCD35148FFF736
:1054000049FBFFF75FFB0AB010BD10B504462078DA
:1054100030B1622807D0A22814D0E22830D120E091
:10542000FFF7A2FB2DE0FFF718FC4E480078401C68
:105430004C49087008460078042802DB00200870F8
:1054400020701EE0FFF7C7FB46480078401C454926
:10545000087008460078042802DB002008702070DD
:105460000FE0FFF7E0FB3F480078401C3D49087023
:1054700008460078042802DB00200870207000E055
:1054800000BF00BF10BD70B537490888374909888B
:1054900000F0D4FF344948883549097800F0CEFF40
:1054A000344A5179304A908800F0C8FF2A4A52782D
:1054B000294B9B7842EA03212B4AD08800F0BEFF9B
:1054C000294908892C49098800F0B8FF294A117830
:1054D000254A508900F0B2FF264A5178224A908925
:1054E00000F0ACFF234A91781F4AD08900F0A6FF54
:1054F000204AD1781C4A108A00F0A0FF1A49488A35
:105500001E49097800F09AFF1749888A1C490978D2
:1055100000F094FF1449C88A1A49097800F08EFFF8
:1055200019491A48006801F00DF8054601F0EBF939
:1055300084B20D49088B214600F080FF70BD000049
:105540003A000020380100205C0000209800002074
:10555000140C01403C0000206A0000203B000020A9
:10556000A1000020A2000020B00000203400002094
:105570003800002078000020360000204300002082
:105580003D0000203E0000200000C8429C0000209A
:105590002DE9FF410446F748007800287ED12078A5
:1055A00052287CD00FDC30287AD005DCE0B11028FE
:1055B00077D0182876D1D5E0382874D0422873D017
:1055C0004A28F7D185E190286FD006DC5A286DD0A3
:1055D00068287DD07A28EDD1E3E0A8281FD0C22822
:1055E00003D0E028E6D141E0C3E100202070E2488A
:1055F000007818B96420E049087004E00020DE4912
:105600000870DE490870DC480078FFF76AFADA486B
:105610000178DBA001F05CFBFFF735FFA9E100207A
:105620002070D54800783230D34908700846007899
:10563000C82801DD32200870CF480178D0A001F0E1
:1056400047FBCD480078FFF74CFACB48007801F0D3
:105650004DF905460022CE4B01F0C3F8074601F094
:10566000A1F9CC490860FFF70EFF82E1002020700D
:10567000C14800783238C04908700846007832289E
:1056800001DAC8200870BC480178BDA001F020FBF9
:10569000B9480078FFF725FAB74809E088E136E114
:1056A00042E09CE059E1B8E0F3E050E1D3E00FE0E4
:1056B000007801F01BF905460022B54B01F091F886
:1056C000074601F06FF9B3490860FFF7DCFE50E1CF
:1056D00000202070B0484079401CAF49487108460E
:1056E0004079032801DB00204871AB48407901284C
:1056F00011D1AA48006801F006F9A7490870A84826
:10570000006801F000F9A4494870A648006801F05B
:10571000FAF8A1498870A048407910B9A2480078E9
:105720002070FFF7B0FE24E100202070FF209A498E
:1057300008709E4908700020974948709B4948703E
:1057400095498870994988709349C870084640798E
:10575000012801D100204871302093490870FFF7DB
:1057600092FE06E100202070FF208B4908708F49CF
:1057700008709C20884948708C49487000208649F0
:1057800088708A4988708449C87008464079012821
:1057900001D100204871182083490870FFF773FE7B
:1057A000E7E000202070FF207B4908707F490870E7
:1057B000794948707D4948700020774988707B4955
:1057C00088707549C87008464079012801D10020C9
:1057D00048717A2074490870FFF755FEC9E000202F
:1057E00020706D49087071490870FF206A4948703F
:1057F0006E4948700020684988706C498870664915
:10580000C87008464079012801D100204871102055
:1058100065490870FFF737FEABE0002020705E4955
:10582000087062490870FF205B4948705F49487002
:10583000594988705D49887000205749C8700846EA
:105840004079012801D1002048713820564908705C
:10585000FFF719FE8DE0002020704F490870534972
:1058600008704D49487051494870FF204A49887076
:105870004E49887000204849C87008464079012880
:1058800001D1002048715A2047490870FFF7FBFDFD
:105890006FE000202070FF203F49087043490870E6
:1058A00000203D49487041494870FF203A498870BE
:1058B0003E49887000203849C87008464079012860
:1058C00001D100204871422037490870FFF7DBFD05
:1058D0004FE000202070FF202F49087033490870E6
:1058E0002D494870314948702B4988702F4988707C
:1058F00000202949C87008464079012801D10020BC
:1059000048714A2028490870FFF7BDFD31E00020AA
:105910002070FF2020490870244908707F201E490C
:105920004870224948703F201B4988701F49887081
:1059300001201949C87008464079012801D100208A
:105940004871522018490870FFF79DFD11E00020B2
:1059500020700120074908700BE02078622807D0EA
:105960002078A22804D02078E22801D000202070DE
:1059700000BFEBE039000020380000204400002088
:105980004C696768744C6576656C3A25640D0A004D
:10599000000069409C000020780000208400002066
:1059A000880000208C0000203D0000207E000020A8
:1059B0002078622835D013DC382872D007DC10B389
:1059C00010287AD0182866D030286CD15DE04228A3
:1059D0006AD04A2869D0522868D05A28F5D17AE08E
:1059E000A82870D008DC68284AD07A285FD0902890
:1059F0006AD0A228E9D127E0C22805D0E02870D0DB
:105A0000E228E2D12EE0A0E0002020707748007864
:105A100010B964207549087074480078FFF761F880
:105A200093E00020207072480078401C7049087094
:105A300008460078052801DB002008706C480178D2
:105A40006CA001F045F980E0002020706C480078DF
:105A5000401E6B49087008460078FF2801D10320DA
:105A6000087072E00020207065480078401C64498E
:105A7000087008460078042801D10020087064E00E
:105A8000002020705F4908705FE000202070012036
:105A90005C49087059E000202070022059490870C4
:105AA00053E012E009E04DE01CE021E026E0002098
:105AB000207003205349087047E000202070042024
:105AC0005049087041E01FE024E0002020700520CC
:105AD0004C49087039E000202070062049490870C0
