:020000040800F2
:100000007804002045010008E5110008E711000808
:10001000EB110008EF110008F311000800000000C8
:10002000000000000000000000000000F7110008C0
:10003000F911000800000000FB1100081B12000865
:100040005F0100085F0100085F0100085F01000810
:100050005F0100085F0100085F010008FD11000852
:100060005F0100085F0100085F0100085F010008F0
:100070005F0100085F0100085F0100085F010008E0
:100080005F0100085F0100085F0100085F010008D0
:100090005F0100085F0100085F01000845220008B9
:1000A0005F0100085F0100085F0100085F010008B0
:1000B0005F0100085F0100085F0100085F010008A0
:1000C0005F0100085F0100085F0100085F01000890
:1000D0005F0100081F1400085F0100085F010008AD
:1000E0005F0100085F0100085F0100085F01000870
:1000F0005F0100085F0100085F0100085F01000860
:100100005F0100085F0100085F0100085F0100084F
:100110005F0100085F0100085F0100085F0100083F
:100120005F0100085F0100085F0100085F0100082F
:10013000DFF80CD002F0D4FB00480047A310000801
:10014000780400200648804706480047FEE7FEE79F
:10015000FEE7FEE7FEE7FEE7FEE7FEE7FEE7FEE777
:1001600045020008310100080CB500200190009004
:100170006B48006840F480306949086000BF6848F7
:10018000006800F4003000900198401C0190009835
:1001900018B90198B0F5A06FF1D16148006810F46A
:1001A000003F02D00120009001E000200090009864
:1001B000012842D15B48006840F0100059490860AE
:1001C0000846006820F0030008600846006840F018
:1001D000020008605248406851494860084640683B
:1001E00048600846406840F48060486008464068BF
:1001F00020F47C1048600846406840F4E8104860ED
:100200000846006840F08070086000BF44480068FD
:1002100010F0007FFAD04248406820F003004049C7
:1002200048600846406840F00200486000BF3C4813
:10023000406800F00C000828F9D10CBD10B5FFF79C
:1002400093FF10BD10B53648006840F001003449F6
:10025000086008464068344908403149486008460B
:100260000068324908402E4908600846006820F4BA
:10027000802008600846406820F4FE0048604FF483
:100280001F008860FFF7DAFF4FF000602849086020
:1002900010BD10B5002100200022214B5B6803F047
:1002A0000C0121B1042906D0082928D107E0214BEF
:1002B000214C236027E01F4B1F4C236023E0184B89
:1002C0005B6803F47010164B5B6803F48032022302
:1002D00003EB904022B9194B4343174C23600DE0C8
:1002E0000F4B5B6813F4003F04D0144B4343124C94
:1002F000236003E00F4B43430F4C236003E00D4B9F
:100300000D4C236000BF00BF054B5B68C3F30313B4
:100310000B4CE15C084B1B68CB40074C236010BDC5
:1003200000100240002002400000FFF8FFFFF6FE30
:1003300008ED00E000127A000000002000093D00F6
:100340000400002031490143314A1160704770B503
:10035000002100230F22C4780CB32D4C246804F430
:10036000E064C4F5E064210AC1F10403CA404478A2
:1003700004FA03F18478144021430901254C0678DE
:10038000A155047804F01F050124AC4005786D11D7
:100390004FF0E02606EB8505C5F8004109E004783A
:1003A00004F01F050124AC401B4D0678761145F87A
:1003B000264070BD194A0A400243154B1B1F1A60A4
:1003C000704739B1124A121D12680243104B1B1DAF
:1003D0001A6006E00E4A121D126882430C4B1B1D68
:1003E0001A607047042808D14FF0E021096941F0F4
:1003F00004014FF0E022116107E04FF0E0210969AC
:1004000021F004014FF0E022116170470000FA056D
:100410000CED00E000E400E080E100E080FFFF1F61
:10042000002044490860091D0860091D0860091D75
:10043000086041483F4914310860704700213D4938
:100440008279002A3AD00A46126803689A430B461A
:100450001A600A1D126803689A430B1D1A6002791C
:1004600011440A6803681A430A60324A0832126863
:1004700003689A432F4B08331A601A1D12680368E9
:100480009A432C4B0C331A604279102A0ED11A1F52
:10049000126803681A43274B08331A601A1D126842
:1004A00003681A43234B0C331A600DE0214942794B
:1004B00011440A6803681A430A6005E0027911448E
:1004C0000A6803689A430A6070470021016001715D
:1004D0000C21417100218171704716491031096862
:1004E0000143144A10321160704701460020114A3E
:1004F000143212680A4201D0012000E00020704747
:100500000C49143108607047014600200022094B55
:100510001B6803EA0102074B14331B680B4202D02D
:100520000AB1012000E00020704702491431086040
:100530007047000000040140FFFF0F0010B50446A3
:10054000CA48844208D10121042000F027FB002181
:10055000042000F023FB46E0C548844208D1012175
:10056000082000F01BFB0021082000F017FB3AE0F8
:10057000C048844208D10121102000F00FFB002167
:10058000102000F00BFB2EE0BB48844208D1012173
:10059000202000F003FB0021202000F0FFFA22E0E1
:1005A000B648844208D10121402000F0F7FA00212A
:1005B000402000F0F3FA16E0B148844208D101214E
:1005C000802000F0EBFA0021802000F0E7FA0AE03A
:1005D000AC48844207D10121801500F0DFFA0021E8
:1005E000A01500F0DBFA10BD10B50121084600F09F
:1005F000D5FA0021012000F0D1FA10BD2DE9F0411B
:10060000024600250026002000230024002791F840
:1006100003C00CF00F0591F803C01CF0100F03D0BD
:1006200091F802C04CEA050591F800C0BCF1000F3A
:1006300031D0146800202BE04FF0010C0CFA00F3CD
:10064000B1F800C00CEA03069E4220D183004FF0AF
:100650000F0C0CFA03F7BC4305FA03FC4CEA040444
:1006600091F803C0BCF1280F06D14FF0010C0CFA31
:1006700000FCC2F814C00AE091F803C0BCF1480FB6
:1006800005D14FF0010C0CFA00FCC2F810C0401C60
:100690000828D1D31460B1F800C0BCF1FF0F34DDDD
:1006A000546800202EE000F1080C4FF0010808FA11
:1006B0000CF3B1F800C00CEA03069E4221D183007E
:1006C0004FF00F0C0CFA03F7BC4305FA03FC4CEA9D
:1006D000040491F803C0BCF1280F05D100F1080C07
:1006E00008FA0CF8C2F8148091F803C0BCF1480F66
:1006F00007D100F1080C4FF0010808FA0CF8C2F815
:100700001080401C0828CED35460BDE8F0814FF61D
:10071000FF710180022181700421C170704702467F
:10072000002093680B4201D0012000E000207047B8
:100730000146886880B2704702460020D3680B42A9
:1007400001D0012000E0002070470146C86880B257
:10075000704701617047416170470AB1016100E073
:1007600041617047C16070474FF480320A43826133
:100770008161826182698269704702460020424B32
:1007800018684FF68073184040EA021008433E4B49
:10079000186070473D49C8617047F0B50A460023AC
:1007A00000240021002500F00046B6F1004F02D1E0
:1007B000354EF16901E0344E7168C0F3034583B2F0
:1007C00000F44016B6F5401F08D121F070612E4E9E
:1007D000766826F070662C4F7E6012E000F480167A
:1007E000B6F5801F06D1032606FA05F4A14341F0B1
:1007F000706106E0460D360103FA06F6B14341F09A
:10080000706122B1460D360103FA06F6314300F05D
:100810000046B6F1004F02D11B4EF16101E01A4EC5
:100820007160F0BD30B500228B071C0F0F2303FA57
:1008300004F2154B08338C1053F824309343124CB8
:1008400008348D1044F8253023468C1053F824309A
:100850008C07240F00FA04F423430B4C08348D104A
:1008600044F8253030BD0A4908607047000801404F
:10087000000C01400010014000140140001801402C
:10088000001C014000200140000001400000204207
:10089000DC002042DD48006840F00100DB490860D0
:1008A00008464068DA490840D84948600846006868
:1008B000D8490840D54908600846006820F48020DF
:1008C00008600846406820F4FE0048604FF41F00AE
:1008D00088607047CD49096821F48031CB4A1160A6
:1008E0001146096821F480211160B0F5803F03D0E2
:1008F000B0F5802F0ED106E0C449096841F480317B
:10090000C24A116007E0C149096841F4A021BF4A09
:10091000116000E000BF00BF704710B50146002223
:10092000002300204A11012A02D1B84C236806E0B6
:10093000022A02D1B54C236A01E0B44C636A01F08B
:100940001F02012494401C4201D0012000E000203D
:1009500010BD38B5002000900024002500BF3120D4
:10096000FFF7DBFF05460098401C00900098B0F5AB
:10097000A06F01D0002DF2D03120FFF7CEFF08B1DB
:10098000012400E00024204638BD014600209F4A93
:10099000106820F0F80040EAC100106070479E49DE
:1009A0000860704702460020984B586820F47C107D
:1009B00042EA01031843954B586070479649086610
:1009C000704701460020914A506820F00300084318
:1009D000506070478D48406800F00C007047014639
:1009E00000208A4A506820F0F000084350607047A9
:1009F00001460020854A506820F4E06008435060BA
:100A0000704701460020814A506820F4605040EA57
:100A1000C1005060704729B17C4A527A02437B4B37
:100A20005A7204E0794A527A8243784B5A7270477C
:100A30007A490860704701460020744A506820F4E3
:100A400040400843506070470021754A11706F4A5A
:100A500082F82010012802D0042808D103E00121E7
:100A60006F4A117004E005216D4A117000E000BF6B
:100A700000BF70476B49086070476449096A0143C9
:100A8000624A11627047674944390860704730B55F
:100A900000210022002400235C4D6D6805F00C014C
:100AA00021B1042905D0082923D105E05E4D056058
:100AB00022E05D4D05601FE0544D6D6805F4701235
:100AC000524D6D6805F48034022505EB92421CB945
:100AD000564D554305600BE04C4D6D6815F4003FD5
:100AE00003D0524D5543056002E04F4D554305601C
:100AF00002E04D4D056000BF00BF444D6D6805F03C
:100B0000F00109094A4D6B5C0568DD4045603F4DC9
:100B10006D6805F4E061090A454D6B5C4568DD4090
:100B200085603A4D6D6805F46051C90A404D6B5CB3
:100B30004568DD40C560354D6D6805F44041890B61
:100B40003C4D6B5CC568B5FBF3F5056130BD29B163
:100B50002E4A526902432D4B5A6104E02B4A5269D6
:100B600082432A4B5A61704729B1284A926902434D
:100B7000264B9A6104E0254A92698243234B9A618D
:100B8000704729B1214AD2690243204BDA6104E05F
:100B90001E4AD26982431D4BDA61704729B11B4A54
:100BA000D2680243194BDA6004E0184AD2688243E3
:100BB000164BDA60704729B1144A12690243134B8D
:100BC0001A6104E0114A12698243104B1A6170479E
:100BD00014494039086070470F49C86470470B4991
:100BE000C87170470948406A40F080700749486200
:100BF000704701460020054A92680A4201D0012050
:100C000000E00020704701498872704700100240E0
:100C10000000FFF8FFFFF6FE00004242D80042420B
:100C2000201002408004424200127A0000093D0078
:100C3000140000202400002010B50446FB48844224
:100C400009D101218803FFF7A9FF00214FF480405B
:100C5000FFF7A4FF32E0F648844209D1012148049D
:100C6000FFF7A9FF00214FF40030FFF7A4FF25E0B4
:100C7000F048844209D101218804FFF79CFF00213C
:100C80004FF48020FFF797FF18E0EB48844209D12A
:100C90000121C804FFF78FFF00214FF40020FFF768
:100CA0008AFF0BE0E548844208D101210805FFF7DF
:100CB00082FF00214FF48010FFF77DFF10BD2DE96A
:100CC000F04786B005460E460024A24600BFA14666
:100CD0000027B08900B100BF2F462C8A4CF6FF7068
:100CE0000440F08804432C82AC894EF6F310044093
:100CF000B08831890843718908430443AC81AC8AC8
:100D00004FF6FF400440B0890443AC8201A8FFF7CE
:100D1000BEFEC648874202D1DDF810A001E0DDF832
:100D20000CA0A88910F4004F08D00AEBCA0000EB11
:100D30000A1031684900B0FBF1F807E00AEBCA007D
:100D400000EB0A1031688900B0FBF1F86420B8FBB1
:100D5000F0F004012009642101FB1089A88910F436
:100D6000004F08D0322000EBC900B0FBF1F000F0DA
:100D70000700044308E0322000EB09106421B0FBB7
:100D8000F1F000F00F0004432C8106B0BDE8F087BD
:100D90004FF41651016000218180C18001810C2136
:100DA000418100218181704710B502460020108AE0
:100DB0004FF2FF0318400B884C8823438C88234351
:100DC000CC8823431843108210BD0021018041804C
:100DD0008180C180704721B1828942F400528281B2
:100DE00004E082894DF6FF731A4082817047F0B5A6
:100DF00003460024002600250020A1F510676A3F65
:100E000000D100BF1846C1F3421401F01F060127AC
:100E100007FA06F5012C01D10C3004E0022C01D1B7
:100E2000103000E014301AB107682F43076002E069
:100E30000768AF430760F0BD1AB1838A0B43838212
:100E400002E0838A8B4383827047028A4FF6F073F5
:100E50001A400282028A0A430282704782894FF254
:100E6000FF731A40828182890A438281704721B1CF
:100E7000828942F00202828104E082894FF6FD738A
:100E80001A4082817047028A4FF6DF731A4002824D
:100E9000028A0A430282704721B1028A42F48042E8
:100EA000028204E0028A4BF6FF731A400282704706
:100EB000C1F308028280704701468888C0F30800A9
:100EC0007047818941F0010181817047028BD2B264
:100ED0000283028B42EA012202837047028B02F4F2
:100EE0007F420283028B0A430283704721B1828AC8
:100EF00042F02002828204E0828A4FF6DF731A40B9
:100F00008282704721B1828A42F01002828204E01C
:100F1000828A4FF6EF731A408282704721B1828A2B
:100F200042F00802828204E0828A4FF6F7731A4088
:100F30008282704721B1828942F40042828103E0BB
:100F40008289C2F30E028281704721B1828A42F403
:100F50000062828204E0828A4FF2FF731A4082822A
:100F60007047828A4FF6FB731A408282828A0A4354
:100F70008282704721B1828A42F00202828204E0BA
:100F8000828A4FF6FD731A40828270470246002023
:100F9000B1F5007F00D100BF13880B4201D00120C2
:100FA00000E00020704701F40072B2F5007F00D12C
:100FB00000BFCA430280704770B502460024002378
:100FC00000250020A1F510666A3E00D100BFC1F3E4
:100FD000421501F01F03012606FA03F3012D02D189
:100FE0009689334006E0022D02D1168A334001E093
:100FF000968A33400C12012606FA04F4168834400F
:1010000013B10CB1012000E0002070BD10B500222A
:101010000023A1F510646A3C00D100BF0A1201242C
:101020009440A3B2DC43048010BD000000380140AE
:101030000044004000480040004C00400050004088
:1010400008B54FF4A060FFF77DF925208DF800006A
:1010500000208DF8010002208DF8020001208DF89B
:1010600003006846FFF773F907208DF800000020A1
:101070008DF8010001208DF802008DF8030068460C
:10108000FFF765F917208DF8000000208DF80100AA
:101090008DF8020001208DF803006846FFF757F92C
:1010A00008BD00F0F9F800F021F9FFF7C9FF00F0E2
:1010B00091FD00F075F900F096FA00F07DFC00F06B
:1010C000D5FD00F04BFF01F086F82BA001F04CFCA1
:1010D00000BF2C480078D0B100202A4908702A4867
:1010E000006880F04000284908602848037842786A
:1010F000817827A001F038FC00F074FD064601F06D
:10110000A2F9044622460B4626A001F02DFC2948F0
:10111000007810B100202749087027480078C0B136
:101120004FF0E020006920F001004FF0E02108615D
:10113000FA2340228021FF2000F048FE00201E49B3
:1011400008704FF0E020006940F001004FF0E0210E
:1011500008611A4800780028BBD001F0B8F8184997
:1011600008700846017817A001F0FEFB19480178C5
:1011700019A001F0F9FBACE752756E6E696E672E2F
:101180002E2E0A002C0000200C08014043000020F5
:1011900054696D653A2532783A2532783A253278A5
:1011A0002020000054656D703A25332E3266A1E68A
:1011B000200D0A00350000203400002059000020D6
:1011C0002800002052656D6F74654B65793A25647F
:1011D0002000000058000020636E743A2564200D42
:1011E0000A000000704700BFFEE700BFFEE700BF37
:1011F000FEE700BFFEE770477047704710B502205A
:10120000FFF782F940B11D4800F065FA01201C4942
:1012100008700220FFF789F910BD10B500F0ADF895
:1012200018480068401C174908600846006841F2E9
:101230008831B0FBF1F201FB120010B90120124914
:101240000870104800681149B0FBF1F201FB120070
:1012500010B901200E4908700A4800680B49B0FB1C
:10126000F1F201FB12004910884203D20120094922
:10127000087002E000200749087010BD43000020FC
:101280002C0000203000002034000020A086010047
:10129000350000203600002008B501210420FFF7AA
:1012A00063FC4020ADF8000010208DF803000320FF
:1012B0008DF8020069460B48FFF7A0F94021094864
:1012C000FFF747FA08BD10B50748007820B1402164
:1012D0000448FFF73EFA03E040210248FFF73BFADB
:1012E00010BD0000000801403600002030B527483E
:1012F0000068274AB0FBF2F1B1F1807F01D30120F1
:101300001DE021F07F40401E4FF0E0225061501759
:101310000F22002807DA13071D0E1E4B00F00F04E2
:10132000241F1D5503E013071C0E1B4B1C5400BF4C
:1013300000204FF0E022906107201061002008B1EA
:1013400000BFFEE74FF0E020006940F001004FF0E1
:10135000E021086130BD01B51049009808604FF0E8
:10136000E020006940F001004FF0E021086100BF7B
:101370000A4800680028FBD108BD0848006820B171
:1013800006480068401E05490860704700000020BC
:10139000A086010018ED00E000E400E03800002025
:1013A00000B585B0012144F20400FFF7DDFB4FF4E6
:1013B0000070ADF8100018208DF8130003208DF890
:1013C000120004A94048FFF719F94FF48060ADF806
:1013D000100004208DF8130004A93B48FFF70EF914
:1013E0004FF4E13000900020ADF80400ADF80600A5
:1013F000ADF80800ADF80C000C20ADF80A00694605
:101400003248FFF75CFC012240F225512F48FFF7DC
:10141000EEFC01212D48FFF7DEFC05B000BD10B544
:1014200040F225512948FFF7C7FD38B12748FFF79B
:1014300043FDC4B2214626A001F096FA10BD70B556
:1014400004460D46E1B22148FFF732FD00BF4021BE
:101450001E48FFF79BFD0028F9D0204670BD10B54F
:10146000044600BF20211948FFF790FD0028F9D05D
:101470001648FFF721FD10BD70B504460D462946FC
:101480002046FFF715FD00BF40212046FFF77EFDF7
:101490000028F9D070BD2DE9F04107460D461646EB
:1014A000002400BF0CE0295D3846FFF701FD00BFB6
:1014B00040213846FFF76AFD0028F9D0601C84B24D
:1014C000B442F0DBBDE8F081000801400038014083
:1014D00025630D0A000000000EB501210920FFF769
:1014E00043FB0220ADF8080048208DF80B0002A94C
:1014F000A748FFF783F801210846FFF793F9022078
:10150000009000208DF804000C208DF805000120CB
:101510008DF806006846FEF791FF0EBD10B5D0208D
:1015200000F037FA10BD2DE9F04706460F46904609
:10153000B94600242BE0ECB900F06BF900250AE075
:1015400000F04FF9D02000F076F900F0C2F900B9B0
:1015500003E0681C85B2642DF2DB00BFB5F57A7F2D
:1015600000D11BE009F0FF0000F065F900F0B1F9CF
:1015700000B113E0305D00F05EF900F0AAF900B1AF
:101580000CE009F101001FFA80F9601C84B24445A7
:10159000D1DB00F03EF90120BDE8F08700F039F919
:1015A0000020F9E71CB50020019080200090012068
:1015B000019001220E2101A8FFF7B5FF01220721AA
:1015C0006846FFF7B0FF012208216846FFF7ABFF2E
:1015D000012209216846FFF7A6FF01220A21684679
:1015E000FFF7A1FF1CBD10B501210846FFF7BCFAAB
:1015F00001216848FFF7D1F8FFF790FFFFF76CFF74
:10160000FFF7D0FF10BD7CB504460020009001908C
:10161000002520788DF8000060788DF80100A07812
:101620008DF80200E0788DF8030020798DF8040031
:1016300060798DF80500A0798DF806000FE0681C30
:10164000C5B2072200216846FFF76DFF012803D1CC
:1016500051A001F089F904E052A001F085F9052DAF
:10166000EDDB00BF7CBD2DE9F04106460F46154677
:1016700000F0B7F8D02000F0DEF800F02AF900B151
:1016800025E0F8B200F0D7F800F023F900B11EE031
:1016900000F0A7F8D12000F0CEF800F01AF900B160
:1016A00015E000240CE000F0F3F83055681EA0426D
:1016B00002D000F02BF901E000F042F9601C84B286
:1016C000AC42F0DB00F0A5F80120BDE8F08100F0AD
:1016D000A0F80020F9E71CB5044600200090019016
:1016E000072200216846FFF7BEFF012815D19DF8AB
:1016F000000020709DF8010060709DF80200A0704D
:101700009DF80300E0709DF8040020719DF805002D
:1017100060719DF80600A07102E026A001F024F996
:101720001CBD38B50446012221466846FFF79BFFE1
:101730009DF8000038BD13B504460122214601A8DA
:10174000FFF7F1FE012800D11CBD0020FCE710B519
:1017500086B0142101A800F0E8FD00241322002126
:1017600001A8FFF780FF01280CD100BF07E001A806
:10177000025D214613A001F0F7F8601CC4B2132CDF
:10178000F5DB02E00BA001F0EFF806B010BD0000A1
:10179000000C0140000230005772697465204F4B05
:1017A0000D0A00005772697465204661696C6564B2
:1017B000210D0A0052656164206661696C656421CF
:1017C0000D0A0000526567307825783A3078257820
:1017D0000D0A0000002001E0411CC8B20A28FBDB12
:1017E000704710B508217348FEF7B3FF1021714808
:1017F000FEF7AFFFFFF7EEFF08216E48FEF7ABFFE5
:10180000FFF7E8FF10216B48FEF7A5FFFFF7E2FFA7
:1018100010BD10B508216748FEF79DFF10216548EF
:10182000FEF797FFFFF7D6FF08216248FEF791FF0A
:10183000FFF7D0FF10BD70B50446002523E014F07B
:10184000800F04D008215B48FEF783FF03E00821E6
:101850005848FEF780FFFFF7BDFF10215548FEF7FF
:1018600078FFFFF7B7FF10215248FEF774FF072DEE
:1018700003D108214F48FEF76CFF6006040EFFF706
:10188000A9FF681CC5B2082DD9DBFFF7A3FF70BD07
:1018900070B50024002516E06006040E10214548AE
:1018A000FEF757FFFFF796FF08214248FEF737FF84
:1018B00008B1601CC4B210213E48FEF74CFFFFF790
:1018C00089FF681CC5B2082DE6DBFFF783FF2046C1
:1018D00070BD10B508213748FEF73BFFFFF77AFFD0
:1018E00010213448FEF735FFFFF774FF0821314817
:1018F000FEF715FF08B1012400E0002410212D4857
:10190000FEF729FFFFF766FF204610BD10B508213E
:101910002848FEF720FFFFF75DFF10212548FEF75E
:1019200018FFFFF757FF10212248FEF714FFFFF7BB
:1019300051FF08211F48FEF70CFFFFF74BFF10BDBA
:1019400010B508211B48FEF704FFFFF743FF1021E5
:101950001848FEF7FEFEFFF73DFF10211548FEF781
:10196000FAFEFFF737FF10BD08B501210820FFF789
:10197000FBF81820ADF8000003208DF802001420B9
:101980008DF8030069460B48FEF738FEFFF741FF6C
:1019900008BD70B50446FFF7E7FFFFF722FF2046BA
:1019A000FFF749FFFFF795FF0546FFF732FF28468F
:1019B00070BD0000000C014008B501210820FFF7B0
:1019C000D3F84020ADF8000010208DF8030003206C
:1019D0008DF8020069460B48FEF710FE40210948C9
:1019E000FEF7B9FE08BD10B50748007820B14021C8
:1019F0000448FEF7AEFE03E040210248FEF7ABFECE
:101A000010BD0000000C01403600002010B5044657
:101A10002046FFF7A0FC10BD08B501210820FFF704
:101A2000A3F84FF48070ADF8000010208DF803008B
:101A300003208DF8020069468A48FEF7DFFD4FF467
:101A400080718848FEF785FE08BD08B54FF48070A8
:101A5000ADF8000048208DF8030069468148FEF784
:101A6000CDFD08BD08B54FF48070ADF80000102022
:101A70008DF8030003208DF8020069467948FEF7CF
:101A8000BDFD08BD10B5FFF7EDFF4FF4807175483F
:101A9000FEF761FE4B20FFF7B9FF4FF480717148EC
:101AA000FEF757FE0220FFF7B1FF10BD10B500246E
:101AB000FFF7CBFF04E0601CC4B20120FFF7A6FFD4
:101AC0004FF480716748FEF72AFE08B1642CF2DB00
:101AD000642C01DB012010BD002404E0601CC4B2B2
:101AE0000120FFF793FF4FF480715E48FEF717FE69
:101AF00008B9F02CF2DBF02C01DB0120EBE7002031
:101B0000E9E710B5FFF7AEFF4FF480715548FEF7D7
:101B100022FE0120FFF77AFFFFF797FF4FF4807155
:101B20005048FEF7FCFD012801D1012400E000240B
:101B30000520FFF76BFF204610BD70B5002600247E
:101B400008E0FFF7DEFF054605FA04F03043C6B2B1
:101B5000601CC4B2082CF4DB304670BD70B504467E
:101B6000FFF780FF002526E004F00106641086B12F
:101B70004FF480713B48FEF7EEFD0120FFF746FF72
:101B80004FF480713748FEF7E4FD0620FFF73EFF73
:101B90000FE04FF480713348FEF7DDFD0720FFF7BB
:101BA00035FF4FF480712F48FEF7D3FD0120FFF77A
:101BB0002DFF681CC5B2082DD6DB70BD10B5FFF730
:101BC00061FFFFF773FFCC20FFF7C8FF4420FFF74A
:101BD000C5FF10BD10B5FFF71FFFFFF753FFFFF75D
:101BE00065FF10BD2DE9F05FFFF74CFFFFF75EFFCB
:101BF000CC20FFF7B3FF4420FFF7B0FFFFF742FF11
:101C0000FFF754FFCC20FFF7A9FFBE20FFF7A6FF88
:101C1000FFF793FF8346FFF790FF82464FEA0A20C3
:101C200004B244EA0B04002C0DDAE043401C00F03F
:101C3000F9FB074600220C4B00F082FB054600F042
:101C400015FC81460BE0204600F0ECFB0746002225
:101C5000054B00F075FB054600F008FC8146484640
:101C6000BDE8F09F000C01400000B03F08B5012125
:101C70000820FEF779FF0120ADF8000010208DF854
:101C8000030003208DF802006946A948FEF7B6FC60
:101C900008BD0120A6491031086000BF00BF00BF89
:101CA00000BF00BF00BF00BF00BF00BF00BF00BF3C
:101CB00000BF00BF00BF00BF00BF00BF00BF00BF2C
:101CC00000BF01209A491431086000BF00BF00BF67
:101CD00000BF00BF00BF00BF00BF00BF00BF00BF0C
:101CE00000BF00BF00BF00BF00BF00BF00BF00BFFC
:101CF00000BF00BF00BF00BF00BF00BF00BF00BFEC
:101D000000BF00BF00BF00BF00BF00BF00BF00BFDB
:101D100000BF00BF00BF7047012085491031086037
:101D200000BF00BF00BF00BF00BF00BF00BF00BFBB
:101D300000BF00BF00BF00BF00BF00BF00BF00BFAB
:101D400000BF00BF00BF00BF00BF00BF00BF00BF9B
:101D500000BF00BF00BF00BF00BF00BF00BF00BF8B
:101D600000BF00BF00BF00BF00BF00BF012070491F
:101D70001431086000BF00BF00BF00BF00BF704744
:101D800000B50346002200BF0AE08020104118423F
:101D900002D0FFF7C1FF01E0FFF77BFF501CC2B28A
:101DA000082AF2DB00BD30B500250CE0002407E076
:101DB00005EB45015F4A1144085DFFF7E1FF641C34
:101DC000032CF5D36D1C042DF0D330BD2DE9F04765
:101DD0000746884691461E464FF0000A002500241B
:101DE00055480078B84207D154480078404503D19F
:101DF00053480078484509D04F4807704F4880F84D
:101E000000804F4880F800904FF0010ABAF1000FAF
:101E10000BD0494800784B490870484800784A4937
:101E2000087047480078494908704948007828B147
:101E300044480078401D4349087004E04148007858
:101E4000401F404908704348007828B13E48007858
:101E5000401D3D49087004E03B480078401F3A4966
:101E600008703D48007828B138480078401D37494F
:101E7000087004E035480078401F34490870314844
:101E80000078B04202DD0020314908702D4800780A
:101E9000052802DA01202E4908702B480078B0424C
:101EA00002DD00202B49087027480078052802DA57
:101EB00001202849087025480078B04202DD002042
:101EC0002549087021480078052802DA01202249B6
:101ED0000870002526E0002420E024B1012C0AD05F
:101EE000022C18D10FE01748007805EB4501114A84
:101EF000114408550FE01448007805EB45010D4AE0
:101F00001144085507E01148007805EB4501094ADE
:101F10001144085500BF00BF601CC4B2032CDCDBB9
:101F2000681CC5B2042DD6DBFFF73DFFBDE8F08786
:101F3000000C0140600000204A0000204B000020FF
:101F40004C0000204D0000204E0000204F000020DB
:101F500050000020510000205200002008B501214F
:101F60000420FEF701FE0F20ADF8000010208DF8D0
:101F7000030003208DF8020069466448FEF73EFB2B
:101F800008BD012061491031086000BF00BF00BFDB
:101F900000BF00BF00BF00BF00BF00BF00BF00BF49
:101FA00000BF00BF00BF00BF00BF00BF00BF00BF39
:101FB00000BF012055491431086000BF00BF00BFB9
:101FC00000BF00BF00BF00BF00BF00BF00BF00BF19
:101FD00000BF00BF00BF00BF00BF00BF00BF00BF09
:101FE00000BF00BF00BF00BF00BF00BF00BF00BFF9
:101FF00000BF00BF00BF00BF00BF00BF00BF00BFE9
:1020000000BF00BF00BF7047012040491031086089
:1020100000BF00BF00BF00BF00BF00BF00BF00BFC8
:1020200000BF00BF00BF00BF00BF00BF00BF00BFB8
:1020300000BF00BF00BF00BF00BF00BF00BF00BFA8
:1020400000BF00BF00BF00BF00BF00BF00BF00BF98
:1020500000BF00BF00BF00BF00BF00BF01202B4971
:102060001431086000BF00BF00BF00BF00BF704751
:1020700000B50346002200BF0AE08020104118424C
:1020800002D0FFF7C1FF01E0FFF77BFF501CC2B297
:10209000082AF2DB00BD30B500250CE0002407E083
:1020A00005EB45011A4A1144085DFFF7E1FF641C86
:1020B000032CF5D36D1C042DF0D330BD30B50024B6
:1020C000002500BF17E0002511E01248007830B16C
:1020D000FF2004EB44010E4A1144485505E000205E
:1020E00004EB44010A4A11444855681CC5B2032D4B
:1020F000EBDB601CC4B2042CE5DB06480078C0436F
:1021000004490870FFF7C7FF30BD00000008014018
:102110006C000020530000205AE000BF00BF00BF49
:1021200000BF00BF00BF00BF00BF00BF00BF00BFB7
:1021300000BF00BF00BF00BF00BF00BF00BF00BFA7
:1021400000BF00BF00BF00BF00BF00BF00BF00BF97
:1021500000BF00BF00BF00BF00BF00BF00BF00BF87
:1021600000BF00BF00BF00BF00BF00BF00BF00BF77
:1021700000BF00BF00BF00BF00BF00BF00BF00BF67
:1021800000BF00BF00BF00BF00BF00BF00BF00BF57
:1021900000BF00BF00BF00BF00BF00BF00BF00BF47
:1021A00000BF00BF00BF00BF00BF00BF00BF00BF37
:1021B00000BF00BF00BF00BF00BF00BF00BF00BF27
:1021C00000BF00BF00BF00BF00BF00BF411EC8B2BC
:1021D0000028A2DC70470EB501210920FEF7C4FCDF
:1021E0008020ADF8080048208DF80B0003208DF802
:1021F0000A0002A94448FEF701FA07210120FEF770
:1022000011FB8020009000208DF804000C208DF838
:10221000050001208DF806006846FEF70FF90EBD97
:1022200000B5002208E0501CC2B20F20FFF774FF77
:10223000FA2A01D1104600BD344800680028F2D1C6
:102240001046F8E770B50024002500268020FEF730
:102250005BF900283AD034E02C480068002830D0E0
:10226000FFF7DEFF0446FA2C00D12BE0C82C03DB7D
:10227000FA2C01DA012517E0552C0ADBC82C08DA04
:1022800001202349087023480078401C2149087028
:1022900018E0322C03DB552C01DA012604E00A2C6D
:1022A00002DB322C00DA00265DB11B4800684000DA
:1022B0001949086008460068304408600020154944
:1022C0000870C9E700BF8020FEF72FF970BD1248E3
:1022D0000068010E10480068C0F3074200200C4B54
:1022E0001870D043C0B288420CD159B90A4800884E
:1022F000C0F3072108480278D043C0B2884201D118
:10230000084670470020FCE7000C01401C81214278
:10231000590000205800002054000020D2B201E0F3
:1023200000F8012B491EFBD270470022F6E710B5DA
:1023300013460A4604461946FFF7F0FF204610BD33
:102340002DE9FE4F81EA030404F0004421F000412E
:1023500000944FF0000B23F0004350EA010402D038
:1023600052EA030404D10020014603B0BDE8F08F17
:10237000C3F30A54C1F30A552C44A4F2F334019474
:10238000A0FB0254C1F3130141F48011C3F3130302
:1023900043F4801301FB024400FB034E840A970AB6
:1023A00044EA815447EA8357A4FB076802958D0AE3
:1023B00005FB07854FEA932C04FB0C542705029D6F
:1023C0004FEA065847EA1637B5EB08056EEB070CDF
:1023D000870E920E47EA811742EA8312A7FB020199
:1023E000B6EB0B0164EB00042B0D43EA0C335E18D3
:1023F00044EB1C50DA465146E7FB0201C5F31304D7
:102400004FEA0B3343EA14534FEA0432019C43EA88
:102410000603A4F10C040294009CCDE900B400F082
:10242000CBF8A2E70EB5C10F80EAE0700844CA07F6
:10243000002140F233438DE80E000A460B4600F0BF
:10244000BBF803B000BD00F0004230F000400AD0FD
:10245000C10D01F56071C0F3160042EA0151C208D6
:1024600040071143704700200146704701F00043C8
:1024700030B421F0004150EA010206D00A0DA2F565
:102480006072C1F31301002A02DC30BC00207047E7
:10249000440F44EAC104C100E01830BC00EBC25054
:1024A00000F047B830B50B46014600202022012439
:1024B00009E021FA02F59D4205D303FA02F5491B12
:1024C00004FA02F52844151EA2F10102F1DC30BD28
:1024D0002DE9F05F0546002092469B468846064659
:1024E000814640241BE0284641464746224600F0EC
:1024F00018FA53465A46C01A914110D3114618464D
:10250000224600F0FFF92D1A67EB01084F462246DC
:102510000120002100F0F6F917EB00094E41201EC2
:10252000A4F10104DFDC484631462A464346BDE8B3
:10253000F09F0029A8BF7047401C490008BF20F049
:102540000100704710B4B0FA80FC00FA0CF050EAB9
:10255000010404BF10BC704749B1CCF1200421FA3A
:1025600004F411FA0CF118BF012121430843A3EB35
:102570000C01CB1D0106000A002BBEBF002010BCC1
:10258000704700EBC35010440029A4BF10BC704733
:10259000401C490008BF20F0010010BC704710B576
:1025A000002B08DA401C41F1000192185B411A43EC
:1025B00001D120F0010010BD2DE9F04D92469B465F
:1025C00011B1B1FA81F202E0B0FA80F22032904605
:1025D00000F098F904460F4640EA0A0041EA0B0170
:1025E00053465A46084303D120463946BDE8F08D8C
:1025F000114653EA010015D0C8F14002504600F0E0
:1026000090F905460E4650465946424600F07AF982
:10261000084301D0012000E00020054346EAE076AF
:102620002C4337430A984FEA4453A0EB08004FEA83
:10263000D4240A304FF0000244EA47544FEAD72529
:1026400002D500200146D1E7010510196941DDE9F5
:10265000084500196941BDE8F04DA0E72DE9FE4F9E
:10266000804681EA0300C00F0C46009021F0004133
:1026700023F00045B8EB0200A94105D240462146AF
:1026800090461C460B46024623F00040104304D1FE
:102690004046214603B0BDE8F08F270DC7F30A007E
:1026A000C3F30A510290401A0190402866DAC3F33E
:1026B000130040F4801B0098924620B10023D2EB17
:1026C000030A63EB0B0B01985946C0F140025046D8
:1026D00000F018F906460D4650465946019A00F09A
:1026E00030F910EB08006141002487EA115284EAB6
:1026F000E7731A433BD0009A3AB3019A012A4FEA92
:10270000075210DC001B61EB02014FF0004202EAAD
:102710000752CDE90042001C41F5801132462B469C
:10272000FFF74AFFB6E7001B61EB0201001C41F511
:10273000801300185B412018A2F5001747EB030136
:1027400040EAD570B6196D4111E06D084FEA3606C2
:1027500045EAC0754FEA0752001B61EB0201001CFD
:1027600041F5801149084FEA3000001951413246C5
:102770002B4603B0BDE8F04FFFF711BF00980122D0
:1027800040000023D0EB020263EBE0730098214687
:102790004FEAE074B8EB000061EB0401E9E783F075
:1027A00000435BE781F0004158E72DE9F04D81EAF5
:1027B000030404F0004B21F0004514464FF0000ADA
:1027C00023F0004150EA050220D054EA01021DD056
:1027D000C5F30A570246C5F31303C1F31300C1F34F
:1027E0000A5640F4801543F48013A7EB0608101B2B
:1027F000D64608F2FD3873EB050002D308F1010854
:1028000001E092185B41B8F1000F03DA00200146A5
:10281000BDE8F08D00204FF48011064684460EE09E
:10282000171B73EB050705D3121B63EB0503064368
:102830004CEA010C49084FEA300092185B4150EA1B
:102840000107EDD152EA030012D082EA040083EAC4
:102850000501084303D100224FF0004308E0101B9C
:10286000AB4102D20122002302E06FF001025310BB
:102870001AEB06004CEB085110EB0A0041EB0B0180
:10288000BDE8F04DFFF78BBEC1F30A52C1F313014F
:1028900040F2FF3341F480119A4202DA00200146EF
:1028A000704740F233439A42A2F2334202DC524272
:1028B00000F037B800F026B830B5002904DB4FF03F
:1028C0000044404264EB0101002B04DB4FF0004464
:1028D000524264EB0303994208BF904230BD0000AE
:1028E000064C074D06E0E06840F0010394E807005D
:1028F00098471034AC42F6D3FDF71EFC4C3200086A
:102900006C320008202A04DB203A00FA02F1002091
:1029100070479140C2F1200320FA03F3194390401D
:102920007047202A04DB203A21FA02F00021704788
:1029300021FA02F3D040C2F1200291400843194627
:102940007047202A06DBCB17203A41FA02F043EA0F
:10295000E07306E041FA02F3D040C2F12002914058
:1029600008431946704700000FB4054B10B503A982
:10297000044A029800F0C6F810BC5DF814FB000091
:102980003F1400085C00002002E008C8121F08C1C4
:10299000002AFAD170477047002001E001C1121FE0
:1029A000002AFBD1704700002DE9FF5FDDE902201E
:1029B000010DDDF838B0024310D10F9801244CA26C
:1029C000012808D0002100980F9BC0E90021C0E930
:1029D0000243BDE8FF9F6FEA0B01F4E7A1F2FF316C
:1029E00044F6105041430D140F9801280ED0A5EB6A
:1029F0000B00401C4FF000043E4EDFF8FC90B0F19D
:102A0000000AA04605DACAF1000717E0CBF1000082
:102A1000F0E7074612E0F80707D022463346404663
:102A20004946FFF78DFC80468946224633461046CC
:102A30001946FFF785FC04460E467F10002FEAD1A9
:102A4000DDE90201BAF1000F42464B4602DAFFF718
:102A500077FC01E0FFF7A9FE04460E460022274B53
:102A6000FFF72AFF03D84FF0FF30014607E00022AE
:102A7000234B20463146FFF7F1FDFFF705FF1024F9
:102A800009E0002C0ADB0A220023FFF721FD019B4D
:102A900030321A55641E50EA0102F2D1641C019AC8
:102AA000C4F1110314440F9A012A09D001220843EA
:102AB00001D15B450FDD4FF0000205F101050DE08E
:102AC000084303D1A3EB0B056D1E09E000204FF076
:102AD000110B0F9088E701DA00226D1E002A83D0C7
:102AE00000980F99C0E90231C0E9004571E7000084
:102AF00030000000000024400000F03F0000F043E0
:102B00000000E03F2DE9FF4F95B09B468946064601
:102B1000002512E2252878D10024761CF94A2746A0
:102B2000012105943378203B01FA03F0104202D0D2
:102B30000443761CF6E730782A2811D06FF02F0373
:102B40003078A0F13002092A16D8059A44F0020420
:102B500002EB820203EB42021044761C0590EFE781
:102B600059F8042B0592002A03DA504244F4005429
:102B7000059044F00204761C30782E2816D116F801
:102B8000010F44F004042A280DD06FF02F02307892
:102B9000A0F13003092B09D807EB870302EB4303AD
:102BA000C718761CF3E759F8047B761C30786C283C
:102BB0000FD006DC4C2817D068280DD06A2814D115
:102BC00004E0742810D07A280FD10DE044F40014EA
:102BD0000AE044F4801401E044F440147278824224
:102BE00002D1761C04F58014761C307866280BD050
:102BF00013DC582877D009DC002875D04528F6D09A
:102C00004628F4D047281AD19FE118E0632835D030
:102C1000642879D0652812D197E1702873D008DC38
:102C20006728F1D069286FD06E280DD06F2806D1A3
:102C3000B5E073282CD0752875D0782874D05A4602
:102C4000179990476D1C76E1C4F30250022809D011
:102C500003280DD0D9F8001004280DD00D6009F11B
:102C6000040968E1D9F80010EA17C1E90052F6E753
:102C7000D9F800100D80F2E70D70F0E719F8041B89
:102C80008DF8001000208DF80100EA46012003E0D5
:102C900059F804AB4FF0FF3061074FF0000102D448
:102CA0000DE008F101018846B9420FDA8045F8DBF2
:102CB0001AF808100029F4D108E008F1010188464B
:102CC0008142FADB1AF808100029F6D105985B4614
:102CD000A0EB080721463846179A00F09EFA2844D0
:102CE00000EB080507E04DE02BE10DE01AF8010BC1
:102CF0005A4617999047B8F10108F7D25B4621462A
:102D00003846179A14E142E00A220092C4F30252B4
:102D10004FF0000A022A08D059F804CB032A4FEAE0
:102D2000EC710AD00DE029E02AE009F1070121F059
:102D30000702F2E802C1914609E00FFA8CFC4FEA63
:102D4000EC71042A03D14FFA8CFC4FEAEC71002994
:102D500007DA0A460021DCF1000C61EB02012D22AA
:102D600002E0220504D52B228DF80420012203E085
:102D7000E20701D02022F7E7904653E00A2102E063
:102D800010220DE010214FF0000A00910BE01022FC
:102D90004FF0000A44F004040827009203E00822E0
:102DA0004FF0000A0092C4F30252022A05D059F8EB
:102DB00004CB0021032A08D009E009F1070121F022
:102DC0000702F2E802C1914605E01FFA8CFC042AD2
:102DD00001D10CF0FF0C4FF00008220722D570281B
:102DE00027D0009B83F0100353EA0A0309D15CEA61
:102DF000010206D030228DF804208DF80500022251
:102E00009046009B83F0080353EA0A030AD15CEA68
:102E1000010201D1620705D530228DF804204FF060
:102E200001087F1E582809D037A003900EA80290F1
:102E300013E040228DF804200122E1E737A0F4E7F7
:102E400053466046009AFFF743FB84460398825C32
:102E50000298A0F10100029002705CEA0100EFD13B
:102E6000029806A9A1EB000000F1200A600702D534
:102E700024F4803400E00127574502DDA7EB0A0067
:102E800000E0002000EB0A01009005984144A0EB0F
:102E900001000590E00306D45B462146179A059889
:102EA00000F0BBF90544002706E001A85A46C05DC2
:102EB000179990476D1C7F1C4745F6DBE0030CD546
:102EC0005B462146179A059800F0A7F9054404E0EF
:102ED00030205A46179990476D1C0099481E009063
:102EE0000029F5DC08E0029802995A460078491C4E
:102EF0000291179990476D1CBAF10001AAF1010ADD
:102F0000F1DC6BE1092801003031323334353637DA
:102F10003839616263646566000000003031323325
:102F200034353637383941424344454600000000C5
:102F300000F060F9054406F10106307800287FF4BE
:102F4000E9AD19B02846BDE8F08F620700D4062726
:102F500009F1070222F0070CFCE80223E14603F026
:102F600000485FEA080C02D00FF27C2C0DE05FEA0B
:102F7000045C02D50FF2742C07E05FEAC47C02D037
:102F80000FF26C2C01E0AFF2700C4FF0FF3823F021
:102F90000043CDF850C065280CD006DC452809D088
:102FA00046281DD047283ED13EE0662818D0672825
:102FB00039D139E00021112F01DB112000E0781C0C
:102FC000CDE9000106A90EA8FFF7EEFCDDE90F012F
:102FD0000E9A03910021009207F1010A04914EE03C
:102FE0004FF000400097CDE9011006A90EA8FFF7A9
:102FF000DBFCDDE90F0203920E9B11990022DDF844
:103000000CA00093049219B907F1010100EB010A29
:10301000B7EB0A0004D4C0F1FF3007F1010A0490B5
:10302000AAEB0700019046E0012F00DA01270021FA
:10303000112F01DD112000E03846CDE9000106A97D
:103040000EA8FFF7B1FCDDE90F010E9A03910021F4
:1030500004910092BA4621070CD40399514500DA35
:103060008A46BAF1010F05DD009AAAF10101515C0F
:10307000302908D0B84202DA10F1040F06DA012133
:10308000CDE9011017E0AAF10101E9E7002805DC0C
:10309000049901440491AAEB000102E0411C51454E
:1030A00000DD8A460499A0EB010000F101000190C7
:1030B0004FF000400290200704D40198504501DBF6
:1030C000CDF8048000208DF84F0002980DF14F07D5
:1030D000B0F1004F25D02B200E9002984FF002083F
:1030E00000280CDA404202902D200E9007E00A21C1
:1030F0000298FFF7D7F93031029007F8011DB8F1B7
:103100000001A8F10108F2DC02980028EFD1791E35
:103110000E980870307800F0200040F0450007F865
:10312000020D12A8A0EB070000F107081498007820
:1031300000B1012000EB0A01019801EBE071059854
:103140004144A0EB0100A0F101000590E00306D48A
:103150005B462146179A059800F05FF805441498DD
:10316000007820B15A461799904705F10105E00310
:1031700023D55B462146179A059800F04EF8054482
:103180001BE00498002807DBDDE90301884203DD2A
:103190000098405C179901E0179930205A469047F3
:1031A00004986D1C401C04900198401E019004D1AD
:1031B0002E205A46179990476D1CBAF10001AAF1CA
:1031C000010ADEDC05E017F8010B5A461799904713
:1031D0006D1CB8F10001A8F10108F4DC5B46214642
:1031E000179A0598A4E600002D0000002B000000AF
:1031F000200000002DE9F041044600251E46174638
:10320000880405D406E039462020B04705F10105C1
:10321000641EF8D52846BDE8F0812DE9F04104464A
:1032200000251E469046C80301D5302700E0202720
:10323000880405D506E041463846B04705F101054A
:10324000641EF8D52846BDE8F08100006C32000805
:10325000000000206000000088290008CC3200082F
:1032600060000020180400009829000800A24A0409
:103270000000000000000000010203040607080926
:10328000000000000102030401020304060708090C
:10329000020406080000000000000000000000001A
:1032A000000000000000000000000000000000001E
:1032B000000000000000000000000000010101000B
:0C32C00000000000000000000000000002
:0400000508000131BD
:00000001FF
